:02000002D0002C
:1040000000400D0018890D00000006000E0005019B
:0840100004017E050000000020
:04401800687D0D00B2
:10401C0009480A49884208B505D0094A824202D0AB
:10402C00121A03F028FE0748074A0021121A03F05F
:10403C0048FE014808BD00BFA8E2032020880D00FF
:10404C0078E3032078E30320F0E7032070B503F056
:10405C008FF8074C074BE41AA40800251E46A5420E
:10406C0004D056F8253098470135F8E770BD00BFED
:10407C0018880D00D8870D0000F044BA08B500F080
:10408C00BDFCBDE8084003F041B801F013BD01F0E0
:10409C0011BD01F017BD01F015BD0078B0FA80F02C
:1040AC004009704701230370704700002DE9F84F59
:1040BC00DFF848B00F46904699460024C6B24FF43C
:1040CC00167ABC4215DA58F8241059F824509AFB89
:1040DC00F5F509B19BFBF1F1A5F11402304603F0A3
:1040EC0057F9284602F09AFF304603F068F901347C
:1040FC00E7E73046BDE8F84F03F061B920A10700AF
:10410C0001F01ABA37B5044603F01CF92346284AC5
:10411C000094012102F036FF2378264A6178117051
:10412C00413B042B35D8DFE803F0030A131A2100B6
:10413C0000221046642102F093FF412205E0002288
:10414C001146642002F08CFF42221B4B1A7025E0B2
:10415C0064221046002102F083FF4322F5E764221B
:10416C001146002002F07CFF4422EEE76422134D3E
:10417C001146104602F074FF2146286803F0D2FD68
:10418C0003F0E0F80E4A2B68012102F0FBFE4522F9
:10419C00DBE700221146104602F062FF03F0D2F872
:1041AC00084A0023012103B0BDE8304002F0EABE0A
:1041BC008C7D0D007DE30320A8E3032098E303200E
:1041CC00A57D0D00B67D0D0008B50121062003F07C
:1041DC0062FB00221046FF2102F042FF084B094A05
:1041EC0003211320FFF762FF0021062003F053FB8D
:1041FC00002211461046BDE8084002F031BF00BF56
:10420C0000E30320F4E2032008B501210F2003F0A2
:10421C0042FBFFF7D9FF4FF47A7002F0FFFE00214A
:10422C000F20BDE8084003F036BB000008B50121A3
:10423C00082003F030FB00221146FF2002F010FF93
:10424C00084B094A03211320FFF730FF00210820F7
:10425C0003F021FB002211461046BDE8084002F095
:10426C00FFBE00BFE8E20320DCE2032010B5002112
:10427C000F4801F017F90E4801F0E2F8C728044680
:10428C000DD803F05FF80B4902F0FAFD03F05AF871
:10429C000A22214602F06CFEFFF7B6FF06E003F09F
:1042AC0051F8054902F0FFFDFFF7C0FF204610BD95
:1042BC00A9E30320D07D0D00DD7D0D0010B5044673
:1042CC0003F038FB082094FBF0F001F095F9074B54
:1042DC002340002BBEBF03F1FF3363F00703013310
:1042EC0040B2184100F0010010BD00BF0700008073
:1042FC002DE9F743082590FBF5F5193507460E46D1
:10430C0003F018FB284601F077F9214B3B40002BBA
:10431C00BEBF03F1FF3363F0070301334FF0010914
:10432C00804609FA03F496B903F00CF8E3B228EAD4
:10433C00030349460193174ACDF800802B4602F03F
:10434C0021FE03F0F7FA28EA0401C9B211E0012EAC
:10435C0012D148EA0404E4B202F0F4FF31462B46D1
:10436C000D4A0194CDF8008002F00CFE03F0E2FA45
:10437C002146284601F048F902F0E4FF00963B463E
:10438C00064A012102F0FEFD03B0BDE8F08300BF38
:10439C0007000080EE7D0D00207E0D00547E0D0088
:1043AC002DE9F04186B08E6807460C4602F0CAFF34
:1043BC0002AD80462146284601F077FC3B461D4A5B
:1043CC0000950121404602F0DDFD284601F004FC79
:1043DC00122E0CDC4FF00008C6F11306B0450CDAB7
:1043EC001549204601F094FC08F10108F6E7132E5C
:1043FC0003D01321204601F0B4FC02F0A3FF2146A8
:10440C000646284601F051FC3B460A4A009501211C
:10441C00304602F0B7FD284601F0DEFB03F08AFAC5
:10442C001320784310222146323001F0FDF806B0FB
:10443C00BDE8F081797E0D00EA850D001FB5134CA7
:10444C0094E8030008348DE8030094E8030002AB01
:10445C0083E803006A4602211320FFF727FE0021A0
:10446C00072003F018FA00221146104602F0F8FD5E
:10447C00642002F0D3FD0121072003F00CFA642123
:10448C000022084602F0ECFD04B010BD7C7D0D004E
:10449C001FB50446684601F008FC69462046FFF744
:1044AC007FFF684601F098FB012004B010BD08B5F1
:1044BC000121062003F0EFF9642002F0AFFD012189
:1044CC00072003F0E8F9642002F0A8FD0121082080
:1044DC0003F0E1F94FF4FA7002F0A0FD0021062080
:1044EC0003F0D9F9642002F099FD0021072003F0B4
:1044FC00D2F9642002F092FD00210820BDE80840AA
:10450C0003F0C9B910B5012096B002F099FDFF2255
:10451C001146104602F0A4FD0121402002F0B3FD2B
:10452C0002F010FF3E4902F0ABFC02F00BFF044618
:10453C0003F000FA01F070F80A2281B2204602F072
:10454C0017FD01F00BFF374A01460DA802F04EFB98
:10455C000DA801F0BFFF01F001FF334A01460DA881
:10456C0002F044FB0DA801F0B5FF00222F492E48A4
:10457C0001F0A0FE0DA801F0D2FD2D4903A801F019
:10458C0079FC03A908A801F075FC08A801F0B0FC9F
:10459C00044608A844B901F0C8FC16AA022322F864
:1045AC004E0D0321009406E001F0C1FC00230093A2
:1045BC000246102307210DA801F06AFD01F0CEFE82
:1045CC0000220DA901F037FF1A4800F035FD01213A
:1045DC00184800F05FFD0121132003F04BF9012175
:1045EC000F2003F047F90021052003F043F90121C6
:1045FC00062003F03FF90121072003F03BF90121CC
:10460C00082003F037F9FFF752FF0B4B0B4A06213A
:10461C001320FFF74BFD0A4B00221A7016B010BD89
:10462C00907E0D00ACE303209CE3032011410D00B0
:10463C0084E30320A9E30320A8E20320C0E20320C3
:10464C00A8E3032013460A46012102F09BBC00009C
:10465C002DE9F74307468846082590FBF5F503F04E
:10466C0069F9284600F0C8FF234B3B40002BBEBF26
:10467C0003F1FF3363F0070301334FF001090646E2
:10468C0009FA03F4B8F1000F18D102F05BFEE3B2A3
:10469C0026EA0303194A019349462B46009602F079
:1046AC0071FC03F047F926EA0401C9B2284600F070
:1046BC00ABFF02F047FE3A46114917E0B8F1010F83
:1046CC0016D13443E4B202F03DFE0C4A01942B4661
:1046DC004146009602F056FC03F02CF92146284680
:1046EC0000F092FF02F02EFE06493A46FFF7AAFFB1
:1046FC0003B0BDE8F08300BF07000080A37E0D006F
:10470C00D57E0D00EA7E0D0038B5014604460748FB
:10471C0000F068FE012105462046FFF799FF204670
:10472C000121FFF7E5FD284638BD00BFA9E30320B2
:10473C002DE9FF410121072003F0ADF8642100228F
:10474C00084602F08DFC00F047FF9A4D20262860A9
:10475C003146994800F0DCFC08B10136F8E702F06C
:10476C00F1FD32469549FFF76DFF3046FFF7A6FD88
:10477C00044608B302F0E6FD32469149FFF762FFAA
:10478C0002F0E0FD8F4902F08EFB31468A4800F0C2
:10479C00EDFC02F0D7FD8C4902F085FB02F0D2FD56
:1047AC008A4902F06DFB02F0CDFD0A22314602F07F
:1047BC00DFFB4EF65F240FE002F0C4FD3246844965
:1047CC00FFF740FFE8E000F007FF2B68C01AA0429B
:1047DC0008D8642002F022FC774800F0D7FD0028AE
:1047EC00F1D00AE00021072003F055F80022114611
:1047FC00104602F035FC0024D7E001216E4800F091
:10480C0051FE0446002800F0C080FFF717FE02F0AE
:10481C0099FD704902F047FB674800F0EBFC6648D5
:10482C0000F0B4FD044618B1642002F0F7FBF6E783
:10483C0002F088FD684902F036FB4EF65F275E48B1
:10484C0000F0A4FD48B900F0C7FE2B68C01AB842AE
:10485C00C8D8642002F0E2FBF1E70121564800F0D1
:10486C0021FE0746002800F08180FFF7E7FD02F0EB
:10487C0069FD584902F017FB4F4800F0FFFC4E4809
:10488C0000F084FD044618B1642002F0C7FBF6E783
:10489C0002F058FD514902F006FB4EF65F284648DF
:1048AC0000F074FD074648B900F096FE2B68C01A5C
:1048BC00404597D8642002F0B1FBF0E701213E4857
:1048CC0000F0F0FD0546002843D0FFF7B7FD02F0DD
:1048DC0039FD404902F0E7FA374800F013FD054670
:1048EC0020BBFFF771FC02F02DFD3D4902F0DBFA15
:1048FC0029463046FFF7ACFE01213046FFF7F8FCA5
:10490C003849684601F0AFF969463046FFF748FD73
:10491C00684601F061F92946072002F0BCFF2A46DF
:10492C002946284602F09CFB3C463EE0FFF77EFC05
:10493C0002F008FD2C4902F0A3FA02F003FD0A2252
:10494C00294602F015FB0021072002F0A4FF0022EB
:10495C0018E0FFF76BFC02F0F5FC244902F0A3FA17
:10496C002946072002F097FF2A460BE0FFF75EFC72
:10497C0002F0E8FC1E4902F096FA3946072002F0D4
:10498C008AFF3A46114610460DE0FFF74FFC02F045
:10499C00D9FC184902F087FA2146072002F07BFF68
:1049AC0022462146204602F05BFB204604B0BDE8BF
:1049BC00F08100BFA4E30320A9E3032041800D0094
:1049CC00047F0D00167F0D00237F0D00327F0D003C
:1049DC004B7F0D00617F0D006F7F0D00877F0D00F9
:1049EC00A37F0D00B87F0D00C17F0D00E37F0D008C
:1049FC0002800D0022800D00FFF79ABE30B5002119
:104A0C0087B00846FF2202F02BFB4E4800F0BEFC9C
:104A1C0030B1FF221146104602F022FBFFF726FCB4
:104A2C00052002F051FF0128044647D1464D2B7852
:104A3C00002B43D14FF4967002F0F0FA052002F0EF
:104A4C0043FF10B9FFF774FE07E0FFF7DDFB2C7096
:104A5C0003E0FFF7D1FF00232B703C4C00F0BCFDB2
:104A6C002368C01AB0F57A7F23D300F0B5FD20601F
:104A7C0001F074FC01F0FCFC354C0546237888B140
:104A8C0033B902F05FFC334902F00DFA01232370B5
:104A9C00314932480B7801330B700122002301F0AD
:104AAC00A7FB06E02BB102F04DFC2D4902F0FBF9FF
:104ABC002570642002F0B2FA07B030BD052002F078
:104ACC0003FF20B9204B1A780AB11870C5E7254DA1
:104ADC002B78002BC1D0244C02F034FC22782B789C
:104AEC0000920121214A02F04DFA2A78413A2346DC
:104AFC00042AB0D801A151F822F000BF5F4A0D0082
:104B0C001D4B0D00254B0D00294B0D00334B0D009B
:104B1C002078FFF7F9FD9EE7002100E001211878CD
:104B2C00FFF7E6FB97E7124B2478196802A801F00F
:104B3C009AF802A92046FFF7ABFC02A801F04CF84A
:104B4C0089E700BFA9E303207CE30320B4E303203F
:104B5C00B8E303207A800D00D8E20320ACE30320F5
:104B6C008F800D00A8E303207DE3032062800D00FD
:104B7C0098E303202DE9F04399B000F0DDFC314BB4
:104B8C00314D324FDFF8EC8000244FF6FF721C7071
:104B9C005C809A80032000F011FF284600F092F907
:104BAC003A462B49284602F0F9FE2A492A4D40463E
:104BBC0001F04BFA414609A801F05CF9274B2C6037
:104BCC00D3F800906C6013AE49460EA801F03DFA84
:104BDC0009A9304601F04EF9CDF80890204BDFF8CA
:104BEC009890019328460EAB009604221D4901F0C3
:104BFC004BFF3A464946284602F0D0FE1A4D1B4957
:104C0C0004A801F022FA414609A801F033F904A9DD
:104C1C002C606C600EA801F02DF909A9304601F04A
:104C2C0029F90EAB284602940194009610221049E3
:104C3C0001F02AFF3A464946284602F0AFFE19B069
:104C4C00BDE8F0837EE30320A9E3032078E303208F
:104C5C00E94E0D00A7800D009CE303200CE303201C
:104C6C0011410D00CC800D00ACE30320D4800D006D
:104C7C00F9800D0084E30320E1640D000B124170F8
:104C8C0083700B14090EC3700171704742788378DE
:104C9C001344C27803F580731344027913444279A8
:104CAC00807913441844704770B504460C20FFF704
:104CBC00EEF90025267866710146A5712046FFF7AE
:104CCC00E5FF55230B70AA234B7001238B7063787F
:104CDC000B71A3784B71E3788B7188722379CD704B
:104CEC00000AC872CB710E724D72084670BD00007E
:104CFC0028B1122903D8034B33F8110070474FF633
:104D0C00FF70704728810D00037C427C03EB02226C
:104D1C00C37B807B03EB022300EB0320704710B5B1
:104D2C000B4600205C1AA24203DD13F8014B204411
:104D3C00F8E710BD914270B50C4615461E4601D0E1
:104D4C00994201D1002070BD9DF8143053B302F08C
:104D5C00F9FA154902F094F802F0F4FA049902F009
:104D6C008FF802F0EFFA114902F08AF802F0EAFA31
:104D7C001022294602F0CEF802F0E4FA0C4902F0B7
:104D8C007FF802F0DFFA1022314602F0C3F802F08D
:104D9C00D9FA084902F074F802F0D4FA102221462C
:104DAC0002F0BAF8012070BD4E810D00EA850D00AD
:104DBC006D810D0072810D00F7B53A4B0C460978E8
:104DCC0000935523164601921A460546FFF7B2FF8B
:104DDC00354B61780093AA231A4601962846FFF7B3
:104DEC00A9FF324BA178009301231A46019628465D
:104DFC00FFF7A0FF2E4BE178009300231A46019693
:104E0C002846FFF797FF2B4B217A00933022312352
:104E1C0001962846FFF78EFF237A302B0CBF012317
:104E2C0000232B75244B617A009300231A460196BC
:104E3C002846FFF77FFF21460A222846FFF76FFF1F
:104E4C001E4AA17A0092C3B2C0F307271A460196F4
:104E5C002846FFF76FFF1A4BE17A00933A463B4620
:104E6C0001962846FFF766FF21796079FFF740FF2E
:104E7C0028802379AB736379EB73A3792B74E37973
:104E8C006B74237AAB74637AEB74013C6B1C05F185
:104E9C000D0214F8011F03F8011F9342F9D12846A3
:104EAC0003B0F0BD77810D008C810D00A1810D0048
:104EBC00B5810D00C9810D00D4810D00E0810D007C
:104ECC00ED810D0010B5044602F0F2FA4FF41651C4
:104EDC0002F0E4FA00232370204610BD10B50446FE
:104EEC0002F0E6FA03681B68984702F0E1FA02F058
:104EFC00D8FA204610BD00001FB50A466846054981
:104F0C0000F0F0FD02F01EFA694601F0B9FF05B0A1
:104F1C005DF804FBFB810D00F8B50D4617460646FF
:104F2C0002F010FA0D4901F0ABFF2C460123621B75
:104F3C0097420CDD23B902F005FA094901F0A0FFF4
:104F4C0014F8011B3046FFF7D7FF0023EFE702F000
:104F5C00F9F90249BDE8F84001F092BF00820D005A
:104F6C00EA850D0070B504460D46164602F0A0FA0F
:104F7C0003683246DB682946984723787BB102F0F8
:104F8C00E1F9074901F07CFF324629462046FFF73C
:104F9C00C3FF02F0D7F9BDE8704001F078BF70BDD7
:104FAC0002820D00F8B5054602F082FA03685B69CF
:104FBC009847C6B2552EF7D10C20FFF768F806704B
:104FCC000446064600F10B0702F072FA03681B69EF
:104FDC00984718B90A2002F021F8F5E702F068FAB0
:104FEC0003685B69984706F8010FB742ECD11620AD
:104FFC00FFF74BF8064618B12A782146FFF7DCFE7E
:10500C000121204602F0CFFC2B788BB102F09AF9EB
:10501C00084901F035FF0C22B11C2846FFF77CFF34
:10502C0002F090F901F033FF02F08CF901F02FFF40
:10503C003046F8BD0F820D00F8B50378054623B154
:10504C0002F080F9124901F02EFF0720FFF71DF83E
:10505C000127002343708370C370037107700446EB
:10506C00FFF722FE07210646204602F09CFC314643
:10507C000C222846FFF776FF2846FFF793FF1621F0
:10508C0002F091FC39463046BDE8F84002F08BBC8A
:10509C001C820D0070B5054607200E46FEF7F5FF85
:1050AC001223037004462B783EB123B102F04AF967
:1050BC00154901F0F8FE012306E023B102F042F994
:1050CC00124901F0F0FE002363700023A370E3701B
:1050DC0023712046FFF7E8FD07210646204602F023
:1050EC0062FC0C2231462846FFF73CFF2846FFF7AE
:1050FC0059FF1621047D02F056FC3046012102F0C6
:10510C0052FC204670BD00BF33820D0040820D0062
:10511C0070B5037804460E4623B102F013F9124918
:10512C0001F0C1FE0720FEF7B0FF212303703146CA
:10513C000546FFF7A3FDFFF7B7FD072106462846F6
:10514C0002F031FC0C2231462046FFF70BFF012107
:10515C00304602F028FC2046FFF724FF047D162180
:10516C0002F021FC204670BD7A820D0070B50378E8
:10517C0004460E4623B102F0E5F81D4901F093FEFA
:10518C000720FEF782FF2223037031460546FFF706
:10519C0075FDFFF789FD07210646284602F003FC42
:1051AC000C2231462046FFF7DDFE0121304602F08D
:1051BC00FAFB2046FFF7F6FE037D7BB9038841F22C
:1051CC00090293420CD041F2030293420AD041F2FD
:1051DC000504A3420CBF0324002404E0002402E0D5
:1051EC00012400E00224162102F0DDFB204670BDF4
:1051FC008E820D0070B50378044623B102F0A2F83C
:10520C001D4901F050FE0720FEF73FFF23230370DA
:10521C000646FFF749FD07210546304602F0C3FB61
:10522C000C2220462946FFF79DFE0121284602F05C
:10523C00BAFB2046FFF7B6FE0546FFF765FD2B7D52
:10524C00C728D4BF032400245BB92B8841F20D027C
:10525C00934205D041F20C02934208BF022400E0B5
:10526C0001242846162102F09EFB2B7D002B0CBF3F
:10527C002046002070BD00BFA0820D0070B50378E1
:10528C00044623B102F05EF81D4901F00CFE072024
:10529C00FEF7FBFE242303700646FFF705FD0721EE
:1052AC000546304602F07FFB0C2220462946FFF7CC
:1052BC0059FE0121284602F076FB2046FFF772FECC
:1052CC000546FFF721FD2B7DC728D4BF03240024FE
:1052DC005BB92B8841F20D02934205D041F20C02CE
:1052EC00934208BF022400E001242846162102F054
:1052FC005AFB2B7D002B0CBF2046002070BD00BF3D
:10530C00AE820D0070B50378044623B102F01AF892
:10531C001D4901F0C8FD0720FEF7B7FE25230370D9
:10532C000646FFF7C1FC07210546304602F03BFB61
:10533C000C2220462946FFF715FE0121284602F0D3
:10534C0032FB2046FFF72EFE0546FFF7DDFC2B7DDA
:10535C00C728D4BF032400245BB92B8841F20D026B
:10536C00934205D041F20C02934208BF022400E0A4
:10537C0001242846162102F016FB2B7D002B0CBFB6
:10538C002046002070BD00BFBC820D0070B50546E4
:10539C000720FEF77AFE262303700646FFF784FCEF
:1053AC0007210446304602F0FEFA284621460C221C
:1053BC00FFF7D8FD2846FFF7F5FDC17B837B427CC8
:1053CC000B44017C0B44DA424FF016010CBF012553
:1053DC00002502F0E8FA2046012102F0E4FA284602
:1053EC0070BD000070B5037804460E4623B101F081
:1053FC00A9FF124901F057FD0720FEF746FE402396
:10540C00037031460546FFF739FCFFF74DFC0721C9
:10541C000646284602F0C7FA0C2231462046FFF712
:10542C00A1FD2046FFF7BEFD1621047D02F0BBFA5C
:10543C003046012102F0B7FA204670BDCA820D0039
:10544C0070B50378044623B101F07CFF144901F0D8
:10545C002AFD0720FEF719FE512303700646FFF7BD
:10546C0023FC07210546304602F09DFA0C22294602
:10547C002046FFF777FD2046FFF794FD0646FFF721
:10548C0043FC16210446304602F08DFA28460121D1
:10549C0002F089FAC82C2046A8BFC82070BD00BFF6
:1054AC00F9820D0070B5037806460D4623B101F064
:1054BC0049FF174901F0F7FC0720FEF7E6FD6023D2
:1054CC000446037035B10123437000238370C3700D
:1054DC00037103E045708570C57005712046FFF7B8
:1054EC00E3FB07210546204602F05DFA0C22294613
:1054FC003046FFF737FD3046FFF754FD1621047D8B
:10550C0002F051FA2846012102F04DFA204670BDF6
:10551C000B830D0000F010B808B5024B1B689B689C
:10552C00019308BD6802030008B5024B1B68DB68D9
:10553C00019308BD6802030008B5024B1B681B6889
:10554C00019308BD2C02030008B5024B1B685B6875
:10555C00019308BD2C02030008B5024B1B689B6825
:10556C00019308BD2C02030008B5024B1B68DB68D5
:10557C00019308BD2C02030008B5024B1B681B6984
:10558C00019308BD2C02030008B5024B1B685B6934
:10559C00019308BD2C02030008B5024B1B68DB69A4
:1055AC00019308BD3002030008B5024B1B681B6A4F
:1055BC00019308BD3002030008B5024B1B685B6801
:1055CC00019308BD1802030008B5024B1B68DB6889
:1055DC00019308BD1802030008B5024B1B685B69F8
:1055EC00019308BD1802030008B5024B1B689B6AA7
:1055FC00019308BD1802030008B5024B1B68DB6A57
:10560C00019308BD1802030008B5024B1B681B6B05
:10561C00019308BD1802030008B5024B1B685B6BB5
:10562C00019308BD1802030008B5024B1B689B6C64
:10563C00019308BD1802030008B5024B1B689B6858
:10564C00019308BD7402030008B5024B1B681B6D67
:10565C00019308BD7402030008B5024B1B689B6DD7
:10566C00019308BD7402030008B5024B1B681B6E46
:10567C00019308BD7402030008B5034B1B68D3F8F3
:10568C009830019308BD00007402030008B5034B69
:10569C001B68D3F8A830019308BD00007402030006
:1056AC0008B5034B1B68D3F8B430019308BD000058
:1056BC007402030008B5034B1B68D3F8D830019370
:1056CC0008BD00007402030008B5034B1B68D3F837
:1056DC00DC30019308BD00007402030008B5034BD5
:1056EC001B68D3F8EC30019308BD00007402030072
:1056FC0008B5034B1B68D3F8F030019308BD0000CC
:10570C007402030008B5034B1B68D3F800310193F6
:10571C0008BD00007402030008B5034B1B68D3F8E6
:10572C000431019308BD00007402030008B5024B5C
:10573C001B689B68019308BD4802030008B5024B27
:10574C001B681B69019308BD4802030008B5024B96
:10575C001B685B69019308BD4802030008B5024B46
:10576C001B681B6B019308BD4802030008B5024B74
:10577C001B685B6C019308BD4802030008B5024B23
:10578C001B68DB6C019308BD4802030008B5024B93
:10579C001B685B6D019308BD4802030008B5024B02
:1057AC001B685B69019308BD6402030008B5024BDA
:1057BC001B681B68019308BD3C02030008B5024B33
:1057CC001B689B68019308BD3C02030008B5024BA3
:1057DC001B68DB68019308BD3C02030008B5024B53
:1057EC001B681B69019308BD3C02030008B5024B02
:1057FC001B685B69019308BD3C02030008B5024BB2
:10580C001B689B69019308BD3C02030008B5024B61
:10581C001B68DB69019308BD3C02030008B5024B11
:10582C001B681B6A019308BD3C02030008B5024BC0
:10583C001B689B6A019308BD3C02030008B5024B30
:10584C001B68DB6A019308BD3C02030008B5024BE0
:10585C001B681B6A019308BD2802030008B5024BA4
:10586C001B685B6A019308BD2802030008B5024B54
:10587C001B689B6A019308BD2802030008B5024B04
:10588C001B68DB6A019308BD2802030008B5024BB4
:10589C001B681B6B019308BD2802030008B5024B63
:1058AC001B685B6B019308BD2802030008B5024B13
:1058BC001B681B6C019308BD2802030008B5024B42
:1058CC001B681B68019308BD2402030008B5024B3A
:1058DC001B685B68019308BD2402030008B5024BEA
:1058EC001B681B68019308BD4C02030008B5024BF2
:1058FC001B681B69019308BD4C02030008B5024BE1
:10590C001B685B69019308BD4C02030008B5024B90
:10591C001B689B69019308BD4C02030008B5024B40
:10592C001B68DB69019308BD4C02030008B5024BF0
:10593C001B681B6A019308BD4C02030008B5024B9F
:10594C001B685B68019308BD6002030008B5024B3D
:10595C001B689B68019308BD6002030008B5024BED
:10596C001B68DB68019308BD6002030008B5024B9D
:10597C001B681B69019308BD6002030008B5024B4C
:10598C001B689B69019308BD6002030008B5024BBC
:10599C001B68DB69019308BD6002030008B5024B6C
:1059AC001B685B6B019308BD6002030008B5024BDA
:1059BC001B681B6D019308BD6002030008B5024B08
:1059CC001B685B68019308BD2002030008B5024BFD
:1059DC001B685B69019308BD2002030008B5034BEB
:1059EC001B68D3F88830019308BD00002002030027
:1059FC0008B5034B1B68D3F89430019308BD000025
:105A0C002002030008B5024B1B685B68019308BDBC
:105A1C004002030008B5024B1B689B68019308BD4C
:105A2C004002030008B5024B1B68DB68019308BDFC
:105A3C004002030008B5024B1B681B69019308BDAB
:105A4C004002030008B5024B1B685B69019308BD5B
:105A5C004002030008B5024B1B689B69019308BD0B
:105A6C004002030008B5024B1B68DB69019308BDBB
:105A7C004002030008B5024B1B681B6A019308BD6A
:105A8C004002030008B5024B1B681B6B019308BD59
:105A9C004002030008B5024B1B685B6B019308BD09
:105AAC004002030008B5024B1B68DB6B019308BD79
:105ABC004402030008B5024B1B681B68019308BD28
:105ACC001C02030008B5024B1B685B68019308BD00
:105ADC001C02030008B5024B1B689B68019308BDB0
:105AEC001C02030008B5024B1B68DB68019308BD60
:105AFC001C02030008B5024B1B685B6A019308BDCE
:105B0C001C020300002211464068FFF7B3BF0022BD
:105B1C0011464068FFF7BEBF00224068FFF7B2BFD6
:105B2C00002281F001014068FFF79CBF00231A4658
:105B3C0019464068FFF78EBF00231A461946406885
:105B4C00FFF780BF002211464068FFF773BF0022A9
:105B5C0011464068FFF75EBF002202214068FFF744
:105B6C0061BF00231A464068FFF74CBF024B03226B
:105B7C005A60024A1A607047BCE3032028830D0068
:105B8C00704710B51021044601F00DFF204610BDE2
:105B9C0070B5084B0360044600250E4640F80C5FB8
:105BAC00FFF7DCFD30462671FFF7F6FCA5602046BA
:105BBC0070BD00BF5C830D000079FFF7F5BC0000E1
:105BCC00044B00204FF6FF72187058809A80FFF734
:105BDC00F5BE00BFC4E3032010B504460068FFF710
:105BEC0071FF204610BD10B50446006808B1FFF7E0
:105BFC0069FF00232360A360636010BD38B50446C1
:105C0C000D4600680131FFF765FF10B184E82100F3
:105C1C00012038BD10B50368044613B143688B42AC
:105C2C0007D22046FFF7EAFF20B1A3680BB9226820
:105C3C001370012010BD70B50E4611460446154672
:105C4C00FFF7E8FF18B92046FFF7CDFF09E02A4619
:105C5C003146A560206802F00EF82268A368002186
:105C6C00D154204670BD38B5002304460360436010
:105C7C00836003730D4639B1084602F05BF8294680
:105C8C0002462046FFF7D7FF204638BD884210B5A4
:105C9C000B46044607D0096819B19A68FFF7CBFF89
:105CAC0001E0FFF7A0FF204610BD10B5002304460D
:105CBC000360436083600373FFF7E8FF204610BD69
:105CCC0038B505460C4641B1084602F033F821467A
:105CDC0002462846FFF7AFFF01E0FFF784FF284696
:105CEC0038BD70B504460E4609B9002070BD6AB1C6
:105CFC008368D5182946FFF78DFF0028F5D020685A
:105D0C00A3683146184402F00DF8A560012070BD5F
:105D1C0038B505460C46084641B102F00BF8214651
:105D2C0002462846BDE83840FFF7DBBF38BD38B522
:105D3C0004460846A3688B4211D982B111448B42A8
:105D4C0038BF1A1A25689B1A1118A3601A1A29440D
:105D5C00284401F09BFF2268A3680021D1542046FF
:105D6C0038BD8268521AFFF7E2BF704700207047B7
:105D7C0070470020704770470020704710B5142101
:105D8C00044601F010FE204610BD10B51421044647
:105D9C0001F009FE204610BD10B51421044601F097
:105DAC0002FE204610BDFEF774B9FEF772B9FEF77D
:105DBC0070B9000008B50A20024A0021FFF7EEFD79
:105DCC0008BD00BFD5550D0010B5036804469B688F
:105DDC009847A368013BA3602BB923682046DB6876
:105DEC00BDE81040184710BDA0F13003DAB2092A03
:105DFC0001D818467047A0F16103052B01D857381C
:105E0C007047A0F14103052B94BF37384FF0FF309A
:105E1C007047000010B500230370044B044618684B
:105E2C00FFF7ACFC01232370204610BDD8E3032000
:105E3C0010B5037804461BB1024B1868FFF7A6FC9B
:105E4C00204610BDD8E3032008B582798B799A429D
:105E5C0006D1062201F000FFB0FA80F0400908BD1F
:105E6C00002008BD10B514220446002101F029FFC2
:105E7C00204610BD10B5034601F1140251F8044B35
:105E8C0043F8044B9142F9D110BD70B50C46054650
:105E9C001646FFF7E7FF2CB910222146284601F0E1
:105EAC0010FF16E0012E09D12B4604F1100254F814
:105EBC00041B43F8041B9442F9D108E06A1E0F231B
:105ECC00E15C02F8011F013BDBB2FF2BF8D101238F
:105EDC002B74284670BD38B5044615461A46FFF794
:105EEC00D4FF257301232D0A65732374204638BD16
:105EFC00037C13F0FD0F14BF0120002070471FB569
:105F0C000446FFF7F5FF08B9208809E010220021AC
:105F1C00684601F0D6FE10226946204601F09CFE30
:105F2C00003018BF012004B010BD008870477047C6
:105F3C0010B5034601F1140251F8044B43F8044B1D
:105F4C009142F9D110BD10B551B1034601F11002C7
:105F5C0051F8044B43F8044B9142F9D101230374DB
:105F6C0010BD10B50446FFF7C3FF28B90888238875
:105F7C001B1A5842584110BD1022204601F06CFEED
:105F8C00B0FA80F0400910BDF7B505460E4619B9B8
:105F9C00102201F096FE51E02421304601F0D2FE91
:105FAC00042802D0002710243BE03078FFF71CFFB8
:105FBC00041E47DB7078FFF717FF002842DB40EA2E
:105FCC0004108DF80400B078FFF70EFF041E39DBC7
:105FDC00F078FFF709FF002834DB40EA04109DF845
:105FEC000430C0B240EA03202880002327E02CB301
:105FFC00F05DFFF7F9FE030612D4013C00012855B1
:10600C002421304601F09EFE0137874208D2F05D14
:10601C00FFF7EAFE40B20028A2BF2B5D18432855BB
:10602C0001372421304601F08DFE8742DFD32C440A
:10603C000023A54202D004F8013DFAE701232B749A
:10604C0003B0F0BD00232B80CFE738B504460D46D6
:10605C00FFF708FF20462946FFF796FF204638BD7C
:10606C00F0B58BB10024E51C8D420FD8661C055D84
:10607C00875D974205D12E44B14207D31C60681C42
:10608C00F0BD01352C44EEE71846F0BD0020F0BD04
:10609C002DE9F74304460E461D461746002A3AD012
:1060AC000A4601AB016AFFF7DBFF9DF82830226A34
:1060BC0003BBF8B1961C2E44361A1F2E2BD8DDF8D4
:1060CC00048008F10209C8EB0202121A00EB080165
:1060DC0005EB090092B22144204401F0D7FD6B1C62
:1060EC0004F808302A46394604EB090001F0C3FDD8
:1060FC00266210E0901C2B181F2B0CD86B1CA35481
:10610C00224420623946567020442A4601F0B3FDE1
:10611C00226A2A442262206A03B0BDE8F0831FB5CC
:10612C000446034600F11F02002003F8010B9342C2
:10613C004FF00001F9D104AA062302F8013D012316
:10614C002162009120461946FFF7A2FF204604B0B9
:10615C0010BD73B50A460E4601AB016A0446FFF743
:10616C007FFF054678B10198226A2918121A521B32
:10617C002144204401F07FFD236A5D1B25623146DA
:10618C002046FFF7E6FF02B070BD000038B50025D1
:10619C004FF6FF73044643800E22294605700571A5
:1061AC00063001F08EFD04F11400FFF75BFE04F1E4
:1061BC002800FFF757FE044904F13C00FFF753FD9C
:1061CC00E5642565204638BD0C860D0010B5836945
:1061DC00C26903EBC2029342184606D004682488B5
:1061EC008C4203F10803F6D110BD002010BD000055
:1061FC002DE9F34180461F460E4669B362B3F42A7B
:10620C00056828BFF42214462A78A2B12B79980786
:10621C0007D500232246A889FFF742FA002802DAA4
:10622C0043E06FF07700D8F800502B79DA0618D5D8
:10623C00012F23D115E068884FF6FF7398420DD0DB
:10624C002B79590723D5012F21D0A98900922346F8
:10625C003246FFF739FA28E0154826E06FF0D100F6
:10626C0023E09A0621D5022F1FD0A88900232246AD
:10627C00314602B0BDE8F041FFF74EBAA8890023C1
:10628C002246314602B0BDE8F041FFF73BBA1B078E
:10629C0001D5022F02D16FF0770006E00023A98907
:1062AC00009332462346FFF705FA02B0BDE8F081B1
:1062BC00F2FEFFFF0368D9641A65704710B50A68CF
:1062CC0052F8023F03605368436010BD1FB502686B
:1062DC000B6812881B889A420C460CD10146684602
:1062EC00FFF7ECFF214602A8FFF7E8FF02A968467A
:1062FC00FFF7AAFD00B9002004B010BD10B504468C
:10630C003420FDF7C2FE014668B1002303604360F0
:10631C008360C360036143618361C3610362436251
:10632C008362C3620363216019B90A4A0A20FFF72A
:10633C0035FB0020FFF780F920B1064A00210A2026
:10634C00FFF72CFB002221680348FFF7D1F9204608
:10635C0010BD00BFD5550D0041670D0010B50A4C9E
:10636C002368DB070ED42046FDF797FE50B1074893
:10637C00FFF7C4FF2046FDF795FE054A0549034883
:10638C0001F00CFB014810BDD0E30320CCE303204B
:10639C0078E3032055650D0070B50368093B012BAC
:1063AC008AB004460E4619D8FFF7D8FFA1880068BA
:1063BC00FFF70CFF024658B920230293084B0390B9
:1063CC00009302AA034607493220FFF7EFFA05E0D3
:1063DC00F56C1DB1336DE1682069A8470AB070BD3A
:1063EC0012840D00C8830D00084609B90A4601E065
:1063FC00096A0022FFF728B910B50C4611B90A46F4
:10640C00084606E001212046FFF7A3FE216A002280
:10641C002046BDE81040FFF71FB913B501A8FFF7E0
:10642C00F9FC0020FFF720F9044601A8FFF700FD56
:10643C00204602B010BD73B505460C4601A81646A1
:10644C00FFF7E8FC21462846FFF7CEFF002808DBC3
:10645C0031462846FFF7D0FF002802DB2846FFF71D
:10646C00DCFF044601A8FFF7E3FC204602B070BD38
:10647C000368D8690028D4BF0020012070470B683E
:10648C00036013B15A6801325A60704710B551F865
:10649C00043B044640F8043BFFF7F1FF23680BB9BB
:1064AC00FFF788FC204610BD10B551F8043B04469C
:1064BC0040F8043BFFF7E3FF204610BD10B504463F
:1064CC00006828B14368013B43600BB9FFF77CFCC3
:1064DC00204610BD10B504460430FFF7EFFF2046F0
:1064EC0010BD70B504684368054604EBC306A642AC
:1064FC0004D0201DFFF7E2FF0834F8E72868FFF707
:10650C00E1FA284670BD70B504684368054604EB93
:10651C00C306A64204D0201DFFF7D0FF0834F8E7CD
:10652C002868FFF7CFFA284670BD10B5046904F14E
:10653C001800FFF7E8FF04F10C00FFF7D2FF20462C
:10654C00BDE81040FDF7A5BDF8B504680746C4B119
:10655C00A569E36905EBC306AE4204D0281DFFF71D
:10656C00ADFF0835F8E7A069FFF7ACFA04F10C00B1
:10657C00FFF7C9FF2046FFF7B4FF3421204601F096
:10658C0012FA3846F8BD000073B500250560456069
:10659C0006462420FDF779FD044678B103464FF6F4
:1065AC00FF7223F8022BC0F802505D608572C57231
:1065BC00C560056145618561C561056200231420D4
:1065CC000193FDF762FD034628B10122426082600F
:1065DC00084A0260046102A8726840F8042D7360D6
:1065EC003460FFF76BFF33680BB9FFF7E3FB304602
:1065FC0002B070BDA4830D00884270B515461AD93F
:10660C00904219D2A1F10806511A0439151F4418E9
:10661C002B1F9E4225D0042C07D055F8043C44F87F
:10662C00043C29462046FFF72AFF2846FFF746FF81
:10663C00083D083CECE714D00C1D061D231F9D42A1
:10664C000FD0042E07D054F8043C46F8043C2146E5
:10665C003046FFF714FF2046FFF730FF08340836AA
:10666C00ECE770BD2DE9F0410468436805468846A7
:10667C0004EBC307A74218D041462046FFF726FE7D
:10668C00064608B90834F5E78CB1201DFFF716FF54
:10669C002B686A6804F1080103EBC2022046FFF77D
:1066AC00ABFF6B68013B6B6002E0002600E0264606
:1066BC003046BDE8F081F7B5044651F8043B476815
:1066CC00009301A8FFF7DBFE6668A3689E4214DB0B
:1066DC000136002E0BDDF000FFF7ECF9054618B380
:1066EC0094E8060001EBC202FFF786FF00E00025EC
:1066FC002068FFF7E7F92560A6602668626806EB5C
:10670C00C70506EBC202294605F10800FFF774FF26
:10671C0035B1009B46F8373001A9281DFFF7AFFEB5
:10672C00636801336360012501A8FFF7C7FE2846A3
:10673C0003B0F0BD2DE9F04104468EB003A80D4620
:10674C00FFF768FB2368032B02D0042B42D087E0B1
:10675C0004A8FFF719FF049B22891A806268049928
:10676C0052F8083FC1F802305368C1F8063007A848
:10677C00049B069305A9FFF782FE06A905F11800F4
:10678C00FFF799FF044607A8FFF798FE202306930E
:10679C0074B9364B009306AA234635490794322028
:1067AC00FFF704F9049B21461888FEF765FF0DE0FE
:1067BC00304A0092002306AA2D4907930120FFF7C7
:1067CC00F5F86B6A13B1E96A04A8984705A8FFF7B6
:1067DC0075FE45E021892846FFF7F8FC074600289E
:1067EC003ED00468A369E1694FF6FF72228003EB87
:1067FC00C101994203D053F8080B4280F9E7E668CF
:10680C00236906EBC308B04504D0301DFFF756FED4
:10681C000836F8E700232361A669E36906EBC30891
:10682C00B04504D0301DFFF749FE0836F8E70023C9
:10683C00E361A372E372AB6A13B1296B38469847D4
:10684C0020230D4A06930092002309490793012047
:10685C0006AAFFF7ABF8394605F11800FFF702FF5F
:10686C0003A8FFF7E5FA0EB0BDE8F0812A840D000D
:10687C00C8830D0050840D006D840D008842F8B55E
:10688C0006460C46154614D9904213D2A2F10805BF
:10689C006C1AA1F108070444AF4218D01CB1294668
:1068AC002046FFF701FE281DFFF708FE083D083CB7
:1068BC00F2E70CD0AC420AD01EB121463046FFF7AD
:1068CC00F3FD201DFFF7FAFD08340836F2E7F8BD9A
:1068DC0070B50E1E05460BDDF000FFF7EBF8044615
:1068EC0070B195E8060001EBC202FFF7C7FF00E0AC
:1068FC0000242868FFF7E6F82C60AE60012070BD1C
:10690C0070BD73B5044645686846FFF7CDFD6168F8
:10691C00A368994205DB01312046FFF7D9FF0646F3
:10692C0098B12368626803EBC50503EBC2022946E4
:10693C0005F10800FFF7A2FF1DB169462846FFF7D5
:10694C00B3FD636801336360012601A8FFF7B6FD50
:10695C00304602B070BD8842F8B506460C46154666
:10696C0014D9904213D2A2F108056C1AA1F10807B0
:10697C000444AF4218D01CB129462046FFF786FDCF
:10698C00281DFFF79BFD083D083CF2E70CD0AC42FC
:10699C000AD01EB121463046FFF778FD201DFFF7C7
:1069AC008DFD08340836F2E7F8BD70B50E1E0546AD
:1069BC000BDDF000FFF77EF8044670B195E8060099
:1069CC0001EBC202FFF7C7FF00E000242868FFF7C5
:1069DC0079F82C60AE60012070BD70BD73B50446B3
:1069EC0045686846FFF752FD6168A368994205DB6C
:1069FC0001312046FFF7D9FF064698B1236862683B
:106A0C0003EBC50503EBC202294605F10800FFF7AD
:106A1C00A2FF1DB169462846FFF738FD63680133B4
:106A2C006360012601A8FFF749FD304602B070BD36
:106A3C0010B50446406808B1FDF72BFB204610BD8D
:106A4C0007B503690C308DE8090003F13C00FFF732
:106A5C00C3F86846FFF7ECFF03B05DF804FB0000D9
:106A6C0038B500230446036014200D46FDF70DFBDA
:106A7C0028B1012343608360024B036005612060F1
:106A8C00204638BD6C830D002DE9F04188B00546D9
:106A9C001E46542000230F46904604930593FDF7A1
:106AAC00F4FACDF818D004460790B0B1FFF76EFB9E
:106ABC00394604F13C0084F80480FFF701F90F9B80
:106ACC00E3643146109B236504F11400FFF730FAA0
:106ADC000E9904F12800FFF72BFA2146002601AB92
:106AEC0002AA03A80796FFF7BBFF039B059A039224
:106AFC0003A805930494FFF7E1FC06A8FFF798FFA1
:106B0C00049B2968059A2B6008A86B6806916A603B
:106B1C0040F8043D05960496FFF7D0FC05A8FFF756
:106B2C00CDFC296819B9034A0A20FEF737FF08B0D3
:106B3C00BDE8F081D5550D0010B50446406808B18C
:106B4C00FDF7A7FA204610BD07B503690C308DE898
:106B5C0009006846FFF7F0FF03B05DF804FB000086
:106B6C0038B500230446036014200D46FDF78DFA5A
:106B7C0028B1012343608360024B036005612060F0
:106B8C00204638BD88830D00F0B5002687B006601E
:106B9C004660044618200F46FDF777FACDF810D062
:106BAC000546059038B1FFF75DF939462846AE82A7
:106BBC00EE82FFF7BDF900232946059302AA01AB2B
:106BCC0003A8FFF7CDFF039B62682560636003A8F1
:106BDC000392FFF773FC04A8FFF7AEFF23680BB911
:106BEC00FFF7E8F8204607B0F0BD00002DE9F04FA4
:106BFC0017469FB0804605A80E46FFF70BF93C6878
:106C0C002379002B00F0F3803368DD681B6905EBFA
:106C1C00C303039304F1140A04F1280B039BAB4246
:106C2C0023D0D5F80090504609F11401FFF799F9DB
:106C3C00002800F0E18009F128015846FFF791F98E
:106C4C00002800F0D980236823F47F41D9F8003064
:106C5C0023F47F43994240F0CF8020236B4A139357
:106C6C0000230092149313AABDE004F128052846D2
:106C7C00FFF745F918B966492846FFF764F93368F8
:106C8C00D3F800905B6809EBC30AD145294608D0BC
:106C9C00D9F80000FFF765F9002837D109F1080988
:106CAC00F3E706A8FFF770FF13AA2B4604F1380C84
:106CBC00964618685968154603C5083363452A4635
:106CCC00F7D118682860069A002314327146012007
:106CDC00FEF7DCFC00287ED1356806A90BA8FFF76F
:106CEC00E3FB28460BA9FFF70CFE05460CA8FFF7A3
:106CFC00E5FB002D6FD032685368126803F1005326
:106D0C00013B07A802EBC309FFF7D8FB04F11405FC
:106D1C002846FFF7F4F868B93E4B3D491A88013212
:106D2C0092B21A8013A80123FFF7D5F813A92846AD
:106D3C00FFF7FEF84FF02C0A5246002113A800F082
:106D4C00C0FF012306AAADF84C30ADF84EA02B467F
:106D5C0004F1240C1546186859689646AEE80300F1
:106D6C00083363457246F6D11868CEF800000FCD93
:106D7C000DF1580EAEE80F002B68CEF800302379D9
:106D8C008DF85030D9F800309B8AADF86C30E36B3D
:106D9C0015930022204B1C93A11D13A81D94FEF7E4
:106DAC009DFC20BB01232370346839460C340BA89E
:106DBC00FFF76CFB20460BA9FFF710FE04460CA84E
:106DCC00FFF77CFB9CB920230B93144B00930C9482
:106DDC0023460BAA07E039464046FFF757FB07A8A6
:106DEC00FFF76CFB0AE00E493220FEF7DFFD394657
:106DFC004046FFF74BFB01E008350FE705A8FFF70E
:106E0C0017F840461FB0BDE8F08F00BF3D850D0060
:106E1C00B8830D00D4E30320A5630D0016850D0087
:106E2C00C8830D00024800230360FEF79FBC00BF1F
:106E3C00D8E30320F8B506460D468F180024BD4252
:106E4C000CD0336815F8011B9B6830469847002816
:106E5C0001DB0444F3E7002C08BF04462046F8BDD0
:106E6C0070B505460C46084649B100F063FF2B6827
:106E7C00024621462846DB68BDE87040184770BDC5
:106E8C0008B5FFF7EDFF08BD03689B68184738B5D8
:106E9C000D210546FFF7F8FF0A2104462846FFF7A7
:106EAC00F3FF204438BD38B50546FFF7D9FF04463B
:106EBC002846FFF7ECFF204438BD30B58BB00B46AD
:106ECC0000218DF82410012A98BF0A220DF1230409
:106EDC00B3FBF2F505FB123303F0FF03092B94BF50
:106EEC0030333733DBB2214604F801392B46002D01
:106EFC00EED1FFF7B5FF0BB030BD10B42AB9036863
:106F0C005DF8044B9B68C9B21847D2B25DF8044BCC
:106F1C00FFF7D3BFFFF7F1BF38B50546FFF7EDFF1D
:106F2C0004462846FFF7B3FF204438BD2DE9F04155
:106F3C0007460E4615462AB90368C9B29B68BDE8D8
:106F4C00F04118470A2A02D1002901DA04E0D2B232
:106F5C00BDE8F041FFF7B1BF2D21FFF795FF2A46A1
:106F6C00044671423846FFF7A8FF2044BDE8F08183
:106F7C0038B50546FFF7DAFF04462846FFF787FFCA
:106F8C00204438BD0CB42DE9F04387B000AF07F1B5
:106F9C003804054654F8049B3C600E4623464A468A
:106FAC001421381DFEF7A6FD132805D8391D2846D7
:106FBC00FFF756FF044613E000F1080323F0070324
:106FCC00E846ADEB030D411C23464A4668463C603F
:106FDC00FEF790FD69462846FFF742FF0446C5467A
:106FEC001EB12846FFF753FF044420461C37BD460C
:106FFC00BDE8F04302B07047014B024A1A6070477B
:10700C00DCE30320DB850D00024B1A68024B1A608F
:10701C00704700BF10E30320E0E303200021FEF7DC
:10702C00D5BC10B58368044613B1032201469847BA
:10703C00204610BD10B50446FFF7F3FF204610BDE7
:10704C0010B50446FEF79AFC844208D01CB1BDE88A
:10705C001040FEF77BBCBDE81040FEF77FBC10BDB6
:10706C0070B505460E461446FEF788FC50B144EA4E
:10707C00062040EA0540FEF761FCE720BDE87040C1
:10708C00FEF784BC70BD10B50C46FEF76FFCFEF726
:10709C0075FC28B124B1E720BDE81040FEF776BCA2
:1070AC0010BD00000348044A04490023836000F02B
:1070BC0075BC00BFE4E3032078E3032041700D00AE
:1070CC0008B50F4B33B100F03DF903681B699847C5
:1070DC0000280DDC0B4B33B100F0EAF903681B6997
:1070EC009847002807DC084B43B1AFF3008008BD7C
:1070FC00AFF30080EEE7AFF30080F4E708BD00BF0C
:10710C0000000000000000000000000008B5FFF7C0
:10711C00D7FFFEF761FA014B186008BD2CE703207E
:10712C0007B5002300931A466FF07701FEF760FC59
:10713C0003B05DF804FB000007B543880A2B08D0A8
:10714C00502B09D1094B1B683BB103B05DF804EB24
:10715C001847FFF7E5FF06E0002300931A466FF08F
:10716C007701FEF745FC03B05DF804FBF4E3032064
:10717C0010B5FEF721FA044600F0ACFD074B13B135
:10718C002046AFF3008000210448FEF78BFC002161
:10719C000348BDE81040FEF721BC00BF0000000012
:1071AC0045710D00704710B51821044600F0FBFB2B
:1071BC00204610BDF0B5037D062B8DB00E4600F1B8
:1071CC0004074FF0000402D000F1080518E00CADE4
:1071DC00394605F8304D2F232A460A20FEF7DEFAF1
:1071EC00284600F0A7FD33680246DB682946304686
:1071FC0098470FE024B12E213046FFF745FE04449A
:10720C0015F8011D0A223046FFF784FEBD420444E6
:10721C00F0D120460DB0F0BD10B5054B044611223F
:10722C0040F8043B002100F04CFD204610BD00BF8F
:10723C0078860D000346074A10B543F8042B01F17C
:10724C00100251F8044B43F8044B9142F9D10A78DF
:10725C001A7010BD78860D0010B59DF8084044EAF0
:10726C00032343EA024242EA0161042341600375AD
:10727C0010BD37B50D788B784A78C97800912946BE
:10728C00FFF7EAFF03B030BD41747047704708B593
:10729C000021007CFEF73AFB30EA200028BF4FF0BB
:1072AC00FF3008BD08B50121007CFEF72FFB30EA4A
:1072BC00200028BF4FF0FF3008BD08B5007CFEF75A
:1072CC001DFB20EAE07008BD08B5007CFEF70EFB44
:1072DC0020EAE07008BD007CFEF728BB10B5142135
:1072EC00044600F060FB204610BD38B50446007C17
:1072FC000D46FEF703FB002801DC607C28B1294613
:10730C00207CFEF70BFB20EAE07038BD10B504467C
:10731C00002363604FF47A73A360054B2360012351
:10732C000846217463741146FEF7D8FA204610BD46
:10733C008C860D0010B514220446002100F0C1FC0F
:10734C00204610BD30B50E4D87B001A8FFF7F2FFF7
:10735C00296811F0010410D12846FCF79EFE60B19B
:10736C0001AA21460748FFF7D1FF2846FCF79AFEF1
:10737C00054A0649034800F011FB024807B030BD2E
:10738C00F8E30320FCE3032078E3032099720D005B
:10739C00F8B585B2044628460E46174600F046FA64
:1073AC0060B102212846FEF7CFF8022806D13A46F2
:1073BC0031462046BDE8F840FEF780BAF8BD38B536
:1073CC0085B20446284600F031FA50B10221284615
:1073DC00FEF7BAF8022804D12046BDE83840FEF783
:1073EC0075BA38BD70474174704708B5007CFEF71C
:1073FC001DFA20EAE07008BD08B5007CFEF7EEF936
:10740C0020EAE07008BD08B5007CFEF7F7F930EA19
:10741C00200028BF4FF0FF3008BD08B5007CFEF7F8
:10742C00E5F930EA200028BF4FF0FF3008BD007CA2
:10743C00FEF7ECB910B51421044600F0B4FA20465E
:10744C0010BD70B5457C04460E4625B9007CFEF790
:10745C00EDF9002805DD3146207CBDE87040FEF7D3
:10746C00B5B9284670BD000010B504460846114653
:10747C00002262604FF47A72A260054A22600122F7
:10748C00207462741A46FEF791F9204610BD00BFB5
:10749C00BC860D000023007CFEF7D0B90022FFF75C
:1074AC00F9BF007CFEF78AB9007CFEF7B7B9000083
:1074BC0038B50C4D296811F0010411D12846FCF7A0
:1074CC00ECFD68B1084A094B09482146FFF7CCFF8F
:1074DC002846FCF7E7FD074A0749054800F05EFA25
:1074EC00034838BDA8E40320ACE4032024E40320C3
:1074FC0010E4032078E30320F1730D007047F8B516
:10750C00064615460C468F18BC4206D0336814F854
:10751C00011B9B6830469847F6E72846F8BD0022C9
:10752C00007CFEF793B90021007CFEF797B900218F
:10753C00007CFEF79BB90021007CFEF79FB900216F
:10754C00007CFEF7A3B910B51421044600F02BFA09
:10755C00204610BD10B504464FF47A730846A3605C
:10756C000021044B207461602360FEF79FF92046D4
:10757C0010BD00BFEC860D000021007CFEF78EB91B
:10758C00002211464068FEF775BA00221146406889
:10759C00FEF780BA00224068FEF774BA002281F030
:1075AC0001014068FEF75EBA00231A4601214068CB
:1075BC00FEF750BA00231A4619464068FEF742BA45
:1075CC00002211464068FEF735BA00221146406889
:1075DC00FEF720BA002202214068FEF723BA0023EE
:1075EC001A464068FEF70EBA38B5054688B10468ED
:1075FC004CB1A3681BB103222146204698471021A9
:10760C00204600F0D0F928461421BDE8384000F09F
:10761C00CAB938BD10B103685B681847704710B51C
:10762C0003680446BBB15868FEF780F878B9236844
:10763C005A7C12B95868FEF781F823685868FEF72F
:10764C0085F820680023236028B1FFF7CDFF206860
:10765C0008B1FFF7C9FF204610BD000038B50C4B30
:10766C0003600446D0F8CC0108B1FCF714FDD4F843
:10767C00C45135B12846FFF7D2FF0421284600F04B
:10768C0092F9A06808B1FFF7C5FF204638BD00BFCE
:10769C0014870D0038B50E4C0E4B236000250223C9
:1076AC0004F5E4706360A560C4F8C451C4F8C85113
:1076BC00FEF75CF8084BC4F8CC5184F8D051236029
:1076CC002046064A0649BDE8384000F067B900BFBD
:1076DC0030E5032048870D0014870D0078E3032064
:1076EC0069760D0000231A464068FEF78BB900221C
:1076FC0002214068FEF796B9002211464068FEF759
:10770C0089B9002211464068FEF794B900231A4645
:10771C0019464068FEF796B900231A461946406888
:10772C00FEF798B9002281F001014068FEF79AB982
:10773C0000224068FEF7A6B9002211464068FEF709
:10774C00A9B9002211464068FEF794B92DE9F0431F
:10775C00002495B016460D460746FFF75DFD214601
:10776C0020220CA8009400F0ACFA40230C93214684
:10777C006B460CAA3046FDF7D7FE0446002844D1D0
:10778C00024601216868FEF755F90221804622461F
:10779C006868FEF74FF9009E81462146002E34D0D2
:1077AC00002932D17368022B02D00A2B09D02AE0AF
:1077BC00B8F1000F27D0716938460431FFF759FD35
:1077CC0020E0B9F1000F1ED07469112201A800F05D
:1077DC0078FA06238DF8143001AD04F1080318343F
:1077EC00186859682A4603C20833A3421546F7D1D4
:1077FC0001A906A807ADFFF71DFD0FCD3C1D0FC459
:10780C002B6823700121F669C8E70098FDF784FE08
:10781C00384615B0BDE8F083024B034A1A600022CB
:10782C005A60704704E7032048870D0010B50446E2
:10783C000F48FEF7C1F928B1A4F10B03022B01D8B4
:10784C00002010BD00F08AF8FFF796FE08B1012C5D
:10785C00F6D9FFF72DFEFFF727FE18B1A4F10903A7
:10786C00012BEDD91E2C8CBF0020012010BD00BFB8
:10787C000CE703201E2838B504460D460AD8FF290C
:10788C0008D0FFF7D3FF28B129462046BDE8384081
:10789C00FDF762BE38BD38B504460D46FDF764FEF3
:1078AC00FF2810D0062804D84D2323FA00F0C30774
:1078BC0009D42046FFF7BAFF28B129462046BDE877
:1078CC003840FDF759BE38BD10B50446FDF74CFEE7
:1078DC000438C0B2012808D92046FFF7A7FF20B111
:1078EC002046BDE81040FDF74FBE002010BD000043
:1078FC0070B50C4C0C4E0D4D00212046FEF748F98E
:10790C0020460B4C3246294600F048F8012120460F
:10791C00FEF73EF9324629462046BDE8704000F09D
:10792C003DB800BF0CE7032078E303208D5B0D000E
:10793C001CE7032010B5074C2368DB0708D420464E
:10794C00FCF7ABFB20B1FDF74FFE2046FCF7AAFB82
:10795C00014810BD30E7032034E7032038B50B4D48
:10796C00296811F001040FD12846FCF796FB58B199
:10797C0021460748FFF7EEFD2846FCF793FB054A26
:10798C000549034800F00AF8014838BD38E70320E0
:10799C003CE7032078E3032009750D000B460146F4
:1079AC00184600F04BB9FCF774BB0000184B1A6872
:1079BC00D1075CBF01221A60164B1A68D2075CBF54
:1079CC0001221A60144B1A68D0075CBF01221A609E
:1079DC00124B1A68D1075CBF01221A60104B1A684F
:1079EC00D2075CBF01221A600E4B1A68D0075CBF2D
:1079FC0001221A600C4B1A68D1075CBF01221A6075
:107A0C000A4B1A68D2075CBF01221A60704700BF8C
:107A1C006CE7032068E7032064E7032060E703209A
:107A2C005CE7032058E7032054E7032050E70320CA
:107A3C00244B1A68D0075CBF01221A60224B1A68CB
:107A4C00D1075CBF01221A60204B1A68D2075CBFB9
:107A5C0001221A601E4B1A68D0075CBF01221A6003
:107A6C001C4B1A68D1075CBF01221A601A4B1A68AA
:107A7C00D2075CBF01221A60184B1A68D0075CBF92
:107A8C0001221A60164B1A68D1075CBF01221A60DA
:107A9C00144B1A68D2075CBF01221A60124B1A6889
:107AAC00D0075CBF01221A60104B1A68D1075CBF6B
:107ABC0001221A600E4B1A68D2075CBF01221A60B1
:107ACC00704700BF9CE7032098E7032094E703204E
:107ADC0090E703208CE7032088E7032084E703204A
:107AEC0080E703207CE7032078E7032074E703207A
:107AFC0070E70320244B1A68D0075CBF01221A6080
:107B0C00224B1A68D1075CBF01221A60204B1A68FD
:107B1C00D2075CBF01221A601E4B1A68D0075CBFEB
:107B2C0001221A601C4B1A68D1075CBF01221A6033
:107B3C001A4B1A68D2075CBF01221A60184B1A68DC
:107B4C00D0075CBF01221A60164B1A68D1075CBFC4
:107B5C0001221A60144B1A68D2075CBF01221A600A
:107B6C00124B1A68D0075CBF01221A60104B1A68BE
:107B7C00D1075CBF01221A600E4B1A68D2075CBF9A
:107B8C0001221A60704700BFCCE70320C8E703202E
:107B9C00C4E70320C0E70320BCE70320B8E70320B9
:107BAC00B4E70320B0E70320ACE70320A8E70320E9
:107BBC00A4E70320A0E70320184B1A68D1075CBF89
:107BCC0001221A60164B1A68D2075CBF01221A6098
:107BDC00144B1A68D0075CBF01221A60124B1A684A
:107BEC00D1075CBF01221A60104B1A68D2075CBF28
:107BFC0001221A600E4B1A68D0075CBF01221A6072
:107C0C000C4B1A68D1075CBF01221A600A4B1A6828
:107C1C00D2075CBF01221A60704700BFECE703205B
:107C2C00E8E70320E4E70320E0E70320DCE7032098
:107C3C00D8E70320D4E70320D0E7032010B5054C88
:107C4C0013462CB10A4601460220AFF3008010BD4A
:107C5C00204610BD0000000010B5013902449042CE
:107C6C0007D010F8013B11F8014FA342F7D0181BB5
:107C7C0010BD002010BD10B5431E0A44914204D023
:107C8C0011F8014B03F8014FF8E710BD884210B50D
:107C9C0001EB020301D8421E0BE09842FBD2811883
:107CAC00D21AD34204D013F8014D01F8014DF8E774
:107CBC0010BD994204D011F8014B02F8014FF8E7BE
:107CCC0010BD02440346934202D003F8011BFAE7AD
:107CDC007047000038B5124B1C68A36B0546D3B92E
:107CEC001820FDF7E7FE43F20E33A06303804AF63B
:107CFC00CD33438041F2342383804EF26D63C380D5
:107D0C004DF6EC630381052343810B238381012210
:107D1C000023C0E90423A36B00221D615A6138BD06
:107D2C0074E30320034611F8012B03F8012B002AFE
:107D3C00F9D17047034613F8012B002AFBD1181A0E
:107D4C000138704710B5034601448B4204D01A78B1
:107D5C005C1C0AB12346F8E7181A10BD1D400D0033
:107D6C0059400D0085400D0089400D0000000000B9
:107D7C00E90E0000D60B000002000000020000001B
:107D8C00424C452052656365697665643A202573DB
:107D9C00204865783A2025780050617373696E67C6
:107DAC00206E616D653A20257300424C45206F7042
:107DBC0065726174696F6E20726573756C74733A59
:107DCC002025640056657269666965642049443AE9
:107DDC000046696E676572206E6F7420666F756EF3
:107DEC00640044697361626C696E672075736572B7
:107DFC002325642E20416464723A2025642E20527F
:107E0C006561643A2025782E2057726974653A2092
:107E1C0025782E00417574686F72697A696E6720D7
:107E2C00757365722325642E20416464723A202593
:107E3C00642E20526561643A2025782E2057726991
:107E4C0074653A2025782E005573657220494420BC
:107E5C00232564206E6F77206861732061636365EE
:107E6C007373206C6576656C3A202564004E616DE9
:107E7C00696E672075736572204944202325643A26
:107E8C0020257300454550524F4D20417661696C59
:107E9C0061626C653A200057726974696E67207470
:107EAC006F20454550524F4D2E20416464723A204C
:107EBC0025642E20526561643A2025782E20577255
:107ECC006974653A2025782E0055736572204944F3
:107EDC0020232564206E6F772075736564005573BD
:107EEC00657220494420232564206E6F77206176CB
:107EFC0061696C61626C65004944202325642061D2
:107F0C007661696C61626C652E00737461727420A9
:107F1C00456E726F6C6C00456E726F6C6C20737476
:107F2C0061727465640050726573732066696E6764
:107F3C00657220746F20456E726F6C6C2023004943
:107F4C004420232564204E4F5420617661696C6176
:107F5C00626C652E0052656D6F76652066696E6782
:107F6C0065720050726573732073616D652066696C
:107F7C006E67657220616761696E0050726573731C
:107F8C002073616D652066696E6765722079657412
:107F9C0020616761696E00456E726F6C6C696E670B
:107FAC00205375636365737366756C004E6577203B
:107FBC005573657200456E726F6C6C696E67204606
:107FCC0061696C65642077697468206572726F7280
:107FDC0020636F64653A004661696C656420746F58
:107FEC0020636170747572652074686972642066B0
:107FFC00696E676572004661696C656420746F20F8
:10800C0063617074757265207365636F6E6420664E
:10801C00696E676572004661696C656420746F20D7
:10802C006361707475726520666972737420666919
:10803C006E67657200494420232564206973206EA5
:10804C0065787420617661696C61626C65206F6E15
:10805C00204650532E004F7065726174696F6E3AF2
:10806C002025782C20557365723A20256400426CCB
:10807C007565746F6F746820436F6E6E656374659D
:10808C00642100426C7565746F6F74682044697369
:10809C00636F6E6E65637465642E003645343030E4
:1080AC003030302D423541332D463339332D453068
:1080BC0041392D453530453234444343413945002F
:1080CC007265636569766500364534303030303220
:1080DC002D423541332D463339332D453041392D21
:1080EC00453530453234444343413945007472615F
:1080FC006E736D69740036453430303030312D423A
:10810C003541332D463339332D453041392D4535E5
:10811C0030453234444343413945000000000110DE
:10812C000210031004100510061007100810091097
:10813C000A100B100C100D100E100F101010111047
:10814C001210526573706F6E73655F5061636B656F
:10815C00742070617273696E67206572726F722021
:10816C0000207C7C200020213D2000434F4D4D41C0
:10817C004E445F53544152545F434F44455F31006A
:10818C00434F4D4D414E445F53544152545F434F06
:10819C0044455F3200434F4D4D414E445F4445567C
:1081AC004943455F49445F3100434F4D4D414E4477
:1081BC005F4445564943455F49445F320041636B18
:1081CC004E616B5F4C4F570041636B4E616B5F4868
:1081DC0049474800436865636B73756D5F4C4F5737
:1081EC0000436865636B73756D5F484947480025AC
:1081FC002E3258002200465053202D2053454E4419
:10820C003A2000465053202D20524543563A200028
:10821C00465053202D204F70656E00465053202D34
:10822C0020436C6F736500465053202D204C454401
:10823C00206F6E00465053202D204C4544206F6615
:10824C006600465053202D204368616E676542617D
:10825C0075645261746500465053202D2047657437
:10826C00456E726F6C6C6564436F756E740046502E
:10827C0053202D20436865636B456E726F6C6C6583
:10828C006400465053202D20456E726F6C6C5374F5
:10829C0061727400465053202D20456E726F6C6CC9
:1082AC003100465053202D20456E726F6C6C32009D
:1082BC00465053202D20456E726F6C6C3300465027
:1082CC0053202D2044656C65746549440046505319
:1082DC00202D2044656C657465416C6C00465053D0
:1082EC00202D20566572696679315F3100465053F6
:1082FC00202D204964656E74696679315F4E0046A5
:10830C005053202D204361707475726546696E67F9
:10831C006572000000000000000000006F5B0D00A3
:10832C00655B0D005B5B0D00515B0D00455B0D004B
:10833C00395B0D002D5B0D00255B0D001B5B0D00EB
:10834C00115B0D0059770D000000000000000000CB
:10835C008D5B0D008F5B0D00000000000000000025
:10836C00835D0D00895D0D004D6A0D00B35D0D0040
:10837C00855D0D0000000000000000007D5D0D001B
:10838C00975D0D00556B0D00B75D0D007F5D0D0009
:10839C000000000000000000775D0D00A55D0D00E1
:1083AC0037650D00BB5D0D00795D0D007BE3277417
:1083BC007BF815ACDD49A913000072F57769726979
:1083CC006E672E626C6500537461727420646973FD
:1083DC00636F766572696E67207365727669636523
:1083EC00732E00537461727420646973636F7665C5
:1083FC0072696E6720636861726163746572697318
:10840C00746963732E0050656572206465766963C8
:10841C0065206973206D697373696E67210046610D
:10842C00696C656420746F20617070656E64207077
:10843C006565722043656E7472616C206465766943
:10844C0063652E00436F6E6E65637465642062799C
:10845C002043656E7472616C206465766963652E69
:10846C0000446973636F6E6E656374656420627932
:10847C002072656D6F7465206465766963652E0086
:10848C0043616E6E6F7420616464206E657720703A
:10849C00656572206465766963652E004E6577208C
:1084AC007065726970686572616C20697320636FA6
:1084BC006E6E65637465642E004661696C6564203C
:1084CC00746F20617070656E6420646973636F767D
:1084DC006572656420636861726163746572697347
:1084EC007469632E004661696C656420746F206149
:1084FC007070656E6420646973636F766572656411
:10850C0020736572766963652E004661696C6564DB
:10851C0020746F20617070656E64206C6F63616C89
:10852C002063686172616374657269737469632E28
:10853C00004475706C696361746564206368617272
:10854C00616374657269737469632063616E6E6FC5
:10855C00742062652061646465642E0062617564D8
:10856C000053657269616C0053657269616C31000E
:10857C007479706500706172616D00636D6400697F
:10858C006400686E64007374726D0066696C7400CC
:10859C006C766C0061646448616E646C6572007228
:1085AC00656D6F766548616E646C657200656E759D
:1085BC006D48616E646C657273004A534F4E537410
:1085CC007265616D4C6F6748616E646C65720061B9
:1085DC00707000253031307520005D20002C20009B
:1085EC0028293A2000205B00636F6465203D200041
:1085FC0025690064657461696C73203D20000D0A67
:10860C00006C6E00666E00636F6465006465746177
:10861C00696C006E6F6E6500747261636500696EE3
:10862C00666F007761726E006572726F72007061B6
:10863C006E696300616C6C005A00252B3033643A10
:10864C00253032750025592D256D2D25645425486E
:10865C003A254D3A2553257A0061736374696D652B
:10866C00000000000000000000000000C1710D00BF
:10867C00B1710D00B3710D0000000000000000008E
:10868C0099720D00E9720D00F7720D00416E0D002C
:10869C00D5720D009B720D00B1720D00E3720D00CE
:1086AC00C7720D0095720D00000000000000000064
:1086BC00F1730D0041740D004F740D00416E0D00EF
:1086CC0005740D0027740D0013740D003B740D0020
:1086DC00F3730D00F7730D000000000000000000A4
:1086EC0009750D0053750D002B750D000B750D00E4
:1086FC0033750D003B750D0043750D004B750D006A
:10870C000000000000000000EB750D00E1750D008D
:10871C00D7750D00CD750D00C1750D00B5750D002B
:10872C00A9750D00A1750D0097750D008D750D00C7
:10873C0059770D000000000000000000F1760D00DC
:10874C00FB760D0005770D000F770D0019770D00E6
:10875C0025770D0031770D003D770D0045770D0025
:10876C004F770D0059770D0000000000000000004D
:10877C0000000000000000000000000000000000ED
:10878C0000000000000000000000000000000000DD
:10879C0000000000000000000000000000000000CD
:1087AC0000000000000000000000000000000000BD
:1087BC0000000000000000000000000000000000AD
:1087CC000000000000000000430000000D410D00FF
:1087DC00814B0D0021550D00795B0D00CD5B0D001B
:1087EC00316E0D0005700D0015700D00B1700D008F
:1087FC00A1760D0025780D00FD780D00B9790D00DE
:10880C003D7A0D00017B0D00C57B0D0000000000C2
:04881C000000000058
:10882000020000000400000004000000040000003A
:108830000400000001000000E90E000074070000C1
:10884000A5060000BC03000054030000DE01000088
:1088500001000000F7090000D60B0000E90E00003F
:10886000040000000400000001000000E90E000008
:10887000D60B0000F709000004000000040000000F
:108880000100000002810D0065860D00000000005F
:1088900074870D0094870D00B4870D000000000060
:1088A000000000000000000000000000D4870D0060
:1088B00000000000000000000000000000000000B8
:1088C00000000000000000000000000000000000A8
:1088D0000000000000000000000000000000000098
:1088E00000000000000000000000000014E303206E
:1088F000FFFFFFFF00000102030405060708090A45
:108900000B0C0D0E0F101112131415161718191A3F
:088910001B1C1D1E1F20280086
:048918007856341247
:04000003D000401CCD
:00000001FF
