:02000002D0002C
:1040000000400D0040560D00000006000E000501A6
:0840100004017E050000000020
:0440180084520D00C1
:10401C0009480A49884208B505D0094A824202D0AB
:10402C00121A01F0DDF80748074A0021121A01F0B4
:10403C00E2F8014808BD00BF44E20320B0550D0072
:10404C00ACE20320ACE20320F0E7032070B500F0F3
:10405C005DFC074C074BE41AA40800251E46A5423C
:10406C0004D056F8253098470135F8E770BD00BFED
:10407C00A8550D0070550D0000F056B808B500F0AD
:10408C006FF8BDE8084000F00FBC00F031BA00F04A
:10409C002FBA0078B0FA80F0400970470123037002
:1040AC007047704710B51421044600F040FF2046BD
:1040BC0010BD000010B50C4C2368DB0711D4204652
:1040CC00FFF7E7FF68B1094A094B0A48012100F0E4
:1040DC006BFD2046FFF7E2FF074A0849054800F050
:1040EC0021FF044810BD00BF60E30320B0E20320B1
:1040FC0064E3032044E30320ACE20320AF400D0053
:10410C0010B5FFF7D7FF074B044653B100F069FD1C
:10411C0038B1236820461B699847002801DDAFF3AE
:10412C00008010BD0000000008B500F0DDFC4FF46D
:10413C00165100F0CDFC00F057FD4FF4165100F075
:10414C004DFDFFF7B7FF4FF4165100F047FD00F09F
:10415C00CBFC0249BDE8084000F015BB98520D009D
:10416C0010B588B000F0C0FC03685B6998470D2857
:10417C002AD11849684600F078FA00F0B5FC1649C7
:10418C0000F001FB00F0B0FC03685B699847C4B217
:10419C00214604A800F08DFA04A9684600F0B1FA93
:1041AC0004A800F01BFA0D2CECD100F09DFC036868
:1041BC000A49DB681122984700F096FC009900F040
:1041CC00E2FA684600F00AFA642000F027FB08B017
:1041DC0010BD00BFCB530D00B9520D00CA520D00DB
:1041EC0010B500F031F80B4B0B4C00221A705A80B2
:1041FC004FF6FF729A80032000F0F6F8074920462C
:10420C0000F033FA2046064A0649BDE8104000F09B
:10421C0089BE00BF58E3032034E30320DC520D00B9
:10422C00ACE20320E9450D0008B5024B1B689B6806
:10423C00019308BD6802030008B5024B1B68DB68DC
:10424C00019308BD6802030008B5024B1B681B688C
:10425C00019308BD2C02030008B5024B1B68DB69F7
:10426C00019308BD3002030008B5024B1B685B6864
:10427C00019308BD1802030008B5024B1B685B696B
:10428C00019308BD1802030008B5024B1B689B681C
:10429C00019308BD4802030008B5024B1B681B695B
:1042AC00019308BD4802030008B5024B1B685B690B
:1042BC00019308BD4802030008B5024B1B681B6B39
:1042CC00019308BD4802030008B5024B1B685B6CE8
:1042DC00019308BD4802030008B5024B1B685B69DB
:1042EC00019308BD6402030008B5024B1B681B68F0
:1042FC00019308BD3C02030008B5024B1B68DB6848
:10430C00019308BD3C02030008B5024B1B681B69F6
:10431C00019308BD3C02030008B5024B1B685B69A6
:10432C00019308BD3C02030008B5024B1B689B6956
:10433C00019308BD3C02030008B5024B1B68DB6906
:10434C00019308BD3C02030008B5024B1B681B6AB5
:10435C00019308BD3C02030008B5024B1B689B6A25
:10436C00019308BD3C02030008B5024B1B68DB6AD5
:10437C00019308BD3C02030008B5024B1B681B6887
:10438C00019308BD4C02030008B5024B1B685B6827
:10439C00019308BD4C02030008B5024B1B681B6956
:1043AC00019308BD4C02030008B5024B1B685B6906
:1043BC00019308BD4C02030008B5024B1B689B69B6
:1043CC00019308BD4C02030008B5024B1B68DB6966
:1043DC00019308BD4C02030008B5024B1B681B6A15
:1043EC00019308BD4C02030008B5024B1B685B68C7
:1043FC00019308BD2002030008B5024B1B685B69E2
:10440C00019308BD2002030008B5034B1B68D3F8C9
:10441C008830019308BD00002002030008B5034B4F
:10442C001B68D3F89430019308BD000020020300F0
:10443C0008B5024B1B685B68019308BD4002030082
:10444C0008B5024B1B689B68019308BD4002030032
:10445C0008B5024B1B68DB68019308BD40020300E2
:10446C0008B5024B1B681B69019308BD4002030091
:10447C0008B5024B1B685B69019308BD4002030041
:10448C0008B5024B1B689B69019308BD40020300F1
:10449C0008B5024B1B68DB69019308BD40020300A1
:1044AC0008B5024B1B681B6A019308BD4002030050
:1044BC0008B5024B1B681B6B019308BD400203003F
:1044CC0008B5024B1B685B6B019308BD40020300EF
:1044DC0008B5024B1B68DB6B019308BD440203005B
:1044EC0008B5024B1B681B68019308BD1C02030036
:1044FC0008B5024B1B685B68019308BD1C020300E6
:10450C0008B5024B1B689B68019308BD1C02030095
:10451C00002211464068FFF7C3BF002211464068D5
:10452C00FFF7CEBF00224068FFF7C2BF002281F028
:10453C0001014068FFF7ACBF00231A4619464068DA
:10454C00FFF79EBF00231A4619464068FFF790BF3D
:10455C00002211464068FFF783BF002211464068D5
:10456C00FFF76EBF002202214068FFF771BF0023E6
:10457C001A464068FFF75CBF024B03225A60024A9E
:10458C001A607047E8E30320E8520D00704710B53D
:10459C001021044600F0CBFC204610BD70B5084B32
:1045AC000360044600250E4640F80C5FFFF784FEBE
:1045BC0030462671FFF750FEA560204670BD00BF47
:1045CC001C530D00044B00204FF6FF7218705880DE
:1045DC009A80FFF709BF00BFF0E3032010B5044633
:1045EC000068FFF785FF204610BD10B50446006833
:1045FC0008B1FFF77DFF00232360A360636010BD4B
:10460C0038B504460D4600680131FFF779FF10B14B
:10461C0084E82100012038BD10B50368044613B1AD
:10462C0043688B4207D22046FFF7EAFF20B1A3680C
:10463C000BB922681370012010BD70B50E461146DF
:10464C0004461546FFF7E8FF18B92046FFF7CDFFE3
:10465C0009E02A463146A560206800F0C1FD2268B9
:10466C00A3680021D154204670BD38B50023044600
:10467C0003604360836003730D4639B1084600F054
:10468C00F3FD294602462046FFF7D7FF204638BDEA
:10469C0038B505460C4641B1084600F0E5FD21460B
:1046AC0002462846FFF7C9FF01E0FFF79EFF2846A8
:1046BC0038BD13B500238DF804100360436083608C
:1046CC00037301A904468DF80530FFF7E1FF20467E
:1046DC0002B010BD70B504460E4609B9002070BD7D
:1046EC006AB18368D5182946FFF796FF0028F5D0E4
:1046FC002068A3683146184400F0AEFDA560012087
:10470C0070BD8A680968FFF7E5BF00000248002306
:10471C000360FFF7D9BD00BFF8E30320F8B50646E8
:10472C000D468F180024BD420CD0336815F8011BC0
:10473C009B6830469847002801DB0444F3E7002CC3
:10474C0008BF04462046F8BD70B505460C46084621
:10475C0049B100F089FD2B68024621462846DB68EA
:10476C00BDE87040184770BD03689B68184738B5A2
:10477C000D210546FFF7F8FF0A2104462846FFF7EE
:10478C00F3FF204438BD38B50546FFF7DDFF04467E
:10479C002846FFF7ECFF204438BD30B58BB00B46F4
:1047AC0000218DF82410012A98BF0A220DF1230450
:1047BC00B3FBF2F505FB123303F0FF03092B94BF97
:1047CC0030333733DBB2214604F801392B46002D48
:1047DC00EED1FFF7B9FF0BB030BD10B42AB90368A6
:1047EC005DF8044B9B68C9B21847D2B25DF8044B14
:1047FC00FFF7D3BFFFF7F1BF014B024A1A607047B6
:10480C00FCE3032097530D00024B1A68024B1A600D
:10481C00704700BF44E2032000E403200021FFF7AF
:10482C00EBBD10B58368044613B1032201469847CB
:10483C00204610BD10B50446FFF7F3FF204610BD0F
:10484C000348044A04490023836000F06BBB00BF9B
:10485C0004E40320ACE2032041480D0008B50F4BE3
:10486C0033B100F041F903681B69984700280DDC4F
:10487C000B4B33B100F0B8F903681B69984700285B
:10488C0007DC084B43B1FFF73BFC08BDAFF30080DE
:10489C00EEE7AFF30080F4E708BD00BF00000000B6
:1048AC00000000000D410D0008B5FFF7D7FFFFF722
:1048BC00E3FC014B186008BD4CE7032007B500234F
:1048CC0000931A466FF07701FFF7A8FD03B05DF86F
:1048DC0004FB000007B543880A2B08D0502B09D1E4
:1048EC00094B1B683BB103B05DF804EB1847FFF7AD
:1048FC00E5FF06E0002300931A466FF07701FFF7FF
:10490C008DFD03B05DF804FB14E4032010B5FFF734
:10491C00ABFC044600F078FC074B13B12046AFF318
:10492C00008000210448FFF7D3FD00210348BDE8B7
:10493C001040FFF769BD00BF00000000E1480D000A
:10494C00704710B51821044600F0F1FA204610BD4E
:10495C00F0B5037D062B8DB00E4600F104074FF029
:10496C00000402D000F1080518E00CAD394605F83A
:10497C00304D2F232A460A20FFF7AEFC284600F0C4
:10498C0073FC33680246DB682946304698470FE0D3
:10499C0024B12E213046FFF7E7FE044415F8011D23
:1049AC000A223046FFF726FFBD420444F0D12046D0
:1049BC000DB0F0BD10B5054B0446112240F8043B78
:1049CC00002100F018FC204610BD00BF38540D002B
:1049DC000346074A10B543F8042B01F1100251F8B5
:1049EC00044B43F8044B9142F9D10A781A7010BD6C
:1049FC0038540D0010B59DF8084044EA032343EAEF
:104A0C00024242EA016104234160037510BD37B5CF
:104A1C000D788B784A78C97800912946FFF7EAFF20
:104A2C0003B030BD41747047704708B50021007C5D
:104A3C00FFF7C2FC30EA200028BF4FF0FF3008BD62
:104A4C0008B50121007CFFF7B7FC30EA200028BF35
:104A5C004FF0FF3008BD08B5007CFFF7A5FC20EA3D
:104A6C00E07008BD08B5007CFFF796FC20EAE0700A
:104A7C0008BD007CFFF7B0BC10B51421044600F053
:104A8C0056FA204610BD38B50446007C0D46FFF79B
:104A9C008BFC002801DC607C28B12946207CFFF7C8
:104AAC0093FC20EAE07038BD10B504460023636027
:104ABC004FF47A73A360054B2360012308462174DD
:104ACC0063741146FFF758FC204610BD4C540D0082
:104ADC000022007CFFF758BC10B5142204460021BC
:104AEC0000F089FB204610BD30B50E4D87B001A8F3
:104AFC00FFF7F2FF296811F0010410D12846FFF7E7
:104B0C00C8FA60B101AA21460748FFF7CDFF284635
:104B1C00FFF7C4FA054A0649034800F003FA0248B5
:104B2C0007B030BD18E403201CE40320ACE20320E2
:104B3C00354A0D004174704708B5007CFFF70CFC3A
:104B4C0020EAE07008BD08B5007CFFF7DDFB20EA29
:104B5C00E07008BD08B5007CFFF7E6FB30EA2000EA
:104B6C0028BF4FF0FF3008BD08B5007CFFF7D4FB21
:104B7C0030EA200028BF4FF0FF3008BD007CFFF763
:104B8C00DBBB70B5457C04460E4625B9007CFFF7AF
:104B9C00E3FB002805DD3146207CBDE87040FFF7C3
:104BAC00ABBB284670BD000010B504460846114644
:104BBC00002262604FF47A72A260054A22600122E0
:104BCC00207462741A46FFF78FFB204610BD00BF9D
:104BDC007C540D000023007CFFF7C6BB0022FFF7BE
:104BEC00F9BF007CFFF7B0BB38B50C4D296811F04C
:104BFC00010411D12846FFF74CFA68B1084A094B59
:104C0C0009482146FFF7D0FF2846FFF747FA074A25
:104C1C000749054800F086F9034838BDC8E403206D
:104C2C00CCE4032044E4032030E40320ACE2032072
:104C3C00AF400D00002211464068FFF731BC002246
:104C4C0011464068FFF73CBC00224068FFF730BCBF
:104C5C00002281F001014068FFF71ABC00231A46BC
:104C6C0001214068FFF70CBC00231A461946406826
:104C7C00FFF7FEBB002211464068FFF7F1BB002294
:104C8C0011464068FFF7DCBB002202214068FFF7A9
:104C9C00DFBB00231A464068FFF7CABB38B5054690
:104CAC0088B104684CB1A3681BB10322214620468D
:104CBC0098471021204600F03AF928461421BDE807
:104CCC00384000F034B938BD10B103685B68184740
:104CDC00704710B503680446BBB15868FFF7D4FAA7
:104CEC0078B923685A7C12B95868FFF7D5FA23684B
:104CFC005868FFF7D9FA20680023236028B1FFF722
:104D0C00CDFF206808B1FFF7C9FF204610BD000099
:104D1C0038B50C4B03600446D0F8CC0108B1FFF752
:104D2C00B6F9D4F8C45135B12846FFF7D2FF0421A7
:104D3C00284600F0FCF8A06808B1FFF7C5FF204634
:104D4C0038BD00BFAC540D0038B50E4C0E4B236073
:104D5C000025022304F5E4706360A560C4F8C45117
:104D6C00C4F8C851FFF7B0FA084BC4F8CC5184F81A
:104D7C00D05123602046064A0649BDE8384000F071
:104D8C00D1B800BF50E50320E0540D00AC540D0029
:104D9C00ACE203201D4D0D0000231A464068FFF7BE
:104DAC0047BB002202214068FFF752BB002211468C
:104DBC004068FFF745BB002211464068FFF750BB27
:104DCC0000231A4619464068FFF752BB00231A46C7
:104DDC0019464068FFF754BB002281F0010140687E
:104DEC00FFF756BB00224068FFF762BB002211465A
:104DFC004068FFF765BB002211464068FFF750BBC7
:104E0C002DE9F043002495B016460D460746FFF7F2
:104E1C00D1FD214620220CA8009400F0ECF940238F
:104E2C000C9321466B460CAA3046FFF705FA044654
:104E3C00002844D1024601216868FFF711FB0221CA
:104E4C00804622466868FFF70BFB009E8146214690
:104E5C00002E34D0002932D17368022B02D00A2BD9
:104E6C0009D02AE0B8F1000F27D071693846043117
:104E7C00FFF7CDFD20E0B9F1000F1ED074691122AF
:104E8C0001A800F0B8F906238DF8143001AD04F137
:104E9C0008031834186859682A4603C20833A34219
:104EAC001546F7D101A906A807ADFFF791FD0FCD67
:104EBC003C1D0FC42B6823700121F669C8E70098CC
:104ECC00FFF7B2F9384615B0BDE8F083024B034A40
:104EDC001A6000225A60704724E70320E0540D004A
:104EEC0070B50C4C0C4E0D4D00212046FFF756FBB7
:104EFC0020460B4C3246294600F014F8012120467E
:104F0C00FFF74CFB324629462046BDE8704000F0C6
:104F1C0009B800BF2CE70320ACE2032099450D0033
:104F2C003CE703200B460146184600F04BB9FFF74F
:104F3C00ACB80000184B1A68D1075CBF01221A608C
:104F4C00164B1A68D2075CBF01221A60144B1A6800
:104F5C00D0075CBF01221A60124B1A68D1075CBFE4
:104F6C0001221A60104B1A68D2075CBF01221A602A
:104F7C000E4B1A68D0075CBF01221A600C4B1A68E2
:104F8C00D1075CBF01221A600A4B1A68D2075CBFBA
:104F9C0001221A60704700BF6CE7032068E703200A
:104FAC0064E7032060E703205CE7032058E7032055
:104FBC0054E7032050E70320244B1A68D0075CBF4A
:104FCC0001221A60224B1A68D1075CBF01221A60B9
:104FDC00204B1A68D2075CBF01221A601E4B1A685C
:104FEC00D0075CBF01221A601C4B1A68D1075CBF4A
:104FFC0001221A601A4B1A68D2075CBF01221A6090
:10500C00184B1A68D0075CBF01221A60164B1A683D
:10501C00D1075CBF01221A60144B1A68D2075CBF1F
:10502C0001221A60124B1A68D0075CBF01221A6069
:10503C00104B1A68D1075CBF01221A600E4B1A681C
:10504C00D2075CBF01221A60704700BF9CE70320A7
:10505C0098E7032094E7032090E703208CE70320D4
:10506C0088E7032084E7032080E703207CE7032004
:10507C0078E7032074E7032070E70320244B1A68B9
:10508C00D0075CBF01221A60224B1A68D1075CBFA3
:10509C0001221A60204B1A68D2075CBF01221A60E9
:1050AC001E4B1A68D0075CBF01221A601C4B1A6891
:1050BC00D1075CBF01221A601A4B1A68D2075CBF79
:1050CC0001221A60184B1A68D0075CBF01221A60C3
:1050DC00164B1A68D1075CBF01221A60144B1A6870
:1050EC00D2075CBF01221A60124B1A68D0075CBF52
:1050FC0001221A60104B1A68D1075CBF01221A609A
:10510C000E4B1A68D2075CBF01221A60704700BFB1
:10511C00CCE70320C8E70320C4E70320C0E7032043
:10512C00BCE70320B8E70320B4E70320B0E7032073
:10513C00ACE70320A8E70320A4E70320A0E70320A3
:10514C00184B1A68D1075CBF01221A60164B1A68FB
:10515C00D2075CBF01221A60144B1A68D0075CBFDF
:10516C0001221A60124B1A68D1075CBF01221A6027
:10517C00104B1A68D2075CBF01221A600E4B1A68DA
:10518C00D0075CBF01221A600C4B1A68D1075CBFB8
:10519C0001221A600A4B1A68D2075CBF01221A60FE
:1051AC00704700BFECE70320E8E70320E4E70320A7
:1051BC00E0E70320DCE70320D8E70320D4E7032053
:1051CC00D0E7032010B5054C13462CB10A46014616
:1051DC000220AFF3008010BD204610BD000000007F
:1051EC0010B5431E0A44914204D011F8014B03F848
:1051FC00014FF8E710BD02440346934202D003F876
:10520C00011BFAE77047000038B5124B1C68A36B02
:10521C000546D3B91820FFF763F943F20E33A063A8
:10522C0003804AF6CD33438041F2342383804EF21F
:10523C006D63C3804DF6EC630381052343810B231F
:10524C00838101220023C0E90423A36B00221D618A
:10525C005A6138BDA8E20320034611F8012B03F86C
:10526C00012B002AF9D17047034613F8012B002AB1
:10527C00FBD1181A013870471D400D0059400D0024
:10528C0085400D0089400D000000000050726573D0
:10529C00732052455455524E20746F20656E7465C0
:1052AC00722061206D6573736167652E00456E74A5
:1052BC0065722061206D6573736167652E00596F8F
:1052CC007572206D6573736167652069733A200090
:1052DC006E2F610000000000000000007B450D00F7
:1052EC0071450D0067450D005D450D0051450D00E4
:1052FC0045450D0039450D0031450D0027450D0084
:10530C001D450D000D4E0D000000000000000000BA
:10531C0099450D009B450D006261756400536572E3
:10532C0069616C0053657269616C310074797065E8
:10533C0000706172616D00636D6400696400686E79
:10534C0064007374726D0066696C74006C766C002A
:10535C0061646448616E646C65720072656D6F7631
:10536C006548616E646C657200656E756D48616E42
:10537C00646C657273004A534F4E53747265616D61
:10538C004C6F6748616E646C6572006170700025CB
:10539C003031307520005D20002564002C20002861
:1053AC00293A2000205B00636F6465203D200025B6
:1053BC00690064657461696C73203D20000D0A00FE
:1053CC0066006C6E00666E00636F646500646574E5
:1053DC0061696C006E6F6E65007472616365006963
:1053EC006E666F007761726E006572726F7200701C
:1053FC00616E696300616C6C005A00252B3033645C
:10540C003A253032750025592D256D2D25645425EE
:10541C00483A254D3A2553257A0061736374696DBA
:10542C006500000000000000000000005D490D0058
:10543C004D490D004F490D00000000000000000018
:10544C00354A0D00854A0D00934A0D0029470D0081
:10545C00714A0D00374A0D004D4A0D007F4A0D0070
:10546C00634A0D00314A0D000000000000000000EE
:10547C00AF400D00B1400D008F4B0D0029470D00C2
:10548C00534B0D00754B0D00614B0D00894B0D00FE
:10549C00414B0D00454B0D000000000000000000CA
:1054AC009F4C0D00954C0D008B4C0D00814C0D004C
:1054BC00754C0D00694C0D005D4C0D00554C0D00EC
:1054CC004B4C0D00414C0D000D4E0D00000000002A
:1054DC0000000000A54D0D00AF4D0D00B94D0D00A5
:1054EC00C34D0D00CD4D0D00D94D0D00E54D0D00FA
:1054FC00F14D0D00F94D0D00034E0D000D4E0D003C
:10550C00000000000000000000000000000000008F
:10551C00000000000000000000000000000000007F
:10552C00000000000000000000000000000000006F
:10553C00000000000000000000000000000000005F
:10554C00000000000000000000000000000000004F
:10555C00000000000000000000000000000000003F
:10556C0043000000ED410D0085450D00D1450D00B7
:10557C0019470D0005480D0015480D004D480D004C
:10558C00554D0D00D94E0D00ED4E0D00414F0D0047
:10559C00C54F0D0089500D004D510D00000000004D
:0455AC0000000000FB
:1055B00026540D00000000000C550D002C550D0068
:1055C0004C550D000000000000000000000000002D
:1055D000000000006C550D000000000000000000FD
:1055E00000000000000000000000000000000000BB
:1055F00000000000000000000000000000000000AB
:10560000000000000000000000000000000000009A
:085610000000000048E2032045
:10561800FFFFFFFF00000102030405060708090A4F
:105628000B0C0D0E0F101112131415161718191A4A
:085638001B1C1D1E1F20280091
:045640007856341252
:04000003D000401CCD
:00000001FF
