:02000002D0002C
:1040000000400D00705C0D00000006000E00050170
:0840100004017E050000000020
:04401800B0560D0091
:10401C0009480A49884208B505D0094A824202D0AB
:10402C00121A01F0F3FA0748074A0021121A01F09C
:10403C00F8FA014808BD00BF70E30320E05B0D00F7
:10404C00D8E30320D8E30320F0E7032070B500F099
:10405C006DFE074C074BE41AA40800251E46A5422A
:10406C0004D056F8253098470135F8E770BD00BFED
:10407C00DC5B0D00A05B0D0000F04CBA08B500F045
:10408C0067FABDE8084000F01FBE00F023BC00F04A
:10409C0021BC00F027BC00F025BC0078B0FA80F001
:1040AC0040097047012303707047427883781344AA
:1040BC00C27803F5807313440279134442798079F2
:1040CC0013441844704770B504460C20FFF7DFFF0B
:1040DC000025267866710146A5712046FFF7E5FF9D
:1040EC0055230B70AA234B7001238B7063780B71D3
:1040FC00A3784B71E3788B7188722379CD70000AA9
:10410C00C872CB710E724D72084670BD28B112295F
:10411C0003D8034B33F8110070474FF6FF7070470C
:10412C00C4560D0010B50B4600205C1AA24203DDEC
:10413C0013F8014B2044F8E710BD0000914270B514
:10414C000C4615461E4601D0994201D1002070BD87
:10415C009DF8143053B300F0D7FE154900F006FD5E
:10416C0000F0D2FE049900F001FD00F0CDFE1149E3
:10417C0000F0FCFC00F0C8FE1022294600F040FDC7
:10418C0000F0C2FE0C4900F0F1FC00F0BDFE102264
:10419C00314600F035FD00F0B7FE084900F0E6FCB2
:1041AC0000F0B2FE1022214600F02CFD012070BD63
:1041BC00EA560D00DD590D0009570D000E570D0084
:1041CC00F7B53A4B0C4609780093552316460192E5
:1041DC001A460546FFF7B2FF354B61780093AA23C8
:1041EC001A4601962846FFF7A9FF324BA178009397
:1041FC0001231A4601962846FFF7A0FF2E4BE178C3
:10420C00009300231A4601962846FFF797FF2B4B85
:10421C00217A00933022312301962846FFF78EFF36
:10422C00237A302B0CBF012300232B75244B617A8E
:10423C00009300231A4601962846FFF77FFF21467C
:10424C000A222846FFF76EFF1E4AA17A0092C3B2DB
:10425C00C0F307271A4601962846FFF76FFF1A4B43
:10426C00E17A00933A463B4601962846FFF766FFF3
:10427C0021796079FFF74AFF28802379AB73637942
:10428C00EB73A3792B74E3796B74237AAB74637A35
:10429C00EB74013C6B1C05F10D0214F8011F03F8C3
:1042AC00011F9342F9D1284603B0F0BD13570D00FE
:1042BC0028570D003D570D0051570D0065570D0047
:1042CC0070570D007C570D0089570D0010B5044632
:1042DC0000F0A0FE4FF4165100F098FE002323705E
:1042EC00204610BD10B5044600F094FE03681B6810
:1042FC009847204610BD00001FB50A466846054980
:10430C0000F000FB00F000FE694600F02FFC05B049
:10431C005DF804FB97570D00F8B50D461746064699
:10432C0000F0F2FD0D4900F021FC2C460123621B2C
:10433C0097420CDD23B900F0E7FD094900F016FCAB
:10434C0014F8011B3046FFF7D7FF0023EFE700F00E
:10435C00DBFD0249BDE8F84000F008BC9C570D009D
:10436C00DD590D0070B504460D46164600F052FEA0
:10437C0003683246DB682946984723787BB100F006
:10438C00C3FD074900F0F2FB324629462046FFF7F1
:10439C00C3FF00F0B9FDBDE8704000F0EEBB70BD8E
:1043AC009E570D00F8B5054600F034FE03685B69B6
:1043BC009847C6B2552EF7D10C20FFF768FE067051
:1043CC000446064600F10B0700F024FE03681B6947
:1043DC00984718B90A2000F031FCF5E700F01AFEF6
:1043EC0003685B69984706F8010FB742ECD11620B9
:1043FC00FFF74BFE064618B12A782146FFF7E0FE80
:10440C000121204600F0A9FF2B788BB100F07CFD38
:10441C00084900F0ABFB0C22B11C2846FFF77CFFCF
:10442C0000F072FD00F0A9FB00F06EFD00F0A5FBA2
:10443C003046F8BDAB570D00F8B50378054623B1EF
:10444C0000F062FD124900F0A4FB0720FFF71DFEEF
:10445C000127002343708370C370037107700446F7
:10446C00FFF731FE07210646204600F076FF314665
:10447C000C222846FFF776FF2846FFF793FF1621FC
:10448C0000F06BFF39463046BDE8F84000F065BFE0
:10449C00B8570D0070B5054607200E46FFF7F5FD21
:1044AC001223037004462B783EB123B100F02CFD8F
:1044BC00154900F06EFB012306E023B100F024FD4A
:1044CC00124900F066FB002363700023A370E370B5
:1044DC0023712046FFF7F7FD07210646204600F022
:1044EC003CFF0C2231462846FFF73CFF2846FFF7DD
:1044FC0059FF1621047D00F030FF3046012100F0F9
:10450C002CFF204670BD00BFCF570D00DC570D00AF
:10451C0000F09CB808B500F0F7FC4FF4165100F011
:10452C00E7FC00F077FD4FF4165100F06FFD0648E4
:10453C0001230370FFF780FF00F0E6FC0349BDE8A0
:10454C00084000F026BB00BFDCE30320CF580D0071
:10455C0010B588B000F0D8FC03685B6998470D284B
:10456C002AD11E49684600F082FA00F0CDFC1C49A5
:10457C0000F00FFB00F0C8FC03685B699847C4B2FD
:10458C00214604A800F097FA04A9684600F0BBFA8B
:10459C0004A800F025FA0D2CECD100F0B5FC036852
:1045AC001049DB681122984700F0AEFC009900F02E
:1045BC00F0FA684600F014FA01210B48FFF76AFF85
:1045CC004FF4FA7000F03AFB00210748FFF762FF46
:1045DC004FF4FA7000F032FB08B010BDFF590D001B
:1045EC00F0580D0001590D00DCE3032010B50B4C05
:1045FC0000F02CF82046FFF769FE094A09492046CD
:10460C0000F0A6FE084B00221A705A804FF6FF727B
:10461C009A800320BDE8104000F0E0B8DCE30320F2
:10462C00D8E30320F1420D00E0E3032008B5024B70
:10463C001B689B68019308BD6802030008B5024B18
:10464C001B68DB68019308BD6802030008B5024BC8
:10465C001B681B68019308BD2C02030008B5024BB4
:10466C001B68DB69019308BD3002030008B5024BDF
:10467C001B685B68019308BD1802030008B5024B68
:10468C001B685B69019308BD1802030008B5024B57
:10469C001B689B68019308BD4802030008B5024BD8
:1046AC001B681B69019308BD4802030008B5024B47
:1046BC001B685B69019308BD4802030008B5024BF7
:1046CC001B681B6B019308BD4802030008B5024B25
:1046DC001B685B6C019308BD4802030008B5024BD4
:1046EC001B685B69019308BD6402030008B5024BAB
:1046FC001B681B68019308BD3C02030008B5024B04
:10470C001B68DB68019308BD3C02030008B5024B33
:10471C001B681B69019308BD3C02030008B5024BE2
:10472C001B685B69019308BD3C02030008B5024B92
:10473C001B689B69019308BD3C02030008B5024B42
:10474C001B68DB69019308BD3C02030008B5024BF2
:10475C001B689B6A019308BD3C02030008B5024B21
:10476C001B68DB6A019308BD3C02030008B5024BD1
:10477C001B681B68019308BD4C02030008B5024B73
:10478C001B685B68019308BD4C02030008B5024B23
:10479C001B681B69019308BD4C02030008B5024B52
:1047AC001B685B69019308BD4C02030008B5024B02
:1047BC001B689B69019308BD4C02030008B5024BB2
:1047CC001B68DB69019308BD4C02030008B5024B62
:1047DC001B681B6A019308BD4C02030008B5024B11
:1047EC001B685B68019308BD2002030008B5024BEF
:1047FC001B685B69019308BD2002030008B5034BDD
:10480C001B68D3F88830019308BD00002002030018
:10481C0008B5034B1B68D3F89430019308BD000016
:10482C002002030008B5024B1B685B68019308BDAE
:10483C004002030008B5024B1B689B68019308BD3E
:10484C004002030008B5024B1B68DB68019308BDEE
:10485C004002030008B5024B1B681B69019308BD9D
:10486C004002030008B5024B1B685B69019308BD4D
:10487C004002030008B5024B1B689B69019308BDFD
:10488C004002030008B5024B1B68DB69019308BDAD
:10489C004002030008B5024B1B681B6A019308BD5C
:1048AC004002030008B5024B1B681B6B019308BD4B
:1048BC004002030008B5024B1B685B6B019308BDFB
:1048CC004002030008B5024B1B68DB6B019308BD6B
:1048DC004402030008B5024B1B681B68019308BD1A
:1048EC001C02030008B5024B1B685B68019308BDF2
:1048FC001C02030008B5024B1B689B68019308BDA2
:10490C001C02030008B5024B1B68DB68019308BD51
:10491C001C020300002211464068FFF7BBBF0022B7
:10492C0011464068FFF7C6BF00224068FFF7BABFC8
:10493C00002281F001014068FFF7A4BF00231A4652
:10494C0019464068FFF796BF00231A46194640687F
:10495C00FFF788BF002211464068FFF77BBF00229B
:10496C0011464068FFF766BF002202214068FFF73E
:10497C0069BF00231A464068FFF754BF024B03225D
:10498C005A60024A1A607047E8E303201C590D0074
:10499C00704710B51021044600F0DFFC204610BD16
:1049AC0070B5084B0360044600250E4640F80C5FBA
:1049BC00FFF784FE30462671FFF750FEA5602046B7
:1049CC0070BD00BF50590D00044B00204FF6FF7214
:1049DC00187058809A80FFF701BF00BFF0E30320E6
:1049EC0010B504460068FFF77DFF204610BD10B5DA
:1049FC000446006808B1FFF775FF00232360A3602D
:104A0C00636010BD38B504460D4600680131FFF7F0
:104A1C0071FF10B184E82100012038BD10B5036886
:104A2C00044613B143688B4207D22046FFF7EAFFD6
:104A3C0020B1A3680BB922681370012010BD70B5AA
:104A4C000E46114604461546FFF7E8FF18B92046F6
:104A5C00FFF7CDFF09E02A463146A560206800F03B
:104A6C00D5FD2268A3680021D154204670BD38B50D
:104A7C000023044603604360836003730D4639B121
:104A8C00084600F007FE294602462046FFF7D7FFEE
:104A9C00204638BD38B505460C4641B1084600F0F5
:104AAC00F9FD214602462846FFF7C9FF01E0FFF752
:104ABC009EFF284638BD13B500238DF80410036003
:104ACC0043608360037301A904468DF80530FFF73A
:104ADC00E1FF204602B010BD70B504460E4609B980
:104AEC00002070BD6AB18368D5182946FFF796FF80
:104AFC000028F5D02068A3683146184400F0C2FDA8
:104B0C00A560012070BD8A680968FFF7E5BF000049
:104B1C00024800230360FFF7D9BD00BFF8E3032070
:104B2C00F8B506460D468F180024BD420CD03368EC
:104B3C0015F8011B9B6830469847002801DB04449C
:104B4C00F3E7002C08BF04462046F8BD70B50546B7
:104B5C000C46084649B100F09DFD2B6802462146E3
:104B6C002846DB68BDE87040184770BD08B5FFF7F4
:104B7C00EDFF08BD03689B68184738B50D21054645
:104B8C00FFF7F8FF0A2104462846FFF7F3FF2044FD
:104B9C0038BD38B50546FFF7D9FF04462846FFF760
:104BAC00ECFF204438BD30B58BB00B4600218DF89E
:104BBC002410012A98BF0A220DF12304B3FBF2F54D
:104BCC0005FB123303F0FF03092B94BF303337334B
:104BDC00DBB2214604F801392B46002DEED1FFF74C
:104BEC00B5FF0BB030BD10B42AB903685DF8044BA7
:104BFC009B68C9B21847D2B25DF8044BFFF7D3BF1C
:104C0C00FFF7F1BF38B50546FFF7EDFF0446284620
:104C1C00FFF7B3FF204438BD014B024A1A607047BE
:104C2C00FCE30320CB590D00024B1A68024B1A60AF
:104C3C00704700BF70E3032000E403200021FFF75E
:104C4C00D5BD10B58368044613B1032201469847BD
:104C5C00204610BD10B50446FFF7F3FF204610BDEB
:104C6C000348044A04490023836000F071BB00BF71
:104C7C0004E40320D8E30320614C0D0008B50F4B6E
:104C8C0033B100F041F903681B69984700280DDC2B
:104C9C000B4B33B100F0BEF903681B699847002831
:104CAC0007DC084B43B1AFF3008008BDAFF30080C5
:104CBC00EEE7AFF30080F4E708BD00BF0000000092
:104CCC00000000000000000008B5FFF7D7FFFFF759
:104CDC00D5FC014B186008BD4CE7032007B5002339
:104CEC0000931A466FF07701FFF792FD03B05DF861
:104CFC0004FB000007B543880A2B08D0502B09D1C0
:104D0C00094B1B683BB103B05DF804EB1847FFF788
:104D1C00E5FF06E0002300931A466FF07701FFF7DA
:104D2C0077FD03B05DF804FB14E4032010B5FFF726
:104D3C009DFC044600F07EFC074B13B12046AFF3FC
:104D4C00008000210448FFF7BDFD00210348BDE8A9
:104D5C001040FFF753BD00BF00000000014D0D00D7
:104D6C00704710B51821044600F0F7FA204610BD24
:104D7C00F0B5037D062B8DB00E4600F104074FF005
:104D8C00000402D000F1080518E00CAD394605F816
:104D9C00304D2F232A460A20FFF7A0FC284600F0AE
:104DAC0079FC33680246DB682946304698470FE0A9
:104DBC0024B12E213046FFF7DDFE044415F8011D09
:104DCC000A223046FFF71CFFBD420444F0D12046B6
:104DDC000DB0F0BD10B5054B0446112240F8043B54
:104DEC00002100F01EFC204610BD00BF685A0D00CB
:104DFC000346074A10B543F8042B01F1100251F891
:104E0C00044B43F8044B9142F9D10A781A7010BD47
:104E1C00685A0D0010B59DF8084044EA032343EA94
:104E2C00024242EA016104234160037510BD37B5AB
:104E3C000D788B784A78C97800912946FFF7EAFFFC
:104E4C0003B030BD41747047704708B50021007C39
:104E5C00FFF7ACFC30EA200028BF4FF0FF3008BD54
:104E6C0008B50121007CFFF7A1FC30EA200028BF27
:104E7C004FF0FF3008BD08B5007CFFF78FFC20EA2F
:104E8C00E07008BD08B5007CFFF780FC20EAE070FC
:104E9C0008BD007CFFF79ABC10B51421044600F045
:104EAC005CFA204610BD38B50446007C0D46FFF771
:104EBC0075FC002801DC607C28B12946207CFFF7BA
:104ECC007DFC20EAE07038BD10B504460023636019
:104EDC004FF47A73A360054B2360012308462174B9
:104EEC0063741146FFF742FC204610BD7C5A0D003E
:104EFC000022007CFFF742BC10B5142204460021AE
:104F0C0000F08FFB204610BD30B50E4D87B001A8C8
:104F1C00FFF7F2FF296811F0010410D12846FFF7C2
:104F2C00BCF860B101AA21460748FFF7CDFF28461F
:104F3C00FFF7B8F8054A0649034800F009FA024899
:104F4C0007B030BD18E403201CE40320D8E3032091
:104F5C00554E0D0070474174704708B5007CFFF743
:104F6C00F5FB20EAE07008BD08B5007CFFF7CEFB2E
:104F7C0020EAE07008BD08B5007CFFF7D7FB30EAEB
:104F8C00200028BF4FF0FF3008BD08B5007CFFF7AC
:104F9C00C5FB30EA200028BF4FF0FF3008BD007C75
:104FAC00FFF7CCBB10B51421044600F0D6F920460F
:104FBC0010BD70B5457C04460E4625B9007CFFF744
:104FCC00C5FB002805DD3146207CBDE87040FFF7AD
:104FDC0095BB284670BD000010B504460846114626
:104FEC00002262604FF47A72A260054A22600122AC
:104FFC00207462741A46FFF779FB204610BD00BF7F
:10500C00AC5A0D000023007CFFF7A8BB0022FFF771
:10501C00F9BF000038B50C4D296811F0010411D10D
:10502C002846FFF73AF868B1084A094B0948214667
:10503C00FFF7D2FF2846FFF735F8074A074905481E
:10504C0000F086F9034838BDC8E40320CCE4032003
:10505C0044E4032030E40320D8E30320614F0D0027
:10506C00002211464068FFF715BC0022114640682B
:10507C00FFF720BC00224068FFF714BC002281F02F
:10508C0001014068FFF7FEBB00231A46012140686E
:10509C00FFF7F0BB00231A4619464068FFF7E2BB46
:1050AC00002211464068FFF7D5BB0022114640682C
:1050BC00FFF7C0BB002202214068FFF7C3BB0023EF
:1050CC001A464068FFF7AEBB38B5054688B1046890
:1050DC004CB1A3681BB103222146204698471021EE
:1050EC00204600F03AF928461421BDE8384000F07B
:1050FC0034B938BD10B103685B681847704710B5F8
:10510C0003680446BBB15868FFF7C0FA78B9236846
:10511C005A7C12B95868FFF7C1FA23685868FFF730
:10512C00C5FA20680023236028B1FFF7CDFF206863
:10513C0008B1FFF7C9FF204610BD000038B50C4B75
:10514C0003600446D0F8CC0108B1FEF7A4FFD4F8F4
:10515C00C45135B12846FFF7D2FF0421284600F090
:10516C00FCF8A06808B1FFF7C5FF204638BD00BFAA
:10517C00DC5A0D0038B50E4C0E4B23600025022373
:10518C0004F5E4706360A560C4F8C451C4F8C85158
:10519C00FFF79CFA084BC4F8CC5184F8D05123602B
:1051AC002046064A0649BDE8384000F0D1B800BF99
:1051BC0050E50320105B0D00DC5A0D00D8E30320F2
:1051CC0049510D0000231A464068FFF72BBB002203
:1051DC0002214068FFF736BB002211464068FFF7FA
:1051EC0029BB002211464068FFF734BB00231A4646
:1051FC0019464068FFF736BB00231A46194640682B
:10520C00FFF738BB002281F001014068FFF73ABB81
:10521C0000224068FFF746BB002211464068FFF7AA
:10522C0049BB002211464068FFF734BB2DE9F0431F
:10523C00002495B016460D460746FFF7CBFD2146D8
:10524C0020220CA8009400F0ECF940230C9321468A
:10525C006B460CAA3046FFF7F1F90446002844D1FE
:10526C00024601216868FFF7F5FA022180462246C2
:10527C006868FFF7EFFA009E81462146002E34D075
:10528C00002932D17368022B02D00A2B09D02AE0F4
:10529C00B8F1000F27D0716938460431FFF7C7FD0C
:1052AC0020E0B9F1000F1ED07469112201A800F0A2
:1052BC00B8F906238DF8143001AD04F10803183445
:1052CC00186859682A4603C20833A3421546F7D119
:1052DC0001A906A807ADFFF78BFD0FCD3C1D0FC430
:1052EC002B6823700121F669C8E70098FFF79EF937
:1052FC00384615B0BDE8F083024B034A1A60002211
:10530C005A60704724E70320105B0D0070B50C4CFD
:10531C000C4E0D4D00212046FFF742FB20460B4C56
:10532C003246294600F014F801212046FFF738FBDD
:10533C00324629462046BDE8704000F009B800BF4F
:10534C002CE70320D8E303209D490D003CE7032004
:10535C000B460146184600F04BB9FEF79ABE00000A
:10536C00184B1A68D1075CBF01221A60164B1A68D9
:10537C00D2075CBF01221A60144B1A68D0075CBFBD
:10538C0001221A60124B1A68D1075CBF01221A6005
:10539C00104B1A68D2075CBF01221A600E4B1A68B8
:1053AC00D0075CBF01221A600C4B1A68D1075CBF96
:1053BC0001221A600A4B1A68D2075CBF01221A60DC
:1053CC00704700BF6CE7032068E7032064E7032005
:1053DC0060E703205CE7032058E7032054E7032031
:1053EC0050E70320244B1A68D0075CBF01221A60D7
:1053FC00224B1A68D1075CBF01221A60204B1A6835
:10540C00D2075CBF01221A601E4B1A68D0075CBF22
:10541C0001221A601C4B1A68D1075CBF01221A606A
:10542C001A4B1A68D2075CBF01221A60184B1A6813
:10543C00D0075CBF01221A60164B1A68D1075CBFFB
:10544C0001221A60144B1A68D2075CBF01221A6041
:10545C00124B1A68D0075CBF01221A60104B1A68F5
:10546C00D1075CBF01221A600E4B1A68D2075CBFD1
:10547C0001221A60704700BF9CE7032098E70320C5
:10548C0094E7032090E703208CE7032088E70320B0
:10549C0084E7032080E703207CE7032078E70320E0
:1054AC0074E7032070E70320244B1A68D0075CBF15
:1054BC0001221A60224B1A68D1075CBF01221A60C4
:1054CC00204B1A68D2075CBF01221A601E4B1A6867
:1054DC00D0075CBF01221A601C4B1A68D1075CBF55
:1054EC0001221A601A4B1A68D2075CBF01221A609B
:1054FC00184B1A68D0075CBF01221A60164B1A6849
:10550C00D1075CBF01221A60144B1A68D2075CBF2A
:10551C0001221A60124B1A68D0075CBF01221A6074
:10552C00104B1A68D1075CBF01221A600E4B1A6827
:10553C00D2075CBF01221A60704700BFCCE7032082
:10554C00C8E70320C4E70320C0E70320BCE703201F
:10555C00B8E70320B4E70320B0E70320ACE703204F
:10556C00A8E70320A4E70320A0E70320184B1A6840
:10557C00D1075CBF01221A60164B1A68D2075CBFB8
:10558C0001221A60144B1A68D0075CBF01221A6002
:10559C00124B1A68D1075CBF01221A60104B1A68B3
:1055AC00D2075CBF01221A600E4B1A68D0075CBF91
:1055BC0001221A600C4B1A68D1075CBF01221A60D9
:1055CC000A4B1A68D2075CBF01221A60704700BFF1
:1055DC00ECE70320E8E70320E4E70320E0E70320FF
:1055EC00DCE70320D8E70320D4E70320D0E703202F
:1055FC0010B5054C13462CB10A4601460220AFF3F8
:10560C00008010BD204610BD0000000010B5431EE8
:10561C000A44914204D011F8014B03F8014FF8E70A
:10562C0010BD02440346934202D003F8011BFAE773
:10563C007047000038B5124B1C68A36B0546D3B9F4
:10564C001820FFF747F943F20E33A06303804AF6A4
:10565C00CD33438041F2342383804EF26D63C3809B
:10566C004DF6EC630381052343810B2383810122D7
:10567C000023C0E90423A36B00221D615A6138BDCD
:10568C00D4E30320034611F8012B03F8012B002A65
:10569C00F9D17047034613F8012B002AFBD1181AD5
:1056AC00013870471D400D0059400D0085400D001C
:1056BC0089400D00000000000000011002100310D2
:1056CC000410051006100710081009100A100B1012
:1056DC000C100D100E100F1010101110121052652E
:1056EC0073706F6E73655F5061636B65742070616E
:1056FC007273696E67206572726F722000207C7CF9
:10570C00200020213D2000434F4D4D414E445F531E
:10571C00544152545F434F44455F3100434F4D4D0C
:10572C00414E445F53544152545F434F44455F32A2
:10573C0000434F4D4D414E445F4445564943455FF0
:10574C0049445F3100434F4D4D414E445F444556F3
:10575C004943455F49445F320041636B4E616B5F67
:10576C004C4F570041636B4E616B5F484947480093
:10577C00436865636B73756D5F4C4F570043686589
:10578C00636B73756D5F4849474800252E3258008E
:10579C002200465053202D2053454E443A200046BB
:1057AC005053202D20524543563A2000465053204A
:1057BC002D204F70656E00465053202D20436C6F8A
:1057CC00736500465053202D204C4544206F6E00CD
:1057DC00465053202D204C4544206F6666004650A1
:1057EC0053202D204368616E676542617564526178
:1057FC00746500465053202D20476574456E726FBA
:10580C006C6C6564436F756E7400465053202D208C
:10581C00436865636B456E726F6C6C6564004650D3
:10582C0053202D20456E726F6C6C53746172740032
:10583C00465053202D20456E726F6C6C31004650D3
:10584C0053202D20456E726F6C6C320046505320E5
:10585C002D20456E726F6C6C3300465053202D20FA
:10586C004973507265737346696E67657200465072
:10587C0053202D2044656C65746549440046505393
:10588C00202D2044656C657465416C6C004650534A
:10589C00202D20566572696679315F310046505370
:1058AC00202D204964656E74696679315F4E00461F
:1058BC005053202D204361707475726546696E6774
:1058CC0065720050726573732052455455524E20C8
:1058DC00746F20656E7465722061206D65737361E1
:1058EC0067652E00456E7465722061206D6573735B
:1058FC006167652E00596F7572206D6573736167F2
:10590C00652069733A2000000000000000000000D0
:10591C007F490D0075490D006B490D0061490D0063
:10592C0055490D0049490D003D490D0035490D0003
:10593C002B490D0021490D0039520D0000000000CB
:10594C00000000009D490D009F490D0062617564C7
:10595C000053657269616C0053657269616C31004A
:10596C007479706500706172616D00636D640069BB
:10597C006400686E64007374726D0066696C740008
:10598C006C766C0061646448616E646C6572007264
:10599C00656D6F766548616E646C657200656E75D9
:1059AC006D48616E646C657273004A534F4E53744C
:1059BC007265616D4C6F6748616E646C65720061F5
:1059CC00707000253031307520005D20002564009A
:1059DC002C200028293A2000205B00636F6465208E
:1059EC003D200025690064657461696C73203D205D
:1059FC00000D0A006C6E00666E00636F64650064D7
:105A0C00657461696C006E6F6E65007472616365BC
:105A1C0000696E666F007761726E006572726F72EC
:105A2C000070616E696300616C6C005A00252B304C
:105A3C0033643A253032750025592D256D2D25649A
:105A4C005425483A254D3A2553257A0061736374E1
:105A5C00696D650000000000000000007D4D0D0028
:105A6C006D4D0D006F4D0D0000000000000000009A
:105A7C00554E0D00A54E0D00B34E0D002D4B0D00D7
:105A8C00914E0D00574E0D006D4E0D009F4E0D00AA
:105A9C00834E0D00514E0D00000000000000000070
:105AAC00614F0D00B14F0D00BF4F0D002D4B0D0080
:105ABC00754F0D00974F0D00834F0D00AB4F0D0030
:105ACC00634F0D00674F0D00000000000000000048
:105ADC00CB500D00C1500D00B7500D00AD500D0056
:105AEC00A1500D0095500D0089500D0081500D00F6
:105AFC0077500D006D500D0039520D000000000064
:105B0C0000000000D1510D00DB510D00E5510D00DE
:105B1C00EF510D00F9510D0005520D0011520D0001
:105B2C001D520D0025520D002F520D0039520D0043
:105B3C000000000000000000000000000000000059
:105B4C000000000000000000000000000000000049
:105B5C000000000000000000000000000000000039
:105B6C000000000000000000000000000000000029
:105B7C000000000000000000000000000000000019
:105B8C000000000000000000000000000000000009
:105B9C00430000001D450D00F9450D0089490D001D
:105BAC00D5490D001D4B0D00254C0D00354C0D003D
:105BBC006D4C0D0081510D0005530D0019530D0056
:105BCC006D530D00F1530D00B5540D0079550D00BA
:045BDC0000000000C5
:105BE000585A0D00000000003C5B0D005C5B0D008E
:105BF0007C5B0D00000000000000000000000000C1
:105C0000000000009C5B0D00000000000000000090
:105C10000000000000000000000000000000000084
:105C20000000000000000000000000000000000074
:105C30000000000000000000000000000000000064
:085C40000000000074E30320E2
:105C4800FFFFFFFF00000102030405060708090A19
:105C58000B0C0D0E0F101112131415161718191A14
:085C68001B1C1D1E1F2028005B
:045C7000785634121C
:04000003D000401CCD
:00000001FF
