:02000002D0002C
:1040000000400D0074710D00000006000E00050157
:0840100004017E050000000020
:04401800906A0D009D
:10401C0009480A49884208B505D0094A824202D0AB
:10402C00121A02F0C4FC0748074A0021121A02F0C7
:10403C00E4FC014808BD00BFF8E20320E0700D006D
:10404C0064E3032064E30320F0E7032070B501F080
:10405C006FFF074C074BE41AA40800251E46A54227
:10406C0004D056F8253098470135F8E770BD00BFED
:10407C00D4700D009C700D0000F03EB808B500F037
:10408C00CFF8BDE8084001F021BF00F0A9BC00F05A
:10409C00AFBC00F0ADBC0078B0FA80F040097047BE
:1040AC0001230370704738B5044602F02FF805461B
:1040BC0044B1204602F0D2FC2B680246DB68214654
:1040CC00284698472378622B08D0632B0AD0612BA3
:1040DC004FF0000209D11146642008E0002264214F
:1040EC00104604E06422002100E0FF210846BDE8F0
:1040FC00384001F096BE000010B596B001F056F8AD
:10410C00404A01460DA801F099FC0DA801F00AF9EE
:10411C0001F04CF83C4A01460DA801F08FFC0DA8AB
:10412C0001F000F901F042F8384A01460DA801F0FF
:10413C0085FC0DA801F0F6F801F038F8344A014678
:10414C000DA801F07BFC0DA801F0ECF80022314920
:10415C002F4800F0D7FF0DA800F009FF2E4903A847
:10416C0000F0B0FD03A908A800F0ACFD08A800F011
:10417C00E7FD044608A844B900F0FFFD16AA022387
:10418C0022F84E0D0321009406E000F0F8FD002308
:10419C0000930246102307210DA800F0A1FE01F0A8
:1041AC0005F800220DA901F06EF801F0AFFF4FF4F5
:1041BC00165101F09FFF012001F023FEFF21002288
:1041CC00084601F02EFE0121402001F03DFE0121A8
:1041DC00072002F0FFF90121072002F00CFA01F090
:1041EC0095FF0E4901F074FD01F090FF044602F0BA
:1041FC003DFA00F0CFF90A2281B2204601F0D6FD3B
:10420C0016B010BD94E303209CE30320A4E3032029
:10421C008CE30320B3400D0078E30320A46A0D0067
:10422C0037B5204C00F0A6F92368C01AB0F5FA6F28
:10423C0035D300F09FF9206000F0B8FF01F040F892
:10424C00194C0546237818B333B901F05FFF1749B1
:10425C0001F051FD0123237002A9012401F8034D43
:10426C0022460023124800F0EBFE02A9022301F8BB
:10427C00023D224600230F4800F0E2FE02A9032370
:10428C0001F8013D224600230B4800F0D9FE06E060
:10429C002BB101F03BFF094901F02DFD257003B056
:1042AC0030BD00BFACE30320B0E30320B76A0D00C0
:1042BC0094E303209CE30320A4E30320CC6A0D00C9
:1042CC00F0B50E468FB0002104460160416009AD87
:1042DC00194604A8174600F0F5FC1499284600F07E
:1042EC00F1FC169B0293159B01932046009504ABA1
:1042FC003A46314601F0F0FA20460FB0F0BD00000E
:10430C002DE9F04794B000F0F5F8594B594FDFF810
:10431C00A4A1DFF8A491DFF8A48100244FF6FF726A
:10432C001C705C809A8003200FAE00F0E5FA5249B5
:10433C0038460AAD00F0B1FD5049304600F0ADFDF5
:10434C003946284600F0BEFC334602940194009591
:10435C0010224B495046FFF7B3FF4A4641465046A0
:10436C0002F0B8F9DFF858A14649304600F095FD47
:10437C003946284600F0A6FC334602940194009579
:10438C00102241495046FFF79BFF4A464146504692
:10439C0002F0A0F9DFF82CA13C49304600F07DFD7D
:1043AC003946284600F08EFC334602940194009561
:1043BC00102237495046FFF783FF4A464146504684
:1043CC0002F088F9DFF800A13249304600F065FDB3
:1043DC003946284600F076FC334602940194009549
:1043EC0010222D495046FFF76BFF4A464146504676
:1043FC0002F070F9DFF8D4A02849304600F04DFDEA
:10440C003946284600F05EFC334602940194009530
:10441C00102223495046FFF753FF4A464146504667
:10442C0002F058F9394605A800F04CFC1D4B1E4F04
:10443C00D3F800A03C6051467C60284600F02DFD6E
:10444C0005A9304600F03EFC184B019338462B462C
:10445C00CDF808A000960422154901F03DFA4A4611
:10446C004146384602F036F914B0BDE8F08700BF7B
:10447C0068E3032078E30320E46A0D00096B0D0068
:10448C00106B0D00156B0D001C6B0D00276B0D00D8
:10449C004C6B0D005B6B0D00806B0D00826B0D0087
:1044AC00036F0D00F8E203208CE30320B3400D00F2
:1044BC00A76B0D00B4E3032064E3032031530D001C
:1044CC0070E3032094E303209CE30320A4E3032084
:1044DC00FFF716BF08B5024B1B689B68019308BD1C
:1044EC006802030008B5024B1B68DB68019308BD2A
:1044FC006802030008B5024B1B681B68019308BDDA
:10450C002C02030008B5024B1B689B68019308BD85
:10451C002C02030008B5024B1B68DB68019308BD35
:10452C002C02030008B5024B1B681B69019308BDE4
:10453C002C02030008B5024B1B68DB69019308BD14
:10454C003002030008B5024B1B681B6A019308BDBF
:10455C003002030008B5024B1B685B68019308BD71
:10456C001802030008B5024B1B68DB68019308BDF9
:10457C001802030008B5024B1B685B69019308BD68
:10458C001802030008B5024B1B689B6A019308BD17
:10459C001802030008B5024B1B685B6B019308BD46
:1045AC001802030008B5024B1B689B68019308BDF9
:1045BC007402030008B5024B1B681B6D019308BD08
:1045CC007402030008B5024B1B689B6D019308BD78
:1045DC007402030008B5024B1B681B6E019308BDE7
:1045EC007402030008B5034B1B68D3F89830019391
:1045FC0008BD00007402030008B5034B1B68D3F818
:10460C00A830019308BD00007402030008B5034BE9
:10461C001B68D3F8B430019308BD0000740203008A
:10462C0008B5034B1B68D3F8D830019308BD0000C4
:10463C007402030008B5034B1B68D3F8DC300193FC
:10464C0008BD00007402030008B5034B1B68D3F8C7
:10465C00EC30019308BD00007402030008B5034B55
:10466C001B68D3F8F030019308BD000074020300FE
:10467C0008B5034B1B68D3F80031019308BD00004B
:10468C007402030008B5034B1B68D3F80431019383
:10469C0008BD00007402030008B5024B1B689B6840
:1046AC00019308BD4802030008B5024B1B681B6947
:1046BC00019308BD4802030008B5024B1B685B69F7
:1046CC00019308BD4802030008B5024B1B681B6B25
:1046DC00019308BD4802030008B5024B1B685B6CD4
:1046EC00019308BD4802030008B5024B1B68DB6C44
:1046FC00019308BD4802030008B5024B1B685B6DB3
:10470C00019308BD4802030008B5024B1B685B69A6
:10471C00019308BD6402030008B5024B1B681B68BB
:10472C00019308BD3C02030008B5024B1B68DB6813
:10473C00019308BD3C02030008B5024B1B681B69C2
:10474C00019308BD3C02030008B5024B1B685B6972
:10475C00019308BD3C02030008B5024B1B689B6922
:10476C00019308BD3C02030008B5024B1B68DB69D2
:10477C00019308BD3C02030008B5024B1B681B6A81
:10478C00019308BD3C02030008B5024B1B689B6AF1
:10479C00019308BD3C02030008B5024B1B681B6A61
:1047AC00019308BD2802030008B5024B1B685B6A25
:1047BC00019308BD2802030008B5024B1B689B6AD5
:1047CC00019308BD2802030008B5024B1B68DB6A85
:1047DC00019308BD2802030008B5024B1B681B6B34
:1047EC00019308BD2802030008B5024B1B685B6BE4
:1047FC00019308BD2802030008B5024B1B681B6C13
:10480C00019308BD2802030008B5024B1B681B6806
:10481C00019308BD4C02030008B5024B1B685B6892
:10482C00019308BD4C02030008B5024B1B681B69C1
:10483C00019308BD4C02030008B5024B1B685B6971
:10484C00019308BD4C02030008B5024B1B689B6921
:10485C00019308BD4C02030008B5024B1B68DB69D1
:10486C00019308BD4C02030008B5024B1B681B6A80
:10487C00019308BD4C02030008B5024B1B685B6832
:10488C00019308BD6002030008B5024B1B689B68CE
:10489C00019308BD6002030008B5024B1B68DB687E
:1048AC00019308BD6002030008B5024B1B681B692D
:1048BC00019308BD6002030008B5024B1B689B699D
:1048CC00019308BD6002030008B5024B1B68DB694D
:1048DC00019308BD6002030008B5024B1B685B6BBB
:1048EC00019308BD6002030008B5024B1B681B6DE9
:1048FC00019308BD6002030008B5024B1B685B689E
:10490C00019308BD2002030008B5034B1B68D3F8C4
:10491C008830019308BD00002002030008B5034B4A
:10492C001B68D3F89430019308BD000020020300EB
:10493C0008B5024B1B685B68019308BD400203007D
:10494C0008B5024B1B689B68019308BD400203002D
:10495C0008B5024B1B68DB68019308BD40020300DD
:10496C0008B5024B1B681B69019308BD400203008C
:10497C0008B5024B1B685B69019308BD400203003C
:10498C0008B5024B1B689B69019308BD40020300EC
:10499C0008B5024B1B68DB69019308BD400203009C
:1049AC0008B5024B1B681B6A019308BD400203004B
:1049BC0008B5024B1B681B6B019308BD400203003A
:1049CC0008B5024B1B685B6B019308BD40020300EA
:1049DC0008B5024B1B68DB6B019308BD4402030056
:1049EC0008B5024B1B681B68019308BD1C02030031
:1049FC0008B5024B1B685B68019308BD1C020300E1
:104A0C0008B5024B1B689B68019308BD1C02030090
:104A1C00002211464068FFF7C3BF002211464068D0
:104A2C00FFF7CEBF00224068FFF7C2BF002281F023
:104A3C0001014068FFF7ACBF00231A4619464068D5
:104A4C00FFF79EBF00231A4619464068FFF790BF38
:104A5C00002211464068FFF783BF002211464068D0
:104A6C00FFF76EBF002202214068FFF771BF0023E1
:104A7C001A464068FFF75CBF024B03225A60024A99
:104A8C001A607047BCE30320E86B0D00704710B54B
:104A9C001021044601F023FE204610BD70B5084BD2
:104AAC000360044600250E4640F80C5FFFF70CFE31
:104ABC0030462671FFF73EFDA560204670BD00BF55
:104ACC001C6C0D000079FFF73DBD0000044B00206D
:104ADC004FF6FF72187058809A80FFF70DBF00BF19
:104AEC00C4E3032010B504460068FFF781FF20469D
:104AFC0010BD10B50446006808B1FFF779FF00231C
:104B0C002360A360636010BD38B504460D46006891
:104B1C000131FFF775FF10B184E82100012038BD89
:104B2C0010B50368044613B143688B4207D2204684
:104B3C00FFF7EAFF20B1A3680BB9226813700120BC
:104B4C0010BD70B50E46114604461546FFF7E8FF3A
:104B5C0018B92046FFF7CDFF09E02A463146A5607B
:104B6C00206801F024FF2268A3680021D15420465C
:104B7C0070BD38B500230446036043608360037343
:104B8C000D4639B1084601F069FF29460246204618
:104B9C00FFF7D7FF204638BD38B505460C4641B166
:104BAC00084601F05BFF214602462846FFF7C9FF85
:104BBC0001E0FFF79EFF284638BD70470020704784
:104BCC0070470020704770470020704710B51421C3
:104BDC00044601F084FD204610BD10B51421044696
:104BEC0001F07DFD204610BD10B51421044601F0E6
:104BFC0076FD204610BDFFF74ABAFFF748BAFFF71B
:104C0C0046BA000008B50A20024A0021FFF764FEEC
:104C1C0008BD00BF71450D0010B5036804469B68C4
:104C2C009847A368013BA3602BB923682046DB6837
:104C3C00BDE81040184710BDA0F13003DAB2092AC4
:104C4C0001D818467047A0F16103052B01D85738DD
:104C5C007047A0F14103052B94BF37384FF0FF305C
:104C6C007047000010B500230370044B044618680D
:104C7C00FFF73AFD01232370204610BDD8E3032033
:104C8C0010B5037804461BB1024B1868FFF734FDCE
:104C9C00204610BDD8E3032008B582798B799A425F
:104CAC0006D1062201F074FEB0FA80F0400908BD6E
:104CBC00002008BD10B514220446002101F09DFE11
:104CCC00204610BD10B5034601F1140251F8044BF7
:104CDC0043F8044B9142F9D110BD70B50C46054612
:104CEC001646FFF7E7FF2CB910222146284601F0A3
:104CFC0084FE16E0012E09D12B4604F1100254F863
:104D0C00041B43F8041B9442F9D108E06A1E0F23DC
:104D1C00E15C02F8011F013BDBB2FF2BF8D1012350
:104D2C002B74284670BD38B5044615461A46FFF755
:104D3C00D4FF257301232D0A65732374204638BDD7
:104D4C00037C13F0FD0F14BF0120002070471FB52A
:104D5C000446FFF7F5FF08B9208809E0102200216E
:104D6C00684601F04AFE10226946204601F010FE0A
:104D7C00003018BF012004B010BD00887047704788
:104D8C0010B5034601F1140251F8044B43F8044BDF
:104D9C009142F9D110BD10B551B1034601F1100289
:104DAC0051F8044B43F8044B9142F9D1012303749D
:104DBC0010BD10B50446FFF7C3FF28B90888238837
:104DCC001B1A5842584110BD1022204601F0E0FD3C
:104DDC00B0FA80F0400910BDF7B505460E4619B97A
:104DEC00102201F00AFE51E02421304601F03EFE73
:104DFC00042802D0002710243BE03078FFF71CFF7A
:104E0C00041E47DB7078FFF717FF002842DB40EAEF
:104E1C0004108DF80400B078FFF70EFF041E39DB88
:104E2C00F078FFF709FF002834DB40EA04109DF806
:104E3C000430C0B240EA03202880002327E02CB3C2
:104E4C00F05DFFF7F9FE030612D4013C0001285572
:104E5C002421304601F00AFE0137874208D2F05D6A
:104E6C00FFF7EAFE40B20028A2BF2B5D184328557D
:104E7C0001372421304601F0F9FD8742DFD32C4461
:104E8C000023A54202D004F8013DFAE701232B745C
:104E9C0003B0F0BD00232B80CFE738B504460D4698
:104EAC00FFF708FF20462946FFF796FF204638BD3E
:104EBC00F0B58BB10024E51C8D420FD8661C055D46
:104ECC00875D974205D12E44B14207D31C60681C04
:104EDC00F0BD01352C44EEE71846F0BD0020F0BDC6
:104EEC002DE9F74304460E461D461746002A3AD0D4
:104EFC000A4601AB016AFFF7DBFF9DF82830226AF6
:104F0C0003BBF8B1961C2E44361A1F2E2BD8DDF895
:104F1C00048008F10209C8EB0202121A00EB080126
:104F2C0005EB090092B22144204401F04BFD6B1CAF
:104F3C0004F808302A46394604EB090001F037FD25
:104F4C00266210E0901C2B181F2B0CD86B1CA35442
:104F5C00224420623946567020442A4601F027FD2F
:104F6C00226A2A442262206A03B0BDE8F0831FB58E
:104F7C000446034600F11F02002003F8010B934284
:104F8C004FF00001F9D104AA062302F8013D0123D8
:104F9C002162009120461946FFF7A2FF204604B07B
:104FAC0010BD73B50A460E4601AB016A0446FFF705
:104FBC007FFF054678B10198226A2918121A521BF4
:104FCC002144204401F0F3FC236A5D1B2562314629
:104FDC002046FFF7E6FF02B070BD000038B5002593
:104FEC004FF6FF73044643800E2229460570057167
:104FFC00063001F002FD04F11400FFF75BFE04F132
:10500C002800FFF757FE044904F13C00FFF7B1FDFF
:10501C00E5642565204638BDCF6E0D0010B583695B
:10502C00C26903EBC2029342184606D00468248876
:10503C008C4203F10803F6D110BD002010BD000016
:10504C002DE9F34180461F460E4669B362B3F42A3C
:10505C00056828BFF42214462A78A2B12B79980748
:10506C0007D500232246A889FFF7D0FA002802DAD8
:10507C0043E06FF07700D8F800502B79DA0618D59A
:10508C00012F23D115E068884FF6FF7398420DD09D
:10509C002B79590723D5012F21D0A98900922346BA
:1050AC003246FFF7C7FA28E0154826E06FF0D1002A
:1050BC0023E09A0621D5022F1FD0A889002322466F
:1050CC00314602B0BDE8F041FFF7DCBAA8890023F5
:1050DC002246314602B0BDE8F041FFF7C9BA1B07C2
:1050EC0001D5022F02D16FF0770006E00023A989C9
:1050FC00009332462346FFF793FA02B0BDE8F081E5
:10510C00F2FEFFFF0368D9641A65704710B50A6890
:10511C0052F8023F03605368436010BD1FB502682C
:10512C000B6812881B889A420C460CD101466846C3
:10513C00FFF7ECFF214602A8FFF7E8FF02A968463B
:10514C00FFF7AAFD00B9002004B010BD10B504464D
:10515C003420FEF79AFF014668B1002303604360D8
:10516C008360C360036143618361C3610362436213
:10517C008362C3620363216019B90A4A0A20FFF7EC
:10518C00ABFB0020FFF70EFA20B1064A00210A20E3
:10519C00FFF7A2FB002221680348FFF75FFA2046C5
:1051AC0010BD00BF71450D0091550D0010B50A4C96
:1051BC002368DB070ED42046FEF76DFF50B107487D
:1051CC00FFF7C4FF2046FEF76BFF054A054903486D
:1051DC0001F080FA014810BDD0E30320CCE303209A
:1051EC0064E30320A5530D0070B50368093B012B44
:1051FC008AB004460E4619D8FFF7D8FFA18800687C
:10520C00FFF70CFF024658B920230293084B03907A
:10521C00009302AA034607493220FFF765FB05E01D
:10522C00F56C1DB1336DE1682069A8470AB070BDFB
:10523C00D26C0D00886C0D00084609B90A4601E0D5
:10524C00096A0022FFF7B6B910B50C4611B90A4627
:10525C00084606E001212046FFF7A3FE216A002242
:10526C002046BDE81040FFF7ADB913B501A8FFF714
:10527C00F9FC0020FFF7AEF9044601A8FFF700FD8A
:10528C00204602B010BD73B505460C4601A8164663
:10529C00FFF7E8FC21462846FFF7CEFF002808DB85
:1052AC0031462846FFF7D0FF002802DB2846FFF7DF
:1052BC00DCFF044601A8FFF7E3FC204602B070BDFA
:1052CC000368D8690028D4BF0020012070470B6800
:1052DC00036013B15A6801325A60704710B551F827
:1052EC00043B044640F8043BFFF7F1FF23680BB97D
:1052FC00FFF788FC204610BD10B551F8043B04465E
:10530C0040F8043BFFF7E3FF204610BD10B5044600
:10531C00006828B14368013B43600BB9FFF77CFC84
:10532C00204610BD10B504460430FFF7EFFF2046B1
:10533C0010BD70B504684368054604EBC306A6426D
:10534C0004D0201DFFF7E2FF0834F8E72868FFF7C8
:10535C004FFB284670BD70B504684368054604EBE6
:10536C00C306A64204D0201DFFF7D0FF0834F8E78F
:10537C002868FFF73DFB284670BD10B5046904F1A1
:10538C001800FFF7E8FF04F10C00FFF7D2FF2046EE
:10539C00BDE81040FEF77BBEF8B504680746C4B103
:1053AC00A569E36905EBC306AE4204D0281DFFF7DF
:1053BC00ADFF0835F8E7A069FFF71AFB04F10C0004
:1053CC00FFF7C9FF2046FFF7B4FF3421204601F058
:1053DC0086F93846F8BD000073B5002505604560B8
:1053EC0006462420FEF751FE044678B103464FF6DC
:1053FC00FF7223F8022BC0F802505D608572C572F3
:10540C00C560056145618561C56105620023142095
:10541C000193FEF73AFE034628B1012242608260F6
:10542C00084A0260046102A8726840F8042D736097
:10543C003460FFF76BFF33680BB9FFF7E3FB3046C3
:10544C0002B070BD646C0D00884270B515461AD957
:10545C00904219D2A1F10806511A0439151F4418AB
:10546C002B1F9E4225D0042C07D055F8043C44F841
:10547C00043C29462046FFF72AFF2846FFF746FF43
:10548C00083D083CECE714D00C1D061D231F9D4263
:10549C000FD0042E07D054F8043C46F8043C2146A7
:1054AC003046FFF714FF2046FFF730FF083408366C
:1054BC00ECE770BD2DE9F041046843680546884669
:1054CC0004EBC307A74218D041462046FFF726FE3F
:1054DC00064608B90834F5E78CB1201DFFF716FF16
:1054EC002B686A6804F1080103EBC2022046FFF73F
:1054FC00ABFF6B68013B6B6002E0002600E02646C8
:10550C003046BDE8F081F7B5044651F8043B4768D6
:10551C00009301A8FFF7DBFE6668A3689E4214DBCC
:10552C000136002E0BDDF000FFF75AFA054618B3D2
:10553C0094E8060001EBC202FFF786FF00E00025AD
:10554C002068FFF755FA2560A6602668626806EBAE
:10555C00C70506EBC202294605F10800FFF774FFE8
:10556C0035B1009B46F8373001A9281DFFF7AFFE77
:10557C00636801336360012501A8FFF7C7FE284665
:10558C0003B0F0BD2DE9F04104468EB003A80D46E2
:10559C00FFF768FB2368032B02D0042B42D087E073
:1055AC0004A8FFF719FF049B22891A8062680499EA
:1055BC0052F8083FC1F802305368C1F8063007A80A
:1055CC00049B069305A9FFF782FE06A905F11800B6
:1055DC00FFF799FF044607A8FFF798FE20230693D0
:1055EC0074B9364B009306AA2346354907943220EA
:1055FC00FFF77AF9049B21461888FEF7F3FF0DE0BC
:10560C00304A0092002306AA2D4907930120FFF788
:10561C006BF96B6A13B1E96A04A8984705A8FFF700
:10562C0075FE45E021892846FFF7F8FC074600285F
:10563C003ED00468A369E1694FF6FF72228003EB48
:10564C00C101994203D053F8080B4280F9E7E66890
:10565C00236906EBC308B04504D0301DFFF756FE96
:10566C000836F8E700232361A669E36906EBC30853
:10567C00B04504D0301DFFF749FE0836F8E700238B
:10568C00E361A372E372AB6A13B1296B3846984796
:10569C0020230D4A06930092002309490793012009
:1056AC0006AAFFF721F9394605F11800FFF702FFAA
:1056BC0003A8FFF7E5FA0EB0BDE8F081EA6C0D0027
:1056CC00886C0D00106D0D002D6D0D008842F8B525
:1056DC0006460C46154614D9904213D2A2F1080581
:1056EC006C1AA1F108070444AF4218D01CB129462A
:1056FC002046FFF701FE281DFFF708FE083D083C79
:10570C00F2E70CD0AC420AD01EB121463046FFF76E
:10571C00F3FD201DFFF7FAFD08340836F2E7F8BD5B
:10572C0070B50E1E05460BDDF000FFF759F9044667
:10573C0070B195E8060001EBC202FFF7C7FF00E06D
:10574C0000242868FFF754F92C60AE60012070BD6E
:10575C0070BD73B5044645686846FFF7CDFD6168BA
:10576C00A368994205DB01312046FFF7D9FF0646B5
:10577C0098B12368626803EBC50503EBC2022946A6
:10578C0005F10800FFF7A2FF1DB169462846FFF797
:10579C00B3FD636801336360012601A8FFF7B6FD12
:1057AC00304602B070BD8842F8B506460C46154628
:1057BC0014D9904213D2A2F108056C1AA1F1080772
:1057CC000444AF4218D01CB129462046FFF786FD91
:1057DC00281DFFF79BFD083D083CF2E70CD0AC42BE
:1057EC000AD01EB121463046FFF778FD201DFFF789
:1057FC008DFD08340836F2E7F8BD70B50E1E05466F
:10580C000BDDF000FFF7ECF8044670B195E80600EC
:10581C0001EBC202FFF7C7FF00E000242868FFF786
:10582C00E7F82C60AE60012070BD70BD73B5044606
:10583C0045686846FFF752FD6168A368994205DB2D
:10584C0001312046FFF7D9FF064698B123686268FC
:10585C0003EBC50503EBC202294605F10800FFF76F
:10586C00A2FF1DB169462846FFF738FD6368013376
:10587C006360012601A8FFF749FD304602B070BDF8
:10588C0010B50446406808B1FEF701FC204610BD77
:10589C0007B503690C308DE8090003F13C00FFF7F4
:1058AC0021F96846FFF7ECFF03B05DF804FB00003C
:1058BC0038B500230446036014200D46FEF7E5FBC3
:1058CC0028B1012343608360024B036005612060B3
:1058DC00204638BD2C6C0D002DE9F04188B00546F2
:1058EC001E46542000230F46904604930593FEF762
:1058FC00CCFBCDF818D004460790B0B1FFF76EFB87
:10590C00394604F13C0084F80480FFF745F90F9BFD
:10591C00E3643146109B236504F11400FFF730FA61
:10592C000E9904F12800FFF72BFA2146002601AB53
:10593C0002AA03A80796FFF7BBFF039B059A0392E5
:10594C0003A805930494FFF7E1FC06A8FFF798FF62
:10595C00049B2968059A2B6008A86B6806916A60FD
:10596C0040F8043D05960496FFF7D0FC05A8FFF718
:10597C00CDFC296819B9034A0A20FEF7ADFF08B01F
:10598C00BDE8F08171450D0010B50446406808B1C2
:10599C00FEF77DFB204610BD07B503690C308DE882
:1059AC0009006846FFF7F0FF03B05DF804FB000048
:1059BC0038B500230446036014200D46FEF765FB42
:1059CC0028B1012343608360024B036005612060B2
:1059DC00204638BD486C0D00F0B5002687B0066037
:1059EC004660044618200F46FEF74FFBCDF810D04A
:1059FC000546059038B1FFF75DF939462846AE8269
:105A0C00EE82FFF7BDF900232946059302AA01ABEC
:105A1C0003A8FFF7CDFF039B62682560636003A8B2
:105A2C000392FFF773FC04A8FFF7AEFF23680BB9D2
:105A3C00FFF7E8F8204607B0F0BD00002DE9F04F65
:105A4C0017469FB0804605A80E46FFF70BF93C6839
:105A5C002379002B00F0F3803368DD681B6905EBBC
:105A6C00C303039304F1140A04F1280B039BAB4208
:105A7C0023D0D5F80090504609F11401FFF799F99D
:105A8C00002800F0E18009F128015846FFF791F950
:105A9C00002800F0D980236823F47F41D9F8003026
:105AAC0023F47F43994240F0CF8020236B4A139319
:105ABC0000230092149313AABDE004F12805284694
:105ACC00FFF745F918B966492846FFF764F93368BA
:105ADC00D3F800905B6809EBC30AD145294608D07E
:105AEC00D9F80000FFF765F9002837D109F108094A
:105AFC00F3E706A8FFF770FF13AA2B4604F1380C46
:105B0C00964618685968154603C5083363452A46F6
:105B1C00F7D118682860069A0023143271460120C8
:105B2C00FEF76AFD00287ED1356806A90BA8FFF7A1
:105B3C00E3FB28460BA9FFF70CFE05460CA8FFF764
:105B4C00E5FB002D6FD032685368126803F10053E7
:105B5C00013B07A802EBC309FFF7D8FB04F11405BE
:105B6C002846FFF7F4F868B93E4B3D491A880132D4
:105B7C0092B21A8013A80123FFF7D5F813A928466F
:105B8C00FFF7FEF84FF02C0A5246002113A800F044
:105B9C0034FF012306AAADF84C30ADF84EA02B46CD
:105BAC0004F1240C1546186859689646AEE80300B3
:105BBC00083363457246F6D11868CEF800000FCD55
:105BCC000DF1580EAEE80F002B68CEF8003023799B
:105BDC008DF85030D9F800309B8AADF86C30E36BFF
:105BEC0015930022204B1C93A11D13A81D94FEF7A6
:105BFC002BFD20BB01232370346839460C340BA8D1
:105C0C00FFF76CFB20460BA9FFF710FE04460CA80F
:105C1C00FFF77CFB9CB920230B93144B00930C9443
:105C2C0023460BAA07E039464046FFF757FB07A867
:105C3C00FFF76CFB0AE00E493220FEF755FE3946A1
:105C4C004046FFF74BFB01E008350FE705A8FFF7CF
:105C5C0017F840461FB0BDE8F08F00BFFD6D0D007A
:105C6C00786C0D00D4E30320F5510D00D66D0D00BA
:105C7C00886C0D00024800230360FEF72DBD00BFA9
:105C8C00D8E30320F8B506460D468F180024BD4214
:105C9C000CD0336815F8011B9B68304698470028D8
:105CAC0001DB0444F3E7002C08BF04462046F8BD92
:105CBC0070B505460C46084649B100F0CFFE2B687E
:105CCC00024621462846DB68BDE87040184770BD87
:105CDC0008B5FFF7EDFF08BD03689B68184738B59A
:105CEC000D210546FFF7F8FF0A2104462846FFF769
:105CFC00F3FF204438BD38B50546FFF7D9FF0446FD
:105D0C002846FFF7ECFF204438BD30B58BB00B466E
:105D1C0000218DF82410012A98BF0A220DF12304CA
:105D2C00B3FBF2F505FB123303F0FF03092B94BF11
:105D3C0030333733DBB2214604F801392B46002DC2
:105D4C00EED1FFF7B5FF0BB030BD10B42AB9036824
:105D5C005DF8044B9B68C9B21847D2B25DF8044B8E
:105D6C00FFF7D3BFFFF7F1BF2DE9F04107460E4611
:105D7C0015462AB90368C9B29B68BDE8F0411847BB
:105D8C000A2A02D1002901DA04E0D2B2BDE8F041BE
:105D9C00FFF7BBBF2D21FFF79FFF2A460446714238
:105DAC003846FFF7B2FF2044BDE8F08138B5054610
:105DBC00FFF7DAFF04462846FFF791FF204438BD71
:105DCC00014B024A1A607047DCE303209B6E0D0006
:105DDC00024B1A68024B1A60704700BFFCE20320AA
:105DEC00E0E3032010B58368044613B10322014697
:105DFC009847204610BD10B50446FFF7F3FF204628
:105E0C0010BD10B50446FEF757FD844208D01CB1F6
:105E1C00BDE81040FEF738BDBDE81040FEF73CBDB4
:105E2C0010BD70B505460E461446FEF745FD50B143
:105E3C0044EA062040EA0540FEF71EFDE720BDE8D7
:105E4C007040FEF741BD70BD10B50C46FEF72CFD41
:105E5C00FEF732FD28B124B1E720BDE81040FEF773
:105E6C0033BD10BD0348044A04490023836000F08D
:105E7C0031BC00BFE4E3032064E30320035E0D00A8
:105E8C0008B50F4B33B100F041F903681B69984713
:105E9C0000280DDC0B4B33B100F0BAF903681B6919
:105EAC009847002807DC084B43B1AFF3008008BDCE
:105EBC00AFF30080EEE7AFF30080F4E708BD00BF5E
:105ECC0000000000000000000000000008B5FFF713
:105EDC00D7FFFEF74FFB014B186008BD2CE70320E2
:105EEC0007B5002300931A466FF07701FEF716FDF5
:105EFC0003B05DF804FB000007B543880A2B08D0FB
:105F0C00502B09D1094B1B683BB103B05DF804EB76
:105F1C001847FFF7E5FF06E0002300931A466FF0E1
:105F2C007701FEF7FBFC03B05DF804FBF4E3032000
:105F3C0010B5FEF70FFB044600F068FD074B13B1DC
:105F4C002046AFF3008000210448FEF741FD0021FC
:105F5C000348BDE81040FEF7D7BC00BF00000000AE
:105F6C00055F0D00704710B51821044600F0B7FB13
:105F7C00204610BDF0B5037D062B8DB00E4600F10A
:105F8C0004074FF0000402D000F1080518E00CAD36
:105F9C00394605F8304D2F232A460A20FEF7B4FB6C
:105FAC00284600F05BFD33680246DB682946304624
:105FBC0098470FE024B12E213046FFF78DFE0444A4
:105FCC0015F8011D0A223046FFF7CCFEBD420444F1
:105FDC00F0D120460DB0F0BD10B5054B0446112292
:105FEC0040F8043B002100F008FD204610BD00BF26
:105FFC003C6F0D000346074A10B543F8042B01F122
:10600C00100251F8044B43F8044B9142F9D10A7831
:10601C001A7010BD3C6F0D0010B59DF8084044EA95
:10602C00032343EA024242EA0161042341600375FF
:10603C0010BD37B50D788B784A78C9780091294610
:10604C00FFF7EAFF03B030BD41747047704708B5E5
:10605C000021007CFEF7F8FB30EA200028BF4FF04F
:10606C00FF3008BD08B50121007CFEF7EDFB30EADE
:10607C00200028BF4FF0FF3008BD08B5007CFEF7AC
:10608C00DBFB20EAE07008BD08B5007CFEF7CCFB1A
:10609C0020EAE07008BD007CFEF7E6BB10B51421C9
:1060AC00044600F01CFB204610BD38B50446007CAD
:1060BC000D46FEF7C1FB002801DC607C28B12946A7
:1060CC00207CFEF7C9FB20EAE07038BD10B5044611
:1060DC00002363604FF47A73A360054B23600123A4
:1060EC000846217463741146FEF78EFB204610BDE2
:1060FC00506F0D000022007CFEF78EBB10B51422F1
:10610C000446002100F079FC204610BD30B50E4D40
:10611C0087B001A8FFF7F2FF296811F0010410D134
:10612C002846FDF7B8FF60B101AA21460748FFF7E2
:10613C00CDFF2846FDF7B4FF054A0649034800F099
:10614C00C9FA024807B030BDF8E30320FCE3032092
:10615C0064E3032059600D0070474174704708B523
:10616C00007CFEF711FB20EAE07008BD08B5007C4E
:10617C00FEF7E2FA20EAE07008BD08B5007CFEF7F5
:10618C00EBFA30EA200028BF4FF0FF3008BD08B50D
:10619C00007CFEF7D9FA30EA200028BF4FF0FF3020
:1061AC0008BD007CFEF7E0BA10B51421044600F0DF
:1061BC0096FA204610BD70B5457C04460E4625B9AE
:1061CC00007CFEF7E1FA002805DD3146207CBDE8B5
:1061DC007040FEF7A9BA284670BD000010B5044601
:1061EC0008461146002262604FF47A72A260054A9A
:1061FC0022600122207462741A46FEF78DFA204642
:10620C0010BD00BF806F0D00007CFEF7B5BA00001A
:10621C0038B50C4D296811F0010411D12846FDF751
:10622C003AFF68B1084A094B09482146FFF7D6FFE7
:10623C002846FDF735FF074A0749054800F04AFA9A
:10624C00034838BDA8E40320ACE4032024E4032075
:10625C0010E4032064E3032065610D007047F8B57A
:10626C00064615460C468F18BC4206D0336814F807
:10627C00011B9B6830469847F6E72846F8BD00227C
:10628C00007CFEF789BA0021007CFEF78DBA002154
:10629C00007CFEF791BA0021007CFEF795BA002134
:1062AC00007CFEF799BA10B51421044600F017FAD9
:1062BC00204610BD10B504464FF47A730846A3600F
:1062CC000021044B207461602360FEF795FA204690
:1062DC0010BD00BFB06F0D000021007CFEF784BA2A
:1062EC00002211464068FEF75BBB00221146406855
:1062FC00FEF766BB00224068FEF75ABB002281F015
:10630C0001014068FEF744BB00231A460121406896
:10631C00FEF736BB00231A4619464068FEF728BB29
:10632C00002211464068FEF71BBB00221146406854
:10633C00FEF706BB002202214068FEF709BB0023D2
:10634C001A464068FEF7F4BA38B5054688B10468B9
:10635C004CB1A3681BB1032221462046984710215B
:10636C00204600F0BCF928461421BDE8384000F066
:10637C00B6B938BD10B103685B681847704710B5E3
:10638C0003680446BBB15868FEF786F978B92368F0
:10639C005A7C12B95868FEF787F923685868FEF7DB
:1063AC008BF920680023236028B1FFF7CDFF20680C
:1063BC0008B1FFF7C9FF204610BD000038B50C4BE3
:1063CC0003600446D0F8CC0108B1FDF762FED4F8A6
:1063DC00C45135B12846FFF7D2FF0421284600F0FE
:1063EC007EF9A06808B1FFF7C5FF204638BD00BF95
:1063FC00D86F0D0038B50E4C0E4B236000250223D0
:10640C0004F5E4706360A560C4F8C451C4F8C851C5
:10641C00FEF762F9084BC4F8CC5184F8D0512360D4
:10642C002046064A0649BDE8384000F053B900BF83
:10643C0030E503200C700D00D86F0D0064E30320D1
:10644C00C9630D0000231A464068FEF771BA00229A
:10645C0002214068FEF77CBA002211464068FEF724
:10646C006FBA002211464068FEF77ABA00231A462A
:10647C0019464068FEF77CBA00231A461946406854
:10648C00FEF77EBA002281F001014068FEF780BA67
:10649C0000224068FEF78CBA002211464068FEF7D5
:1064AC008FBA002211464068FEF77ABA2DE9F04304
:1064BC00002495B016460D460746FFF78DFD214684
:1064CC0020220CA8009400F098FA40230C9321464B
:1064DC006B460CAA3046FEF705F80446002844D15A
:1064EC00024601216868FEF73BFA022180462246EB
:1064FC006868FEF735FA009E81462146002E34D09E
:10650C00002932D17368022B02D00A2B09D02AE061
:10651C00B8F1000F27D0716938460431FFF789FDB7
:10652C0020E0B9F1000F1ED07469112201A800F00F
:10653C0064FA06238DF8143001AD04F10803183405
:10654C00186859682A4603C20833A3421546F7D186
:10655C0001A906A807ADFFF74DFD0FCD3C1D0FC4DB
:10656C002B6823700121F669C8E70098FDF7B2FF8C
:10657C00384615B0BDE8F083024B034A1A6000227E
:10658C005A60704704E703200C700D0010B50446E8
:10659C000F48FEF797FA28B1A4F10B03022B01D890
:1065AC00002010BD00F076F8FFF796FE08B1012C24
:1065BC00F6D9FFF72DFEFFF727FE18B1A4F109035A
:1065CC00012BEDD91E2C8CBF0020012010BD00BF6B
:1065DC000CE703201E2838B504460D460AD8FF29BF
:1065EC0008D0FFF7D3FF28B129462046BDE8384034
:1065FC00FDF788BF38BD38B504460D46FDF78AFF58
:10660C00FF2810D0062804D84D2323FA00F0C30726
:10661C0009D42046FFF7BAFF28B129462046BDE829
:10662C003840FDF77FBF38BD70B50C4C0C4E0D4D8E
:10663C0000212046FEF732FA20460B4C3246294602
:10664C0000F048F801212046FEF728FA3246294688
:10665C002046BDE8704000F03DB800BF0CE70320B9
:10666C0064E30320994A0D001CE7032010B5074C86
:10667C002368DB0708D42046FDF70DFD20B1FDF79C
:10668C0081FF2046FDF70CFD014810BD30E70320CB
:10669C0034E7032038B50B4D296811F001040FD1F4
:1066AC002846FDF7F8FC58B121460748FFF702FED3
:1066BC002846FDF7F5FC054A0549034800F00AF8A1
:1066CC00014838BD38E703203CE7032064E303208E
:1066DC0069620D000B460146184600F04BB9FDF7F8
:1066EC00D6BC0000184B1A68D1075CBF01221A6097
:1066FC00164B1A68D2075CBF01221A60144B1A6839
:10670C00D0075CBF01221A60124B1A68D1075CBF1C
:10671C0001221A60104B1A68D2075CBF01221A6062
:10672C000E4B1A68D0075CBF01221A600C4B1A681A
:10673C00D1075CBF01221A600A4B1A68D2075CBFF2
:10674C0001221A60704700BF6CE7032068E7032042
:10675C0064E7032060E703205CE7032058E703208D
:10676C0054E7032050E70320244B1A68D0075CBF82
:10677C0001221A60224B1A68D1075CBF01221A60F1
:10678C00204B1A68D2075CBF01221A601E4B1A6894
:10679C00D0075CBF01221A601C4B1A68D1075CBF82
:1067AC0001221A601A4B1A68D2075CBF01221A60C8
:1067BC00184B1A68D0075CBF01221A60164B1A6876
:1067CC00D1075CBF01221A60144B1A68D2075CBF58
:1067DC0001221A60124B1A68D0075CBF01221A60A2
:1067EC00104B1A68D1075CBF01221A600E4B1A6855
:1067FC00D2075CBF01221A60704700BF9CE70320E0
:10680C0098E7032094E7032090E703208CE703200C
:10681C0088E7032084E7032080E703207CE703203C
:10682C0078E7032074E7032070E70320244B1A68F1
:10683C00D0075CBF01221A60224B1A68D1075CBFDB
:10684C0001221A60204B1A68D2075CBF01221A6021
:10685C001E4B1A68D0075CBF01221A601C4B1A68C9
:10686C00D1075CBF01221A601A4B1A68D2075CBFB1
:10687C0001221A60184B1A68D0075CBF01221A60FB
:10688C00164B1A68D1075CBF01221A60144B1A68A8
:10689C00D2075CBF01221A60124B1A68D0075CBF8A
:1068AC0001221A60104B1A68D1075CBF01221A60D2
:1068BC000E4B1A68D2075CBF01221A60704700BFEA
:1068CC00CCE70320C8E70320C4E70320C0E703207C
:1068DC00BCE70320B8E70320B4E70320B0E70320AC
:1068EC00ACE70320A8E70320A4E70320A0E70320DC
:1068FC00184B1A68D1075CBF01221A60164B1A6834
:10690C00D2075CBF01221A60144B1A68D0075CBF17
:10691C0001221A60124B1A68D1075CBF01221A605F
:10692C00104B1A68D2075CBF01221A600E4B1A6812
:10693C00D0075CBF01221A600C4B1A68D1075CBFF0
:10694C0001221A600A4B1A68D2075CBF01221A6036
:10695C00704700BFECE70320E8E70320E4E70320DF
:10696C00E0E70320DCE70320D8E70320D4E703208B
:10697C00D0E7032010B5054C13462CB10A4601464E
:10698C000220AFF3008010BD204610BD00000000B7
:10699C0010B501390244904207D010F8013B11F8B0
:1069AC00014FA342F7D0181B10BD002010BD10B52D
:1069BC00431E0A44914204D011F8014B03F8014FD5
:1069CC00F8E710BD884210B501EB020301D8421E56
:1069DC000BE09842FBD28118D21AD34204D013F8A0
:1069EC00014D01F8014DF8E710BD994204D011F8A2
:1069FC00014B02F8014FF8E710BD024403469342E5
:106A0C0002D003F8011BFAE77047000038B5124BAF
:106A1C001C68A36B0546D3B91820FDF7E1FF43F2C0
:106A2C000E33A06303804AF6CD33438041F2342306
:106A3C0083804EF26D63C3804DF6EC6303810523B6
:106A4C0043810B23838101220023C0E90423A36B20
:106A5C0000221D615A6138BD60E30320034613F820
:106A6C00012B002AFBD1181A0138704710B50346C8
:106A7C0001448B4204D01A785C1C0AB12346F8E717
:106A8C00181A10BD1D400D0059400D0085400D0019
:106A9C0089400D0000000000454550524F4D2041EB
:106AAC007661696C61626C653A2000426C75657444
:106ABC006F6F746820436F6E6E656374656421003C
:106ACC00426C7565746F6F746820446973636F6E84
:106ADC006E65637465642E0036453430303030306A
:106AEC002D423541332D463339332D453041392D27
:106AFC0045353045323444434341394500307832D2
:106B0C00413344004E616D650030783241394100AB
:106B1C005573657220496E646578003645343030A3
:106B2C003030312D423541332D463339332D4530FC
:106B3C0041392D45353045323444434341394500C4
:106B4C0041636365737320456E61626C65640036E6
:106B5C00453430303030322D423541332D463339C7
:106B6C00332D453041392D4535304532344443437E
:106B7C0041394500620036453430303030332D42D7
:106B8C003541332D463339332D453041392D45357B
:106B9C0030453234444343413945006D7943686193
:106BAC00726163746572697374696300364534305D
:106BBC00303030342D423541332D463339332D4569
:106BCC003041392D45353045323444434341394504
:106BDC000000000000000000000000007B4A0D00D7
:106BEC00714A0D00674A0D005D4A0D00514A0D00B7
:106BFC00454A0D00394A0D00314A0D00274A0D0057
:106C0C001D4A0D00B9640D000000000000000000DA
:106C1C00994A0D009B4A0D00000000000000000086
:106C2C00D34B0D00D94B0D009D580D00034C0D009E
:106C3C00D54B0D000000000000000000CD4B0D00F6
:106C4C00E74B0D00A5590D00074C0D00CF4B0D0067
:106C5C000000000000000000C74B0D00F54B0D00BC
:106C6C0087530D000B4C0D00C94B0D007BE32774B3
:106C7C007BF815ACDD49A913000072F577697269D0
:106C8C006E672E626C650053746172742064697354
:106C9C00636F766572696E6720736572766963657A
:106CAC00732E00537461727420646973636F76651C
:106CBC0072696E672063686172616374657269736F
:106CCC00746963732E005065657220646576696320
:106CDC0065206973206D697373696E672100466165
:106CEC00696C656420746F20617070656E642070CF
:106CFC006565722043656E7472616C20646576699B
:106D0C0063652E00436F6E6E6563746564206279F3
:106D1C002043656E7472616C206465766963652EC0
:106D2C0000446973636F6E6E656374656420627989
:106D3C002072656D6F7465206465766963652E00DD
:106D4C0043616E6E6F7420616464206E6577207091
:106D5C00656572206465766963652E004E657720E3
:106D6C007065726970686572616C20697320636FFD
:106D7C006E6E65637465642E004661696C65642093
:106D8C00746F20617070656E6420646973636F76D4
:106D9C00657265642063686172616374657269739E
:106DAC007469632E004661696C656420746F2061A0
:106DBC007070656E6420646973636F766572656468
:106DCC0020736572766963652E004661696C656433
:106DDC0020746F20617070656E64206C6F63616CE1
:106DEC002063686172616374657269737469632E80
:106DFC00004475706C6963617465642063686172CA
:106E0C00616374657269737469632063616E6E6F1C
:106E1C00742062652061646465642E00626175642F
:106E2C000053657269616C0053657269616C310065
:106E3C007479706500706172616D00636D640069D6
:106E4C006400686E64007374726D0066696C740023
:106E5C006C766C0061646448616E646C657200727F
:106E6C00656D6F766548616E646C657200656E75F4
:106E7C006D48616E646C657273004A534F4E537467
:106E8C007265616D4C6F6748616E646C6572006110
:106E9C00707000253031307520005D2000256400B5
:106EAC002C200028293A2000205B00636F646520A9
:106EBC003D200025690064657461696C73203D2078
:106ECC00000D0A0066006C6E00666E00636F6465F0
:106EDC000064657461696C006E6F6E65007472613C
:106EEC00636500696E666F007761726E0065727221
:106EFC006F720070616E696300616C6C005A0025E2
:106F0C002B3033643A253032750025592D256D2DE3
:106F1C0025645425483A254D3A2553257A0061734A
:106F2C006374696D65000000000000000000000043
:106F3C00815F0D00715F0D00735F0D00000000009C
:106F4C000000000059600D00A9600D00B7600D0035
:106F5C00915C0D0095600D005B600D0071600D0083
:106F6C00A3600D0087600D0055600D00000000004F
:106F7C000000000065610D00B5610D00C3610D00DE
:106F8C00915C0D0079610D009B610D0087610D0016
:106F9C00AF610D0067610D006B610D00000000001A
:106FAC000000000069620D00B3620D008B620D00E1
:106FBC006B620D0093620D009B620D00A3620D00CD
:106FCC00AB620D0000000000000000004B630D00E0
:106FDC0041630D0037630D002D630D0021630D001F
:106FEC0015630D0009630D0001630D00F7620D00C0
:106FFC00ED620D00B9640D000000000000000000FF
:10700C0051640D005B640D0065640D006F640D0030
:10701C0079640D0085640D0091640D009D640D0074
:10702C00A5640D00AF640D00B9640D0000000000F4
:10703C000000000000000000000000000000000044
:10704C000000000000000000000000000000000034
:10705C000000000000000000000000000000000024
:10706C000000000000000000000000000000000014
:10707C000000000000000000000000000000000004
:10708C0000000000000000000000000043000000B1
:10709C00DD440D00854A0D00D94A0D00815C0D00C0
:1070AC00CD5D0D00DD5D0D00715E0D0001640D0008
:1070BC0085650D0035660D00F1660D0075670D00D8
:1070CC0039680D00FD680D00000000000000000094
:0470DC0000000000B0
:1070E000B86B0D002A6F0D000000000038700D0015
:1070F00058700D0078700D000000000000000000C6
:10710000000000000000000098700D00000000006A
:10711000000000000000000000000000000000006F
:10712000000000000000000000000000000000005F
:10713000000000000000000000000000000000004F
:0C714000000000000000000000E303203D
:10714C00FFFFFFFF00000102030405060708090A00
:10715C000B0C0D0E0F101112131415161718191AFB
:08716C001B1C1D1E1F20280042
:047174007856341203
:04000003D000401CCD
:00000001FF
