:02000002D0002C
:1040000000400D0088710D00000006000E00050143
:0840100004017E050000000020
:04401800906A0D009D
:10401C0009480A49884208B505D0094A824202D0AB
:10402C00121A02F0C4FC0748074A0021121A02F0C7
:10403C00E4FC014808BD00BFBCE2032090700D00F9
:10404C008CE303208CE30320F0E7032070B501F030
:10405C006BFF074C074BE41AA40800251E46A5422B
:10406C0004D056F8253098470135F8E770BD00BFED
:10407C0084700D0044700D0000F094B808B500F089
:10408C003BF9BDE8084001F01DBF00F0D1BC00F0C9
:10409C00D7BC00F0D5BC0078B0FA80F0400970476E
:1040AC0001230370704700003138C0B2352896BF29
:1040BC00264B0020185C382932D00ED8342938D041
:1040CC0005D832293BD037D831293BD07047362917
:1040DC0029D02BD940F007007047632914D005D89C
:1040EC00612917D013D8392917D07047652905D005
:1040FC0007D3662928D140F00F00704740F00E001E
:10410C00704740F00D00704740F00C00704740F0D5
:10411C000B00704740F00A00704740F009007047F0
:10412C0040F00800704740F00600704740F0050072
:10413C00704740F00400704740F00300704740F0B7
:10414C000200704740F00100704700BF516B0D003A
:10415C0070B5044601F0D6FF054644B1204602F086
:10416C007DFC2B680246DB6821462846984701F007
:10417C00C9FF03680A219B68984761782078FFF78C
:10418C0093FFE1780546A078FFF78EFF617906462C
:10419C002079FFF789FF314602462846BDE870407A
:1041AC0001F03ABE10B596B001F028F8474A014626
:1041BC000DA801F06BFC0DA801F0DCF801F01EF865
:1041CC00434A01460DA801F061FC0DA801F0D2F89C
:1041DC00002240493E4800F0BDFF0DA800F0EFFE64
:1041EC003D4903A800F096FD03A908A800F092FD34
:1041FC0008A800F0CDFD044608A844B900F0E5FD80
:10420C0016AA022322F84E0D0321009406E000F0BA
:10421C00DEFD002300930246102307210DA800F0B9
:10422C0087FE00F0EBFF00220DA901F054F802F01C
:10423C001BF84FF4165102F011F8284B0124002101
:10424C0005201C7002F0F2F92146062002F0EEF96E
:10425C0021460A2002F0EAF921460B2002F0E6F989
:10426C0021460C2002F0E2F901F04CFF4FF41651FC
:10427C0001F03CFF2146072002F0D8F9204601F05E
:10428C00BBFD00221046FF2101F0C6FD2146402057
:10429C0001F0D5FD124B134A0621132000F010F942
:1042AC004FF47A7001F096FD0F4B104A0321132046
:1042BC0000F006F94FF47A7001F08CFD0C4B0D4AAE
:1042CC000321132000F0FCF816B010BD90E303207E
:1042DC00B8E303205D410D009EE30320C0E30320FF
:1042EC00BCE20320D4E2032014E3032008E3032000
:1042FC00FCE20320F0E20320FF2238B51146002037
:10430C001C4C01F089FD00F04DF92368C01AB0F582
:10431C007A7F23D300F046F9206000F06FFF00F0A5
:10432C00F7FF154C0546237888B133B901F0EAFE46
:10433C00124901F004FD01232370114911480B7837
:10434C0001330B700122002300F0A2FE06E02BB11A
:10435C0001F0D8FE0C4901F0F2FC25700021084652
:10436C00FF2201F059FD4FF47A70BDE8384001F09E
:10437C0031BD00BFB4E30320C3E30320A46A0D00E6
:10438C00ECE2032090E30320B96A0D002DE9F04321
:10439C0099B000F0CFF8304BDFF8EC802F4DDFF800
:1043AC00EC9000244FF6FF729A801C705C80032006
:1043BC0000F0C2FA2A49404600F097FD414609A890
:1043CC0000F0A8FC274B2C601F686C6013AE3946BC
:1043DC000EA800F08AFD09A9304600F09BFC02975C
:1043EC00214B224F019328460EAB00960422204904
:1043FC0001F09AFA3A464946284602F06BF91D4DEF
:10440C001D4904A800F071FD414609A800F082FC8A
:10441C002C606C6004A90EA800F07CFC09A9304645
:10442C0000F078FC0EAB029401942846134C0096D5
:10443C001022134901F078FA3A464946284602F010
:10444C0049F9204600F024F83A460E49204602F07D
:10445C0041F919B0BDE8F08398E30320B8E30320D9
:10446C00D16A0D0020E303205D410D008CE3032095
:10447C00F66A0D0090E30320FE6A0D00C0E30320F2
:10448C00236B0D00B5440D009EE3032081530D00FA
:10449C0010B5044601F0E8FE4FF4165101F0DEFEB3
:1044AC0000232370204610BD10B5044601F0DCFE3D
:1044BC0003681B689847204610BD00F03BB800000D
:1044CC002DE9F84FDFF844B00F469046994600248A
:1044DC00C6B24FF4167ABC4212DA58F8241059F8C6
:1044EC0024509AFBF5F509B19BFBF1F1A5F11402EF
:1044FC00304601F02DFE284601F06CFC0134EAE751
:10450C003046BDE8F84F01F03ABE00BF20A10700CD
:10451C0000F010B808B5024B1B689B68019308BDEE
:10452C006802030008B5024B1B68DB68019308BDE9
:10453C006802030008B5024B1B681B68019308BD99
:10454C002C02030008B5024B1B685B68019308BD85
:10455C002C02030008B5024B1B689B68019308BD35
:10456C002C02030008B5024B1B68DB69019308BDE4
:10457C003002030008B5024B1B681B6A019308BD8F
:10458C003002030008B5024B1B685B68019308BD41
:10459C001802030008B5024B1B68DB68019308BDC9
:1045AC001802030008B5024B1B685B69019308BD38
:1045BC001802030008B5024B1B689B68019308BDE9
:1045CC007402030008B5024B1B681B6D019308BDF8
:1045DC007402030008B5024B1B689B6D019308BD68
:1045EC007402030008B5024B1B681B6E019308BDD7
:1045FC007402030008B5034B1B68D3F89830019381
:10460C0008BD00007402030008B5034B1B68D3F807
:10461C00A830019308BD00007402030008B5034BD9
:10462C001B68D3F8B430019308BD0000740203007A
:10463C0008B5034B1B68D3F8D830019308BD0000B4
:10464C007402030008B5034B1B68D3F8DC300193EC
:10465C0008BD00007402030008B5034B1B68D3F8B7
:10466C00EC30019308BD00007402030008B5034B45
:10467C001B68D3F8F030019308BD000074020300EE
:10468C0008B5034B1B68D3F80031019308BD00003B
:10469C007402030008B5034B1B68D3F80431019373
:1046AC0008BD00007402030008B5024B1B689B6830
:1046BC00019308BD4802030008B5024B1B681B6937
:1046CC00019308BD4802030008B5024B1B685B69E7
:1046DC00019308BD4802030008B5024B1B681B6B15
:1046EC00019308BD4802030008B5024B1B685B6CC4
:1046FC00019308BD4802030008B5024B1B68DB6C34
:10470C00019308BD4802030008B5024B1B685B6DA2
:10471C00019308BD4802030008B5024B1B685B6996
:10472C00019308BD6402030008B5024B1B681B68AB
:10473C00019308BD3C02030008B5024B1B68DB6803
:10474C00019308BD3C02030008B5024B1B681B69B2
:10475C00019308BD3C02030008B5024B1B685B6962
:10476C00019308BD3C02030008B5024B1B689B6912
:10477C00019308BD3C02030008B5024B1B68DB69C2
:10478C00019308BD3C02030008B5024B1B681B6A71
:10479C00019308BD3C02030008B5024B1B689B6AE1
:1047AC00019308BD3C02030008B5024B1B68DB6A91
:1047BC00019308BD3C02030008B5024B1B681B6A41
:1047CC00019308BD2802030008B5024B1B685B6A05
:1047DC00019308BD2802030008B5024B1B689B6AB5
:1047EC00019308BD2802030008B5024B1B68DB6A65
:1047FC00019308BD2802030008B5024B1B681B6B14
:10480C00019308BD2802030008B5024B1B685B6BC3
:10481C00019308BD2802030008B5024B1B681B6CF2
:10482C00019308BD2802030008B5024B1B681B68E6
:10483C00019308BD2402030008B5024B1B685B689A
:10484C00019308BD2402030008B5024B1B681B68CA
:10485C00019308BD4C02030008B5024B1B685B6852
:10486C00019308BD4C02030008B5024B1B681B6981
:10487C00019308BD4C02030008B5024B1B685B6931
:10488C00019308BD4C02030008B5024B1B689B69E1
:10489C00019308BD4C02030008B5024B1B68DB6991
:1048AC00019308BD4C02030008B5024B1B681B6A40
:1048BC00019308BD4C02030008B5024B1B685B68F2
:1048CC00019308BD6002030008B5024B1B689B688E
:1048DC00019308BD6002030008B5024B1B68DB683E
:1048EC00019308BD6002030008B5024B1B681B69ED
:1048FC00019308BD6002030008B5024B1B689B695D
:10490C00019308BD6002030008B5024B1B68DB690C
:10491C00019308BD6002030008B5024B1B685B6B7A
:10492C00019308BD6002030008B5024B1B681B6DA8
:10493C00019308BD6002030008B5024B1B685B685D
:10494C00019308BD2002030008B5024B1B685B698C
:10495C00019308BD2002030008B5034B1B68D3F874
:10496C008830019308BD00002002030008B5034BFA
:10497C001B68D3F89430019308BD0000200203009B
:10498C0008B5024B1B685B68019308BD400203002D
:10499C0008B5024B1B689B68019308BD40020300DD
:1049AC0008B5024B1B68DB68019308BD400203008D
:1049BC0008B5024B1B681B69019308BD400203003C
:1049CC0008B5024B1B685B69019308BD40020300EC
:1049DC0008B5024B1B689B69019308BD400203009C
:1049EC0008B5024B1B68DB69019308BD400203004C
:1049FC0008B5024B1B681B6A019308BD40020300FB
:104A0C0008B5024B1B681B6B019308BD40020300E9
:104A1C0008B5024B1B685B6B019308BD4002030099
:104A2C0008B5024B1B68DB6B019308BD4402030005
:104A3C0008B5024B1B681B68019308BD1C020300E0
:104A4C0008B5024B1B685B68019308BD1C02030090
:104A5C0008B5024B1B689B68019308BD1C02030040
:104A6C00002211464068FFF7C3BF00221146406880
:104A7C00FFF7CEBF00224068FFF7C2BF002281F0D3
:104A8C0001014068FFF7ACBF00231A461946406885
:104A9C00FFF79EBF00231A4619464068FFF790BFE8
:104AAC00002211464068FFF783BF00221146406880
:104ABC00FFF76EBF002202214068FFF771BF002391
:104ACC001A464068FFF75CBF024B03225A60024A49
:104ADC001A607047C4E30320906B0D00704710B54B
:104AEC001021044601F0FBFD204610BD70B5084BAB
:104AFC000360044600250E4640F80C5FFFF7ECFD02
:104B0C0030462671FFF72EFDA560204670BD00BF14
:104B1C00C46B0D000079FFF72DBD0000044B002085
:104B2C004FF6FF72187058809A80FFF705BF00BFD0
:104B3C00CCE3032010B504460068FFF781FF204644
:104B4C0010BD10B50446006808B1FFF779FF0023CB
:104B5C002360A360636010BD38B504460D46006841
:104B6C000131FFF775FF10B184E82100012038BD39
:104B7C0010B50368044613B143688B4207D2204634
:104B8C00FFF7EAFF20B1A3680BB92268137001206C
:104B9C0010BD70B50E46114604461546FFF7E8FFEA
:104BAC0018B92046FFF7CDFF09E02A463146A5602B
:104BBC00206801F0FCFE2268A3680021D154204635
:104BCC0070BD38B5002304460360436083600373F3
:104BDC000D4639B1084601F041FF294602462046F0
:104BEC00FFF7D7FF204638BD38B505460C4641B116
:104BFC00084601F033FF214602462846FFF7C9FF5D
:104C0C0001E0FFF79EFF284638BD70470020704733
:104C1C0070470020704770470020704710B5142172
:104C2C00044601F05CFD204610BD10B5142104466D
:104C3C0001F055FD204610BD10B51421044601F0BD
:104C4C004EFD204610BDFFF722BAFFF720BAFFF742
:104C5C001EBA000008B50A20024A0021FFF75CFECC
:104C6C0008BD00BFA1450D0010B5036804469B6844
:104C7C009847A368013BA3602BB923682046DB68E7
:104C8C00BDE81040184710BDA0F13003DAB2092A74
:104C9C0001D818467047A0F16103052B01D857388D
:104CAC007047A0F14103052B94BF37384FF0FF300C
:104CBC007047000010B500230370044B04461868BD
:104CCC00FFF71AFD01232370204610BDE0E30320FB
:104CDC0010B5037804461BB1024B1868FFF714FD9E
:104CEC00204610BDE0E3032008B582798B799A4207
:104CFC0006D1062201F04CFEB0FA80F0400908BD46
:104D0C00002008BD10B514220446002101F075FEE8
:104D1C00204610BD10B5034601F1140251F8044BA6
:104D2C0043F8044B9142F9D110BD70B50C460546C1
:104D3C001646FFF7E7FF2CB910222146284601F052
:104D4C005CFE16E0012E09D12B4604F1100254F83A
:104D5C00041B43F8041B9442F9D108E06A1E0F238C
:104D6C00E15C02F8011F013BDBB2FF2BF8D1012300
:104D7C002B74284670BD38B5044615461A46FFF705
:104D8C00D4FF257301232D0A65732374204638BD87
:104D9C00037C13F0FD0F14BF0120002070471FB5DA
:104DAC000446FFF7F5FF08B9208809E0102200211E
:104DBC00684601F022FE10226946204601F0E8FD0B
:104DCC00003018BF012004B010BD00887047704738
:104DDC0010B5034601F1140251F8044B43F8044B8F
:104DEC009142F9D110BD10B551B1034601F1100239
:104DFC0051F8044B43F8044B9142F9D1012303744D
:104E0C0010BD10B50446FFF7C3FF28B908882388E6
:104E1C001B1A5842584110BD1022204601F0B8FD13
:104E2C00B0FA80F0400910BDF7B505460E4619B929
:104E3C00102201F0E2FD51E02421304601F016FE73
:104E4C00042802D0002710243BE03078FFF71CFF29
:104E5C00041E47DB7078FFF717FF002842DB40EA9F
:104E6C0004108DF80400B078FFF70EFF041E39DB38
:104E7C00F078FFF709FF002834DB40EA04109DF8B6
:104E8C000430C0B240EA03202880002327E02CB372
:104E9C00F05DFFF7F9FE030612D4013C0001285522
:104EAC002421304601F0E2FD0137874208D2F05D43
:104EBC00FFF7EAFE40B20028A2BF2B5D184328552D
:104ECC0001372421304601F0D1FD8742DFD32C4439
:104EDC000023A54202D004F8013DFAE701232B740C
:104EEC0003B0F0BD00232B80CFE738B504460D4648
:104EFC00FFF708FF20462946FFF796FF204638BDEE
:104F0C00F0B58BB10024E51C8D420FD8661C055DF5
:104F1C00875D974205D12E44B14207D31C60681CB3
:104F2C00F0BD01352C44EEE71846F0BD0020F0BD75
:104F3C002DE9F74304460E461D461746002A3AD083
:104F4C000A4601AB016AFFF7DBFF9DF82830226AA5
:104F5C0003BBF8B1961C2E44361A1F2E2BD8DDF845
:104F6C00048008F10209C8EB0202121A00EB0801D6
:104F7C0005EB090092B22144204401F023FD6B1C87
:104F8C0004F808302A46394604EB090001F00FFDFD
:104F9C00266210E0901C2B181F2B0CD86B1CA354F2
:104FAC00224420623946567020442A4601F0FFFC08
:104FBC00226A2A442262206A03B0BDE8F0831FB53E
:104FCC000446034600F11F02002003F8010B934234
:104FDC004FF00001F9D104AA062302F8013D012388
:104FEC002162009120461946FFF7A2FF204604B02B
:104FFC0010BD73B50A460E4601AB016A0446FFF7B5
:10500C007FFF054678B10198226A2918121A521BA3
:10501C002144204401F0CBFC236A5D1B2562314600
:10502C002046FFF7E6FF02B070BD000038B5002542
:10503C004FF6FF73044643800E2229460570057116
:10504C00063001F0DAFC04F11400FFF75BFE04F10A
:10505C002800FFF757FE044904F13C00FFF7B1FDAF
:10506C00E5642565204638BD776E0D0010B5836963
:10507C00C26903EBC2029342184606D00468248826
:10508C008C4203F10803F6D110BD002010BD0000C6
:10509C002DE9F34180461F460E4669B362B3F42AEC
:1050AC00056828BFF42214462A78A2B12B799807F8
:1050BC0007D500232246A889FFF7B0FA002802DAA8
:1050CC0043E06FF07700D8F800502B79DA0618D54A
:1050DC00012F23D115E068884FF6FF7398420DD04D
:1050EC002B79590723D5012F21D0A989009223466A
:1050FC003246FFF7A7FA28E0154826E06FF0D100FA
:10510C0023E09A0621D5022F1FD0A889002322461E
:10511C00314602B0BDE8F041FFF7BCBAA8890023C4
:10512C002246314602B0BDE8F041FFF7A9BA1B0791
:10513C0001D5022F02D16FF0770006E00023A98978
:10514C00009332462346FFF773FA02B0BDE8F081B4
:10515C00F2FEFFFF0368D9641A65704710B50A6840
:10516C0052F8023F03605368436010BD1FB50268DC
:10517C000B6812881B889A420C460CD10146684673
:10518C00FFF7ECFF214602A8FFF7E8FF02A96846EB
:10519C00FFF7AAFD00B9002004B010BD10B50446FD
:1051AC003420FEF772FF014668B1002303604360B0
:1051BC008360C360036143618361C36103624362C3
:1051CC008362C3620363216019B90A4A0A20FFF79C
:1051DC00A3FB0020FFF7EEF920B1064A00210A20BC
:1051EC00FFF79AFB002221680348FFF73FFA20469D
:1051FC0010BD00BFA1450D00E1550D0010B50A4CC6
:10520C002368DB070ED42046FEF745FF50B1074854
:10521C00FFF7C4FF2046FEF743FF054A0549034844
:10522C0001F058FA014810BDD8E30320D4E3032061
:10523C008CE30320F5530D0070B50368093B012B7B
:10524C008AB004460E4619D8FFF7D8FFA18800682B
:10525C00FFF70CFF024658B920230293084B03902A
:10526C00009302AA034607493220FFF75DFB05E0D5
:10527C00F56C1DB1336DE1682069A8470AB070BDAB
:10528C007A6C0D00306C0D00084609B90A4601E035
:10529C00096A0022FFF796B910B50C4611B90A46F7
:1052AC00084606E001212046FFF7A3FE216A0022F2
:1052BC002046BDE81040FFF78DB913B501A8FFF7E4
:1052CC00F9FC0020FFF78EF9044601A8FFF700FD5A
:1052DC00204602B010BD73B505460C4601A8164613
:1052EC00FFF7E8FC21462846FFF7CEFF002808DB35
:1052FC0031462846FFF7D0FF002802DB2846FFF78F
:10530C00DCFF044601A8FFF7E3FC204602B070BDA9
:10531C000368D8690028D4BF0020012070470B68AF
:10532C00036013B15A6801325A60704710B551F8D6
:10533C00043B044640F8043BFFF7F1FF23680BB92C
:10534C00FFF788FC204610BD10B551F8043B04460D
:10535C0040F8043BFFF7E3FF204610BD10B50446B0
:10536C00006828B14368013B43600BB9FFF77CFC34
:10537C00204610BD10B504460430FFF7EFFF204661
:10538C0010BD70B504684368054604EBC306A6421D
:10539C0004D0201DFFF7E2FF0834F8E72868FFF778
:1053AC004FFB284670BD70B504684368054604EB96
:1053BC00C306A64204D0201DFFF7D0FF0834F8E73F
:1053CC002868FFF73DFB284670BD10B5046904F151
:1053DC001800FFF7E8FF04F10C00FFF7D2FF20469E
:1053EC00BDE81040FEF753BEF8B504680746C4B1DB
:1053FC00A569E36905EBC306AE4204D0281DFFF78F
:10540C00ADFF0835F8E7A069FFF71AFB04F10C00B3
:10541C00FFF7C9FF2046FFF7B4FF3421204601F007
:10542C005EF93846F8BD000073B50025056045608F
:10543C0006462420FEF729FE044678B103464FF6B3
:10544C00FF7223F8022BC0F802505D608572C572A2
:10545C00C560056145618561C56105620023142045
:10546C000193FEF712FE034628B1012242608260CE
:10547C00084A0260046102A8726840F8042D736047
:10548C003460FFF76BFF33680BB9FFF7E3FB304673
:10549C0002B070BD0C6C0D00884270B515461AD95F
:1054AC00904219D2A1F10806511A0439151F44185B
:1054BC002B1F9E4225D0042C07D055F8043C44F8F1
:1054CC00043C29462046FFF72AFF2846FFF746FFF3
:1054DC00083D083CECE714D00C1D061D231F9D4213
:1054EC000FD0042E07D054F8043C46F8043C214657
:1054FC003046FFF714FF2046FFF730FF083408361C
:10550C00ECE770BD2DE9F041046843680546884618
:10551C0004EBC307A74218D041462046FFF726FEEE
:10552C00064608B90834F5E78CB1201DFFF716FFC5
:10553C002B686A6804F1080103EBC2022046FFF7EE
:10554C00ABFF6B68013B6B6002E0002600E0264677
:10555C003046BDE8F081F7B5044651F8043B476886
:10556C00009301A8FFF7DBFE6668A3689E4214DB7C
:10557C000136002E0BDDF000FFF75AFA054618B382
:10558C0094E8060001EBC202FFF786FF00E000255D
:10559C002068FFF755FA2560A6602668626806EB5E
:1055AC00C70506EBC202294605F10800FFF774FF98
:1055BC0035B1009B46F8373001A9281DFFF7AFFE27
:1055CC00636801336360012501A8FFF7C7FE284615
:1055DC0003B0F0BD2DE9F04104468EB003A80D4692
:1055EC00FFF768FB2368032B02D0042B42D087E023
:1055FC0004A8FFF719FF049B22891A80626804999A
:10560C0052F8083FC1F802305368C1F8063007A8B9
:10561C00049B069305A9FFF782FE06A905F1180065
:10562C00FFF799FF044607A8FFF798FE202306937F
:10563C0074B9364B009306AA234635490794322099
:10564C00FFF772F9049B21461888FEF7D3FF0DE093
:10565C00304A0092002306AA2D4907930120FFF738
:10566C0063F96B6A13B1E96A04A8984705A8FFF7B8
:10567C0075FE45E021892846FFF7F8FC074600280F
:10568C003ED00468A369E1694FF6FF72228003EBF8
:10569C00C101994203D053F8080B4280F9E7E66840
:1056AC00236906EBC308B04504D0301DFFF756FE46
:1056BC000836F8E700232361A669E36906EBC30803
:1056CC00B04504D0301DFFF749FE0836F8E700233B
:1056DC00E361A372E372AB6A13B1296B3846984746
:1056EC0020230D4A069300920023094907930120B9
:1056FC0006AAFFF719F9394605F11800FFF702FF62
:10570C0003A8FFF7E5FA0EB0BDE8F081926C0D002E
:10571C00306C0D00B86C0D00D56C0D008842F8B5DE
:10572C0006460C46154614D9904213D2A2F1080530
:10573C006C1AA1F108070444AF4218D01CB12946D9
:10574C002046FFF701FE281DFFF708FE083D083C28
:10575C00F2E70CD0AC420AD01EB121463046FFF71E
:10576C00F3FD201DFFF7FAFD08340836F2E7F8BD0B
:10577C0070B50E1E05460BDDF000FFF759F9044617
:10578C0070B195E8060001EBC202FFF7C7FF00E01D
:10579C0000242868FFF754F92C60AE60012070BD1E
:1057AC0070BD73B5044645686846FFF7CDFD61686A
:1057BC00A368994205DB01312046FFF7D9FF064665
:1057CC0098B12368626803EBC50503EBC202294656
:1057DC0005F10800FFF7A2FF1DB169462846FFF747
:1057EC00B3FD636801336360012601A8FFF7B6FDC2
:1057FC00304602B070BD8842F8B506460C461546D8
:10580C0014D9904213D2A2F108056C1AA1F1080721
:10581C000444AF4218D01CB129462046FFF786FD40
:10582C00281DFFF79BFD083D083CF2E70CD0AC426D
:10583C000AD01EB121463046FFF778FD201DFFF738
:10584C008DFD08340836F2E7F8BD70B50E1E05461E
:10585C000BDDF000FFF7ECF8044670B195E806009C
:10586C0001EBC202FFF7C7FF00E000242868FFF736
:10587C00E7F82C60AE60012070BD70BD73B50446B6
:10588C0045686846FFF752FD6168A368994205DBDD
:10589C0001312046FFF7D9FF064698B123686268AC
:1058AC0003EBC50503EBC202294605F10800FFF71F
:1058BC00A2FF1DB169462846FFF738FD6368013326
:1058CC006360012601A8FFF749FD304602B070BDA8
:1058DC0010B50446406808B1FEF7D9FB204610BD50
:1058EC0007B503690C308DE8090003F13C00FFF7A4
:1058FC0021F96846FFF7ECFF03B05DF804FB0000EC
:10590C0038B500230446036014200D46FEF7BDFB9A
:10591C0028B1012343608360024B03600561206062
:10592C00204638BDD46B0D002DE9F04188B00546FA
:10593C001E46542000230F46904604930593FEF711
:10594C00A4FBCDF818D004460790B0B1FFF76EFB5E
:10595C00394604F13C0084F80480FFF745F90F9BAD
:10596C00E3643146109B236504F11400FFF730FA11
:10597C000E9904F12800FFF72BFA2146002601AB03
:10598C0002AA03A80796FFF7BBFF039B059A039295
:10599C0003A805930494FFF7E1FC06A8FFF798FF12
:1059AC00049B2968059A2B6008A86B6806916A60AD
:1059BC0040F8043D05960496FFF7D0FC05A8FFF7C8
:1059CC00CDFC296819B9034A0A20FEF7A5FF08B0D7
:1059DC00BDE8F081A1450D0010B50446406808B142
:1059EC00FEF755FB204610BD07B503690C308DE85A
:1059FC0009006846FFF7F0FF03B05DF804FB0000F8
:105A0C0038B500230446036014200D46FEF73DFB19
:105A1C0028B1012343608360024B03600561206061
:105A2C00204638BDF06B0D00F0B5002687B006603F
:105A3C004660044618200F46FEF727FBCDF810D021
:105A4C000546059038B1FFF75DF939462846AE8218
:105A5C00EE82FFF7BDF900232946059302AA01AB9C
:105A6C0003A8FFF7CDFF039B62682560636003A862
:105A7C000392FFF773FC04A8FFF7AEFF23680BB982
:105A8C00FFF7E8F8204607B0F0BD00002DE9F04F15
:105A9C0017469FB0804605A80E46FFF70BF93C68E9
:105AAC002379002B00F0F3803368DD681B6905EB6C
:105ABC00C303039304F1140A04F1280B039BAB42B8
:105ACC0023D0D5F80090504609F11401FFF799F94D
:105ADC00002800F0E18009F128015846FFF791F900
:105AEC00002800F0D980236823F47F41D9F80030D6
:105AFC0023F47F43994240F0CF8020236B4A1393C9
:105B0C0000230092149313AABDE004F12805284643
:105B1C00FFF745F918B966492846FFF764F9336869
:105B2C00D3F800905B6809EBC30AD145294608D02D
:105B3C00D9F80000FFF765F9002837D109F10809F9
:105B4C00F3E706A8FFF770FF13AA2B4604F1380CF5
:105B5C00964618685968154603C5083363452A46A6
:105B6C00F7D118682860069A002314327146012078
:105B7C00FEF74AFD00287ED1356806A90BA8FFF771
:105B8C00E3FB28460BA9FFF70CFE05460CA8FFF714
:105B9C00E5FB002D6FD032685368126803F1005397
:105BAC00013B07A802EBC309FFF7D8FB04F114056E
:105BBC002846FFF7F4F868B93E4B3D491A88013284
:105BCC0092B21A8013A80123FFF7D5F813A928461F
:105BDC00FFF7FEF84FF02C0A5246002113A800F0F4
:105BEC000CFF012306AAADF84C30ADF84EA02B46A5
:105BFC0004F1240C1546186859689646AEE8030063
:105C0C00083363457246F6D11868CEF800000FCD04
:105C1C000DF1580EAEE80F002B68CEF8003023794A
:105C2C008DF85030D9F800309B8AADF86C30E36BAE
:105C3C0015930022204B1C93A11D13A81D94FEF755
:105C4C000BFD20BB01232370346839460C340BA8A0
:105C5C00FFF76CFB20460BA9FFF710FE04460CA8BF
:105C6C00FFF77CFB9CB920230B93144B00930C94F3
:105C7C0023460BAA07E039464046FFF757FB07A817
:105C8C00FFF76CFB0AE00E493220FEF74DFE394659
:105C9C004046FFF74BFB01E008350FE705A8FFF77F
:105CAC0017F840461FB0BDE8F08F00BFA56D0D0082
:105CBC00206C0D00DCE3032045520D007E6D0D00C1
:105CCC00306C0D00024800230360FEF70DBD00BFD1
:105CDC00E0E30320F8B506460D468F180024BD42BC
:105CEC000CD0336815F8011B9B6830469847002888
:105CFC0001DB0444F3E7002C08BF04462046F8BD42
:105D0C0070B505460C46084649B100F0A7FE2B6855
:105D1C00024621462846DB68BDE87040184770BD36
:105D2C0003689B68184738B50D210546FFF7F8FF47
:105D3C000A2104462846FFF7F3FF204438BD38B546
:105D4C000546FFF7DDFF04462846FFF7ECFF20442D
:105D5C0038BD30B58BB00B4600218DF82410012ACC
:105D6C0098BF0A220DF12304B3FBF2F505FB1233A5
:105D7C0003F0FF03092B94BF30333733DBB22146DA
:105D8C0004F801392B46002DEED1FFF7B9FF0BB00B
:105D9C0030BD10B42AB903685DF8044B9B68C9B2D6
:105DAC001847D2B25DF8044BFFF7D3BFFFF7F1BF32
:105DBC00014B024A1A607047E4E30320436E0D0066
:105DCC00024B1A68024B1A60704700BF24E3032091
:105DDC00E8E303200021FEF7B7BD10B58368044645
:105DEC0013B1032201469847204610BD10B5044656
:105DFC00FFF7F3FF204610BD10B50446FEF77CFDFF
:105E0C00844208D01CB1BDE81040FEF75DBDBDE872
:105E1C001040FEF761BD10BD70B505460E46144628
:105E2C00FEF76AFD50B144EA062040EA0540FEF751
:105E3C0043FDE720BDE87040FEF766BD70BD10B5B0
:105E4C000C46FEF751FDFEF757FD28B124B1E720B3
:105E5C00BDE81040FEF758BD10BD00000348044AD1
:105E6C0004490023836000F035BC00BFECE3032041
:105E7C008CE30320F95D0D0008B50F4B33B100F036
:105E8C0041F903681B69984700280DDC0B4B33B1B3
:105E9C0000F0EAF903681B699847002807DC084BF7
:105EAC0043B1AFF3008008BDAFF30080EEE7AFF372
:105EBC000080F4E708BD00BF0000000000000000F7
:105ECC000000000008B5FFF7D7FFFEF76BFB014B96
:105EDC00186008BD34E7032007B5002300931A4669
:105EEC006FF07701FEF742FD03B05DF804FB000094
:105EFC0007B543880A2B08D0502B09D1094B1B68D6
:105F0C003BB103B05DF804EB1847FFF7E5FF06E083
:105F1C00002300931A466FF07701FEF727FD03B0BC
:105F2C005DF804FBFCE3032010B5FEF72BFB0446E5
:105F3C0000F06CFD074B13B12046AFF3008000213D
:105F4C000448FEF76DFD00210348BDE81040FEF744
:105F5C0003BD00BF00000000FD5E0D00704710B5D2
:105F6C001821044600F0BBFB204610BDF0B5037DA4
:105F7C00062B8DB00E4600F104074FF0000402D042
:105F8C0000F1080518E00CAD394605F8304D2F230B
:105F9C002A460A20FEF7C0FB284600F05FFD336856
:105FAC000246DB682946304698470FE024B12E2183
:105FBC003046FFF7B5FE044415F8011D0A223046A1
:105FCC00FFF7F4FEBD420444F0D120460DB0F0BD05
:105FDC0010B5054B0446112240F8043B002100F09B
:105FEC000CFD204610BD00BFE46E0D000346074AB1
:105FFC0010B543F8042B01F1100251F8044B43F88F
:10600C00044B9142F9D10A781A7010BDE46E0D0060
:10601C0010B59DF8084044EA032343EA024242EAE1
:10602C00016104234160037510BD37B50D788B7881
:10603C004A78C97800912946FFF7EAFF03B030BDD2
:10604C0041747047704708B50021007CFEF71CFCBA
:10605C0030EA200028BF4FF0FF3008BD08B5012101
:10606C00007CFEF711FC30EA200028BF4FF0FF3017
:10607C0008BD08B5007CFEF7FFFB20EAE07008BD08
:10608C0008B5007CFEF7F0FB20EAE07008BD007C50
:10609C00FEF70ABC10B51421044600F020FB204684
:1060AC0010BD38B50446007C0D46FEF7E5FB002814
:1060BC0001DC607C28B12946207CFEF7EDFB20EA50
:1060CC00E07038BD10B50446002363604FF47A735A
:1060DC00A360054B236001230846217463741146A9
:1060EC00FEF7B2FB204610BDF86E0D000022007CBE
:1060FC00FEF7B2BB10B514220446002100F07DFC63
:10610C00204610BD30B50E4D87B001A8FFF7F2FF49
:10611C00296811F0010410D12846FDF7BCFF60B1CD
:10612C0001AA21460748FFF7CDFF2846FDF7B8FF27
:10613C00054A0649034800F0CDFA024807B030BDC5
:10614C0000E4032004E403208CE3032051600D00E1
:10615C00F8B585B2044628460E46174600F042FABA
:10616C0060B102212846FEF7EDF9022806D13A4625
:10617C0031462046BDE8F840FEF756BBF8BD38B5B1
:10618C0085B20446284600F02DFA50B1022128466B
:10619C00FEF7D8F9022804D12046BDE83840FEF7B6
:1061AC004BBB38BD70474174704708B5007CFEF797
:1061BC00F3FA20EAE07008BD08B5007CFEF7C4FADB
:1061CC0020EAE07008BD08B5007CFEF7CDFA30EA95
:1061DC00200028BF4FF0FF3008BD08B5007CFEF74B
:1061EC00BBFA30EA200028BF4FF0FF3008BD007C1E
:1061FC00FEF7C2BA10B51421044600F070FA20461E
:10620C0010BD70B5457C04460E4625B9007CFEF7E2
:10621C00C3FA002805DD3146207CBDE87040FEF74E
:10622C008BBA284670BD000010B5044608461146CE
:10623C00002262604FF47A72A260054A2260012249
:10624C00207462741A46FEF76FFA204610BD00BF28
:10625C00286F0D000023007CFEF7A6BA0022FFF782
:10626C00F9BF007CFEF790BA38B50C4D296811F0D7
:10627C00010411D12846FDF70EFF68B1084A094BFD
:10628C0009482146FFF7D0FF2846FDF709FF074ACA
:10629C000749054800F01EFA034838BDB0E4032056
:1062AC00B4E403202CE4032018E403208CE3032043
:1062BC00B1610D007047F8B5064615460C468F18AF
:1062CC00BC4206D0336814F8011B9B6830469847D3
:1062DC00F6E72846F8BD0022007CFEF76DBA0021D7
:1062EC00007CFEF771BA0021007CFEF775BA002124
:1062FC00007CFEF779BA0021007CFEF77DBA10B560
:10630C001421044600F0EBF9204610BD10B50446EC
:10631C004FF47A730846A3600021044B207461602B
:10632C002360FEF779FA204610BD00BF586F0D00B0
:10633C000021007CFEF768BA002211464068FEF787
:10634C0057BB002211464068FEF762BB0022406832
:10635C00FEF756BB002281F001014068FEF740BBFE
:10636C0000231A4601214068FEF732BB00231A466F
:10637C0019464068FEF724BB002211464068FEF720
:10638C0017BB002211464068FEF702BB0022022117
:10639C004068FEF705BB00231A464068FEF7F0BACA
:1063AC0038B5054688B104684CB1A3681BB103220B
:1063BC002146204698471021204600F090F92846A7
:1063CC001421BDE8384000F08AB938BD10B103681B
:1063DC005B681847704710B503680446BBB1586832
:1063EC00FEF762F978B923685A7C12B95868FEF73F
:1063FC0063F923685868FEF767F920680023236067
:10640C0028B1FFF7CDFF206808B1FFF7C9FF204680
:10641C0010BD000038B50C4B03600446D0F8CC011D
:10642C0008B1FDF736FED4F8C45135B12846FFF754
:10643C00D2FF0421284600F052F9A06808B1FFF7FA
:10644C00C5FF204638BD00BF806F0D0038B50E4C1F
:10645C000E4B23600025022304F5E4706360A560F5
:10646C00C4F8C451C4F8C851FEF73EF9084BC4F83F
:10647C00CC5184F8D05123602046064A0649BDE829
:10648C00384000F027B900BF38E50320B46F0D0089
:10649C00806F0D008CE3032021640D0000231A464D
:1064AC004068FEF76DBA002202214068FEF778BA08
:1064BC00002211464068FEF76BBA00221146406874
:1064CC00FEF776BA00231A4619464068FEF778BAEA
:1064DC0000231A4619464068FEF77ABA002281F06A
:1064EC0001014068FEF77CBA00224068FEF788BACA
:1064FC00002211464068FEF78BBA00221146406814
:10650C00FEF776BA2DE9F043002495B016460D46F9
:10651C000746FFF75DFD214620220CA8009400F0F1
:10652C006CFA40230C9321466B460CAA3046FDF7BF
:10653C00F9FF0446002844D1024601216868FEF7A1
:10654C0037FA0221804622466868FEF731FA009E2F
:10655C0081462146002E34D0002932D17368022B9B
:10656C0002D00A2B09D02AE0B8F1000F27D07169AC
:10657C0038460431FFF759FD20E0B9F1000F1ED069
:10658C007469112201A800F038FA06238DF8143032
:10659C0001AD04F108031834186859682A4603C27F
:1065AC000833A3421546F7D101A906A807ADFFF79A
:1065BC001DFD0FCD3C1D0FC42B6823700121F66906
:1065CC00C8E70098FDF7A6FF384615B0BDE8F08384
:1065DC00024B034A1A6000225A6070470CE70320F2
:1065EC00B46F0D0010B504460F48FEF793FA28B1AE
:1065FC00A4F10B03022B01D8002010BD00F04AF8C7
:10660C00FFF796FE08B1012CF6D9FFF72DFEFFF728
:10661C0028FE18B1A4F10903012BEDD91E2C8CBF57
:10662C000020012010BD00BF14E703201E2838B540
:10663C0004460D460AD8FF2908D0FFF7D3FF28B12E
:10664C0029462046BDE83840FDF784BF38BD000020
:10665C0070B50C4C0C4E0D4D00212046FEF746FA41
:10666C0020460B4C3246294600F034F801212046D6
:10667C00FEF73CFA324629462046BDE8704000F051
:10668C0029B800BF14E703208CE30320E94A0D006E
:10669C0024E7032038B50B4D296811F001040FD104
:1066AC002846FDF7F8FC58B121460748FFF72EFEA7
:1066BC002846FDF7F5FC054A0549034800F00AF8A1
:1066CC00014838BD38E703203CE703208CE3032066
:1066DC00C1620D000B460146184600F04BB9FDF7A0
:1066EC00D6BC0000184B1A68D1075CBF01221A6097
:1066FC00164B1A68D2075CBF01221A60144B1A6839
:10670C00D0075CBF01221A60124B1A68D1075CBF1C
:10671C0001221A60104B1A68D2075CBF01221A6062
:10672C000E4B1A68D0075CBF01221A600C4B1A681A
:10673C00D1075CBF01221A600A4B1A68D2075CBFF2
:10674C0001221A60704700BF6CE7032068E7032042
:10675C0064E7032060E703205CE7032058E703208D
:10676C0054E7032050E70320244B1A68D0075CBF82
:10677C0001221A60224B1A68D1075CBF01221A60F1
:10678C00204B1A68D2075CBF01221A601E4B1A6894
:10679C00D0075CBF01221A601C4B1A68D1075CBF82
:1067AC0001221A601A4B1A68D2075CBF01221A60C8
:1067BC00184B1A68D0075CBF01221A60164B1A6876
:1067CC00D1075CBF01221A60144B1A68D2075CBF58
:1067DC0001221A60124B1A68D0075CBF01221A60A2
:1067EC00104B1A68D1075CBF01221A600E4B1A6855
:1067FC00D2075CBF01221A60704700BF9CE70320E0
:10680C0098E7032094E7032090E703208CE703200C
:10681C0088E7032084E7032080E703207CE703203C
:10682C0078E7032074E7032070E70320244B1A68F1
:10683C00D0075CBF01221A60224B1A68D1075CBFDB
:10684C0001221A60204B1A68D2075CBF01221A6021
:10685C001E4B1A68D0075CBF01221A601C4B1A68C9
:10686C00D1075CBF01221A601A4B1A68D2075CBFB1
:10687C0001221A60184B1A68D0075CBF01221A60FB
:10688C00164B1A68D1075CBF01221A60144B1A68A8
:10689C00D2075CBF01221A60124B1A68D0075CBF8A
:1068AC0001221A60104B1A68D1075CBF01221A60D2
:1068BC000E4B1A68D2075CBF01221A60704700BFEA
:1068CC00CCE70320C8E70320C4E70320C0E703207C
:1068DC00BCE70320B8E70320B4E70320B0E70320AC
:1068EC00ACE70320A8E70320A4E70320A0E70320DC
:1068FC00184B1A68D1075CBF01221A60164B1A6834
:10690C00D2075CBF01221A60144B1A68D0075CBF17
:10691C0001221A60124B1A68D1075CBF01221A605F
:10692C00104B1A68D2075CBF01221A600E4B1A6812
:10693C00D0075CBF01221A600C4B1A68D1075CBFF0
:10694C0001221A600A4B1A68D2075CBF01221A6036
:10695C00704700BFECE70320E8E70320E4E70320DF
:10696C00E0E70320DCE70320D8E70320D4E703208B
:10697C00D0E7032010B5054C13462CB10A4601464E
:10698C000220AFF3008010BD204610BD00000000B7
:10699C0010B501390244904207D010F8013B11F8B0
:1069AC00014FA342F7D0181B10BD002010BD10B52D
:1069BC00431E0A44914204D011F8014B03F8014FD5
:1069CC00F8E710BD884210B501EB020301D8421E56
:1069DC000BE09842FBD28118D21AD34204D013F8A0
:1069EC00014D01F8014DF8E710BD994204D011F8A2
:1069FC00014B02F8014FF8E710BD024403469342E5
:106A0C0002D003F8011BFAE77047000038B5124BAF
:106A1C001C68A36B0546D3B91820FEF709F843F29E
:106A2C000E33A06303804AF6CD33438041F2342306
:106A3C0083804EF26D63C3804DF6EC6303810523B6
:106A4C0043810B23838101220023C0E90423A36B20
:106A5C0000221D615A6138BD88E30320034613F8F8
:106A6C00012B002AFBD1181A0138704710B50346C8
:106A7C0001448B4204D01A785C1C0AB12346F8E717
:106A8C00181A10BD1D400D0059400D0085400D0019
:106A9C0089400D0000000000426C7565746F6F74C6
:106AAC006820436F6E6E65637465642100426C757B
:106ABC0065746F6F746820446973636F6E6E656381
:106ACC007465642E0036453430303030302D42350C
:106ADC0041332D463339332D453041392D45353031
:106AEC0045323444434341394500726563656976E8
:106AFC00650036453430303030322D423541332D3F
:106B0C00463339332D453041392D453530453234F6
:106B1C00444343413945007472616E736D6974006E
:106B2C0036453430303030312D423541332D4633FB
:106B3C0039332D453041392D4535304532344443B8
:106B4C004341394500102030405060708090000067
:106B5C000000000000000000000000000000000029
:106B6C000000000000000000000000000000000019
:106B7C000000000000A0B0C0D0E0F0000000000059
:106B8C0000000000CB4A0D00C14A0D00B74A0D00B1
:106B9C00AD4A0D00A14A0D00954A0D00894A0D0021
:106BAC00814A0D00774A0D006D4A0D0011650D00EC
:106BBC000000000000000000E94A0D00EB4A0D0047
:106BCC000000000000000000234C0D00294C0D00BB
:106BDC00ED580D00534C0D00254C0D00000000002D
:106BEC00000000001D4C0D00374C0D00F5590D0038
:106BFC00574C0D001F4C0D00000000000000000061
:106C0C00174C0D00454C0D00D7530D005B4C0D007F
:106C1C00194C0D007BE327747BF815ACDD49A913E7
:106C2C00000072F5776972696E672E626C650053AD
:106C3C007461727420646973636F766572696E67D0
:106C4C002073657276696365732E00537461727478
:106C5C0020646973636F766572696E67206368611F
:106C6C007261637465726973746963732E00506525
:106C7C00657220646576696365206973206D69733C
:106C8C0073696E6721004661696C656420746F20BE
:106C9C00617070656E6420706565722043656E74FA
:106CAC0072616C206465766963652E00436F6E6E4D
:106CBC0065637465642062792043656E7472616CDF
:106CCC00206465766963652E00446973636F6E6E2C
:106CDC0065637465642062792072656D6F746520DC
:106CEC006465766963652E0043616E6E6F74206116
:106CFC006464206E657720706565722064657669C2
:106D0C0063652E004E6577207065726970686572D8
:106D1C00616C20697320636F6E6E65637465642E9D
:106D2C00004661696C656420746F20617070656EDB
:106D3C006420646973636F7665726564206368614F
:106D4C0072616374657269737469632E004661695C
:106D5C006C656420746F20617070656E642064696A
:106D6C0073636F76657265642073657276696365AB
:106D7C002E004661696C656420746F2061707065CB
:106D8C006E64206C6F63616C206368617261637404
:106D9C00657269737469632E004475706C69636104
:106DAC00746564206368617261637465726973747D
:106DBC0069632063616E6E6F742062652061646428
:106DCC0065642E00626175640053657269616C00C4
:106DDC0053657269616C3100747970650070617211
:106DEC00616D00636D6400696400686E64007374A7
:106DFC00726D0066696C74006C766C00616464483A
:106E0C00616E646C65720072656D6F766548616E5B
:106E1C00646C657200656E756D48616E646C65724C
:106E2C0073004A534F4E53747265616D4C6F6748D3
:106E3C00616E646C65720061707000253031307564
:106E4C0020005D20002564002C200028293A200019
:106E5C00205B00636F6465203D200025690064653C
:106E6C007461696C73203D20000D0A0066006C6E25
:106E7C0000666E00636F64650064657461696C0024
:106E8C006E6F6E6500747261636500696E666F008B
:106E9C007761726E006572726F720070616E6963F9
:106EAC0000616C6C005A00252B3033643A2530326B
:106EBC00750025592D256D2D25645425483A254DF1
:106ECC003A2553257A0061736374696D650000007F
:106EDC000000000000000000795F0D00695F0D00EC
:106EEC006B5F0D00000000000000000051600D0001
:106EFC00A1600D00AF600D00E15C0D008D600D0018
:106F0C0053600D0069600D009B600D007F600D00EB
:106F1C004D600D000000000000000000B1610D008C
:106F2C0001620D000F620D00E15C0D00C5610D00EA
:106F3C00E7610D00D3610D00FB610D00B3610D0025
:106F4C00B7610D000000000000000000C1620D00E0
:106F5C000B630D00E3620D00C3620D00EB620D00CC
:106F6C00F3620D00FB620D0003630D0000000000D6
:106F7C0000000000A3630D0099630D008F630D00EA
:106F8C0085630D0079630D006D630D0061630D0069
:106F9C0059630D004F630D0045630D0011650D0025
:106FAC000000000000000000A9640D00B3640D0097
:106FBC00BD640D00C7640D00D1640D00DD640D00CF
:106FCC00E9640D00F5640D00FD640D0007650D000E
:106FDC0011650D0000000000000000000000000022
:106FEC000000000000000000000000000000000095
:106FFC000000000000000000000000000000000085
:10700C000000000000000000000000000000000074
:10701C000000000000000000000000000000000064
:10702C000000000000000000000000000000000054
:10703C00000000004300000099430D00C7440D0000
:10704C001D450D00D54A0D00294B0D00D15C0D00DE
:10705C00BD5D0D00CD5D0D00695E0D0059640D0028
:10706C00DD650D005D660D00F1660D0075670D00A8
:10707C0039680D00FD680D000000000000000000E4
:04708C000000000000
:1070900002000000040000000400000004000000E2
:1070A0000400000001000000E90E00007407000069
:1070B000A5060000BC03000054030000DE01000030
:1070C00001000000FC040000EB0500007407000054
:1070D000040000000400000001000000BC030000E8
:1070E000F70200007E02000004000000040000001F
:1070F000010000002C6B0D00D26E0D00000000009E
:10710000E06F0D0000700D0020700D000000000009
:1071100000000000000000000000000040700D00B2
:10712000000000000000000000000000000000005F
:10713000000000000000000000000000000000004F
:10714000000000000000000000000000000000003F
:1071500000000000000000000000000028E3032001
:10716000FFFFFFFF00000102030405060708090AEC
:107170000B0C0D0E0F101112131415161718191AE7
:087180001B1C1D1E1F2028002E
:0471880078563412EF
:04000003D000401CCD
:00000001FF
