:02000002D0002C
:1040000000400D00746A0D00000006000E0005015E
:0840100004017E050000000020
:04401800F0620D0045
:10401C0009480A49884208B505D0094A824202D0AB
:10402C00121A02F01BF90748074A0021121A02F073
:10403C0020F9014808BD00BFECE2032080690D00A7
:10404C00B8E30320B8E30320F0E7032070B501F0D8
:10405C00A5FB074C074BE41AA40800251E46A542F5
:10406C0004D056F8253098470135F8E770BD00BFED
:10407C0074690D0034690D0000F054BA08B500F0F5
:10408C008FFABDE8084001F057BB01F057B901F0B9
:10409C0055B901F05BB901F059B90078B0FA80F06C
:1040AC004009704701230370704700002DE9F84F59
:1040BC00DFF848B00F46904699460024C6B24FF43C
:1040CC00167ABC4215DA58F8241059F824509AFB89
:1040DC00F5F509B19BFBF1F1A5F11402304601F0A5
:1040EC006DFC284601F0B0FA304601F07EFC01343C
:1040FC00E7E73046BDE8F84F01F077BC20A1070098
:10410C0000F028BF08B50121062001F0DAFE0022DC
:10411C001046FF2101F0BAFA084B094A032113207B
:10412C00FFF7C4FF0021062001F0CBFE0022114650
:10413C001046BDE8084001F0A9BA00BF40E30320D7
:10414C0034E3032008B501210F2001F0BAFEFFF77C
:10415C00D9FF4FF47A7001F077FA00210F20BDE8F7
:10416C00084001F0AEBE000008B50121082001F0A6
:10417C00A8FE00221146FF2001F088FA084B094ADC
:10418C0003211320FFF792FF0021082001F099FE74
:10419C00002211461046BDE8084001F077BA00BF76
:1041AC0028E303201CE303201FB5134C94E8030001
:1041BC0008348DE8030094E8030002AB83E80300A5
:1041CC006A4602211320FFF771FF0021072001F03E
:1041DC0078FE00221146104601F058FA642001F0D6
:1041EC0033FA0121072001F06CFE642100220846FD
:1041FC0001F04CFA04B010BD04630D0010B50121A0
:10420C000F4800F05DFE0E4800F028FEC72804465B
:10421C000DD801F0ADFB0B4901F048F901F0A8FBFA
:10422C000A22214601F0BAF9FFF78CFF06E001F0F3
:10423C009FFB054901F04DF9FFF796FF204610BD95
:10424C00CCE3032014630D0021630D00F8B50121AC
:10425C00072001F036FE64210846002201F016FA10
:10426C008B4800F05DFCC82805D101F081FB894921
:10427C0001F02FF90BE000F0B5FE874D002428600B
:10428C002146834800F080FC60B10134F8E700213E
:10429C00072001F016FE00221146104601F0F6F937
:1042AC000024F3E001F064FB23467C4A012101F079
:1042BC007FF901F05DFB7A4901F00BF92146744856
:1042CC0000F090FC01F054FB764901F002F901F08A
:1042DC004FFB754901F0EAF801F04AFB21460A222E
:1042EC0001F05CF94EF65F24694800F08BFD48B98B
:1042FC0000F078FE2B68C01AA042C8D8642001F0E8
:10430C00A3F9F1E70121624800F0DAFD0446002828
:10431C0000F0AC80FFF748FF01F02AFB634901F085
:10432C00D8F85B4800F0A2FC594800F06BFD04463D
:10433C0018B1642001F088F9F6E701F019FB5C492B
:10434C0001F0C7F84EF65F26514800F05BFD48B906
:10435C0000F048FE2B68C01AB04298D8642001F0D7
:10436C0073F9F1E701214A4800F0AAFD064600283E
:10437C006DD0FFF719FF01F0FBFA4C4901F0A9F8D9
:10438C00434800F0B7FC424800F03CFD044618B12D
:10439C00642001F059F9F6E701F0EAFA454901F019
:1043AC0098F84EF65F273A4800F02CFD064650B9B7
:1043BC0000F018FE2B68C01AB8423FF668AF6420B4
:1043CC0001F042F9EFE70121314800F079FD054693
:1043DC0080B3FFF7E9FE01F0CBFA344901F079F82C
:1043EC002B4800F0CBFC054688B9FFF78BFE01F09B
:1043FC00BFFA314901F06DF82946072001F061FD43
:10440C002A462946284601F041F934463EE0FFF79A
:10441C00ABFE01F0ADFA294901F048F801F0A8FA19
:10442C000A22294601F0BAF80021072001F049FDC3
:10443C00002218E0FFF798FE01F09AFA204901F0EB
:10444C0048F82946072001F03CFD2A460BE0FFF70F
:10445C008BFE01F08DFA1B4901F03BF83146072029
:10446C0001F02FFD3246114610460DE0FFF77CFEA1
:10447C0001F07EFA144901F02CF82146072001F0D6
:10448C0020FD22462146204601F000F92046F8BDC9
:10449C00CCE3032032630D00C8E3032032640D002B
:1044AC0053640D0060640D006F640D005B630D00C0
:1044BC0069630D0081630D009D630D00B2630D00F7
:1044CC00D4630D00F3630D0013640D0008B50121D6
:1044DC00062001F0F6FC642001F0B6F8012107205B
:1044EC0001F0EFFC642001F0AFF80121082001F08D
:1044FC00E8FC4FF4FA7001F0A7F80021062001F057
:10450C00E0FC642001F0A0F80021072001F0D9FCA8
:10451C00642001F099F800210820BDE8084001F062
:10452C00D0BC000010B5012001F0A0F8FF2211460C
:10453C001046184C01F0AAF80121402001F0B9F8FE
:10454C00204600F081FA0121204600F0ABFA01214F
:10455C00132001F0A5FC01210F2001F0A1FC022188
:10456C00052001F09DFC0121062001F099FC0121A0
:10457C00072001F095FC0121082001F091FCFFF7C8
:10458C00A5FF054B054A06211320BDE81040FFF797
:10459C008DBD00BFCCE30320ECE2032004E3032039
:1045AC00002170B50846FF2201F070F8234800F096
:1045BC0029FC30B1FF221146104601F067F8FFF7D5
:1045CC001DFE052001F096FC38BB1D4C237823BB47
:1045DC00FFF798FD0123237000F004FD194C1A4DD0
:1045EC0020602E4600F0FEFC2368C01A2B6898420F
:1045FC0018D2052001F07EFC0128F3D100F0F2FC6A
:10460C002368C01A33689842ECD2052001F072FC82
:10461C000028F3D1FFF71AFEF0E7052001F06AFC41
:10462C00012804D06420BDE8704001F00DB8044BA3
:10463C001A78002AF6D000221A70F3E7CCE3032094
:10464C00C0E30320BCE303204CE3032010B500F0CF
:10465C0081FC0A4B0A4C00221A705A804FF6FF72EA
:10466C009A80032000F0EEFD204600F033F920463E
:10467C00044A0549BDE8104001F092BCC2E3032096
:10468C00CCE30320B8E30320F9480D000B12417072
:10469C0083700B14090EC3700171704742788378D4
:1046AC001344C27803F5807313440279134442799E
:1046BC00807913441844704770B504460C20FFF7FA
:1046CC00E6FC0025267866710146A5712046FFF7A9
:1046DC00E5FF55230B70AA234B7001238B70637875
:1046EC000B71A3784B71E3788B7188722379CD7041
:1046FC00000AC872CB710E724D72084670BD000074
:10470C0028B1122903D8034B33F8110070474FF628
:10471C00FF70704788640D00037C427C03EB02221F
:10472C00C37B807B03EB022300EB0320704710B5A7
:10473C000B4600205C1AA24203DD13F8014B204407
:10474C00F8E710BD914270B50C4615461E4601D0D7
:10475C00994201D1002070BD9DF8143053B301F083
:10476C0007F9154900F0A2FE01F002F9049900F0D6
:10477C009DFE01F0FDF8114900F098FE01F0F8F8EB
:10478C001022294600F0DCFE01F0F2F80C4900F092
:10479C008DFE01F0EDF81022314600F0D1FE01F053
:1047AC00E7F8084900F082FE01F0E2F810222146F9
:1047BC0000F0C8FE012070BDAE640D0049670D000D
:1047CC00CD640D00D2640D00F7B53A4B0C46097858
:1047DC0000935523164601921A460546FFF7B2FF81
:1047EC00354B61780093AA231A4601962846FFF7A9
:1047FC00A9FF324BA178009301231A460196284653
:10480C00FFF7A0FF2E4BE178009300231A46019688
:10481C002846FFF797FF2B4B217A00933022312348
:10482C0001962846FFF78EFF237A302B0CBF01230D
:10483C0000232B75244B617A009300231A460196B2
:10484C002846FFF77FFF21460A222846FFF76FFF15
:10485C001E4AA17A0092C3B2C0F307271A460196EA
:10486C002846FFF76FFF1A4BE17A00933A463B4616
:10487C0001962846FFF766FF21796079FFF740FF24
:10488C0028802379AB736379EB73A3792B74E37969
:10489C006B74237AAB74637AEB74013C6B1C05F17B
:1048AC000D0214F8011F03F8011F9342F9D1284699
:1048BC0003B0F0BDD7640D00EC640D0001650D0074
:1048CC0015650D0029650D0034650D0040650D0062
:1048DC004D650D0010B5044601F000F94FF416516A
:1048EC0001F0F2F800232370204610BD10B50446E9
:1048FC0001F0F4F803681B68984701F0EFF801F039
:10490C00E6F8204610BD00001FB50A46684605496A
:10491C0000F024FD01F02CF8694600F0C7FD05B04D
:10492C005DF804FB5B650D00F8B50D4617460646B1
:10493C0001F01EF80D4900F0B9FD2C460123621B55
:10494C0097420CDD23B901F013F8094900F0AEFDD4
:10495C0014F8011B3046FFF7D7FF0023EFE701F0F7
:10496C0007F80249BDE8F84000F0A0BD60650D00F5
:10497C0049670D0070B504460D46164601F0AEF8B9
:10498C0003683246DB682946984723787BB100F0F0
:10499C00EFFF074900F08AFD324629462046FFF713
:1049AC00C3FF00F0E5FFBDE8704000F086BD70BDB0
:1049BC0062650D00F8B5054601F090F803685B6977
:1049CC009847C6B2552EF7D10C20FFF760FB067046
:1049DC000446064600F10B0701F080F803681B69DA
:1049EC00984718B90A2000F02FFEF5E701F076F889
:1049FC0003685B69984706F8010FB742ECD11620A3
:104A0C00FFF743FB064618B12A782146FFF7DCFE78
:104A1C000121204601F0C9FA2B788BB100F0A8FFD8
:104A2C00084900F043FD0C22B11C2846FFF77CFF1F
:104A3C0000F09EFF00F041FD00F09AFF00F03DFDFC
:104A4C003046F8BD6F650D00F8B50378054623B107
:104A5C0000F08EFF124900F03CFD0720FFF715FB1C
:104A6C000127002343708370C370037107700446E1
:104A7C00FFF722FE07210646204601F096FA314642
:104A8C000C222846FFF776FF2846FFF793FF1621E6
:104A9C0001F08BFA39463046BDE8F84001F085BA92
:104AAC007C650D0070B5054607200E46FFF7EDFA44
:104ABC001223037004462B783EB123B100F058FF4B
:104ACC00154900F006FD012306E023B100F050FF6C
:104ADC00124900F0FEFC002363700023A370E37006
:104AEC0023712046FFF7E8FD07210646204601F01A
:104AFC005CFA0C2231462846FFF73CFF2846FFF7AC
:104B0C0059FF1621047D01F050FA3046012101F0C5
:104B1C004CFA204670BD00BF93650D00A0650D00DA
:104B2C0070B50378054623B100F022FF154900F05B
:104B3C00D0FC0720FFF7A9FA202303700023437051
:104B4C008370C37003710446FFF7B6FD0721064658
:104B5C00204601F02AFA0C2231462846FFF70AFFBC
:104B6C002846FFF727FF0546FFF7D6FD162104461A
:104B7C00284601F01AFA3046012101F016FA2046B7
:104B8C0070BD00BFC3650D0070B5037804460E46BA
:104B9C0023B100F0EDFE124900F09BFC0720FFF75B
:104BAC0074FA2123037031460546FFF76FFDFFF7BA
:104BBC0083FD07210646284601F0F7F90C22314601
:104BCC002046FFF7D7FE0121304601F0EEF92046D2
:104BDC00FFF7F0FE047D162101F0E7F9204670BDC9
:104BEC00DA650D0070B5037804460E4623B100F06B
:104BFC00BFFE1D4900F06DFC0720FFF746FA22238B
:104C0C00037031460546FFF741FDFFF755FD0721BF
:104C1C000646284601F0C9F90C2231462046FFF71A
:104C2C00A9FE0121304601F0C0F92046FFF7C2FE73
:104C3C00037D7BB9038841F2090293420CD041F207
:104C4C00030293420AD041F20504A3420CBF032491
:104C5C00002404E0002402E0012400E002241621D8
:104C6C0001F0A3F9204670BDEE650D0070B5037818
:104C7C00044623B100F07CFE1D4900F02AFC0720FD
:104C8C00FFF703FA232303700646FFF715FD0721F0
:104C9C000546304601F089F90C2220462946FFF7DB
:104CAC0069FE0121284601F080F92046FFF782FEBB
:104CBC000546FFF731FD2B7DC728D4BF0324002404
:104CCC005BB92B8841F20D02934205D041F20C02E4
:104CDC00934208BF022400E001242846162101F06B
:104CEC0064F92B7D002B0CBF2046002070BD00BF4B
:104CFC0000660D0070B50378044623B100F038FE51
:104D0C001D4900F0E6FB0720FFF7BFF924230370D1
:104D1C000646FFF7D1FC07210546304601F045F960
:104D2C000C2220462946FFF725FE0121284601F0DA
:104D3C003CF92046FFF73EFE0546FFF7EDFC2B7DC8
:104D4C00C728D4BF032400245BB92B8841F20D0281
:104D5C00934205D041F20C02934208BF022400E0BA
:104D6C0001242846162101F020F92B7D002B0CBFC5
:104D7C002046002070BD00BF0E660D0070B5037894
:104D8C00044623B100F0F4FD1D4900F0A2FB0720FE
:104D9C00FFF77BF9252303700646FFF78DFC0721EF
:104DAC000546304601F001F90C2220462946FFF752
:104DBC00E1FD0121284601F0F8F82046FFF7FAFD45
:104DCC000546FFF7A9FC2B7DC728D4BF032400247C
:104DDC005BB92B8841F20D02934205D041F20C02D3
:104DEC00934208BF022400E001242846162101F05A
:104DFC00DCF82B7D002B0CBF2046002070BD00BFC3
:104E0C001C660D0070B505460720FFF73EF92623FA
:104E1C0003700646FFF750FC07210446304601F0AC
:104E2C00C4F8284621460C22FFF7A4FD2846FFF7BC
:104E3C00C1FDC17B837B427C0B44017C0B44DA4279
:104E4C004FF016010CBF0125002501F0AEF82046ED
:104E5C00012101F0AAF8284670BD000070B5037856
:104E6C00044623B100F084FD144900F032FB072006
:104E7C00FFF70BF9512303700646FFF71DFC0721C2
:104E8C000546304601F091F80C2229462046FFF7E2
:104E9C0071FD2046FFF78EFD0646FFF73DFC1621FF
:104EAC000446304601F081F82846012101F07DF8D6
:104EBC00C82C2046A8BFC82070BD00BF59660D0085
:104ECC0070B5037806460D4623B100F051FD174925
:104EDC0000F0FFFA0720FFF7D8F8602304460370B0
:104EEC0035B10123437000238370C370037103E059
:104EFC0045708570C57005712046FFF7DDFB0721F5
:104F0C000546204601F051F80C2229463046FFF7A1
:104F1C0031FD3046FFF74EFD1621047D01F045F8BA
:104F2C002846012101F041F8204670BD6B660D004A
:104F3C0000F010B808B5024B1B689B68019308BDC4
:104F4C006802030008B5024B1B68DB68019308BDBF
:104F5C006802030008B5024B1B681B68019308BD6F
:104F6C002C02030008B5024B1B685B68019308BD5B
:104F7C002C02030008B5024B1B689B68019308BD0B
:104F8C002C02030008B5024B1B68DB68019308BDBB
:104F9C002C02030008B5024B1B681B69019308BD6A
:104FAC002C02030008B5024B1B685B69019308BD1A
:104FBC002C02030008B5024B1B68DB69019308BD8A
:104FCC003002030008B5024B1B681B6A019308BD35
:104FDC003002030008B5024B1B685B68019308BDE7
:104FEC001802030008B5024B1B685B69019308BDEE
:104FFC001802030008B5024B1B689B68019308BD9F
:10500C004802030008B5024B1B681B69019308BDDD
:10501C004802030008B5024B1B685B69019308BD8D
:10502C004802030008B5024B1B681B6B019308BDBB
:10503C004802030008B5024B1B685B6C019308BD6A
:10504C004802030008B5024B1B685B69019308BD5D
:10505C006402030008B5024B1B681B68019308BD72
:10506C003C02030008B5024B1B689B68019308BD0A
:10507C003C02030008B5024B1B68DB68019308BDBA
:10508C003C02030008B5024B1B681B69019308BD69
:10509C003C02030008B5024B1B685B69019308BD19
:1050AC003C02030008B5024B1B689B69019308BDC9
:1050BC003C02030008B5024B1B68DB69019308BD79
:1050CC003C02030008B5024B1B681B6A019308BD28
:1050DC003C02030008B5024B1B689B6A019308BD98
:1050EC003C02030008B5024B1B68DB6A019308BD48
:1050FC003C02030008B5024B1B681B6A019308BDF8
:10510C002802030008B5024B1B685B6A019308BDBB
:10511C002802030008B5024B1B689B6A019308BD6B
:10512C002802030008B5024B1B68DB6A019308BD1B
:10513C002802030008B5024B1B681B6B019308BDCA
:10514C002802030008B5024B1B685B6B019308BD7A
:10515C002802030008B5024B1B681B6C019308BDA9
:10516C002802030008B5024B1B681B68019308BD9D
:10517C002402030008B5024B1B685B68019308BD51
:10518C002402030008B5024B1B681B68019308BD81
:10519C004C02030008B5024B1B681B69019308BD48
:1051AC004C02030008B5024B1B685B69019308BDF8
:1051BC004C02030008B5024B1B689B69019308BDA8
:1051CC004C02030008B5024B1B68DB69019308BD58
:1051DC004C02030008B5024B1B681B6A019308BD07
:1051EC004C02030008B5024B1B685B68019308BDB9
:1051FC006002030008B5024B1B689B68019308BD55
:10520C006002030008B5024B1B68DB68019308BD04
:10521C006002030008B5024B1B681B69019308BDB3
:10522C006002030008B5024B1B689B69019308BD23
:10523C006002030008B5024B1B68DB69019308BDD3
:10524C006002030008B5024B1B685B68019308BD44
:10525C002002030008B5024B1B685B69019308BD73
:10526C002002030008B5034B1B68D3F88830019368
:10527C0008BD00002002030008B5034B1B68D3F8DF
:10528C009430019308BD00002002030008B5024BC6
:10529C001B685B68019308BD4002030008B5024B14
:1052AC001B689B68019308BD4002030008B5024BC4
:1052BC001B68DB68019308BD4002030008B5024B74
:1052CC001B681B69019308BD4002030008B5024B23
:1052DC001B685B69019308BD4002030008B5024BD3
:1052EC001B689B69019308BD4002030008B5024B83
:1052FC001B68DB69019308BD4002030008B5024B33
:10530C001B681B6A019308BD4002030008B5024BE1
:10531C001B681B6B019308BD4002030008B5024BD0
:10532C001B685B6B019308BD4002030008B5024B80
:10533C001B68DB6B019308BD4402030008B5024BEC
:10534C001B681B68019308BD1C02030008B5024BC7
:10535C001B685B68019308BD1C02030008B5024B77
:10536C001B68DB68019308BD1C02030008B5024BE7
:10537C001B685B6A019308BD1C02030000221146E6
:10538C004068FFF7BBBF002211464068FFF7C6BF5D
:10539C0000224068FFF7BABF002281F0010140688B
:1053AC00FFF7A4BF00231A4619464068FFF796BFC3
:1053BC0000231A4619464068FFF788BF00221146A1
:1053CC004068FFF77BBF002211464068FFF766BFBD
:1053DC00002202214068FFF769BF00231A4640688B
:1053EC00FFF754BF024B03225A60024A1A607047FF
:1053FC00D0E3032088660D00704710B510210446D9
:10540C0000F0D3FD204610BD70B5084B0360044678
:10541C0000250E4640F80C5FFFF704FE304626715F
:10542C00FFF7C8FDA560204670BD00BFBC660D002F
:10543C000079FFF7C7BD0000044B00204FF6FF7248
:10544C00187058809A80FFF7FDBE00BFD8E3032088
:10545C00024800230360FFF7EDBD00BFE0E303202B
:10546C00F8B506460D468F180024BD420CD03368A3
:10547C0015F8011B9B6830469847002801DB044453
:10548C00F3E7002C08BF04462046F8BD70B505466E
:10549C000C46084649B100F01DFF2B680246214618
:1054AC002846DB68BDE87040184770BD08B5FFF7AB
:1054BC00EDFF08BD03689B68184738B50D210546FC
:1054CC00FFF7F8FF0A2104462846FFF7F3FF2044B4
:1054DC0038BD38B50546FFF7D9FF04462846FFF717
:1054EC00ECFF204438BD30B58BB00B4600218DF855
:1054FC002410012A98BF0A220DF12304B3FBF2F504
:10550C0005FB123303F0FF03092B94BF3033373301
:10551C00DBB2214604F801392B46002DEED1FFF702
:10552C00B5FF0BB030BD10B42AB903685DF8044B5D
:10553C009B68C9B21847D2B25DF8044BFFF7D3BFD2
:10554C00FFF7F1BF38B50546FFF7EDFF04462846D7
:10555C00FFF7B3FF204438BD2DE9F04107460E4656
:10556C0015462AB90368C9B29B68BDE8F0411847D3
:10557C000A2A02D1002901DA04E0D2B2BDE8F041D6
:10558C00FFF7B1BF2D21FFF795FF2A460446714264
:10559C003846FFF7A8FF2044BDE8F08138B5054632
:1055AC00FFF7DAFF04462846FFF787FF204438BD93
:1055BC000CB42DE9F04387B000AF07F13804054671
:1055CC0054F8049B3C600E4623464A461421381D71
:1055DC00FFF7CCFE132805D8391D2846FFF756FFD8
:1055EC00044613E000F1080323F00703E846ADEB93
:1055FC00030D411C23464A4668463C60FFF7B6FE45
:10560C0069462846FFF742FF0446C5461EB12846A8
:10561C00FFF753FF044420461C37BD46BDE8F0435A
:10562C0002B07047014B024A1A607047E4E3032052
:10563C0037670D00024B1A68024B1A60704700BFA7
:10564C0050E30320E8E303200021FFF703BE10B56D
:10565C008368044613B1032201469847204610BDC7
:10566C0010B50446FFF7F3FF204610BD10B50446F5
:10567C00FFF7D8FD844208D01CB1BDE81040FFF7FD
:10568C00B9BDBDE81040FFF7BDBD10BD70B50546F6
:10569C000E461446FFF7C6FD50B144EA062040EA18
:1056AC000540FFF79FFDE720BDE87040FFF7C2BD46
:1056BC0070BD10B50C46FFF7ADFDFFF7B3FD28B17B
:1056CC0024B1E720BDE81040FFF7B4BD10BD0000C9
:1056DC000348044A04490023836000F061BC00BF06
:1056EC00ECE30320B8E303206D560D0008B50F4B17
:1056FC0033B100F03DF903681B69984700280DDCB5
:10570C000B4B33B100F0EAF903681B69984700288A
:10571C0007DC084B43B1AFF3008008BDAFF300804A
:10572C00EEE7AFF30080F4E708BD00BF0000000017
:10573C00000000000000000008B5FFF7D7FFFFF7DE
:10574C0051FC014B186008BD34E7032007B500235A
:10575C0000931A466FF07701FFF78EFD03B05DF8EA
:10576C0004FB000007B543880A2B08D0502B09D145
:10577C00094B1B683BB103B05DF804EB1847FFF70E
:10578C00E5FF06E0002300931A466FF07701FFF760
:10579C0073FD03B05DF804FBFCE3032010B5FFF7C9
:1057AC0019FC044600F06EFD074B13B12046AFF315
:1057BC00008000210448FFF7B9FD00210348BDE833
:1057CC001040FFF74FBD00BF0000000071570D00E7
:1057DC00704710B51821044600F0E7FB204610BDB9
:1057EC00F0B5037D062B8DB00E4600F104074FF08B
:1057FC00000402D000F1080518E00CAD394605F89C
:10580C00304D2F232A460A20FFF71CFC284600F0B7
:10581C0061FD33680246DB682946304698470FE045
:10582C0024B12E213046FFF745FE044415F8011D26
:10583C000A223046FFF784FEBD420444F0D12046D4
:10584C000DB0F0BD10B5054B0446112240F8043BD9
:10585C00002100F00EFD204610BD00BFD4670D00E6
:10586C000346074A10B543F8042B01F1100251F816
:10587C00044B43F8044B9142F9D10A781A7010BDCD
:10588C00D4670D0010B59DF8084044EA032343EAA1
:10589C00024242EA016104234160037510BD37B531
:1058AC000D788B784A78C97800912946FFF7EAFF82
:1058BC0003B030BD41747047704708B50021007CBF
:1058CC00FFF778FC30EA200028BF4FF0FF3008BD0E
:1058DC0008B50121007CFFF76DFC30EA200028BFE1
:1058EC004FF0FF3008BD08B5007CFFF75BFC20EAE9
:1058FC00E07008BD08B5007CFFF74CFC20EAE070B6
:10590C0008BD007CFFF766BC10B51421044600F0FE
:10591C004CFB204610BD38B50446007C0D46FFF705
:10592C0041FC002801DC607C28B12946207CFFF773
:10593C0049FC20EAE07038BD10B5044600236360D2
:10594C004FF47A73A360054B23600123084621743E
:10595C0063741146FFF716FC204610BDE8670D0076
:10596C0010B514220446002100F083FC204610BD23
:10597C0030B50E4D87B001A8FFF7F2FF296811F082
:10598C00010410D12846FEF788FB60B101AA21461C
:10599C000748FFF7D1FF2846FEF784FB054A064966
:1059AC00034800F0FDFA024807B030BD00E40320C4
:1059BC0004E40320B8E30320C5580D00F8B585B204
:1059CC00044628460E46174600F046FA60B10221FE
:1059DC002846FFF7C7FA022806D13A463146204638
:1059EC00BDE8F840FFF7BEBBF8BD38B585B204463C
:1059FC00284600F031FA50B102212846FFF7B2FADE
:105A0C00022804D12046BDE83840FFF7B3BB38BDAF
:105A1C0070474174704708B5007CFFF75BFB20EAC8
:105A2C00E07008BD08B5007CFFF72CFB20EAE070A5
:105A3C0008BD08B5007CFFF735FB30EA200028BF15
:105A4C004FF0FF3008BD08B5007CFFF723FB30EAB0
:105A5C00200028BF4FF0FF3008BD007CFFF72ABBA9
:105A6C0010B51421044600F0A0FA204610BD70B504
:105A7C00457C04460E4625B9007CFFF72BFB00281D
:105A8C0005DD3146207CBDE87040FFF7F3BA2846AF
:105A9C0070BD000010B50446084611460022626035
:105AAC004FF47A72A260054A22600122207462745B
:105ABC001A46FFF7CFFA204610BD00BF18680D003C
:105ACC000023007CFFF70EBB0022FFF7F9BF007C20
:105ADC00FFF7C8BA007CFFF7F5BA000038B50C4DDB
:105AEC00296811F0010411D12846FEF7D6FA68B1E5
:105AFC00084A094B09482146FFF7CCFF2846FEF718
:105B0C00D1FA074A0749054800F04AFA034838BD5C
:105B1C00B0E40320B4E403202CE4032018E40320B5
:105B2C00B8E303201D5A0D007047F8B5064615461C
:105B3C000C468F18BC4206D0336814F8011B9B68C6
:105B4C0030469847F6E72846F8BD0022007CFFF760
:105B5C00D1BA0021007CFFF7D5BA0021007CFFF7F9
:105B6C00D9BA0021007CFFF7DDBA0021007CFFF7D9
:105B7C00E1BA10B51421044600F017FA204610BD06
:105B8C0010B504464FF47A730846A3600021044B09
:105B9C00207461602360FFF7DDFA204610BD00BF62
:105BAC0048680D000021007CFFF7CCBA002211469A
:105BBC004068FFF7A3BB002211464068FFF7AEBB5D
:105BCC0000224068FFF7A2BB002281F0010140686F
:105BDC00FFF78CBB00231A4601214068FFF77EBB00
:105BEC0000231A4619464068FFF770BB0022114685
:105BFC004068FFF763BB002211464068FFF74EBBBD
:105C0C00002202214068FFF751BB00231A4640686E
:105C1C00FFF73CBB38B5054688B104684CB1A368A6
:105C2C001BB103222146204698471021204600F044
:105C3C00BCF928461421BDE8384000F0B6B938BD8F
:105C4C0010B103685B681847704710B503680446C9
:105C5C00BBB15868FFF7CEF978B923685A7C12B9F2
:105C6C005868FFF7CFF923685868FFF7D3F9206815
:105C7C000023236028B1FFF7CDFF206808B1FFF7A0
:105C8C00C9FF204610BD000038B50C4B036004461C
:105C9C00D0F8CC0108B1FEF7FEF9D4F8C45135B1F7
:105CAC002846FFF7D2FF0421284600F07EF9A068B1
:105CBC0008B1FFF7C5FF204638BD00BF70680D0066
:105CCC0038B50E4C0E4B23600025022304F5E4700E
:105CDC006360A560C4F8C451C4F8C851FFF7AAF9B1
:105CEC00084BC4F8CC5184F8D05123602046064AA6
:105CFC000649BDE8384000F053B900BF38E5032031
:105D0C00A4680D0070680D00B8E30320955C0D00CD
:105D1C0000231A464068FFF7B9BA002202214068F6
:105D2C00FFF7C4BA002211464068FFF7B7BA002249
:105D3C0011464068FFF7C2BA00231A46194640685C
:105D4C00FFF7C4BA00231A4619464068FFF7C6BAD3
:105D5C00002281F001014068FFF7C8BA00224068B8
:105D6C00FFF7D4BA002211464068FFF7D7BA0022D9
:105D7C0011464068FFF7C2BA2DE9F043002495B0F4
:105D8C0016460D460746FFF75DFD214620220CA85E
:105D9C00009400F06EFA40230C9321466B460CAA3B
:105DAC003046FFF7CFF80446002844D102460121C3
:105DBC006868FFF783FA0221804622466868FFF77D
:105DCC007DFA009E81462146002E34D0002932D126
:105DDC007368022B02D00A2B09D02AE0B8F1000F0D
:105DEC0027D0716938460431FFF759FD20E0B9F12D
:105DFC00000F1ED07469112201A800F03AFA062394
:105E0C008DF8143001AD04F1080318341868596882
:105E1C002A4603C20833A3421546F7D101A906A8A6
:105E2C0007ADFFF71DFD0FCD3C1D0FC42B68237074
:105E3C000121F669C8E70098FFF77CF8384615B0E1
:105E4C00BDE8F083024B034A1A6000225A60704787
:105E5C000CE70320A4680D0010B504460F48FFF7AB
:105E6C00E7FA28B1A4F10B03022B01D8002010BDD6
:105E7C0000F076F8FFF796FE08B1012CF6D9FFF783
:105E8C002DFEFFF727FE18B1A4F10903012BEDD964
:105E9C001E2C8CBF0020012010BD00BF14E7032076
:105EAC001E2838B504460D460AD8FF2908D0FFF73E
:105EBC00D3FF28B129462046BDE83840FFF75AB831
:105ECC0038BD38B504460D46FFF75CF8FF2810D0F6
:105EDC00062804D84D2323FA00F0C30709D4204622
:105EEC00FFF7BAFF28B129462046BDE83840FFF736
:105EFC0051B838BD10B50446FFF744F80438C0B2A9
:105F0C00012808D92046FFF7A7FF20B12046BDE89D
:105F1C001040FFF747B8002010BD000070B50C4CC6
:105F2C000C4E0D4D00212046FFF76EFA20460B4C0F
:105F3C003246294600F034F801212046FFF764FA76
:105F4C00324629462046BDE8704000F029B800BF13
:105F5C0014E70320B8E3032005540D0024E70320C5
:105F6C0038B50B4D296811F001040FD12846FEF706
:105F7C0094F858B121460748FFF702FE2846FEF771
:105F8C0091F8054A0549034800F00AF8014838BD64
:105F9C0038E703203CE70320B8E30320355B0D0012
:105FAC000B460146184600F04BB9FEF772B80000DC
:105FBC00184B1A68D1075CBF01221A60164B1A687D
:105FCC00D2075CBF01221A60144B1A68D0075CBF61
:105FDC0001221A60124B1A68D1075CBF01221A60A9
:105FEC00104B1A68D2075CBF01221A600E4B1A685C
:105FFC00D0075CBF01221A600C4B1A68D1075CBF3A
:10600C0001221A600A4B1A68D2075CBF01221A607F
:10601C00704700BF6CE7032068E7032064E70320A8
:10602C0060E703205CE7032058E7032054E70320D4
:10603C0050E70320244B1A68D0075CBF01221A607A
:10604C00224B1A68D1075CBF01221A60204B1A68D8
:10605C00D2075CBF01221A601E4B1A68D0075CBFC6
:10606C0001221A601C4B1A68D1075CBF01221A600E
:10607C001A4B1A68D2075CBF01221A60184B1A68B7
:10608C00D0075CBF01221A60164B1A68D1075CBF9F
:10609C0001221A60144B1A68D2075CBF01221A60E5
:1060AC00124B1A68D0075CBF01221A60104B1A6899
:1060BC00D1075CBF01221A600E4B1A68D2075CBF75
:1060CC0001221A60704700BF9CE7032098E7032069
:1060DC0094E7032090E703208CE7032088E7032054
:1060EC0084E7032080E703207CE7032078E7032084
:1060FC0074E7032070E70320244B1A68D0075CBFB9
:10610C0001221A60224B1A68D1075CBF01221A6067
:10611C00204B1A68D2075CBF01221A601E4B1A680A
:10612C00D0075CBF01221A601C4B1A68D1075CBFF8
:10613C0001221A601A4B1A68D2075CBF01221A603E
:10614C00184B1A68D0075CBF01221A60164B1A68EC
:10615C00D1075CBF01221A60144B1A68D2075CBFCE
:10616C0001221A60124B1A68D0075CBF01221A6018
:10617C00104B1A68D1075CBF01221A600E4B1A68CB
:10618C00D2075CBF01221A60704700BFCCE7032026
:10619C00C8E70320C4E70320C0E70320BCE70320C3
:1061AC00B8E70320B4E70320B0E70320ACE70320F3
:1061BC00A8E70320A4E70320A0E70320184B1A68E4
:1061CC00D1075CBF01221A60164B1A68D2075CBF5C
:1061DC0001221A60144B1A68D0075CBF01221A60A6
:1061EC00124B1A68D1075CBF01221A60104B1A6857
:1061FC00D2075CBF01221A600E4B1A68D0075CBF35
:10620C0001221A600C4B1A68D1075CBF01221A607C
:10621C000A4B1A68D2075CBF01221A60704700BF94
:10622C00ECE70320E8E70320E4E70320E0E70320A2
:10623C00DCE70320D8E70320D4E70320D0E70320D2
:10624C0010B5054C13462CB10A4601460220AFF39B
:10625C00008010BD204610BD0000000010B5431E8C
:10626C000A44914204D011F8014B03F8014FF8E7AE
:10627C0010BD02440346934202D003F8011BFAE717
:10628C007047000038B5124B1C68A36B0546D3B998
:10629C001820FFF753F843F20E33A06303804AF63D
:1062AC00CD33438041F2342383804EF26D63C3803F
:1062BC004DF6EC630381052343810B23838101227B
:1062CC000023C0E90423A36B00221D615A6138BD71
:1062DC00B4E30320034613F8012B002AFBD1181A50
:1062EC00013870471D400D0059400D0085400D00D0
:1062FC0089400D0000000000E90E0000D60B0000E4
:10630C00020000000200000056657269666965644F
:10631C002049443A0046696E676572206E6F74209E
:10632C00666F756E64004572726F723A206E6F20E4
:10633C006D6F726520656E726F6C6C6D656E74201E
:10634C0049447320617661696C61626C652E005200
:10635C00656D6F76652066696E6765720050726553
:10636C0073732073616D652066696E676572206159
:10637C006761696E0050726573732073616D65207F
:10638C0066696E6765722079657420616761696EF4
:10639C0000456E726F6C6C696E6720537563636534
:1063AC00737366756C00456E726F6C6C696E6720EA
:1063BC004661696C65642077697468206572726FD8
:1063CC007220636F64653A004661696C6564207481
:1063DC006F206361707475726520746869726420D3
:1063EC0066696E676572004661696C656420746FDE
:1063FC002063617074757265207365636F6E6420C1
:10640C0066696E676572004661696C656420746FBD
:10641C00206361707475726520666972737420668E
:10642C00696E6765720049442023256420697320D6
:10643C006E65787420617661696C61626C65206F41
:10644C006E204650532E00737461727420456E7228
:10645C006F6C6C00456E726F6C6C2073746172742F
:10646C0065640050726573732066696E676572208F
:10647C00746F20456E726F6C6C202300000001104D
:10648C000210031004100510061007100810091054
:10649C000A100B100C100D100E100F101010111004
:1064AC001210526573706F6E73655F5061636B652C
:1064BC00742070617273696E67206572726F7220DE
:1064CC0000207C7C200020213D2000434F4D4D417D
:1064DC004E445F53544152545F434F44455F310027
:1064EC00434F4D4D414E445F53544152545F434FC3
:1064FC0044455F3200434F4D4D414E445F44455639
:10650C004943455F49445F3100434F4D4D414E4433
:10651C005F4445564943455F49445F320041636BD4
:10652C004E616B5F4C4F570041636B4E616B5F4824
:10653C0049474800436865636B73756D5F4C4F57F3
:10654C0000436865636B73756D5F48494748002568
:10655C002E3258002200465053202D2053454E44D5
:10656C003A2000465053202D20524543563A2000E5
:10657C00465053202D204F70656E00465053202DF1
:10658C0020436C6F736500465053202D204C4544BE
:10659C00206F6E00465053202D204C4544206F66D2
:1065AC006600465053202D204368616E676542613A
:1065BC0075645261746500465053202D20476574F4
:1065CC00456E726F6C6C6564436F756E74004650EB
:1065DC0053202D20436865636B456E726F6C6C6540
:1065EC006400465053202D20456E726F6C6C5374B2
:1065FC0061727400465053202D20456E726F6C6C86
:10660C003100465053202D20456E726F6C6C320059
:10661C00465053202D20456E726F6C6C33004650E3
:10662C0053202D2044656C657465494400465053D5
:10663C00202D2044656C657465416C6C004650538C
:10664C00202D20566572696679315F3100465053B2
:10665C00202D204964656E74696679315F4E004661
:10666C005053202D204361707475726546696E67B6
:10667C00657200000000000000000000E7530D00F0
:10668C00DD530D00D3530D00C9530D00BD530D0048
:10669C00B1530D00A5530D009D530D0093530D00E8
:1066AC0089530D00855D0D00000000000000000006
:1066BC0005540D0007540D0062617564005365723A
:1066CC0069616C0053657269616C31007479706535
:1066DC0000706172616D00636D6400696400686EC6
:1066EC0064007374726D0066696C74006C766C0077
:1066FC0061646448616E646C65720072656D6F767E
:10670C006548616E646C657200656E756D48616E8E
:10671C00646C657273004A534F4E53747265616DAD
:10672C004C6F6748616E646C657200617070002517
:10673C003031307520005D20002564002C200028AD
:10674C00293A2000205B00636F6465203D20002502
:10675C00690064657461696C73203D20000D0A004A
:10676C006C6E00666E00636F6465006465746169CD
:10677C006C006E6F6E6500747261636500696E66A5
:10678C006F007761726E006572726F720070616E6D
:10679C00696300616C6C005A00252B3033643A2518
:1067AC003032750025592D256D2D25645425483A18
:1067BC00254D3A2553257A0061736374696D650024
:1067CC000000000000000000ED570D00DD570D002B
:1067DC00DF570D000000000000000000C5580D0040
:1067EC0015590D0023590D006D540D0001590D0064
:1067FC00C7580D00DD580D000F590D00F3580D0052
:10680C00C1580D0000000000000000001D5A0D00D2
:10681C006D5A0D007B5A0D006D540D00315A0D0050
:10682C00535A0D003F5A0D00675A0D001F5A0D00A8
:10683C00235A0D000000000000000000355B0D0025
:10684C007F5B0D00575B0D00375B0D005F5B0D0030
:10685C00675B0D006F5B0D00775B0D0000000000A7
:10686C0000000000175C0D000D5C0D00035C0D00BA
:10687C00F95B0D00ED5B0D00E15B0D00D55B0D00D0
:10688C00CD5B0D00C35B0D00B95B0D00855D0D008C
:10689C0000000000000000001D5D0D00275D0D00D4
:1068AC00315D0D003B5D0D00455D0D00515D0D0032
:1068BC005D5D0D00695D0D00715D0D007B5D0D0072
:1068CC00855D0D00000000000000000000000000CD
:1068DC0000000000000000000000000000000000AC
:1068EC00000000000000000000000000000000009C
:1068FC00000000000000000000000000000000008C
:10690C00000000000000000000000000000000007B
:10691C00000000000000000000000000000000006B
:10692C0000000000430000000D410D0059460D0011
:10693C003D4F0D00F1530D0045540D005D540D00FD
:10694C0031560D0041560D00DD560D00CD5C0D008D
:10695C00515E0D00295F0D00BD5F0D0041600D0003
:10696C0005610D00C9610D00000000000000000071
:04697C000000000017
:1069800002000000040000000400000004000000F9
:106990000400000001000000E90E00007407000080
:1069A000A5060000BC03000054030000DE01000047
:1069B000F7090000D60B0000E90E000004000000FB
:1069C0000400000001000000E90E0000D60B0000EA
:1069D000F7090000040000000400000001000000AE
:1069E000F4010000C4670D0000000000D0680D0035
:1069F000F0680D0010690D000000000000000000AC
:106A0000000000000000000030690D0000000000E0
:106A10000000000000000000000000000000000076
:106A20000000000000000000000000000000000066
:106A30000000000000000000000000000000000056
:0C6A4000000000000000000054E30320F0
:106A4C00FFFFFFFF00000102030405060708090A07
:106A5C000B0C0D0E0F101112131415161718191A02
:086A6C001B1C1D1E1F20280049
:046A7400785634120A
:04000003D000401CCD
:00000001FF
