:02000002D0002C
:1040000000400D00387B0D00000006000E00050189
:0840100004017E050000000020
:0440180080710D00A6
:10401C0009480A49884208B505D0094A824202D0AB
:10402C00121A03F03CF80748074A0021121A03F051
:10403C005CF8014808BD00BFBCE20320407A0D00CB
:10404C008CE303208CE30320F0E7032070B502F02F
:10405C00B7FA074C074BE41AA40800251E46A542E4
:10406C0004D056F8253098470135F8E770BD00BFED
:10407C00407A0D00007A0D0000F0ECB808B500F0A5
:10408C0073F9BDE8084002F069BA00F0DBBF00F03C
:10409C00D9BF00F0DFBF00F0DDBF0078B0FA80F0D0
:1040AC004009704701230370704700002DE9F84F59
:1040BC00DFF848B00F46904699460024C6B24FF43C
:1040CC00167ABC4215DA58F8241059F824509AFB89
:1040DC00F5F509B19BFBF1F1A5F11402304602F0A4
:1040EC007FFB284602F0C2F9304602F090FB013407
:1040FC00E7E73046BDE8F84F02F089BB20A1070086
:10410C0000F00ABD38B5044602F044FB054644B144
:10411C00204603F01BF82B680246DB682146284634
:10412C00984702F037FB03680A219B68984723786D
:10413C00622B08D0632B0AD0612B4FF0000209D1FF
:10414C001146642008E000226421104604E0642239
:10415C00002100E0FF210846BDE8384002F0A8B974
:10416C0008B50121062002F0BEFD00221046FF21F9
:10417C0002F09EF9084B094A03211320FFF796FF22
:10418C000021062002F0AFFD002211461046BDE8CA
:10419C00084002F08DB900BF14E3032008E30320AC
:1041AC0008B501210F2002F09EFDFFF7D9FF4FF457
:1041BC007A7002F05BF900210F20BDE8084002F094
:1041CC0092BD000008B50121082002F08CFD0022F0
:1041DC001146FF2002F06CF9084B094A0321132009
:1041EC00FFF764FF0021082002F07DFD002211463C
:1041FC001046BDE8084002F05BB900BFFCE20320AA
:10420C00F0E2032010B500210F4800F03BFC0E48F3
:10421C0000F006FCC72804460DD802F0BBFA0B4987
:10422C0002F090F802F0B6FA0A22214602F002F9E6
:10423C00FFF7B6FF06E002F0ADFA054902F095F87B
:10424C00FFF7C0FF204610BDC0E3032094710D00A2
:10425C00A1710D0010B5012096B002F019F9FF22E2
:10426C001146104602F024F90121402002F033F9E6
:10427C0001F0D6FA354A01460DA801F019FF0DA838
:10428C0001F08AFB01F0CCFA314A01460DA801F08D
:10429C000FFF0DA801F080FB00222E492C4801F0E5
:1042AC006BFA0DA801F09DF92B4903A801F044F815
:1042BC0003A908A801F040F808A801F07BF804460F
:1042CC0008A844B901F093F816AA022322F84E0D5F
:1042DC000321009406E001F08CF8002300930246C1
:1042EC00102307210DA801F035F901F099FA0022ED
:1042FC000DA901F002FB194800F0FAFA0121174848
:10430C0000F024FB0121132002F0DCFC01210F2022
:10431C0002F0D8FC0021052002F0D4FC012106207B
:10432C0002F0D0FC0121072002F0CCFC0121082076
:10433C0002F0C8FC0A4B0B4A06211320FFF7B6FE0D
:10434C004FF47A7002F092F816B010BD90E303208F
:10435C00B8E3032011410D00A0E30320C0E30320C8
:10436C00BCE20320D4E20320002138B50846FF222A
:10437C0002F09EF8294800F027FB30B1FF221146CD
:10438C00104602F095F8FFF73DFF052002F0C4FC43
:10439C000128054636D1224C23789BBBFFF700FF42
:1043AC002570204C00F008FC2368C01AB0F57A7F09
:1043BC0023D300F001FC206001F032FA01F0BAFACC
:1043CC00194C0546237888B133B902F0E3F9174943
:1043DC0001F0CBFF01232370154916480B780133EC
:1043EC000B700122002301F065F906E02BB102F0FD
:1043FC00D1F9114901F0B9FF25706420BDE83840AE
:10440C0002F034B8052002F087FC0028C9D1044B17
:10441C001A78002AC5D01870C3E700BFC0E3032088
:10442C0098E30320B4E30320C3E30320A2720D003E
:10443C00ECE2032090E30320B7720D002DE9F0436A
:10444C0099B000F069FB314B314D324FDFF8EC8005
:10445C0000244FF6FF721C705C809A80032000F0E1
:10446C0075FD284600F08AF93A462B49284602F099
:10447C00A9FC2A492A4D404601F049F8414609A8B1
:10448C0000F05AFF274B2C60D3F800906C6013AEF1
:10449C0049460EA801F03BF809A9304600F04CFF44
:1044AC00CDF80890204BDFF89890019328460EAB7E
:1044BC00009604221D4901F049FD3A46494628461A
:1044CC0002F080FC1A4D1B4904A801F020F841466B
:1044DC0009A800F031FF04A92C606C600EA800F054
:1044EC002BFF09A9304600F027FF0EAB284602949B
:1044FC00019400961022104901F028FD3A464946D5
:10450C00284602F05FFC19B0BDE8F0839AE3032063
:10451C00C0E303208CE30320A1470D00CF720D00F4
:10452C00B8E3032020E3032011410D00F4720D00C9
:10453C0090E30320FC720D0021730D00A0E3032017
:10454C00A5590D00427883781344C27803F5807323
:10455C001344027913444279807913441844704708
:10456C0070B504460C20FFF792FD00252678667185
:10457C000146A5712046FFF7E5FF55230B70AA23D2
:10458C004B7001238B7063780B71A3784B71E378BC
:10459C008B7188722379CD70000AC872CB710E7240
:1045AC004D72084670BD000028B1122903D8034B88
:1045BC0033F8110070474FF6FF70704750730D00C1
:1045CC00037C427C03EB0222C37B807B03EB022344
:1045DC0000EB0320704710B50B4600205C1AA2427A
:1045EC0003DD13F8014B2044F8E710BD914270B580
:1045FC000C4615461E4601D0994201D1002070BDD3
:10460C009DF8143053B302F0C5F8154901F09AFE29
:10461C0002F0C0F8049901F095FE02F0BBF81149C4
:10462C0001F090FE02F0B6F81022294601F0D4FEFB
:10463C0002F0B0F80C4901F085FE02F0ABF8102244
:10464C00314601F0C9FE02F0A5F8084901F07AFEE6
:10465C0002F0A0F81022214601F0C0FE012070BD2E
:10466C0076730D0015780D0095730D009A730D007F
:10467C00F7B53A4B0C460978009355231646019230
:10468C001A460546FFF7B2FF354B61780093AA2313
:10469C001A4601962846FFF7A9FF324BA1780093E2
:1046AC0001231A4601962846FFF7A0FF2E4BE1780E
:1046BC00009300231A4601962846FFF797FF2B4BD1
:1046CC00217A00933022312301962846FFF78EFF82
:1046DC00237A302B0CBF012300232B75244B617ADA
:1046EC00009300231A4601962846FFF77FFF2146C8
:1046FC000A222846FFF76FFF1E4AA17A0092C3B226
:10470C00C0F307271A4601962846FFF76FFF1A4B8E
:10471C00E17A00933A463B4601962846FFF766FF3E
:10472C0021796079FFF740FF28802379AB73637997
:10473C00EB73A3792B74E3796B74237AAB74637A80
:10474C00EB74013C6B1C05F10D0214F8011F03F80E
:10475C00011F9342F9D1284603B0F0BD9F730D00A1
:10476C00B4730D00C9730D00DD730D00F1730D00F2
:10477C00FC730D0008740D0015740D0010B5044683
:10478C0002F0BEF84FF4165102F0B0F8002323707B
:10479C00204610BD10B5044602F0B2F803681B6841
:1047AC00984702F0ADF802F0A4F8204610BD0000C6
:1047BC001FB50A466846054900F05CFC01F0EAFFAB
:1047CC00694601F0BFFD05B05DF804FB23740D00D4
:1047DC00F8B50D461746064601F0DCFF0D4901F011
:1047EC00B1FD2C460123621B97420CDD23B901F06D
:1047FC00D1FF094901F0A6FD14F8011B3046FFF763
:10480C00D7FF0023EFE701F0C5FF0249BDE8F840F0
:10481C0001F098BD28740D0015780D0070B5044694
:10482C000D46164602F06CF803683246DB682946E2
:10483C00984723787BB101F0ADFF074901F082FD69
:10484C00324629462046FFF7C3FF01F0A3FFBDE81F
:10485C00704001F07EBD70BD2A740D00F8B50546A0
:10486C0002F04EF803685B699847C6B2552EF7D133
:10487C000C20FFF70CFC06700446064600F10B07F3
:10488C0002F03EF803681B69984718B90A2001F03A
:10489C00EDFDF5E702F034F803685B69984706F81C
:1048AC00010FB742ECD11620FFF7EFFB064618B10B
:1048BC002A782146FFF7DCFE0121204602F087FA18
:1048CC002B788BB101F066FF084901F03BFD0C22FF
:1048DC00B11C2846FFF77CFF01F05CFF01F039FDAD
:1048EC0001F058FF01F035FD3046F8BD37740D006E
:1048FC00F8B50378054623B101F04CFF124901F0DD
:10490C0034FD0720FFF7C1FB0127002343708370A0
:10491C00C370037107700446FFF722FE0721064699
:10492C00204602F054FA31460C222846FFF776FF57
:10493C002846FFF793FF162102F049FA3946304614
:10494C00BDE8F84002F043BA44740D0070B505465A
:10495C0007200E46FFF799FB1223037004462B78B1
:10496C003EB123B101F016FF154901F0FEFC012305
:10497C0006E023B101F00EFF124901F0F6FC002312
:10498C0063700023A370E37023712046FFF7E8FDEA
:10499C0007210646204602F01AFA0C223146284618
:1049AC00FFF73CFF2846FFF759FF1621047D02F064
:1049BC000EFA3046012102F00AFA204670BD00BF03
:1049CC005B740D0068740D0070B505460720FFF789
:1049DC005CFB262303700646FFF7C2FD0721044645
:1049EC00304602F0F4F9284621460C22FFF716FF58
:1049FC002846FFF733FFC17B837B427C0B44017C51
:104A0C000B44DA424FF016010CBF0125002502F0D1
:104A1C00DEF92046012102F0DAF9284670BD0000CB
:104A2C0070B50378044623B101F0B4FE144901F0CB
:104A3C009CFC0720FFF729FB512303700646FFF768
:104A4C008FFD07210546304602F0C1F90C2229469C
:104A5C002046FFF7E3FE2046FFF700FF0646FFF770
:104A6C00AFFD16210446304602F0B1F9284601216B
:104A7C0002F0ADF9C82C2046A8BFC82070BD00BFFD
:104A8C0021750D0070B5037806460D4623B101F073
:104A9C0081FE174901F069FC0720FFF7F6FA602345
:104AAC000446037035B10123437000238370C37037
:104ABC00037103E045708570C57005712046FFF7E2
:104ACC004FFD07210546204602F081F90C222946AC
:104ADC003046FFF7A3FE3046FFF7C0FE1621047DDB
:104AEC0002F075F92846012102F071F9204670BDDB
:104AFC0033750D0000F010B808B5024B1B689B68AD
:104B0C00019308BD6802030008B5024B1B68DB6803
:104B1C00019308BD6802030008B5024B1B681B68B3
:104B2C00019308BD2C02030008B5024B1B685B689F
:104B3C00019308BD2C02030008B5024B1B689B684F
:104B4C00019308BD2C02030008B5024B1B68DB68FF
:104B5C00019308BD2C02030008B5024B1B681B69AE
:104B6C00019308BD2C02030008B5024B1B685B695E
:104B7C00019308BD2C02030008B5024B1B68DB69CE
:104B8C00019308BD3002030008B5024B1B681B6A79
:104B9C00019308BD3002030008B5024B1B685B682B
:104BAC00019308BD1802030008B5024B1B68DB68B3
:104BBC00019308BD1802030008B5024B1B685B6922
:104BCC00019308BD1802030008B5024B1B689B68D3
:104BDC00019308BD7402030008B5024B1B681B6DE2
:104BEC00019308BD7402030008B5024B1B689B6D52
:104BFC00019308BD7402030008B5024B1B681B6EC1
:104C0C00019308BD7402030008B5034B1B68D3F86D
:104C1C009830019308BD00007402030008B5034BE3
:104C2C001B68D3F8A830019308BD00007402030080
:104C3C0008B5034B1B68D3F8B430019308BD0000D2
:104C4C007402030008B5034B1B68D3F8D8300193EA
:104C5C0008BD00007402030008B5034B1B68D3F8B1
:104C6C00DC30019308BD00007402030008B5034B4F
:104C7C001B68D3F8EC30019308BD000074020300EC
:104C8C0008B5034B1B68D3F8F030019308BD000046
:104C9C007402030008B5034B1B68D3F80031019371
:104CAC0008BD00007402030008B5034B1B68D3F861
:104CBC000431019308BD00007402030008B5024BD7
:104CCC001B689B68019308BD4802030008B5024BA2
:104CDC001B681B69019308BD4802030008B5024B11
:104CEC001B685B69019308BD4802030008B5024BC1
:104CFC001B681B6B019308BD4802030008B5024BEF
:104D0C001B685B6C019308BD4802030008B5024B9D
:104D1C001B68DB6C019308BD4802030008B5024B0D
:104D2C001B685B6D019308BD4802030008B5024B7C
:104D3C001B685B69019308BD6402030008B5024B54
:104D4C001B681B68019308BD3C02030008B5024BAD
:104D5C001B689B68019308BD3C02030008B5024B1D
:104D6C001B68DB68019308BD3C02030008B5024BCD
:104D7C001B681B69019308BD3C02030008B5024B7C
:104D8C001B685B69019308BD3C02030008B5024B2C
:104D9C001B689B69019308BD3C02030008B5024BDC
:104DAC001B68DB69019308BD3C02030008B5024B8C
:104DBC001B681B6A019308BD3C02030008B5024B3B
:104DCC001B689B6A019308BD3C02030008B5024BAB
:104DDC001B68DB6A019308BD3C02030008B5024B5B
:104DEC001B681B6A019308BD2802030008B5024B1F
:104DFC001B685B6A019308BD2802030008B5024BCF
:104E0C001B689B6A019308BD2802030008B5024B7E
:104E1C001B68DB6A019308BD2802030008B5024B2E
:104E2C001B681B6B019308BD2802030008B5024BDD
:104E3C001B685B6B019308BD2802030008B5024B8D
:104E4C001B681B6C019308BD2802030008B5024BBC
:104E5C001B681B68019308BD2402030008B5024BB4
:104E6C001B685B68019308BD2402030008B5024B64
:104E7C001B681B68019308BD4C02030008B5024B6C
:104E8C001B681B69019308BD4C02030008B5024B5B
:104E9C001B685B69019308BD4C02030008B5024B0B
:104EAC001B689B69019308BD4C02030008B5024BBB
:104EBC001B68DB69019308BD4C02030008B5024B6B
:104ECC001B681B6A019308BD4C02030008B5024B1A
:104EDC001B685B68019308BD6002030008B5024BB8
:104EEC001B689B68019308BD6002030008B5024B68
:104EFC001B68DB68019308BD6002030008B5024B18
:104F0C001B681B69019308BD6002030008B5024BC6
:104F1C001B689B69019308BD6002030008B5024B36
:104F2C001B68DB69019308BD6002030008B5024BE6
:104F3C001B685B6B019308BD6002030008B5024B54
:104F4C001B681B6D019308BD6002030008B5024B82
:104F5C001B685B68019308BD2002030008B5024B77
:104F6C001B685B69019308BD2002030008B5034B65
:104F7C001B68D3F88830019308BD000020020300A1
:104F8C0008B5034B1B68D3F89430019308BD00009F
:104F9C002002030008B5024B1B685B68019308BD37
:104FAC004002030008B5024B1B689B68019308BDC7
:104FBC004002030008B5024B1B68DB68019308BD77
:104FCC004002030008B5024B1B681B69019308BD26
:104FDC004002030008B5024B1B685B69019308BDD6
:104FEC004002030008B5024B1B689B69019308BD86
:104FFC004002030008B5024B1B68DB69019308BD36
:10500C004002030008B5024B1B681B6A019308BDE4
:10501C004002030008B5024B1B681B6B019308BDD3
:10502C004002030008B5024B1B685B6B019308BD83
:10503C004002030008B5024B1B68DB6B019308BDF3
:10504C004402030008B5024B1B681B68019308BDA2
:10505C001C02030008B5024B1B685B68019308BD7A
:10506C001C02030008B5024B1B689B68019308BD2A
:10507C001C02030008B5024B1B68DB68019308BDDA
:10508C001C020300002211464068FFF7BBBF002240
:10509C0011464068FFF7C6BF00224068FFF7BABF51
:1050AC00002281F001014068FFF7A4BF00231A46DB
:1050BC0019464068FFF796BF00231A461946406808
:1050CC00FFF788BF002211464068FFF77BBF002224
:1050DC0011464068FFF766BF002202214068FFF7C7
:1050EC0069BF00231A464068FFF754BF024B0322E6
:1050FC005A60024A1A607047C4E3032050750D00D1
:10510C00704710B51021044601F061FE204610BD19
:10511C0070B5084B0360044600250E4640F80C5F42
:10512C00FFF7E4FD30462671FFF726FDA56020460B
:10513C0070BD00BF84750D000079FFF725BD000020
:10514C00044B00204FF6FF72187058809A80FFF7BE
:10515C00FDBE00BFCCE3032010B504460068FFF78A
:10516C0079FF204610BD10B50446006808B1FFF762
:10517C0071FF00232360A360636010BD38B5044643
:10518C000D4600680131FFF76DFF10B184E8210076
:10519C00012038BD10B50368044613B143688B4237
:1051AC0007D22046FFF7EAFF20B1A3680BB92268AB
:1051BC001370012010BD70B50E46114604461546FD
:1051CC00FFF7E8FF18B92046FFF7CDFF09E02A46A4
:1051DC003146A560206801F062FF2268A3680021B7
:1051EC00D154204670BD38B500230446036043609B
:1051FC00836003730D4639B1084601F0A7FF2946B9
:10520C0002462046FFF7D7FF204638BD38B5054685
:10521C000C4641B1084601F099FF2146024628464A
:10522C00FFF7C9FF01E0FFF79EFF284638BD704726
:10523C00002070477047002070477047002070476F
:10524C0010B51421044601F0C2FD204610BD10B566
:10525C001421044601F0BBFD204610BD10B51421ED
:10526C00044601F0B4FD204610BDFEF712BFFEF758
:10527C0010BFFEF70EBF000008B50A20024A00213D
:10528C00FFF754FE08BD00BFB54B0D0010B5036809
:10529C0004469B689847A368013BA3602BB923681D
:1052AC002046DB68BDE81040184710BDA0F1300364
:1052BC00DAB2092A01D818467047A0F16103052B10
:1052CC0001D857387047A0F14103052B94BF3738EC
:1052DC004FF0FF307047000010B500230370044BF3
:1052EC0004461868FFF712FD01232370204610BDF9
:1052FC00E0E3032010B5037804461BB1024B186899
:10530C00FFF70CFD204610BDE0E3032008B58279C1
:10531C008B799A4206D1062201F0B2FEB0FA80F0E7
:10532C00400908BD002008BD10B514220446002118
:10533C0001F0DBFE204610BD10B5034601F114024E
:10534C0051F8044B43F8044B9142F9D110BD70B5A0
:10535C000C4605461646FFF7E7FF2CB910222146EE
:10536C00284601F0C2FE16E0012E09D12B4604F1AD
:10537C00100254F8041B43F8041B9442F9D108E0C2
:10538C006A1E0F23E15C02F8011F013BDBB2FF2B0D
:10539C00F8D101232B74284670BD38B50446154648
:1053AC001A46FFF7D4FF257301232D0A6573237466
:1053BC00204638BD037C13F0FD0F14BF01200020E4
:1053CC0070471FB50446FFF7F5FF08B9208809E0C0
:1053DC0010220021684601F088FE10226946204602
:1053EC0001F04EFE003018BF012004B010BD008843
:1053FC007047704710B5034601F1140251F8044B85
:10540C0043F8044B9142F9D110BD10B551B103468C
:10541C0001F1100251F8044B43F8044B9142F9D1BD
:10542C000123037410BD10B50446FFF7C3FF28B960
:10543C00088823881B1A5842584110BD1022204658
:10544C0001F01EFEB0FA80F0400910BDF7B505461C
:10545C000E4619B9102201F048FE51E024213046C5
:10546C0001F07CFE042802D0002710243BE03078A9
:10547C00FFF71CFF041E47DB7078FFF717FF0028AF
:10548C0042DB40EA04108DF80400B078FFF70EFF01
:10549C00041E39DBF078FFF709FF002834DB40EA03
:1054AC0004109DF80430C0B240EA03202880002389
:1054BC0027E02CB3F05DFFF7F9FE030612D4013C94
:1054CC00000128552421304601F048FE013787425F
:1054DC0008D2F05DFFF7EAFE40B20028A2BF2B5DB8
:1054EC001843285501372421304601F037FE8742F6
:1054FC00DFD32C440023A54202D004F8013DFAE787
:10550C0001232B7403B0F0BD00232B80CFE738B5FB
:10551C0004460D46FFF708FF20462946FFF796FF85
:10552C00204638BDF0B58BB10024E51C8D420FD858
:10553C00661C055D875D974205D12E44B14207D3A9
:10554C001C60681CF0BD01352C44EEE71846F0BD1C
:10555C000020F0BD2DE9F74304460E461D461746C4
:10556C00002A3AD00A4601AB016AFFF7DBFF9DF82F
:10557C002830226A03BBF8B1961C2E44361A1F2E13
:10558C002BD8DDF8048008F10209C8EB0202121ACC
:10559C0000EB080105EB090092B22144204401F014
:1055AC0089FD6B1C04F808302A46394604EB0900C7
:1055BC0001F075FD266210E0901C2B181F2B0CD8E7
:1055CC006B1CA354224420623946567020442A4650
:1055DC0001F065FD226A2A442262206A03B0BDE80C
:1055EC00F0831FB50446034600F11F02002003F8A8
:1055FC00010B93424FF00001F9D104AA062302F8E3
:10560C00013D01232162009120461946FFF7A2FFBC
:10561C00204604B010BD73B50A460E4601AB016AB4
:10562C000446FFF77FFF054678B10198226A2918D6
:10563C00121A521B2144204401F031FD236A5D1BD8
:10564C00256231462046FFF7E6FF02B070BD000030
:10565C0038B500254FF6FF73044643800E222946C9
:10566C0005700571063001F040FD04F11400FFF7E0
:10567C005BFE04F12800FFF757FE044904F13C00DF
:10568C00FFF7B1FDE5642565204638BD37780D0080
:10569C0010B58369C26903EBC2029342184606D067
:1056AC00046824888C4203F10803F6D110BD002055
:1056BC0010BD00002DE9F34180461F460E4669B32C
:1056CC0062B3F42A056828BFF42214462A78A2B1E2
:1056DC002B79980707D500232246A889FFF7A8FA4B
:1056EC00002802DA43E06FF07700D8F800502B79ED
:1056FC00DA0618D5012F23D115E068884FF6FF7311
:10570C0098420DD02B79590723D5012F21D0A98987
:10571C00009223463246FFF79FFA28E0154826E010
:10572C006FF0D10023E09A0621D5022F1FD0A88953
:10573C0000232246314602B0BDE8F041FFF7B4BA6F
:10574C00A88900232246314602B0BDE8F041FFF79C
:10575C00A1BA1B0701D5022F02D16FF0770006E02A
:10576C000023A989009332462346FFF76BFA02B057
:10577C00BDE8F081F2FEFFFF0368D9641A6570473B
:10578C0010B50A6852F8023F03605368436010BDBD
:10579C001FB502680B6812881B889A420C460CD104
:1057AC0001466846FFF7ECFF214602A8FFF7E8FF29
:1057BC0002A96846FFF7AAFD00B9002004B010BD8D
:1057CC0010B504463420FEF760FC014668B1002396
:1057DC00036043608360C360036143618361C361A1
:1057EC00036243628362C3620363216019B90A4A8C
:1057FC000A20FFF79BFB0020FFF7E6F920B1064AD1
:10580C0000210A20FFF792FB002221680348FFF7D2
:10581C0037FA204610BD00BFB54B0D00055C0D00DE
:10582C0010B50A4C2368DB070ED42046FEF735FC76
:10583C0050B10748FFF7C4FF2046FEF733FC054A7A
:10584C000549034801F0BEFA014810BDD8E3032016
:10585C00D4E303208CE30320195A0D0070B50368C0
:10586C00093B012B8AB004460E4619D8FFF7D8FF26
:10587C00A1880068FFF70CFF024658B92023029359
:10588C00084B0390009302AA034607493220FFF706
:10589C0055FB05E0F56C1DB1336DE1682069A84737
:1058AC000AB070BD3A760D00F0750D00084609B9C6
:1058BC000A4601E0096A0022FFF78EB910B50C46C2
:1058CC0011B90A46084606E001212046FFF7A3FE5F
:1058DC00216A00222046BDE81040FFF785B913B5B8
:1058EC0001A8FFF7F9FC0020FFF786F9044601A890
:1058FC00FFF700FD204602B010BD73B505460C46FF
:10590C0001A81646FFF7E8FC21462846FFF7CEFF14
:10591C00002808DB31462846FFF7D0FF002802DBC1
:10592C002846FFF7DCFF044601A8FFF7E3FC2046FE
:10593C0002B070BD0368D8690028D4BF00200120D4
:10594C0070470B68036013B15A6801325A60704794
:10595C0010B551F8043B044640F8043BFFF7F1FF47
:10596C0023680BB9FFF788FC204610BD10B551F821
:10597C00043B044640F8043BFFF7E3FF204610BD10
:10598C0010B50446006828B14368013B43600BB96D
:10599C00FFF77CFC204610BD10B504460430FFF721
:1059AC00EFFF204610BD70B504684368054604EB54
:1059BC00C306A64204D0201DFFF7E2FF0834F8E727
:1059CC002868FFF747FB284670BD70B5046843682C
:1059DC00054604EBC306A64204D0201DFFF7D0FFFA
:1059EC000834F8E72868FFF735FB284670BD10B57A
:1059FC00046904F11800FFF7E8FF04F10C00FFF74D
:105A0C00D2FF2046BDE81040FEF743BBF8B5046852
:105A1C000746C4B1A569E36905EBC306AE4204D0E1
:105A2C00281DFFF7ADFF0835F8E7A069FFF712FB5B
:105A3C0004F10C00FFF7C9FF2046FFF7B4FF342137
:105A4C00204601F0C4F93846F8BD000073B50025B6
:105A5C000560456006462420FEF717FB044678B126
:105A6C0003464FF6FF7223F8022BC0F802505D601C
:105A7C008572C572C560056145618561C561056248
:105A8C00002314200193FEF700FB034628B10122EA
:105A9C0042608260084A0260046102A8726840F8A1
:105AAC00042D73603460FFF76BFF33680BB9FFF79D
:105ABC00E3FB304602B070BDCC750D00884270B56A
:105ACC0015461AD9904219D2A1F10806511A043977
:105ADC00151F44182B1F9E4225D0042C07D055F8B7
:105AEC00043C44F8043C29462046FFF72AFF28468C
:105AFC00FFF746FF083D083CECE714D00C1D061DD3
:105B0C00231F9D420FD0042E07D054F8043C46F8B6
:105B1C00043C21463046FFF714FF2046FFF730FFC8
:105B2C0008340836ECE770BD2DE9F0410468436891
:105B3C000546884604EBC307A74218D041462046C9
:105B4C00FFF726FE064608B90834F5E78CB1201D90
:105B5C00FFF716FF2B686A6804F1080103EBC20219
:105B6C002046FFF7ABFF6B68013B6B6002E0002641
:105B7C0000E026463046BDE8F081F7B5044651F802
:105B8C00043B4768009301A8FFF7DBFE6668A36837
:105B9C009E4214DB0136002E0BDDF000FFF752FAAB
:105BAC00054618B394E8060001EBC202FFF786FF26
:105BBC0000E000252068FFF74DFA2560A6602668F6
:105BCC00626806EBC70506EBC202294605F1080020
:105BDC00FFF774FF35B1009B46F8373001A9281D3B
:105BEC00FFF7AFFE636801336360012501A8FFF77F
:105BFC00C7FE284603B0F0BD2DE9F04104468EB037
:105C0C0003A80D46FFF768FB2368032B02D0042B77
:105C1C0042D087E004A8FFF719FF049B22891A8061
:105C2C006268049952F8083FC1F802305368C1F811
:105C3C00063007A8049B069305A9FFF782FE06A968
:105C4C0005F11800FFF799FF044607A8FFF798FE27
:105C5C002023069374B9364B009306AA2346354984
:105C6C0007943220FFF76AF9049B21461888FEF747
:105C7C00CBFF0DE0304A0092002306AA2D49079372
:105C8C000120FFF75BF96B6A13B1E96A04A8984726
:105C9C0005A8FFF775FE45E021892846FFF7F8FCBB
:105CAC00074600283ED00468A369E1694FF6FF72ED
:105CBC00228003EBC101994203D053F8080B4280B8
:105CCC00F9E7E668236906EBC308B04504D0301D3C
:105CDC00FFF756FE0836F8E700232361A669E3694F
:105CEC0006EBC308B04504D0301DFFF749FE08365B
:105CFC00F8E70023E361A372E372AB6A13B1296B7B
:105D0C003846984720230D4A0693009200230949F0
:105D1C000793012006AAFFF711F9394605F118007F
:105D2C00FFF702FF03A8FFF7E5FA0EB0BDE8F0811C
:105D3C0052760D00F0750D0078760D0095760D00FD
:105D4C008842F8B506460C46154614D9904213D233
:105D5C00A2F108056C1AA1F108070444AF4218D04F
:105D6C001CB129462046FFF701FE281DFFF708FE4F
:105D7C00083D083CF2E70CD0AC420AD01EB12146DB
:105D8C003046FFF7F3FD201DFFF7FAFD0834083607
:105D9C00F2E7F8BD70B50E1E05460BDDF000FFF7FF
:105DAC0051F9044670B195E8060001EBC202FFF709
:105DBC00C7FF00E000242868FFF74CF92C60AE60A8
:105DCC00012070BD70BD73B5044645686846FFF789
:105DDC00CDFD6168A368994205DB01312046FFF7D0
:105DEC00D9FF064698B12368626803EBC50503EB3F
:105DFC00C202294605F10800FFF7A2FF1DB1694652
:105E0C002846FFF7B3FD636801336360012601A8E0
:105E1C00FFF7B6FD304602B070BD8842F8B50646B5
:105E2C000C46154614D9904213D2A2F108056C1AEF
:105E3C00A1F108070444AF4218D01CB129462046F2
:105E4C00FFF786FD281DFFF79BFD083D083CF2E798
:105E5C000CD0AC420AD01EB121463046FFF778FD7B
:105E6C00201DFFF78DFD08340836F2E7F8BD70B53C
:105E7C000E1E05460BDDF000FFF7E4F8044670B18A
:105E8C0095E8060001EBC202FFF7C7FF00E0002413
:105E9C002868FFF7DFF82C60AE60012070BD70BD84
:105EAC0073B5044645686846FFF752FD6168A36800
:105EBC00994205DB01312046FFF7D9FF064698B120
:105ECC002368626803EBC50503EBC202294605F1A2
:105EDC000800FFF7A2FF1DB169462846FFF738FD01
:105EEC00636801336360012601A8FFF749FD304662
:105EFC0002B070BD10B50446406808B1FEF7C9F891
:105F0C00204610BD07B503690C308DE8090003F17C
:105F1C003C00FFF721F96846FFF7ECFF03B05DF892
:105F2C0004FB000038B500230446036014200D4622
:105F3C00FEF7ABF828B1012343608360024B03608A
:105F4C0005612060204638BD94750D002DE9F041A7
:105F5C0088B005461E46542000230F4690460493F5
:105F6C000593FEF792F8CDF818D004460790B0B11F
:105F7C00FFF76EFB394604F13C0084F80480FFF710
:105F8C0045F90F9BE3643146109B236504F1140023
:105F9C00FFF730FA0E9904F12800FFF72BFA21468F
:105FAC00002601AB02AA03A80796FFF7BBFF039BD1
:105FBC00059A039203A805930494FFF7E1FC06A845
:105FCC00FFF798FF049B2968059A2B6008A86B685B
:105FDC0006916A6040F8043D05960496FFF7D0FCE4
:105FEC0005A8FFF7CDFC296819B9034A0A20FEF76A
:105FFC009DFF08B0BDE8F081B54B0D0010B504460F
:10600C00406808B1FEF745F8204610BD07B5036996
:10601C000C308DE809006846FFF7F0FF03B05DF81F
:10602C0004FB000038B500230446036014200D4621
:10603C00FEF72BF828B1012343608360024B036009
:10604C0005612060204638BDB0750D00F0B5002606
:10605C0087B006604660044618200F46FEF715F818
:10606C00CDF810D00546059038B1FFF75DF93946EB
:10607C002846AE82EE82FFF7BDF900232946059330
:10608C0002AA01AB03A8FFF7CDFF039B6268256052
:10609C00636003A80392FFF773FC04A8FFF7AEFF3D
:1060AC0023680BB9FFF7E8F8204607B0F0BD0000F5
:1060BC002DE9F04F17469FB0804605A80E46FFF716
:1060CC000BF93C682379002B00F0F3803368DD6812
:1060DC001B6905EBC303039304F1140A04F1280BA9
:1060EC00039BAB4223D0D5F80090504609F1140124
:1060FC00FFF799F9002800F0E18009F128015846D2
:10610C00FFF791F9002800F0D980236823F47F4130
:10611C00D9F8003023F47F43994240F0CF802023FC
:10612C006B4A139300230092149313AABDE004F15D
:10613C0028052846FFF745F918B966492846FFF7A0
:10614C0064F93368D3F800905B6809EBC30AD14556
:10615C00294608D0D9F80000FFF765F9002837D197
:10616C0009F10809F3E706A8FFF770FF13AA2B46FD
:10617C0004F1380C964618685968154603C508335F
:10618C0063452A46F7D118682860069A0023143212
:10619C0071460120FEF742FD00287ED1356806A924
:1061AC000BA8FFF7E3FB28460BA9FFF70CFE0546EF
:1061BC000CA8FFF7E5FB002D6FD03268536812680E
:1061CC0003F10053013B07A802EBC309FFF7D8FB0F
:1061DC0004F114052846FFF7F4F868B93E4B3D4925
:1061EC001A88013292B21A8013A80123FFF7D5F84E
:1061FC0013A92846FFF7FEF84FF02C0A524600214F
:10620C0013A800F072FF012306AAADF84C30ADF8CC
:10621C004EA02B4604F1240C154618685968964676
:10622C00AEE80300083363457246F6D11868CEF821
:10623C0000000FCD0DF1580EAEE80F002B68CEF814
:10624C00003023798DF85030D9F800309B8AADF8A6
:10625C006C30E36B15930022204B1C93A11D13A8EB
:10626C001D94FEF703FD20BB0123237034683946CF
:10627C000C340BA8FFF76CFB20460BA9FFF710FEA4
:10628C0004460CA8FFF77CFB9CB920230B93144B02
:10629C0000930C9423460BAA07E039464046FFF7BF
:1062AC0057FB07A8FFF76CFB0AE00E493220FEF7FC
:1062BC0045FE39464046FFF74BFB01E008350FE73A
:1062CC0005A8FFF717F840461FB0BDE8F08F00BFD8
:1062DC0065770D00E0750D00DCE3032069580D00B7
:1062EC003E770D00F0750D00024800230360FEF7A9
:1062FC0005BD00BFE0E30320F8B506460D468F1838
:10630C000024BD420CD0336815F8011B9B68304645
:10631C009847002801DB0444F3E7002C08BF04462F
:10632C002046F8BD70B505460C46084649B100F04C
:10633C000DFF2B68024621462846DB68BDE87040FD
:10634C00184770BD08B5FFF7EDFF08BD03689B68E3
:10635C00184738B50D210546FFF7F8FF0A2104460A
:10636C002846FFF7F3FF204438BD38B50546FFF744
:10637C00D9FF04462846FFF7ECFF204438BD30B562
:10638C008BB00B4600218DF82410012A98BF0A22ED
:10639C000DF12304B3FBF2F505FB123303F0FF03FD
:1063AC00092B94BF30333733DBB2214604F8013963
:1063BC002B46002DEED1FFF7B5FF0BB030BD10B45E
:1063CC002AB903685DF8044B9B68C9B21847D2B26E
:1063DC005DF8044BFFF7D3BFFFF7F1BF38B50546A7
:1063EC00FFF7EDFF04462846FFF7B3FF204438BD06
:1063FC002DE9F04107460E4615462AB90368C9B285
:10640C009B68BDE8F04118470A2A02D1002901DA3D
:10641C0004E0D2B2BDE8F041FFF7B1BF2D21FFF788
:10642C0095FF2A46044671423846FFF7A8FF2044E0
:10643C00BDE8F08138B50546FFF7DAFF044628467B
:10644C00FFF787FF204438BD014B024A1A607047A2
:10645C00E4E3032003780D00024B1A68024B1A6028
:10646C00704700BF24E30320E8E303200021FEF77C
:10647C0075BD10B58368044613B1032201469847D5
:10648C00204610BD10B50446FFF7F3FF204610BDA3
:10649C0010B50446FEF73AFD844208D01CB1BDE8A5
:1064AC001040FEF71BBDBDE81040FEF71FBD10BD30
:1064BC0070B505460E461446FEF728FD50B144EA69
:1064CC00062040EA0540FEF701FDE720BDE87040DC
:1064DC00FEF724BD70BD10B50C46FEF70FFDFEF7A0
:1064EC0015FD28B124B1E720BDE81040FEF716BD1C
:1064FC0010BD00000348044A04490023836000F0E7
:10650C0061BC00BFECE303208CE3032091640D001D
:10651C0008B50F4B33B100F03DF903681B69984780
:10652C0000280DDC0B4B33B100F0EAF903681B6952
:10653C009847002807DC084B43B1AFF3008008BD37
:10654C00AFF30080EEE7AFF30080F4E708BD00BFC7
:10655C0000000000000000000000000008B5FFF77C
:10656C00D7FFFEF729FB014B186008BD34E7032069
:10657C0007B5002300931A466FF07701FEF700FD74
:10658C0003B05DF804FB000007B543880A2B08D064
:10659C00502B09D1094B1B683BB103B05DF804EBE0
:1065AC001847FFF7E5FF06E0002300931A466FF04B
:1065BC007701FEF7E5FC03B05DF804FBFCE3032078
:1065CC0010B5FEF7E9FA044600F098FD074B13B13D
:1065DC002046AFF3008000210448FEF72BFD00217C
:1065EC000348BDE81040FEF7C1BC00BF000000002E
:1065FC0095650D00704710B51821044600F0E7FBB7
:10660C00204610BDF0B5037D062B8DB00E4600F173
:10661C0004074FF0000402D000F1080518E00CAD9F
:10662C00394605F8304D2F232A460A20FEF77EFB0B
:10663C00284600F08BFD33680246DB68294630465D
:10664C0098470FE024B12E213046FFF77FFE04441B
:10665C0015F8011D0A223046FFF7BEFEBD42044468
:10666C00F0D120460DB0F0BD10B5054B04461122FB
:10667C0040F8043B002100F038FD204610BD00BF5F
:10668C00A0780D000346074A10B543F8042B01F11E
:10669C00100251F8044B43F8044B9142F9D10A789B
:1066AC001A7010BDA0780D0010B59DF8084044EA92
:1066BC00032343EA024242EA016104234160037569
:1066CC0010BD37B50D788B784A78C978009129467A
:1066DC00FFF7EAFF03B030BD41747047704708B54F
:1066EC000021007CFEF7DAFB30EA200028BF4FF0D7
:1066FC00FF3008BD08B50121007CFEF7CFFB30EA66
:10670C00200028BF4FF0FF3008BD08B5007CFEF715
:10671C00BDFB20EAE07008BD08B5007CFEF7AEFBBF
:10672C0020EAE07008BD007CFEF7C8BB10B5142150
:10673C00044600F04CFB204610BD38B50446007CE6
:10674C000D46FEF7A3FB002801DC607C28B129462E
:10675C00207CFEF7ABFB20EAE07038BD10B5044698
:10676C00002363604FF47A73A360054B236001230D
:10677C000846217463741146FEF778FB204610BD61
:10678C00B4780D0010B514220446002100F0ADFCC5
:10679C00204610BD30B50E4D87B001A8FFF7F2FFB3
:1067AC00296811F0010410D12846FDF776FC60B180
:1067BC0001AA21460748FFF7D1FF2846FDF772FCD6
:1067CC00054A0649034800F0FDFA024807B030BDFF
:1067DC0000E4032004E403208CE30320E9660D00AD
:1067EC00F8B585B2044628460E46174600F046FA20
:1067FC0060B102212846FEF797F9022806D13A46E5
:10680C0031462046BDE8F840FEF720BBF8BD38B550
:10681C0085B20446284600F031FA50B102212846D0
:10682C00FEF782F9022804D12046BDE83840FEF775
:10683C0015BB38BD70474174704708B5007CFEF736
:10684C00BDFA20EAE07008BD08B5007CFEF78EFAB0
:10685C0020EAE07008BD08B5007CFEF797FA30EA34
:10686C00200028BF4FF0FF3008BD08B5007CFEF7B4
:10687C0085FA30EA200028BF4FF0FF3008BD007CBD
:10688C00FEF78CBA10B51421044600F0A0FA20468D
:10689C0010BD70B5457C04460E4625B9007CFEF74C
:1068AC008DFA002805DD3146207CBDE87040FEF7EE
:1068BC0055BA284670BD000010B50446084611466E
:1068CC00002262604FF47A72A260054A22600122B3
:1068DC00207462741A46FEF731FA204610BD00BFD0
:1068EC00E4780D000023007CFEF770BA0022FFF75D
:1068FC00F9BF007CFEF72ABA007CFEF757BA0000FD
:10690C0038B50C4D296811F0010411D12846FDF75A
:10691C00C4FB68B1084A094B09482146FFF7CCFF74
:10692C002846FDF7BFFB074A0749054800F04AFA1D
:10693C00034838BDB0E40320B4E403202CE4032066
:10694C0018E403208CE3032041680D007047F8B570
:10695C00064615460C468F18BC4206D0336814F810
:10696C00011B9B6830469847F6E72846F8BD002285
:10697C00007CFEF733BA0021007CFEF737BA002109
:10698C00007CFEF73BBA0021007CFEF73FBA0021E9
:10699C00007CFEF743BA10B51421044600F017FA38
:1069AC00204610BD10B504464FF47A730846A36018
:1069BC000021044B207461602360FEF73FFA2046EF
:1069CC0010BD00BF14790D000021007CFEF72EBA1B
:1069DC00002211464068FEF715BB002211464068A4
:1069EC00FEF720BB00224068FEF714BB002281F0AA
:1069FC0001014068FEF7FEBA00231A4601214068E7
:106A0C00FEF7F0BA00231A4619464068FEF7E2BAC0
:106A1C00002211464068FEF7D5BA002211464068A4
:106A2C00FEF7C0BA002202214068FEF7C3BA002369
:106A3C001A464068FEF7AEBA38B5054688B1046808
:106A4C004CB1A3681BB10322214620469847102164
:106A5C00204600F0BCF928461421BDE8384000F06F
:106A6C00B6B938BD10B103685B681847704710B5EC
:106A7C0003680446BBB15868FEF720F978B923685F
:106A8C005A7C12B95868FEF721F923685868FEF74A
:106A9C0025F920680023236028B1FFF7CDFF20687B
:106AAC0008B1FFF7C9FF204610BD000038B50C4BEC
:106ABC0003600446D0F8CC0108B1FDF7ECFAD4F829
:106ACC00C45135B12846FFF7D2FF0421284600F007
:106ADC007EF9A06808B1FFF7C5FF204638BD00BF9E
:106AEC003C790D0038B50E4C0E4B2360002502236B
:106AFC0004F5E4706360A560C4F8C451C4F8C851CF
:106B0C00FEF7FCF8084BC4F8CC5184F8D051236044
:106B1C002046064A0649BDE8384000F053B900BF8C
:106B2C0038E5032070790D003C790D008CE30320CF
:106B3C00B96A0D0000231A464068FEF72BBA0022F2
:106B4C0002214068FEF736BA002211464068FEF773
:106B5C0029BA002211464068FEF734BA00231A46BF
:106B6C0019464068FEF736BA00231A4619464068A3
:106B7C00FEF738BA002281F001014068FEF73ABAFC
:106B8C0000224068FEF746BA002211464068FEF724
:106B9C0049BA002211464068FEF734BA2DE9F04399
:106BAC00002495B016460D460746FFF75DFD2146BD
:106BBC0020220CA8009400F098FA40230C93214654
:106BCC006B460CAA3046FDF79FFF0446002844D1C3
:106BDC00024601216868FEF7F5F90221804622463B
:106BEC006868FEF7EFF9009E81462146002E34D0EE
:106BFC00002932D17368022B02D00A2B09D02AE06B
:106C0C00B8F1000F27D0716938460431FFF759FDF0
:106C1C0020E0B9F1000F1ED07469112201A800F018
:106C2C0064FA06238DF8143001AD04F1080318340E
:106C3C00186859682A4603C20833A3421546F7D18F
:106C4C0001A906A807ADFFF71DFD0FCD3C1D0FC414
:106C5C002B6823700121F669C8E70098FDF74CFFFB
:106C6C00384615B0BDE8F083024B034A1A60002287
:106C7C005A6070470CE7032070790D0010B504467C
:106C8C000F48FEF759FA28B1A4F10B03022B01D8D7
:106C9C00002010BD00F076F8FFF796FE08B1012C2D
:106CAC00F6D9FFF72DFEFFF727FE18B1A4F1090363
:106CBC00012BEDD91E2C8CBF0020012010BD00BF74
:106CCC0014E703201E2838B504460D460AD8FF29C0
:106CDC0008D0FFF7D3FF28B129462046BDE838403D
:106CEC00FDF72ABF38BD38B504460D46FDF72CFF1D
:106CFC00FF2810D0062804D84D2323FA00F0C30730
:106D0C0009D42046FFF7BAFF28B129462046BDE832
:106D1C003840FDF721BF38BD10B50446FDF714FF10
:106D2C000438C0B2012808D92046FFF7A7FF20B1CC
:106D3C002046BDE81040FDF717BF002010BD000035
:106D4C0070B50C4C0C4E0D4D00212046FEF7E0F9B1
:106D5C0020460B4C3246294600F034F801212046DF
:106D6C00FEF7D6F9324629462046BDE8704000F0C1
:106D7C0029B800BF14E703208CE303200D510D004C
:106D8C0024E7032038B50B4D296811F001040FD10D
:106D9C002846FDF782F958B121460748FFF702FE55
:106DAC002846FDF77FF9054A0549034800F00AF823
:106DBC00014838BD38E703203CE703208CE303206F
:106DCC0059690D000B460146184600F04BB9FDF70A
:106DDC0060B90000184B1A68D1075CBF01221A6019
:106DEC00164B1A68D2075CBF01221A60144B1A6842
:106DFC00D0075CBF01221A60124B1A68D1075CBF26
:106E0C0001221A60104B1A68D2075CBF01221A606B
:106E1C000E4B1A68D0075CBF01221A600C4B1A6823
:106E2C00D1075CBF01221A600A4B1A68D2075CBFFB
:106E3C0001221A60704700BF6CE7032068E703204B
:106E4C0064E7032060E703205CE7032058E7032096
:106E5C0054E7032050E70320244B1A68D0075CBF8B
:106E6C0001221A60224B1A68D1075CBF01221A60FA
:106E7C00204B1A68D2075CBF01221A601E4B1A689D
:106E8C00D0075CBF01221A601C4B1A68D1075CBF8B
:106E9C0001221A601A4B1A68D2075CBF01221A60D1
:106EAC00184B1A68D0075CBF01221A60164B1A687F
:106EBC00D1075CBF01221A60144B1A68D2075CBF61
:106ECC0001221A60124B1A68D0075CBF01221A60AB
:106EDC00104B1A68D1075CBF01221A600E4B1A685E
:106EEC00D2075CBF01221A60704700BF9CE70320E9
:106EFC0098E7032094E7032090E703208CE7032016
:106F0C0088E7032084E7032080E703207CE7032045
:106F1C0078E7032074E7032070E70320244B1A68FA
:106F2C00D0075CBF01221A60224B1A68D1075CBFE4
:106F3C0001221A60204B1A68D2075CBF01221A602A
:106F4C001E4B1A68D0075CBF01221A601C4B1A68D2
:106F5C00D1075CBF01221A601A4B1A68D2075CBFBA
:106F6C0001221A60184B1A68D0075CBF01221A6004
:106F7C00164B1A68D1075CBF01221A60144B1A68B1
:106F8C00D2075CBF01221A60124B1A68D0075CBF93
:106F9C0001221A60104B1A68D1075CBF01221A60DB
:106FAC000E4B1A68D2075CBF01221A60704700BFF3
:106FBC00CCE70320C8E70320C4E70320C0E7032085
:106FCC00BCE70320B8E70320B4E70320B0E70320B5
:106FDC00ACE70320A8E70320A4E70320A0E70320E5
:106FEC00184B1A68D1075CBF01221A60164B1A683D
:106FFC00D2075CBF01221A60144B1A68D0075CBF21
:10700C0001221A60124B1A68D1075CBF01221A6068
:10701C00104B1A68D2075CBF01221A600E4B1A681B
:10702C00D0075CBF01221A600C4B1A68D1075CBFF9
:10703C0001221A600A4B1A68D2075CBF01221A603F
:10704C00704700BFECE70320E8E70320E4E70320E8
:10705C00E0E70320DCE70320D8E70320D4E7032094
:10706C00D0E7032010B5054C13462CB10A46014657
:10707C000220AFF3008010BD204610BD00000000C0
:10708C0010B501390244904207D010F8013B11F8B9
:10709C00014FA342F7D0181B10BD002010BD10B536
:1070AC00431E0A44914204D011F8014B03F8014FDE
:1070BC00F8E710BD884210B501EB020301D8421E5F
:1070CC000BE09842FBD28118D21AD34204D013F8A9
:1070DC00014D01F8014DF8E710BD994204D011F8AB
:1070EC00014B02F8014FF8E710BD024403469342EE
:1070FC0002D003F8011BFAE77047000038B5124BB9
:10710C001C68A36B0546D3B91820FDF79BFF43F20F
:10711C000E33A06303804AF6CD33438041F234230F
:10712C0083804EF26D63C3804DF6EC6303810523BF
:10713C0043810B23838101220023C0E90423A36B29
:10714C0000221D615A6138BD88E30320034613F801
:10715C00012B002AFBD1181A0138704710B50346D1
:10716C0001448B4204D01A785C1C0AB12346F8E720
:10717C00181A10BD1D400D0059400D0085400D0022
:10718C0089400D00000000005665726966696564EF
:10719C002049443A0046696E676572206E6F742010
:1071AC00666F756E640052656D6F76652066696EEC
:1071BC006765720050726573732073616D6520662C
:1071CC00696E67657220616761696E0050726573E4
:1071DC00732073616D652066696E676572207965D1
:1071EC007420616761696E00456E726F6C6C696EBC
:1071FC0067205375636365737366756C00456E72B7
:10720C006F6C6C696E67204661696C656420776988
:10721C007468206572726F7220636F64653A004601
:10722C0061696C656420746F20636170747572653C
:10723C002074686972642066696E676572004661C5
:10724C00696C656420746F2063617074757265205D
:10725C007365636F6E642066696E67657200466164
:10726C00696C656420746F2063617074757265203D
:10727C0066697273742066696E6765720050726518
:10728C0073732066696E67657220746F20456E7229
:10729C006F6C6C202300426C7565746F6F74682082
:1072AC00436F6E6E65637465642100426C75657422
:1072BC006F6F746820446973636F6E6E6563746579
:1072CC00642E0036453430303030302D4235413369
:1072DC002D463339332D453041392D453530453226
:1072EC0034444343413945007265636569766500F2
:1072FC0036453430303030322D423541332D463323
:10730C0039332D453041392D4535304532344443E0
:10731C0043413945007472616E736D697400364572
:10732C003430303030312D423541332D4633393302
:10733C002D453041392D4535304532344443434198
:10734C003945000000000110021003100410051054
:10735C0006100710081009100A100B100C100D1055
:10736C000E100F10101011101210526573706F6EFA
:10737C0073655F5061636B65742070617273696EC5
:10738C0067206572726F722000207C7C20002021A7
:10739C003D2000434F4D4D414E445F535441525498
:1073AC005F434F44455F3100434F4D4D414E445F69
:1073BC0053544152545F434F44455F3200434F4D49
:1073CC004D414E445F4445564943455F49445F3106
:1073DC0000434F4D4D414E445F4445564943455F34
:1073EC0049445F320041636B4E616B5F4C4F5700F9
:1073FC0041636B4E616B5F48494748004368656366
:10740C006B73756D5F4C4F5700436865636B737599
:10741C006D5F4849474800252E32580022004650DF
:10742C0053202D2053454E443A2000465053202DD6
:10743C0020524543563A2000465053202D204F7081
:10744C00656E00465053202D20436C6F73650046CB
:10745C005053202D204C4544206F6E004650532035
:10746C002D204C4544206F666600465053202D203D
:10747C004368616E6765426175645261746500466C
:10748C005053202D20476574456E726F6C6C65648B
:10749C00436F756E7400465053202D20436865630E
:1074AC006B456E726F6C6C656400465053202D20DA
:1074BC00456E726F6C6C537461727400465053203D
:1074CC002D20456E726F6C6C3100465053202D2070
:1074DC00456E726F6C6C3200465053202D20456EF9
:1074EC00726F6C6C3300465053202D2044656C65D4
:1074FC007465494400465053202D2044656C6574D6
:10750C0065416C6C00465053202D2056657269669F
:10751C0079315F3100465053202D204964656E74DB
:10752C00696679315F4E00465053202D20436170BF
:10753C007475726546696E67657200000000000024
:10754C0000000000EF500D00E5500D00DB500D0069
:10755C00D1500D00C5500D00B9500D00AD500D00AF
:10756C00A5500D009B500D0091500D00A96B0D0006
:10757C0000000000000000000D510D000F510D0027
:10758C00000000000000000047520D004D520D009D
:10759C00115F0D0077520D0049520D0000000000E4
:1075AC000000000041520D005B520D0019600D00EF
:1075BC007B520D0043520D00000000000000000043
:1075CC003B520D0069520D00FB590D007F520D000E
:1075DC003D520D007BE327747BF815ACDD49A913F4
:1075EC00000072F5776972696E672E626C650053E4
:1075FC007461727420646973636F766572696E6707
:10760C002073657276696365732E005374617274AE
:10761C0020646973636F766572696E672063686155
:10762C007261637465726973746963732E0050655B
:10763C00657220646576696365206973206D697372
:10764C0073696E6721004661696C656420746F20F4
:10765C00617070656E6420706565722043656E7430
:10766C0072616C206465766963652E00436F6E6E83
:10767C0065637465642062792043656E7472616C15
:10768C00206465766963652E00446973636F6E6E62
:10769C0065637465642062792072656D6F74652012
:1076AC006465766963652E0043616E6E6F7420614C
:1076BC006464206E657720706565722064657669F8
:1076CC0063652E004E65772070657269706865720F
:1076DC00616C20697320636F6E6E65637465642ED4
:1076EC00004661696C656420746F20617070656E12
:1076FC006420646973636F76657265642063686186
:10770C0072616374657269737469632E0046616992
:10771C006C656420746F20617070656E64206469A0
:10772C0073636F76657265642073657276696365E1
:10773C002E004661696C656420746F206170706501
:10774C006E64206C6F63616C20636861726163743A
:10775C00657269737469632E004475706C6963613A
:10776C0074656420636861726163746572697374B3
:10777C0069632063616E6E6F74206265206164645E
:10778C0065642E00626175640053657269616C00FA
:10779C0053657269616C3100747970650070617247
:1077AC00616D00636D6400696400686E64007374DD
:1077BC00726D0066696C74006C766C006164644870
:1077CC00616E646C65720072656D6F766548616E92
:1077DC00646C657200656E756D48616E646C657283
:1077EC0073004A534F4E53747265616D4C6F67480A
:1077FC00616E646C6572006170700025303130759B
:10780C0020005D20002564002C200028293A20004F
:10781C00205B00636F6465203D2000256900646572
:10782C007461696C73203D20000D0A006C6E00665B
:10783C006E00636F64650064657461696C006E6FE3
:10784C006E6500747261636500696E666F007761C6
:10785C00726E006572726F720070616E69630061A6
:10786C006C6C005A00252B3033643A25303275008D
:10787C0025592D256D2D25645425483A254D3A253D
:10788C0053257A0061736374696D65000000000014
:10789C000000000011660D0001660D0003660D006E
:1078AC000000000000000000E9660D0039670D00C3
:1078BC0047670D0005630D0025670D00EB660D0095
:1078CC0001670D0033670D0017670D00E5660D00AD
:1078DC00000000000000000041680D0091680D00E0
:1078EC009F680D0005630D0055680D0077680D004D
:1078FC0063680D008B680D0043680D0047680D0030
:10790C00000000000000000059690D00A3690D0083
:10791C007B690D005B690D0083690D008B690D009F
:10792C0093690D009B690D00000000000000000031
:10793C003B6A0D00316A0D00276A0D001D6A0D00AF
:10794C00116A0D00056A0D00F9690D00F1690D0051
:10795C00E7690D00DD690D00A96B0D00000000004A
:10796C0000000000416B0D004B6B0D00556B0D00C2
:10797C005F6B0D00696B0D00756B0D00816B0D005D
:10798C008D6B0D00956B0D009F6B0D00A96B0D00A1
:10799C0000000000000000000000000000000000DB
:1079AC0000000000000000000000000000000000CB
:1079BC0000000000000000000000000000000000BB
:1079CC0000000000000000000000000000000000AB
:1079DC00000000000000000000000000000000009B
:1079EC00000000000000000000000000000000008B
:1079FC00430000000D410D0049440D00014B0D00EA
:107A0C00F9500D004D510D00F5620D0055640D003F
:107A1C0065640D0001650D00F16A0D00756C0D00BB
:107A2C004D6D0D00E16D0D00656E0D00296F0D00A3
:047A3C00ED6F0D00DD
:107A40000200000004000000040000000400000028
:107A50000400000001000000E90E000074070000AF
:107A6000A5060000BC03000054030000DE01000076
:107A700001000000F7090000D60B0000E90E00002D
:107A8000040000000400000001000000E90E0000F6
:107A9000D60B0000F70900000400000004000000FD
:107AA000010000002A730D0090780D000000000016
:107AB0009C790D00BC790D00DC790D000000000000
:107AC000000000000000000000000000FC790D0034
:107AD00000000000000000000000000000000000A6
:107AE0000000000000000000000000000000000096
:107AF0000000000000000000000000000000000086
:107B000000000000000000000000000028E3032047
:107B1000FFFFFFFF00000102030405060708090A32
:107B20000B0C0D0E0F101112131415161718191A2D
:087B30001B1C1D1E1F20280074
:047B38007856341235
:04000003D000401CCD
:00000001FF
