:02000002D0002C
:1040000000400D00187A0D00000006000E000501AA
:0840100004017E050000000020
:0440180044710D00E2
:10401C0009480A49884208B505D0094A824202D0AB
:10402C00121A03F01EF80748074A0021121A03F06F
:10403C003EF8014808BD00BFBCE2032020790D000A
:10404C008CE303208CE30320F0E7032070B502F02F
:10405C0095FA074C074BE41AA40800251E46A54206
:10406C0004D056F8253098470135F8E770BD00BFED
:10407C0014790D00D4780D0000F0AEB808B500F03E
:10408C003BF9BDE8084002F047BA00F0B9BF00F0B8
:10409C00B7BF00F0BDBF00F0BBBF0078B0FA80F036
:1040AC004009704701230370704700002DE9F84F59
:1040BC00DFF848B00F46904699460024C6B24FF43C
:1040CC00167ABC4215DA58F8241059F824509AFB89
:1040DC00F5F509B19BFBF1F1A5F11402304602F0A4
:1040EC0061FB284602F0A0F9304602F072FB013465
:1040FC00E7E73046BDE8F84F02F06BBB20A10700A4
:10410C0000F0E0BC70B5044602F026FB054644B155
:10411C00204602F0FDFF2B680246DB68214628464C
:10412C00984702F019FB03680A219B68BDE87040B0
:10413C001847000008B50121062002F0B6FD002248
:10414C001046FF2102F092F9084B094A0321132073
:10415C00FFF7ACFF0021062002F0A7FD002211465C
:10416C001046BDE8084002F081B900BF14E30320FB
:10417C0008E3032008B501210F2002F096FDFFF79C
:10418C00D9FF4FF47A7002F04FF900210F20BDE8EF
:10419C00084002F08ABD000008B50121082002F099
:1041AC0084FD00221146FF2002F060F9084B094AF9
:1041BC0003211320FFF77AFF0021082002F075FD80
:1041CC00002211461046BDE8084002F04FB900BF6E
:1041DC00FCE20320F0E2032010B596B001F0FEFAE9
:1041EC003E4A01460DA801F041FF0DA801F0B2FBBB
:1041FC0001F0F4FA3A4A01460DA801F037FF0DA878
:10420C0001F0A8FB00223749354801F093FA0DA8BC
:10421C0001F0C5F9344903A801F06CF803A908A80A
:10422C0001F068F808A801F0A3F8044608A844B9FE
:10423C0001F0BBF816AA022322F84E0D03210094BC
:10424C0006E001F0B4F80023009302461023072186
:10425C000DA801F05DF901F0C1FA00220DA901F0E1
:10426C002AFB224800F01AFB0121204800F044FBF5
:10427C000021052002F008FD01210F2002F004FDB1
:10428C000121132002F000FD0121072002F0FCFCAB
:10429C000121082002F0F8FC0121062002F0F4FCB8
:1042AC0002F05AFA4FF4165102F04AFA012002F0C9
:1042BC00CDF8FF221146104602F0D8F8012140201B
:1042CC0002F0E7F80A4B0B4A06211320FFF7EEFE2B
:1042DC004FF47A7002F0A8F816B010BD90E30320EA
:1042EC00B8E3032011410D009EE30320C0E303203B
:1042FC00BCE20320D4E20320002138B5FF2208469B
:10430C00314C02F0B3F800F02DFC2368C01AB0F564
:10431C007A7F58D300F026FC206001F05FFA01F0A0
:10432C00E7FA2A4C0546237888B133B902F014FA1F
:10433C00274901F0F8FF01232370264926480B7802
:10434C0001330B700122002301F092F906E02BB12E
:10435C0002F002FA214901F0E6FF2570204800F036
:10436C0009FB18B3FF221146104602F07FF800211A
:10437C001B4800F05DFB1A4800F028FBC7280446D8
:10438C000DD802F0E9F9174901F0BAFF02F0E4F98F
:10439C000A22214602F02CF8FFF7ECFE06E002F0B0
:1043AC00DBF9114901F0BFFFFFF7F6FE052002F023
:1043BC0095FC012807D1FFF7DDFE4FF4FA60BDE84C
:1043CC00384002F031B838BDB4E30320C3E3032016
:1043DC0058710D00ECE2032090E303206D710D0089
:1043EC00C0E3032085710D0092710D002DE9F0439F
:1043FC0099B000F067FB304BDFF8EC802F4DDFF805
:10440C00EC9000244FF6FF729A801C705C800320A5
:10441C0000F07AFD2A49404601F057F8414609A8B8
:10442C0000F068FF274B2C601F686C6013AE394698
:10443C000EA801F04AF809A9304600F05BFF02977C
:10444C00214B224F019328460EAB009604222049A3
:10445C0001F05AFD3A464946284602F095FC1D4D9E
:10446C001D4904A801F031F8414609A800F042FFAB
:10447C002C606C6004A90EA800F03CFF09A9304622
:10448C0000F038FF0EAB029401942846134C0096B2
:10449C001022134901F038FD3A464946284602F0ED
:1044AC0073FC204600F040F93A460E49204602F0D3
:1044BC006BFC19B0BDE8F08398E30320B8E303204C
:1044CC00A3710D0020E3032011410D008CE30320A8
:1044DC00C8710D0090E30320D0710D00C0E30320E0
:1044EC00F5710D004D470D009EE3032061590D0041
:1044FC00427883781344C27803F5807313440279AD
:10450C0013444279807913441844704770B50446BB
:10451C000C20FFF7BCFD0025267866710146A571BD
:10452C002046FFF7E5FF55230B70AA234B700123A0
:10453C008B7063780B71A3784B71E3788B718872F5
:10454C002379CD70000AC872CB710E724D72084679
:10455C0070BD000028B1122903D8034B33F81100A9
:10456C0070474FF6FF70704724720D00037C427C3D
:10457C0003EB0222C37B807B03EB022300EB0320C3
:10458C00704710B50B4600205C1AA24203DD13F8ED
:10459C00014B2044F8E710BD914270B50C4615460E
:1045AC001E4601D0994201D1002070BD9DF81430F7
:1045BC0053B302F0D1F8154901F0A2FE02F0CCF889
:1045CC00049901F09DFE02F0C7F8114901F098FE24
:1045DC0002F0C2F81022294601F0DCFE02F0BCF811
:1045EC000C4901F08DFE02F0B7F81022314601F0B3
:1045FC00D1FE02F0B1F8084901F082FE02F0ACF8ED
:10460C001022214601F0C8FE012070BD4A720D0037
:10461C00E9760D0069720D006E720D00F7B53A4B1C
:10462C000C46097800935523164601921A46054606
:10463C00FFF7B2FF354B61780093AA231A46019617
:10464C002846FFF7A9FF324BA178009301231A46A5
:10465C0001962846FFF7A0FF2E4BE178009300232C
:10466C001A4601962846FFF797FF2B4B217A0093A9
:10467C003022312301962846FFF78EFF237A302B08
:10468C000CBF012300232B75244B617A009300236C
:10469C001A4601962846FFF77FFF21460A22284634
:1046AC00FFF76FFF1E4AA17A0092C3B2C0F307272F
:1046BC001A4601962846FFF76FFF1A4BE17A0093D2
:1046CC003A463B4601962846FFF766FF217960790A
:1046DC00FFF740FF28802379AB736379EB73A379E1
:1046EC002B74E3796B74237AAB74637AEB74013CAF
:1046FC006B1C05F10D0214F8011F03F8011F934206
:10470C00F9D1284603B0F0BD73720D0088720D000C
:10471C009D720D00B1720D00C5720D00D0720D00AE
:10472C00DC720D00E9720D0010B5044602F0CAF8F7
:10473C004FF4165102F0BCF800232370204610BD34
:10474C0010B5044602F0BEF803681B68984702F0E7
:10475C00B9F802F0B0F8204610BD00001FB50A46AB
:10476C006846054900F064FC01F0F6FF694601F06B
:10477C00C7FD05B05DF804FBF7720D00F8B50D46EA
:10478C001746064601F0E8FF0D4901F0B9FD2C462D
:10479C000123621B97420CDD23B901F0DDFF0949AF
:1047AC0001F0AEFD14F8011B3046FFF7D7FF0023D4
:1047BC00EFE701F0D1FF0249BDE8F84001F0A0BDE0
:1047CC00FC720D00E9760D0070B504460D461646D8
:1047DC0002F078F803683246DB682946984723785C
:1047EC007BB101F0B9FF074901F08AFD3246294639
:1047FC002046FFF7C3FF01F0AFFFBDE8704001F0AA
:10480C0086BD70BDFE720D00F8B5054602F05AF873
:10481C0003685B699847C6B2552EF7D10C20FFF799
:10482C0036FC06700446064600F10B0702F04AF807
:10483C0003681B69984718B90A2001F0F5FDF5E7E4
:10484C0002F040F803685B69984706F8010FB7421D
:10485C00ECD11620FFF719FC064618B12A78214630
:10486C00FFF7DCFE0121204602F093FA2B788BB186
:10487C0001F072FF084901F043FD0C22B11C2846DF
:10488C00FFF77CFF01F068FF01F041FD01F064FFD0
:10489C0001F03DFD3046F8BD0B730D00F8B5037803
:1048AC00054623B101F058FF124901F03CFD0720E9
:1048BC00FFF7EBFB0127002343708370C370037178
:1048CC0007700446FFF722FE07210646204602F039
:1048DC0060FA31460C222846FFF776FF2846FFF790
:1048EC0093FF162102F055FA39463046BDE8F840E0
:1048FC0002F04FBA18730D0070B5054607200E462E
:10490C00FFF7C3FB1223037004462B783EB123B18F
:10491C0001F022FF154901F006FD012306E023B149
:10492C0001F01AFF124901F0FEFC00236370002312
:10493C00A370E37023712046FFF7E8FD07210646BC
:10494C00204602F026FA0C2231462846FFF73CFF9F
:10495C002846FFF759FF1621047D02F01AFA30465B
:10496C00012102F016FA204670BD00BF2F730D0016
:10497C003C730D0070B505460720FFF786FB262318
:10498C0003700646FFF7C2FD07210446304602F0CD
:10499C0000FA284621460C22FFF716FF2846FFF79F
:1049AC0033FFC17B837B427C0B44017C0B44DA429A
:1049BC004FF016010CBF0125002502F0EAF9204644
:1049CC00012102F0E6F9284670BD000070B50378AD
:1049DC00044623B101F0C0FE144901F0A4FC0720E9
:1049EC00FFF753FB512303700646FFF78FFD07219A
:1049FC000546304602F0CDF90C2229462046FFF739
:104A0C00E3FE2046FFF700FF0646FFF7AFFD162139
:104A1C000446304602F0BDF92846012102F0B9F9EE
:104A2C00C82C2046A8BFC82070BD00BFF5730D0070
:104A3C0070B5037806460D4623B101F08DFE17497B
:104A4C0001F071FC0720FFF720FB60230446037084
:104A5C0035B10123437000238370C370037103E0ED
:104A6C0045708570C57005712046FFF74FFD072115
:104A7C000546204602F08DF90C2229463046FFF7F8
:104A8C00A3FE3046FFF7C0FE1621047D02F081F92B
:104A9C002846012102F07DF9204670BD07740D00F7
:104AAC0000F010B808B5024B1B689B68019308BD59
:104ABC006802030008B5024B1B68DB68019308BD54
:104ACC006802030008B5024B1B681B68019308BD04
:104ADC002C02030008B5024B1B685B68019308BDF0
:104AEC002C02030008B5024B1B689B68019308BDA0
:104AFC002C02030008B5024B1B68DB68019308BD50
:104B0C002C02030008B5024B1B681B69019308BDFE
:104B1C002C02030008B5024B1B685B69019308BDAE
:104B2C002C02030008B5024B1B68DB69019308BD1E
:104B3C003002030008B5024B1B681B6A019308BDC9
:104B4C003002030008B5024B1B685B68019308BD7B
:104B5C001802030008B5024B1B68DB68019308BD03
:104B6C001802030008B5024B1B685B69019308BD72
:104B7C001802030008B5024B1B689B68019308BD23
:104B8C007402030008B5024B1B681B6D019308BD32
:104B9C007402030008B5024B1B689B6D019308BDA2
:104BAC007402030008B5024B1B681B6E019308BD11
:104BBC007402030008B5034B1B68D3F898300193BB
:104BCC0008BD00007402030008B5034B1B68D3F842
:104BDC00A830019308BD00007402030008B5034B14
:104BEC001B68D3F8B430019308BD000074020300B5
:104BFC0008B5034B1B68D3F8D830019308BD0000EF
:104C0C007402030008B5034B1B68D3F8DC30019326
:104C1C0008BD00007402030008B5034B1B68D3F8F1
:104C2C00EC30019308BD00007402030008B5034B7F
:104C3C001B68D3F8F030019308BD00007402030028
:104C4C0008B5034B1B68D3F80031019308BD000075
:104C5C007402030008B5034B1B68D3F804310193AD
:104C6C0008BD00007402030008B5024B1B689B686A
:104C7C00019308BD4802030008B5024B1B681B6971
:104C8C00019308BD4802030008B5024B1B685B6921
:104C9C00019308BD4802030008B5024B1B681B6B4F
:104CAC00019308BD4802030008B5024B1B685B6CFE
:104CBC00019308BD4802030008B5024B1B68DB6C6E
:104CCC00019308BD4802030008B5024B1B685B6DDD
:104CDC00019308BD4802030008B5024B1B685B69D1
:104CEC00019308BD6402030008B5024B1B681B68E6
:104CFC00019308BD3C02030008B5024B1B689B687E
:104D0C00019308BD3C02030008B5024B1B68DB682D
:104D1C00019308BD3C02030008B5024B1B681B69DC
:104D2C00019308BD3C02030008B5024B1B685B698C
:104D3C00019308BD3C02030008B5024B1B689B693C
:104D4C00019308BD3C02030008B5024B1B68DB69EC
:104D5C00019308BD3C02030008B5024B1B681B6A9B
:104D6C00019308BD3C02030008B5024B1B689B6A0B
:104D7C00019308BD3C02030008B5024B1B68DB6ABB
:104D8C00019308BD3C02030008B5024B1B681B6A6B
:104D9C00019308BD2802030008B5024B1B685B6A2F
:104DAC00019308BD2802030008B5024B1B689B6ADF
:104DBC00019308BD2802030008B5024B1B68DB6A8F
:104DCC00019308BD2802030008B5024B1B681B6B3E
:104DDC00019308BD2802030008B5024B1B685B6BEE
:104DEC00019308BD2802030008B5024B1B681B6C1D
:104DFC00019308BD2802030008B5024B1B681B6811
:104E0C00019308BD2402030008B5024B1B685B68C4
:104E1C00019308BD2402030008B5024B1B681B68F4
:104E2C00019308BD4C02030008B5024B1B685B687C
:104E3C00019308BD4C02030008B5024B1B681B69AB
:104E4C00019308BD4C02030008B5024B1B685B695B
:104E5C00019308BD4C02030008B5024B1B689B690B
:104E6C00019308BD4C02030008B5024B1B68DB69BB
:104E7C00019308BD4C02030008B5024B1B681B6A6A
:104E8C00019308BD4C02030008B5024B1B685B681C
:104E9C00019308BD6002030008B5024B1B689B68B8
:104EAC00019308BD6002030008B5024B1B68DB6868
:104EBC00019308BD6002030008B5024B1B681B6917
:104ECC00019308BD6002030008B5024B1B689B6987
:104EDC00019308BD6002030008B5024B1B68DB6937
:104EEC00019308BD6002030008B5024B1B685B6BA5
:104EFC00019308BD6002030008B5024B1B681B6DD3
:104F0C00019308BD6002030008B5024B1B685B6887
:104F1C00019308BD2002030008B5024B1B685B69B6
:104F2C00019308BD2002030008B5034B1B68D3F89E
:104F3C008830019308BD00002002030008B5034B24
:104F4C001B68D3F89430019308BD000020020300C5
:104F5C0008B5024B1B685B68019308BD4002030057
:104F6C0008B5024B1B689B68019308BD4002030007
:104F7C0008B5024B1B68DB68019308BD40020300B7
:104F8C0008B5024B1B681B69019308BD4002030066
:104F9C0008B5024B1B685B69019308BD4002030016
:104FAC0008B5024B1B689B69019308BD40020300C6
:104FBC0008B5024B1B68DB69019308BD4002030076
:104FCC0008B5024B1B681B6A019308BD4002030025
:104FDC0008B5024B1B681B6B019308BD4002030014
:104FEC0008B5024B1B685B6B019308BD40020300C4
:104FFC0008B5024B1B68DB6B019308BD4402030030
:10500C0008B5024B1B681B68019308BD1C0203000A
:10501C0008B5024B1B685B68019308BD1C020300BA
:10502C0008B5024B1B689B68019308BD1C0203006A
:10503C0008B5024B1B68DB68019308BD1C0203001A
:10504C00002211464068FFF7BBBF002211464068A2
:10505C00FFF7C6BF00224068FFF7BABF002281F0FD
:10506C0001014068FFF7A4BF00231A4619464068A7
:10507C00FFF796BF00231A4619464068FFF788BF12
:10508C00002211464068FFF77BBF002211464068A2
:10509C00FFF766BF002202214068FFF769BF0023BB
:1050AC001A464068FFF754BF024B03225A60024A6B
:1050BC001A607047C4E3032024740D00704710B5C8
:1050CC001021044601F065FE204610BD70B5084B5A
:1050DC000360044600250E4640F80C5FFFF7DCFD2C
:1050EC0030462671FFF71EFDA560204670BD00BF3F
:1050FC0058740D000079FFF71DBD0000044B002013
:10510C004FF6FF72187058809A80FFF7FDBE00BFF3
:10511C00CCE3032010B504460068FFF779FF204666
:10512C0010BD10B50446006808B1FFF771FF0023ED
:10513C002360A360636010BD38B504460D4600685B
:10514C000131FFF76DFF10B184E82100012038BD5B
:10515C0010B50368044613B143688B4207D220464E
:10516C00FFF7EAFF20B1A3680BB922681370012086
:10517C0010BD70B50E46114604461546FFF7E8FF04
:10518C0018B92046FFF7CDFF09E02A463146A56045
:10519C00206801F066FF2268A3680021D1542046E4
:1051AC0070BD38B50023044603604360836003730D
:1051BC000D4639B1084601F0ABFF294602462046A0
:1051CC00FFF7D7FF204638BD38B505460C4641B130
:1051DC00084601F09DFF214602462846FFF7C9FF0D
:1051EC0001E0FFF79EFF284638BD7047002070474E
:1051FC0070470020704770470020704710B514218D
:10520C00044601F0C6FD204610BD10B5142104461D
:10521C0001F0BFFD204610BD10B51421044601F06D
:10522C00B8FD204610BDFEF734BFFEF732BFFEF7C7
:10523C0030BF000008B50A20024A0021FFF754FED7
:10524C0008BD00BF614B0D0010B5036804469B6898
:10525C009847A368013BA3602BB923682046DB6801
:10526C00BDE81040184710BDA0F13003DAB2092A8E
:10527C0001D818467047A0F16103052B01D85738A7
:10528C007047A0F14103052B94BF37384FF0FF3026
:10529C007047000010B500230370044B04461868D7
:1052AC00FFF70AFD01232370204610BDE0E3032025
:1052BC0010B5037804461BB1024B1868FFF704FDC8
:1052CC00204610BDE0E3032008B582798B799A4221
:1052DC0006D1062201F0B6FEB0FA80F0400908BDF6
:1052EC00002008BD10B514220446002101F0DFFE99
:1052FC00204610BD10B5034601F1140251F8044BC1
:10530C0043F8044B9142F9D110BD70B50C460546DB
:10531C001646FFF7E7FF2CB910222146284601F06C
:10532C00C6FE16E0012E09D12B4604F1100254F8EA
:10533C00041B43F8041B9442F9D108E06A1E0F23A6
:10534C00E15C02F8011F013BDBB2FF2BF8D101231A
:10535C002B74284670BD38B5044615461A46FFF71F
:10536C00D4FF257301232D0A65732374204638BDA1
:10537C00037C13F0FD0F14BF0120002070471FB5F4
:10538C000446FFF7F5FF08B9208809E01022002138
:10539C00684601F08CFE10226946204601F052FE50
:1053AC00003018BF012004B010BD00887047704752
:1053BC0010B5034601F1140251F8044B43F8044BA9
:1053CC009142F9D110BD10B551B1034601F1100253
:1053DC0051F8044B43F8044B9142F9D10123037467
:1053EC0010BD10B50446FFF7C3FF28B90888238801
:1053FC001B1A5842584110BD1022204601F022FEC3
:10540C00B0FA80F0400910BDF7B505460E4619B943
:10541C00102201F04CFE51E02421304601F080FEB8
:10542C00042802D0002710243BE03078FFF71CFF43
:10543C00041E47DB7078FFF717FF002842DB40EAB9
:10544C0004108DF80400B078FFF70EFF041E39DB52
:10545C00F078FFF709FF002834DB40EA04109DF8D0
:10546C000430C0B240EA03202880002327E02CB38C
:10547C00F05DFFF7F9FE030612D4013C000128553C
:10548C002421304601F04CFE0137874208D2F05DF2
:10549C00FFF7EAFE40B20028A2BF2B5D1843285547
:1054AC0001372421304601F03BFE8742DFD32C44E8
:1054BC000023A54202D004F8013DFAE701232B7426
:1054CC0003B0F0BD00232B80CFE738B504460D4662
:1054DC00FFF708FF20462946FFF796FF204638BD08
:1054EC00F0B58BB10024E51C8D420FD8661C055D10
:1054FC00875D974205D12E44B14207D31C60681CCE
:10550C00F0BD01352C44EEE71846F0BD0020F0BD8F
:10551C002DE9F74304460E461D461746002A3AD09D
:10552C000A4601AB016AFFF7DBFF9DF82830226ABF
:10553C0003BBF8B1961C2E44361A1F2E2BD8DDF85F
:10554C00048008F10209C8EB0202121A00EB0801F0
:10555C0005EB090092B22144204401F08DFD6B1C37
:10556C0004F808302A46394604EB090001F079FDAD
:10557C00266210E0901C2B181F2B0CD86B1CA3540C
:10558C00224420623946567020442A4601F069FDB7
:10559C00226A2A442262206A03B0BDE8F0831FB558
:1055AC000446034600F11F02002003F8010B93424E
:1055BC004FF00001F9D104AA062302F8013D0123A2
:1055CC002162009120461946FFF7A2FF204604B045
:1055DC0010BD73B50A460E4601AB016A0446FFF7CF
:1055EC007FFF054678B10198226A2918121A521BBE
:1055FC002144204401F035FD236A5D1B25623146B0
:10560C002046FFF7E6FF02B070BD000038B500255C
:10561C004FF6FF73044643800E2229460570057130
:10562C00063001F044FD04F11400FFF75BFE04F1B9
:10563C002800FFF757FE044904F13C00FFF7B1FDC9
:10564C00E5642565204638BD0B770D0010B58369E0
:10565C00C26903EBC2029342184606D00468248840
:10566C008C4203F10803F6D110BD002010BD0000E0
:10567C002DE9F34180461F460E4669B362B3F42A06
:10568C00056828BFF42214462A78A2B12B79980712
:10569C0007D500232246A889FFF7A0FA002802DAD2
:1056AC0043E06FF07700D8F800502B79DA0618D564
:1056BC00012F23D115E068884FF6FF7398420DD067
:1056CC002B79590723D5012F21D0A9890092234684
:1056DC003246FFF797FA28E0154826E06FF0D10024
:1056EC0023E09A0621D5022F1FD0A8890023224639
:1056FC00314602B0BDE8F041FFF7ACBAA8890023EF
:10570C002246314602B0BDE8F041FFF799BA1B07BB
:10571C0001D5022F02D16FF0770006E00023A98992
:10572C00009332462346FFF763FA02B0BDE8F081DE
:10573C00F2FEFFFF0368D9641A65704710B50A685A
:10574C0052F8023F03605368436010BD1FB50268F6
:10575C000B6812881B889A420C460CD1014668468D
:10576C00FFF7ECFF214602A8FFF7E8FF02A9684605
:10577C00FFF7AAFD00B9002004B010BD10B5044617
:10578C003420FEF782FC014668B1002303604360BD
:10579C008360C360036143618361C36103624362DD
:1057AC008362C3620363216019B90A4A0A20FFF7B6
:1057BC009BFB0020FFF7DEF920B1064A00210A20EE
:1057CC00FFF792FB002221680348FFF72FFA2046CF
:1057DC0010BD00BF614B0D00C15B0D0010B50A4C34
:1057EC002368DB070ED42046FEF757FC50B1074860
:1057FC00FFF7C4FF2046FEF755FC054A0549034850
:10580C0001F0C2FA014810BDD8E30320D4E3032011
:10581C008CE30320D5590D0070B50368093B012BAF
:10582C008AB004460E4619D8FFF7D8FFA188006845
:10583C00FFF70CFF024658B920230293084B039044
:10584C00009302AA034607493220FFF755FB05E0F7
:10585C00F56C1DB1336DE1682069A8470AB070BDC5
:10586C000E750D00C4740D00084609B90A4601E016
:10587C00096A0022FFF786B910B50C4611B90A4621
:10588C00084606E001212046FFF7A3FE216A00220C
:10589C002046BDE81040FFF77DB913B501A8FFF70E
:1058AC00F9FC0020FFF77EF9044601A8FFF700FD84
:1058BC00204602B010BD73B505460C4601A816462D
:1058CC00FFF7E8FC21462846FFF7CEFF002808DB4F
:1058DC0031462846FFF7D0FF002802DB2846FFF7A9
:1058EC00DCFF044601A8FFF7E3FC204602B070BDC4
:1058FC000368D8690028D4BF0020012070470B68CA
:10590C00036013B15A6801325A60704710B551F8F0
:10591C00043B044640F8043BFFF7F1FF23680BB946
:10592C00FFF788FC204610BD10B551F8043B044627
:10593C0040F8043BFFF7E3FF204610BD10B50446CA
:10594C00006828B14368013B43600BB9FFF77CFC4E
:10595C00204610BD10B504460430FFF7EFFF20467B
:10596C0010BD70B504684368054604EBC306A64237
:10597C0004D0201DFFF7E2FF0834F8E72868FFF792
:10598C0047FB284670BD70B504684368054604EBB8
:10599C00C306A64204D0201DFFF7D0FF0834F8E759
:1059AC002868FFF735FB284670BD10B5046904F173
:1059BC001800FFF7E8FF04F10C00FFF7D2FF2046B8
:1059CC00BDE81040FEF765BBF8B504680746C4B1E6
:1059DC00A569E36905EBC306AE4204D0281DFFF7A9
:1059EC00ADFF0835F8E7A069FFF712FB04F10C00D6
:1059FC00FFF7C9FF2046FFF7B4FF3421204601F022
:105A0C00C8F93846F8BD000073B50025056045603F
:105A1C0006462420FEF739FB044678B103464FF6C0
:105A2C00FF7223F8022BC0F802505D608572C572BC
:105A3C00C560056145618561C5610562002314205F
:105A4C000193FEF722FB034628B1012242608260DB
:105A5C00084A0260046102A8726840F8042D736061
:105A6C003460FFF76BFF33680BB9FFF7E3FB30468D
:105A7C0002B070BDA0740D00884270B515461AD9DD
:105A8C00904219D2A1F10806511A0439151F441875
:105A9C002B1F9E4225D0042C07D055F8043C44F80B
:105AAC00043C29462046FFF72AFF2846FFF746FF0D
:105ABC00083D083CECE714D00C1D061D231F9D422D
:105ACC000FD0042E07D054F8043C46F8043C214671
:105ADC003046FFF714FF2046FFF730FF0834083636
:105AEC00ECE770BD2DE9F041046843680546884633
:105AFC0004EBC307A74218D041462046FFF726FE09
:105B0C00064608B90834F5E78CB1201DFFF716FFDF
:105B1C002B686A6804F1080103EBC2022046FFF708
:105B2C00ABFF6B68013B6B6002E0002600E0264691
:105B3C003046BDE8F081F7B5044651F8043B4768A0
:105B4C00009301A8FFF7DBFE6668A3689E4214DB96
:105B5C000136002E0BDDF000FFF752FA054618B3A4
:105B6C0094E8060001EBC202FFF786FF00E0002577
:105B7C002068FFF74DFA2560A6602668626806EB80
:105B8C00C70506EBC202294605F10800FFF774FFB2
:105B9C0035B1009B46F8373001A9281DFFF7AFFE41
:105BAC00636801336360012501A8FFF7C7FE28462F
:105BBC0003B0F0BD2DE9F04104468EB003A80D46AC
:105BCC00FFF768FB2368032B02D0042B42D087E03D
:105BDC0004A8FFF719FF049B22891A8062680499B4
:105BEC0052F8083FC1F802305368C1F8063007A8D4
:105BFC00049B069305A9FFF782FE06A905F1180080
:105C0C00FFF799FF044607A8FFF798FE2023069399
:105C1C0074B9364B009306AA2346354907943220B3
:105C2C00FFF76AF9049B21461888FEF7C3FF0DE0C5
:105C3C00304A0092002306AA2D4907930120FFF752
:105C4C005BF96B6A13B1E96A04A8984705A8FFF7DA
:105C5C0075FE45E021892846FFF7F8FC0746002829
:105C6C003ED00468A369E1694FF6FF72228003EB12
:105C7C00C101994203D053F8080B4280F9E7E6685A
:105C8C00236906EBC308B04504D0301DFFF756FE60
:105C9C000836F8E700232361A669E36906EBC3081D
:105CAC00B04504D0301DFFF749FE0836F8E7002355
:105CBC00E361A372E372AB6A13B1296B3846984760
:105CCC0020230D4A069300920023094907930120D3
:105CDC0006AAFFF711F9394605F11800FFF702FF84
:105CEC0003A8FFF7E5FA0EB0BDE8F08126750D00AC
:105CFC00C4740D004C750D0069750D008842F8B523
:105D0C0006460C46154614D9904213D2A2F108054A
:105D1C006C1AA1F108070444AF4218D01CB12946F3
:105D2C002046FFF701FE281DFFF708FE083D083C42
:105D3C00F2E70CD0AC420AD01EB121463046FFF738
:105D4C00F3FD201DFFF7FAFD08340836F2E7F8BD25
:105D5C0070B50E1E05460BDDF000FFF751F9044639
:105D6C0070B195E8060001EBC202FFF7C7FF00E037
:105D7C0000242868FFF74CF92C60AE60012070BD40
:105D8C0070BD73B5044645686846FFF7CDFD616884
:105D9C00A368994205DB01312046FFF7D9FF06467F
:105DAC0098B12368626803EBC50503EBC202294670
:105DBC0005F10800FFF7A2FF1DB169462846FFF761
:105DCC00B3FD636801336360012601A8FFF7B6FDDC
:105DDC00304602B070BD8842F8B506460C461546F2
:105DEC0014D9904213D2A2F108056C1AA1F108073C
:105DFC000444AF4218D01CB129462046FFF786FD5B
:105E0C00281DFFF79BFD083D083CF2E70CD0AC4287
:105E1C000AD01EB121463046FFF778FD201DFFF752
:105E2C008DFD08340836F2E7F8BD70B50E1E054638
:105E3C000BDDF000FFF7E4F8044670B195E80600BE
:105E4C0001EBC202FFF7C7FF00E000242868FFF750
:105E5C00DFF82C60AE60012070BD70BD73B50446D8
:105E6C0045686846FFF752FD6168A368994205DBF7
:105E7C0001312046FFF7D9FF064698B123686268C6
:105E8C0003EBC50503EBC202294605F10800FFF739
:105E9C00A2FF1DB169462846FFF738FD6368013340
:105EAC006360012601A8FFF749FD304602B070BDC2
:105EBC0010B50446406808B1FEF7EBF8204610BD5B
:105ECC0007B503690C308DE8090003F13C00FFF7BE
:105EDC0021F96846FFF7ECFF03B05DF804FB000006
:105EEC0038B500230446036014200D46FEF7CDF8A8
:105EFC0028B1012343608360024B0360056120607D
:105F0C00204638BD68740D002DE9F04188B0054677
:105F1C001E46542000230F46904604930593FEF72B
:105F2C00B4F8CDF818D004460790B0B1FFF76EFB6B
:105F3C00394604F13C0084F80480FFF745F90F9BC7
:105F4C00E3643146109B236504F11400FFF730FA2B
:105F5C000E9904F12800FFF72BFA2146002601AB1D
:105F6C0002AA03A80796FFF7BBFF039B059A0392AF
:105F7C0003A805930494FFF7E1FC06A8FFF798FF2C
:105F8C00049B2968059A2B6008A86B6806916A60C7
:105F9C0040F8043D05960496FFF7D0FC05A8FFF7E2
:105FAC00CDFC296819B9034A0A20FEF79DFF08B0F9
:105FBC00BDE8F081614B0D0010B50446406808B196
:105FCC00FEF767F8204610BD07B503690C308DE865
:105FDC0009006846FFF7F0FF03B05DF804FB000012
:105FEC0038B500230446036014200D46FEF74DF827
:105FFC0028B1012343608360024B0360056120607C
:10600C00204638BD84740D00F0B5002687B00660BC
:10601C004660044618200F46FEF737F8CDF810D02E
:10602C000546059038B1FFF75DF939462846AE8232
:10603C00EE82FFF7BDF900232946059302AA01ABB6
:10604C0003A8FFF7CDFF039B62682560636003A87C
:10605C000392FFF773FC04A8FFF7AEFF23680BB99C
:10606C00FFF7E8F8204607B0F0BD00002DE9F04F2F
:10607C0017469FB0804605A80E46FFF70BF93C6803
:10608C002379002B00F0F3803368DD681B6905EB86
:10609C00C303039304F1140A04F1280B039BAB42D2
:1060AC0023D0D5F80090504609F11401FFF799F967
:1060BC00002800F0E18009F128015846FFF791F91A
:1060CC00002800F0D980236823F47F41D9F80030F0
:1060DC0023F47F43994240F0CF8020236B4A1393E3
:1060EC0000230092149313AABDE004F1280528465E
:1060FC00FFF745F918B966492846FFF764F9336884
:10610C00D3F800905B6809EBC30AD145294608D047
:10611C00D9F80000FFF765F9002837D109F1080913
:10612C00F3E706A8FFF770FF13AA2B4604F1380C0F
:10613C00964618685968154603C5083363452A46C0
:10614C00F7D118682860069A002314327146012092
:10615C00FEF73AFD00287ED1356806A90BA8FFF79B
:10616C00E3FB28460BA9FFF70CFE05460CA8FFF72E
:10617C00E5FB002D6FD032685368126803F10053B1
:10618C00013B07A802EBC309FFF7D8FB04F1140588
:10619C002846FFF7F4F868B93E4B3D491A8801329E
:1061AC0092B21A8013A80123FFF7D5F813A9284639
:1061BC00FFF7FEF84FF02C0A5246002113A800F00E
:1061CC0076FF012306AAADF84C30ADF84EA02B4655
:1061DC0004F1240C1546186859689646AEE803007D
:1061EC00083363457246F6D11868CEF800000FCD1F
:1061FC000DF1580EAEE80F002B68CEF80030237965
:10620C008DF85030D9F800309B8AADF86C30E36BC8
:10621C0015930022204B1C93A11D13A81D94FEF76F
:10622C00FBFC20BB01232370346839460C340BA8CB
:10623C00FFF76CFB20460BA9FFF710FE04460CA8D9
:10624C00FFF77CFB9CB920230B93144B00930C940D
:10625C0023460BAA07E039464046FFF757FB07A831
:10626C00FFF76CFB0AE00E493220FEF745FE39467B
:10627C004046FFF74BFB01E008350FE705A8FFF799
:10628C0017F840461FB0BDE8F08F00BF39760D00FF
:10629C00B4740D00DCE3032025580D0012760D00BC
:1062AC00C4740D00024800230360FEF7FDBC00BF60
:1062BC00E0E30320F8B506460D468F180024BD42D6
:1062CC000CD0336815F8011B9B68304698470028A2
:1062DC0001DB0444F3E7002C08BF04462046F8BD5C
:1062EC0070B505460C46084649B100F011FF2B6805
:1062FC00024621462846DB68BDE87040184770BD51
:10630C0008B5FFF7EDFF08BD03689B68184738B563
:10631C000D210546FFF7F8FF0A2104462846FFF732
:10632C00F3FF204438BD38B50546FFF7D9FF0446C6
:10633C002846FFF7ECFF204438BD30B58BB00B4638
:10634C0000218DF82410012A98BF0A220DF1230494
:10635C00B3FBF2F505FB123303F0FF03092B94BFDB
:10636C0030333733DBB2214604F801392B46002D8C
:10637C00EED1FFF7B5FF0BB030BD10B42AB90368EE
:10638C005DF8044B9B68C9B21847D2B25DF8044B58
:10639C00FFF7D3BFFFF7F1BF38B50546FFF7EDFFA9
:1063AC0004462846FFF7B3FF204438BD2DE9F041E1
:1063BC0007460E4615462AB90368C9B29B68BDE864
:1063CC00F04118470A2A02D1002901DA04E0D2B2BE
:1063DC00BDE8F041FFF7B1BF2D21FFF795FF2A462D
:1063EC00044671423846FFF7A8FF2044BDE8F0810F
:1063FC0038B50546FFF7DAFF04462846FFF787FF56
:10640C00204438BD014B024A1A607047E4E3032074
:10641C00D7760D00024B1A68024B1A60704700BF0A
:10642C0024E30320E8E303200021FEF775BD10B53B
:10643C008368044613B1032201469847204610BDD9
:10644C0010B50446FFF7F3FF204610BD10B5044607
:10645C00FEF73AFD844208D01CB1BDE81040FEF7AF
:10646C001BBDBDE81040FEF71FBD10BD70B5054645
:10647C000E461446FEF728FD50B144EA062040EAC9
:10648C000540FEF701FDE720BDE87040FEF724BD96
:10649C0070BD10B50C46FEF70FFDFEF715FD28B1CB
:1064AC0024B1E720BDE81040FEF716BD10BD00007A
:1064BC000348044A04490023836000F065BC00BF14
:1064CC00ECE303208CE303204D640D0008B50F4B67
:1064DC0033B100F041F903681B69984700280DDCC3
:1064EC000B4B33B100F0EEF903681B699847002899
:1064FC0007DC084B43B1AFF3008008BDAFF300805D
:10650C00EEE7AFF30080F4E708BD00BF0000000029
:10651C00000000000000000008B5FFF7D7FFFEF7F1
:10652C0021FB014B186008BD34E7032007B500239D
:10653C0000931A466FF07701FEF700FD03B05DF88B
:10654C0004FB000007B543880A2B08D0502B09D157
:10655C00094B1B683BB103B05DF804EB1847FFF720
:10656C00E5FF06E0002300931A466FF07701FEF773
:10657C00E5FC03B05DF804FBFCE3032010B5FEF76B
:10658C00E1FA044600F09CFD074B13B12046AFF333
:10659C00008000210448FEF72BFD00210348BDE8D4
:1065AC001040FEF7C1BC00BF0000000051650D009B
:1065BC00704710B51821044600F0EBFB204610BDC7
:1065CC00F0B5037D062B8DB00E4600F104074FF09D
:1065DC00000402D000F1080518E00CAD394605F8AE
:1065EC00304D2F232A460A20FEF776FB284600F072
:1065FC008FFD33680246DB682946304698470FE02A
:10660C0024B12E213046FFF77FFE044415F8011DFE
:10661C000A223046FFF7BEFEBD420444F0D12046AC
:10662C000DB0F0BD10B5054B0446112240F8043BEB
:10663C00002100F03CFD204610BD00BF74770D001A
:10664C000346074A10B543F8042B01F1100251F828
:10665C00044B43F8044B9142F9D10A781A7010BDDF
:10666C0074770D0010B59DF8084044EA032343EA03
:10667C00024242EA016104234160037510BD37B543
:10668C000D788B784A78C97800912946FFF7EAFF94
:10669C0003B030BD41747047704708B50021007CD1
:1066AC00FEF7DAFB30EA200028BF4FF0FF3008BDC0
:1066BC0008B50121007CFEF7CFFB30EA200028BF93
:1066CC004FF0FF3008BD08B5007CFEF7BDFB20EA9B
:1066DC00E07008BD08B5007CFEF7AEFB20EAE07068
:1066EC0008BD007CFEF7C8BB10B51421044600F0B1
:1066FC0050FB204610BD38B50446007C0D46FEF715
:10670C00A3FB002801DC607C28B12946207CFEF725
:10671C00ABFB20EAE07038BD10B504460023636083
:10672C004FF47A73A360054B236001230846217450
:10673C0063741146FEF770FB204610BD88770D0080
:10674C000022007CFEF770BB10B514220446002119
:10675C0000F0ADFC204610BD30B50E4D87B001A841
:10676C00FFF7F2FF296811F0010410D12846FDF75C
:10677C0094FC60B101AA21460748FFF7CDFF2846DB
:10678C00FDF790FC054A0649034800F0FDFA024863
:10679C0007B030BD00E4032004E403208CE30320A5
:1067AC00A5660D00F8B585B2044628460E46174678
:1067BC0000F046FA60B102212846FEF78BF9022858
:1067CC0006D13A4631462046BDE8F840FEF714BBE8
:1067DC00F8BD38B585B20446284600F031FA50B100
:1067EC0002212846FEF776F9022804D12046BDE89E
:1067FC003840FEF709BB38BD70474174704708B587
:10680C00007CFEF7B1FA20EAE07008BD08B5007C08
:10681C00FEF782FA20EAE07008BD08B5007CFEF7AE
:10682C008BFA30EA200028BF4FF0FF3008BD08B5C6
:10683C00007CFEF779FA30EA200028BF4FF0FF30D9
:10684C0008BD007CFEF780BA10B51421044600F098
:10685C00A0FA204610BD70B5457C04460E4625B9FD
:10686C00007CFEF781FA002805DD3146207CBDE86E
:10687C007040FEF749BA284670BD000010B50446BA
:10688C0008461146002262604FF47A72A260054AF3
:10689C0022600122207462741A46FEF725FA204603
:1068AC0010BD00BFB8770D000023007CFEF764BA62
:1068BC000022FFF7F9BF007CFEF71EBA007CFEF742
:1068CC004BBA000038B50C4D296811F0010411D1F8
:1068DC002846FDF7E2FB68B1084A094B09482146F6
:1068EC00FFF7CCFF2846FDF7DDFB074A07490548B3
:1068FC0000F04AFA034838BDB0E40320B4E40320A6
:10690C002CE4032018E403208CE3032005680D001D
:10691C007047F8B5064615460C468F18BC4206D093
:10692C00336814F8011B9B6830469847F6E72846F5
:10693C00F8BD0022007CFEF727BA0021007CFEF790
:10694C002BBA0021007CFEF72FBA0021007CFEF749
:10695C0033BA0021007CFEF737BA10B51421044677
:10696C0000F017FA204610BD10B504464FF47A73A8
:10697C000846A3600021044B207461602360FEF77D
:10698C0033FA204610BD00BFE8770D000021007CD3
:10699C00FEF722BA002211464068FEF711BB002216
:1069AC0011464068FEF71CBB00224068FEF710BB86
:1069BC00002281F001014068FEF7FABA00231A4662
:1069CC0001214068FEF7ECBA00231A4619464068CC
:1069DC00FEF7DEBA002211464068FEF7D1BA00225B
:1069EC0011464068FEF7BCBA002202214068FEF74F
:1069FC00BFBA00231A464068FEF7AABA38B5054656
:106A0C0088B104684CB1A3681BB10322214620460F
:106A1C0098471021204600F0BCF928461421BDE807
:106A2C00384000F0B6B938BD10B103685B68184740
:106A3C00704710B503680446BBB15868FEF714F9EB
:106A4C0078B923685A7C12B95868FEF715F923688F
:106A5C005868FEF719F920680023236028B1FFF766
:106A6C00CDFF206808B1FFF7C9FF204610BD00001C
:106A7C0038B50C4B03600446D0F8CC0108B1FDF7D7
:106A8C000AFBD4F8C45135B12846FFF7D2FF0421D4
:106A9C00284600F07EF9A06808B1FFF7C5FF204634
:106AAC0038BD00BF10780D0038B50E4C0E4B23606E
:106ABC000025022304F5E4706360A560C4F8C4519A
:106ACC00C4F8C851FEF7F0F8084BC4F8CC5184F860
:106ADC00D05123602046064A0649BDE8384000F0F4
:106AEC0053B900BF38E5032044780D0010780D0031
:106AFC008CE303207D6A0D0000231A464068FEF7E4
:106B0C0027BA002202214068FEF732BA0022114651
:106B1C004068FEF725BA002211464068FEF730BAED
:106B2C0000231A4619464068FEF732BA00231A466B
:106B3C0019464068FEF734BA002281F00101406822
:106B4C00FEF736BA00224068FEF742BA0022114620
:106B5C004068FEF745BA002211464068FEF730BA8D
:106B6C002DE9F043002495B016460D460746FFF775
:106B7C0059FD214620220CA8009400F098FA4023DD
:106B8C000C9321466B460CAA3046FDF793FF044646
:106B9C00002844D1024601216868FEF7F1F9022170
:106BAC00804622466868FEF7EBF9009E8146214636
:106BBC00002E34D0002932D17368022B02D00A2B5C
:106BCC0009D02AE0B8F1000F27D07169384604319A
:106BDC00FFF755FD20E0B9F1000F1ED074691122AA
:106BEC0001A800F064FA06238DF8143001AD04F10D
:106BFC0008031834186859682A4603C20833A3429C
:106C0C001546F7D101A906A807ADFFF719FD0FCD61
:106C1C003C1D0FC42B6823700121F669C8E700984E
:106C2C00FDF740FF384615B0BDE8F083024B034A30
:106C3C001A6000225A6070470CE7032044780D005C
:106C4C0010B504460F48FEF755FA28B1A4F10B0312
:106C5C00022B01D8002010BD00F076F8FFF796FE4D
:106C6C0008B1012CF6D9FFF72DFEFFF727FE18B15E
:106C7C00A4F10903012BEDD91E2C8CBF002001209F
:106C8C0010BD00BF14E703201E2838B504460D467E
:106C9C000AD8FF2908D0FFF7D3FF28B12946204690
:106CAC00BDE83840FDF71EBF38BD38B504460D466B
:106CBC00FDF720FFFF2810D0062804D84D2323FA17
:106CCC0000F0C30709D42046FFF7BAFF28B12946C4
:106CDC002046BDE83840FDF715BF38BD10B5044659
:106CEC00FDF708FF0438C0B2012808D92046FFF789
:106CFC00A7FF20B12046BDE81040FDF70BBF0020D8
:106D0C0010BD000070B50C4C0C4E0D4D00212046F2
:106D1C00FEF7DCF920460B4C3246294600F034F8DD
:106D2C0001212046FEF7D2F9324629462046BDE81D
:106D3C00704000F029B800BF14E703208CE3032057
:106D4C00C9500D0024E7032038B50B4D296811F00C
:106D5C0001040FD12846FDF7A0F958B12146074888
:106D6C00FFF702FE2846FDF79DF9054A0549034841
:106D7C0000F00AF8014838BD38E703203CE703204F
:106D8C008CE303201D690D000B460146184600F0EC
:106D9C004BB9FDF77EB90000184B1A68D1075CBFE0
:106DAC0001221A60164B1A68D2075CBF01221A60C6
:106DBC00144B1A68D0075CBF01221A60124B1A6878
:106DCC00D1075CBF01221A60104B1A68D2075CBF56
:106DDC0001221A600E4B1A68D0075CBF01221A60A0
:106DEC000C4B1A68D1075CBF01221A600A4B1A6857
:106DFC00D2075CBF01221A60704700BF6CE703200A
:106E0C0068E7032064E7032060E703205CE70320C6
:106E1C0058E7032054E7032050E70320244B1A685B
:106E2C00D0075CBF01221A60224B1A68D1075CBFE5
:106E3C0001221A60204B1A68D2075CBF01221A602B
:106E4C001E4B1A68D0075CBF01221A601C4B1A68D3
:106E5C00D1075CBF01221A601A4B1A68D2075CBFBB
:106E6C0001221A60184B1A68D0075CBF01221A6005
:106E7C00164B1A68D1075CBF01221A60144B1A68B2
:106E8C00D2075CBF01221A60124B1A68D0075CBF94
:106E9C0001221A60104B1A68D1075CBF01221A60DC
:106EAC000E4B1A68D2075CBF01221A60704700BFF4
:106EBC009CE7032098E7032094E7032090E7032046
:106ECC008CE7032088E7032084E7032080E7032076
:106EDC007CE7032078E7032074E7032070E70320A6
:106EEC00244B1A68D0075CBF01221A60224B1A6827
:106EFC00D1075CBF01221A60204B1A68D2075CBF15
:106F0C0001221A601E4B1A68D0075CBF01221A605E
:106F1C001C4B1A68D1075CBF01221A601A4B1A6805
:106F2C00D2075CBF01221A60184B1A68D0075CBFED
:106F3C0001221A60164B1A68D1075CBF01221A6035
:106F4C00144B1A68D2075CBF01221A60124B1A68E4
:106F5C00D0075CBF01221A60104B1A68D1075CBFC6
:106F6C0001221A600E4B1A68D2075CBF01221A600C
:106F7C00704700BFCCE70320C8E70320C4E7032019
:106F8C00C0E70320BCE70320B8E70320B4E70320E5
:106F9C00B0E70320ACE70320A8E70320A4E7032015
:106FAC00A0E70320184B1A68D1075CBF01221A60B6
:106FBC00164B1A68D2075CBF01221A60144B1A6870
:106FCC00D0075CBF01221A60124B1A68D1075CBF54
:106FDC0001221A60104B1A68D2075CBF01221A609A
:106FEC000E4B1A68D0075CBF01221A600C4B1A6852
:106FFC00D1075CBF01221A600A4B1A68D2075CBF2A
:10700C0001221A60704700BFECE70320E8E7032079
:10701C00E4E70320E0E70320DCE70320D8E70320C4
:10702C00D4E70320D0E7032010B5054C13462CB150
:10703C000A4601460220AFF3008010BD204610BD69
:10704C000000000010B501390244904207D010F83E
:10705C00013B11F8014FA342F7D0181B10BD0020C3
:10706C0010BD10B5431E0A44914204D011F8014BD7
:10707C0003F8014FF8E710BD884210B501EB02038D
:10708C0001D8421E0BE09842FBD28118D21AD3428F
:10709C0004D013F8014D01F8014DF8E710BD9942E9
:1070AC0004D011F8014B02F8014FF8E710BD02446F
:1070BC000346934202D003F8011BFAE77047000025
:1070CC0038B5124B1C68A36B0546D3B91820FDF7D5
:1070DC0097FF43F20E33A06303804AF6CD3343800F
:1070EC0041F2342383804EF26D63C3804DF6EC6322
:1070FC000381052343810B23838101220023C0E9F3
:10710C000423A36B00221D615A6138BD88E3032060
:10711C00034613F8012B002AFBD1181A01387047CB
:10712C0010B5034601448B4204D01A785C1C0AB19A
:10713C002346F8E7181A10BD1D400D0059400D00EC
:10714C0085400D0089400D0000000000426C756503
:10715C00746F6F746820436F6E6E65637465642121
:10716C0000426C7565746F6F746820446973636F4B
:10717C006E6E65637465642E00566572696669652A
:10718C00642049443A0046696E676572206E6F74DC
:10719C0020666F756E640036453430303030302DDB
:1071AC00423541332D463339332D453041392D4548
:1071BC00353045323444434341394500726563658B
:1071CC006976650036453430303030322D423541E9
:1071DC00332D463339332D453041392D4535304526
:1071EC003234444343413945007472616E736D69A6
:1071FC00740036453430303030312D423541332D2A
:10720C00463339332D453041392D453530453234EF
:10721C0044434341394500000000011002100310A3
:10722C000410051006100710081009100A100B1096
:10723C000C100D100E100F101010111012105265B2
:10724C0073706F6E73655F5061636B6574207061F2
:10725C007273696E67206572726F722000207C7C7D
:10726C00200020213D2000434F4D4D414E445F53A3
:10727C00544152545F434F44455F3100434F4D4D91
:10728C00414E445F53544152545F434F44455F3227
:10729C0000434F4D4D414E445F4445564943455F75
:1072AC0049445F3100434F4D4D414E445F44455678
:1072BC004943455F49445F320041636B4E616B5FEC
:1072CC004C4F570041636B4E616B5F484947480018
:1072DC00436865636B73756D5F4C4F57004368650E
:1072EC00636B73756D5F4849474800252E32580013
:1072FC002200465053202D2053454E443A20004640
:10730C005053202D20524543563A200046505320CE
:10731C002D204F70656E00465053202D20436C6F0E
:10732C00736500465053202D204C4544206F6E0051
:10733C00465053202D204C4544206F666600465025
:10734C0053202D204368616E6765426175645261FC
:10735C00746500465053202D20476574456E726F3E
:10736C006C6C6564436F756E7400465053202D2011
:10737C00436865636B456E726F6C6C656400465058
:10738C0053202D20456E726F6C6C537461727400B7
:10739C00465053202D20456E726F6C6C3100465058
:1073AC0053202D20456E726F6C6C3200465053206A
:1073BC002D20456E726F6C6C3300465053202D207F
:1073CC0044656C657465494400465053202D204437
:1073DC00656C657465416C6C00465053202D2056CD
:1073EC006572696679315F3100465053202D204912
:1073FC0064656E74696679315F4E00465053202D7A
:10740C00204361707475726546696E676572000021
:10741C000000000000000000AB500D00A1500D005A
:10742C0097500D008D500D0081500D0075500D00C2
:10743C0069500D0061500D0057500D004D500D005E
:10744C006D6B0D000000000000000000C9500D0025
:10745C00CB500D00000000000000000003520D0096
:10746C0009520D00CD5E0D0033520D0005520D007A
:10747C000000000000000000FD510D0017520D002F
:10748C00D55F0D0037520D00FF510D0000000000BC
:10749C0000000000F7510D0025520D00B7590D00EA
:1074AC003B520D00F9510D007BE327747BF815ACB2
:1074BC00DD49A913000072F5776972696E672E6257
:1074CC006C6500537461727420646973636F7665C4
:1074DC0072696E672073657276696365732E0053EB
:1074EC007461727420646973636F766572696E6718
:1074FC002063686172616374657269737469637324
:10750C002E00506565722064657669636520697329
:10751C00206D697373696E6721004661696C6564DF
:10752C0020746F20617070656E64207065657220C8
:10753C0043656E7472616C206465766963652E00B8
:10754C00436F6E6E65637465642062792043656E6B
:10755C007472616C206465766963652E004469738E
:10756C00636F6E6E65637465642062792072656DFD
:10757C006F7465206465766963652E0043616E6E79
:10758C006F7420616464206E65772070656572206D
:10759C006465766963652E004E6577207065726947
:1075AC0070686572616C20697320636F6E6E6563C1
:1075BC007465642E004661696C656420746F20618B
:1075CC007070656E6420646973636F766572656450
:1075DC002063686172616374657269737469632E88
:1075EC00004661696C656420746F20617070656E13
:1075FC006420646973636F76657265642073657269
:10760C00766963652E004661696C656420746F2031
:10761C00617070656E64206C6F63616C206368616F
:10762C0072616374657269737469632E004475705A
:10763C006C6963617465642063686172616374650D
:10764C007269737469632063616E6E6F7420626516
:10765C002061646465642E00626175640053657218
:10766C0069616C0053657269616C31007479706585
:10767C0000706172616D00636D6400696400686E16
:10768C0064007374726D0066696C74006C766C00C7
:10769C0061646448616E646C65720072656D6F76CE
:1076AC006548616E646C657200656E756D48616EDF
:1076BC00646C657273004A534F4E53747265616DFE
:1076CC004C6F6748616E646C657200617070002568
:1076DC003031307520005D20002564002C200028FE
:1076EC00293A2000205B00636F6465203D20002553
:1076FC00690064657461696C73203D20000D0A009B
:10770C006C6E00666E00636F64650064657461691D
:10771C006C006E6F6E6500747261636500696E66F5
:10772C006F007761726E006572726F720070616EBD
:10773C00696300616C6C005A00252B3033643A2568
:10774C003032750025592D256D2D25645425483A68
:10775C00254D3A2553257A0061736374696D650074
:10776C000000000000000000CD650D00BD650D009F
:10777C00BF650D000000000000000000A5660D00B4
:10778C00F5660D0003670D00C1620D00E1660D008A
:10779C00A7660D00BD660D00EF660D00D3660D00EB
:1077AC00A1660D00000000000000000005680D003F
:1077BC0055680D0063680D00C1620D0019680D005D
:1077CC003B680D0027680D004F680D0007680D0021
:1077DC000B680D0000000000000000001D690D008A
:1077EC0067690D003F690D001F690D0047690D00A9
:1077FC004F690D0057690D005F690D000000000016
:10780C0000000000FF690D00F5690D00EB690D002B
:10781C00E1690D00D5690D00C9690D00BD690D0048
:10782C00B5690D00AB690D00A1690D006D6B0D0004
:10783C000000000000000000056B0D000F6B0D0038
:10784C00196B0D00236B0D002D6B0D00396B0D00AA
:10785C00456B0D00516B0D00596B0D00636B0D00EA
:10786C006D6B0D0000000000000000000000000027
:10787C0000000000000000000000000000000000FC
:10788C0000000000000000000000000000000000EC
:10789C0000000000000000000000000000000000DC
:1078AC0000000000000000000000000000000000CC
:1078BC0000000000000000000000000000000000BC
:1078CC0000000000430000000D410D00F9430D00C5
:1078DC00AD4A0D00B5500D0009510D00B1620D00FF
:1078EC0011640D0021640D00BD640D00B56A0D001E
:1078FC00396C0D00116D0D00A56D0D00296E0D007C
:10790C00ED6E0D00B16F0D000000000000000000D6
:04791C000000000067
:107920000200000004000000040000000400000049
:107930000400000001000000E90E000074070000D0
:10794000A5060000BC03000054030000DE01000097
:1079500001000000F7090000D60B0000E90E00004E
:10796000040000000400000001000000E90E000017
:10797000D60B0000F709000004000000040000001E
:1079800001000000FE710D0064770D000000000092
:1079900070780D0090780D00B0780D0000000000A8
:1079A000000000000000000000000000D0780D0082
:1079B00000000000000000000000000000000000C7
:1079C00000000000000000000000000000000000B7
:1079D00000000000000000000000000000000000A7
:1079E00000000000000000000000000028E3032069
:1079F000FFFFFFFF00000102030405060708090A54
:107A00000B0C0D0E0F101112131415161718191A4E
:087A10001B1C1D1E1F20280095
:047A18007856341256
:04000003D000401CCD
:00000001FF
