:02000004080AE8
:1000000000000A08F4130A080000060006000501B3
:0800100004027C050000000061
:0400180090100A0832
:10001C0009480A4908B5884205D0094A824202D0EB
:10002C00121A00F0EBFF0748074A0021121A00F0E1
:10003C00F0FF064808BD00BF0000002064130A084A
:10004C006800002068000020F8050020F80500205A
:10005C0070B500F0EBFA074B074C1E46E41AA408E7
:10006C000025A54204D056F8253098470135F8E70D
:10007C0070BD00BF2C130A0860130A0800F011B8F9
:10008C0008B500F019F8BDE8084000F091BA00F08E
:10009C009DB90078B0FA80F04009704701230370D5
:1000AC00704708B501210A2000F0C6FDBDE80840E4
:1000BC0001210A2000F0D1BD7047000008B500F006
:1000CC000FF8064B00221A705A804FF6FF729A8076
:1000DC000220BDE8084000F0FDB800BF6C00002015
:1000EC0008B5024B1B681B68019308BDB0010608DC
:1000FC0008B5024B1B689B68019308BDB00106084C
:10010C0008B5024B1B68DB68019308BDB0010608FB
:10011C0008B5024B1B681B69019308BDB0010608AA
:10012C0008B5024B1B68DB69019308BDB4010608D6
:10013C0008B5024B1B681B6A019308BDB401060885
:10014C0008B5024B1B685B68019308BD9C0106084F
:10015C0008B5024B1B685B69019308BD9C0106083E
:10016C0008B5024B1B681B6B019308BDD001060838
:10017C0008B5024B1B689B69019308BDC4010608B6
:10018C0008B5024B1B685B6A019308BDC4010608E5
:10019C0008B5024B1B689B6A019308BDC401060895
:1001AC0008B5024B1B68DB6A019308BDC401060845
:1001BC0008B5024B1B681B6B019308BDC4010608F4
:1001CC0008B5024B1B685B6B019308BDC4010608A4
:1001DC0008B5024B1B689B6B019308BDC401060854
:1001EC0008B5024B1B681B6C019308BDC4010608C3
:1001FC0008B5024B1B681B6E019308BDAC010608C9
:10020C0008B5024B1B685B6E019308BDAC01060878
:10021C0008B5024B1B689B6E019308BDAC01060828
:10022C0008B5024B1B68DB6E019308BDAC010608D8
:10023C0008B5024B1B681B6F019308BDAC01060887
:10024C0008B5024B1B685B6F019308BDAC01060837
:10025C0008B5034B1B68D3F88030019308BD000030
:10026C00AC01060808B5024B1B681B68019308BD5E
:10027C00D801060808B5024B1B681B69019308BD21
:10028C00D801060808B5024B1B685B69019308BDD1
:10029C00D801060808B5024B1B689B69019308BD81
:1002AC00D801060808B5024B1B68DB69019308BD31
:1002BC00D801060808B5024B1B681B6A019308BDE0
:1002CC00D801060808B5024B1B689B6C019308BD4E
:1002DC00C001060808B5024B1B685B68019308BD9A
:1002EC00A401060808B5034B1B68D3F890300193A2
:1002FC0008BD0000A401060808B5034B1B68D3F821
:10030C009C30019308BD0000A401060808B5024BFF
:10031C001B685B68019308BDC801060808B5024B51
:10032C001B689B68019308BDC801060808B5024B01
:10033C001B68DB68019308BDC801060808B5024BB1
:10034C001B681B69019308BDC801060808B5024B60
:10035C001B685B69019308BDC801060808B5024B10
:10036C001B689B69019308BDC801060808B5024BC0
:10037C001B68DB69019308BDC801060808B5024B70
:10038C001B681B6A019308BDC801060808B5024B1F
:10039C001B681B6B019308BDC801060808B5024B0E
:1003AC001B685B6B019308BDC801060808B5024BBE
:1003BC001B68DB6B019308BDCC01060808B5024B2A
:1003CC001B681B68019308BDA001060808B5024B09
:1003DC001B685B68019308BDA0010608704710B547
:1003EC000446102100F0B1FC204610BD70B5044647
:1003FC000E46074B0025036040F80C5FFFF7B0FE7C
:10040C0030462671FFF78CFEA560204670BD00BFFC
:10041C00AC100A080079FFF78BBE00004FF6FF7294
:10042C00034B0020187058809A80FFF753BF00BF11
:10043C0072000020F8B506460D468F180024BD4208
:10044C000CD0336815F8011B9B6830469847002880
:10045C0001DB0444F3E7002C08BF04462046F8BD3A
:10046C0070B505460C46084649B100F003FE2B68F2
:10047C00024621462846BDE87040DB68184770BD2F
:10048C0003689B681847012A98BF0A2230B50B46AF
:10049C008BB000218DF824100DF12304B3FBF2F581
:1004AC0005FB1233DBB2092B94BF30333733DBB28D
:1004BC00214604F801392B46002DEFD1FFF7D0FF70
:1004CC000BB030BD10B422B90368C9B29B6810BC24
:1004DC001847D2B210BCFFF7D6BFFFF7F3BF00230B
:1004EC001A4619464068FFF731BF0000014A024B1B
:1004FC001A6070472A110A0878000020024B1A680B
:10050C00024B1A60704700BF000000207C000020E6
:10051C0010B58368044613B1032201469847204660
:10052C0010BD10B50446FFF7F3FF204610BD0000C8
:10053C00034800238360034A034900F001BC00BF59
:10054C0080000020680000202F050A0808B5144B15
:10055C0033B100F067F903681B699847002816DC73
:10056C00104B33B100F01CFA03681B699847002844
:10057C0010DC0D4B0BB1AFF300800C4B7BB100F0DA
:10058C008DF903681B699847002806DC08BDAFF39A
:10059C000080E5E7AFF30080EBE7AFF3008008BD28
:1005AC00000000000000000000000000000000003F
:1005BC0008B5FFF7CBFFFFF7CBFD014B186008BD6B
:1005CC00240500200248034A0349121A00F016BD04
:1005DC00004002400440024060130A0807B50023A3
:1005EC0000931A466FF07701FFF786FE03B05DF8B3
:1005FC0004FB000007B543880A2B08D0502B09D107
:10060C00094B1B683BB103B05DF804EB1847FFF7CF
:10061C00E5FF06E0002300931A466FF07701FFF721
:10062C006BFE03B05DF804FB9000002038B5104C55
:10063C00104D2368AB42104B0CBF012200221A70E4
:10064C0002D0FFF7BFFF2560FFF77AFD044600F0EC
:10065C00E9FC0A4B13B12046AFF300800021074898
:10066C00FFF7A4FEBDE8384000210548FFF73ABE6D
:10067C00004002401E1C279A94000020000000003D
:10068C0001060A08704710B50446182100F05DFBFE
:10069C00204610BDF8B50F4600F10806051D0024D4
:1006AC0016F8011D0A223846FFF717FFAE42044424
:1006BC0007D0002CF4D02E213846FFF7E1FE04447D
:1006CC00EEE72046F8BD000010B50446044B11229D
:1006DC0040F8043B002100F09CFC204610BD00BFFC
:1006EC00CC110A080346074A10B543F8042B01F154
:1006FC00100251F8044B914243F8044BF9D10A789B
:10070C001A7010BDCC110A08024A41600260042222
:10071C0002757047CC110A0810B59DF8084044EAE0
:10072C00032343EA024242EA016104234160037558
:10073C0010BD000037B5044D05609DF818500095AC
:10074C00FFF7EAFF03B030BDCC110A0841747047C3
:10075C00704708B50021007CFFF79CFD30EA2000B3
:10076C0028BF4FF0FF3008BD08B50121007CFFF712
:10077C0091FD30EA200028BF4FF0FF3008BD08B5CE
:10078C00007CFFF77FFD20EAE07008BD08B5007C17
:10079C00FFF770FD20EAE07008BD007CFFF78ABD12
:1007AC0010B50446142100F0D0FA204610BD38B51F
:1007BC000446007C0D46FFF765FD002801DC607CDB
:1007CC0028B12946207CFFF76DFD20EAE07038BD8A
:1007DC0010B50446002363604FF47A73A360054B95
:1007EC00084623600123217463741146FFF73AFD18
:1007FC00204610BDE0110A0810B504461422002151
:10080C0000F007FC054B20466360054BE36040F2AB
:10081C00011323818123238210BD00BF1D01002001
:10082C009C00002030B50E4D87B001A8FFF7E4FF07
:10083C00296811F0010410D12846FFF72AFC60B199
:10084C0001AA21460748FFF7C3FF2846FFF726FCFD
:10085C00054A0649034800F073FA024807B030BD58
:10086C009800002020020020680000205D070A0884
:10087C0010B504461422002100F0CBFB054B20469A
:10088C006360054BE36040F20113238181232382D3
:10089C0010BD00BFD00200203802002010B50E4C55
:1008AC0086B001A8FFF7E4FF2368DB0710D42046CD
:1008BC00FFF7EFFB60B101AA01210848FFF788FFA1
:1008CC002046FFF7EBFB064A0649044800F038FACD
:1008DC00024806B010BD00BF34020020BC0200204C
:1008EC00680000205D070A0870474174704708B51E
:1008FC00007CFFF775FC20EAE07008BD08B5007CB1
:10090C00FFF746FC20EAE07008BD08B5007CFFF755
:10091C004FFC30EA200028BF4FF0FF3008BD08B56F
:10092C00007CFFF73DFC30EA200028BF4FF0FF3081
:10093C0008BD007CFFF744BC10B50446142100F040
:10094C0004FA204610BD70B5457C04460E4625B908
:10095C00007CFFF745FC002805DD3146207CBDE816
:10096C007040FFF70DBC284670BD000010B5044662
:10097C0008461146002262604FF47A72A260054A62
:10098C0020742260012262741A46FFF7F1FB2046A4
:10099C0010BD00BF10120A08007CFFF719BC000044
:1009AC0038B50C4D296811F0010411D12846FFF718
:1009BC0070FB68B1084A2146084B0948FFF7D6FF7F
:1009CC002846FFF76BFB074A0749054800F0B8F9C2
:1009DC00034838BD6C04002070040020E80300209C
:1009EC00D403002068000020F5080A087047F8B509
:1009FC00064615460C468F18BC4206D0336814F8D0
:100A0C00011B9B6830469847F6E72846F8BD002244
:100A1C00007CFFF7EDBB0021007CFFF7F1BB002150
:100A2C00007CFFF7F5BB0021007CFFF7F9BB002130
:100A3C00007CFFF7FDBB10B50446142100F085F9CE
:100A4C00204610BD10B5044608464FF47A73A360D7
:100A5C00044B0021207461602360FFF7F9FB2046F2
:100A6C0010BD00BF40120A080021007CFFF7E8BB54
:100A7C00002211464068FFF761BCF0B5164689B0FC
:100A8C0011220F460446002103A800F0C2FA30469A
:100A9C0000F0F0FA0025009581B27B6803AA30467D
:100AAC00FFF710FC20B129462046FFF72DFE03E08E
:100ABC0003A92046FFF716FE204609B0F0BD002220
:100ACC0011464068FFF75ABC002211464068FFF7F8
:100ADC0065BC00224068FFF759BC002281F001017F
:100AEC004068FFF743BC00231A4619464068FFF7DD
:100AFC0035BC002211464068FFF710BC00220221D1
:100B0C004068FFF713BC00231A464068FFF7FEBB92
:100B1C00024B04225A60024A1A607047F404002007
:100B2C0068120A0800231A464068FFF7EFBB002240
:100B3C0002214068FFF7FABB002211464068FFF71C
:100B4C00EDBB002211464068FFF7F8BB00231A46A4
:100B5C0019464068FFF7FABB00231A46194640684D
:100B6C00FFF7FCBB002281F001014068FFF7FEBBE0
:100B7C0000224068FFF70ABC002211464068FFF7CC
:100B8C000DBC002211464068FFF7F8BB70B5164645
:100B9C008EB0044608A8FFF797FD1122002103A888
:100BAC0000F037FA304600F065FA00250A4B009544
:100BBC0081B25B6803AA3046FFF784FB20B129465B
:100BCC002046FFF7A1FD03E003A92046FFF78AFDAD
:100BDC0020460EB070BD00BFF4040020024B034A47
:100BEC001A6000225A607047FC0400209C120A080C
:100BFC0010B504460F48FFF70DFC28B1A4F10D0306
:100C0C00022B01D8002010BD00F07AF8FFF72CFF62
:100C1C0008B1012CF6D9FFF7C3FEFFF7BDFE18B1E2
:100C2C00A4F11203012BEDD9172C8CBF002001204D
:100C3C0010BD00BF04050020172838B504460D462A
:100C4C000AD8FF2908D0FFF7D3FF28B12946204640
:100C5C00BDE83840FFF74CBA38BD38B504460D46F0
:100C6C00FFF74EFAFF2810D0062804D84D2323FA9C
:100C7C0000F0C30709D42046FFF7BAFF28B1294674
:100C8C002046BDE83840FFF743BA38BD70B50C4C70
:100C9C000C4E0D4D00212046FFF7A8FB20460B4CB7
:100CAC003246294600F04CF801212046FFF79EFB06
:100CBC00324629462046BDE8704000F041B800BFDE
:100CCC000405002068000020E9030A081405002030
:100CDC0013B5084C00231A46194600932046FFF71B
:100CEC0029FD2046044A054902B0BDE8104000F039
:100CFC0027B800BF280500206800002091060A08CC
:100D0C0038B50B4D296811F001040FD12846FFF7B7
:100D1C00C0F958B121460748FFF794FE2846FFF763
:100D2C00BDF9054A0549034800F00AF8014838BDE9
:100D3C00400500204405002068000020F9090A083D
:100D4C000B460146184600F04BB9FFF7A0B900005E
:100D5C00184B1A68D1075CBF01221A60164B1A682F
:100D6C00D2075CBF01221A60144B1A68D0075CBF13
:100D7C0001221A60124B1A68D1075CBF01221A605B
:100D8C00104B1A68D2075CBF01221A600E4B1A680E
:100D9C00D0075CBF01221A600C4B1A68D1075CBFEC
:100DAC0001221A600A4B1A68D2075CBF01221A6032
:100DBC00704700BF74050020700500206C050020F2
:100DCC006805002064050020600500205C050020FB
:100DDC0058050020244B1A68D0075CBF01221A600A
:100DEC00224B1A68D1075CBF01221A60204B1A688B
:100DFC00D2075CBF01221A601E4B1A68D0075CBF79
:100E0C0001221A601C4B1A68D1075CBF01221A60C0
:100E1C001A4B1A68D2075CBF01221A60184B1A6869
:100E2C00D0075CBF01221A60164B1A68D1075CBF51
:100E3C0001221A60144B1A68D2075CBF01221A6097
:100E4C00124B1A68D0075CBF01221A60104B1A684B
:100E5C00D1075CBF01221A600E4B1A68D2075CBF27
:100E6C0001221A60704700BFA4050020A0050020D5
:100E7C009C0500209805002094050020900500207A
:100E8C008C050020880500208405002080050020AA
:100E9C007C05002078050020244B1A68D0075CBF25
:100EAC0001221A60224B1A68D1075CBF01221A601A
:100EBC00204B1A68D2075CBF01221A601E4B1A68BD
:100ECC00D0075CBF01221A601C4B1A68D1075CBFAB
:100EDC0001221A601A4B1A68D2075CBF01221A60F1
:100EEC00184B1A68D0075CBF01221A60164B1A689F
:100EFC00D1075CBF01221A60144B1A68D2075CBF81
:100F0C0001221A60124B1A68D0075CBF01221A60CA
:100F1C00104B1A68D1075CBF01221A600E4B1A687D
:100F2C00D2075CBF01221A60704700BFD4050020B5
:100F3C00D0050020CC050020C8050020C4050020E9
:100F4C00C0050020BC050020B8050020B405002019
:100F5C00B0050020AC050020A8050020184B1A682D
:100F6C00D1075CBF01221A60164B1A68D2075CBF0E
:100F7C0001221A60144B1A68D0075CBF01221A6058
:100F8C00124B1A68D1075CBF01221A60104B1A6809
:100F9C00D2075CBF01221A600E4B1A68D0075CBFE7
:100FAC0001221A600C4B1A68D1075CBF01221A602F
:100FBC000A4B1A68D2075CBF01221A60704700BF47
:100FCC00F4050020F0050020EC050020E8050020C9
:100FDC00E4050020E0050020DC050020D8050020F9
:100FEC0010B5054C13462CB10A4601460220AFF34E
:100FFC00008010BD204610BD0000000010B5431E3F
:10100C000A44914204D011F8014B03F8014FF8E760
:10101C0010BD03460244934202D003F8011BFAE7C9
:10102C007047000038B5124B05461C68A36BD3B94A
:10103C001820FFF7C3F943F20E33A06303804AF67E
:10104C00CD33438041F2342383804EF26D63C380F1
:10105C004DF6EC630381052343810B23838101222D
:10106C000023C0E90423A36B00221D615A6138BD23
:10107C0064000020034613F8012B002AFBD1181A38
:10108C00013870471D000A085D000A0889000A082B
:10109C008D000A08000000000000000000000000A5
:1010AC00E9030A08EB030A08626175640053657270
:1010BC0069616C0055534253657269616C310074FF
:1010CC0079706500706172616D00636D64006964B4
:1010DC0000686E64007374726D0066696C74006CE9
:1010EC00766C0061646448616E646C657200726554
:1010FC006D6F766548616E646C657200656E756DBA
:10110C0048616E646C657273004A534F4E5374722F
:10111C0065616D4C6F6748616E646C6572006170DF
:10112C007000253031307520005D20002564002CC6
:10113C00200028293A2000205B00636F6465203D65
:10114C00200025690064657461696C73203D200082
:10115C000D0A0066006C6E00666E00636F646500BD
:10116C0064657461696C006E6F6E650074726163A6
:10117C006500696E666F007761726E006572726FE2
:10118C00720070616E696300616C6C005A00252BF3
:10119C003033643A253032750025592D256D2D25B7
:1011AC00645425483A254D3A2553257A00617363DA
:1011BC0074696D6500000000000000000000000074
:1011CC00A1060A0891060A0893060A080000000006
:1011DC00000000005D070A08AD070A08BB070A08F3
:1011EC0041040A0899070A085F070A0875070A08E4
:1011FC00A7070A088B070A0859070A08000000000D
:10120C0000000000F5080A0845090A0853090A08F5
:10121C0041040A0809090A082B090A0817090A08CF
:10122C003F090A08F7080A08FB080A080000000032
:10123C0000000000F9090A08430A0A081B0A0A08F8
:10124C00FB090A08230A0A082B0A0A08330A0A08A7
:10125C003B0A0A080000000000000000130B0A08FB
:10126C00090B0A08FF0A0A087D0A0A08EB040A0897
:10127C00F30A0A08E70A0A08DF0A0A08D50A0A0864
:10128C00CB0A0A08870A0A080000000000000000C8
:10129C00310B0A083B0B0A08450B0A084F0B0A08CE
:1012AC00590B0A08650B0A08710B0A087D0B0A0812
:1012BC00850B0A088F0B0A08990B0A08000000001E
:1012CC000000000000000000000000000000000012
:1012DC000000000000000000000000000000000002
:1012EC0000000000000000000000000000000000F2
:1012FC0000000000000000000000000000000000E2
:10130C0000000000000000000000000000000000D1
:10131C00000000000000000000000000430000007E
:10132C00C9000A0829040A08F9040A0809050A0868
:10133C003D050A081D0B0A08E90B0A08990C0A0856
:10134C00DD0C0A085D0D0A08E10D0A08A50E0A0855
:04135C00690F0A0803
:041360000000000089
:10136400B9110A0800000000C8120A08E8120A08A5
:1013740008130A080000000000000000000000003C
:101384000000000028130A0800000000000000000C
:101394000000000000000000000000000000000049
:1013A4000000000000000000000000000000000039
:1013B4000000000000000000000000000000000029
:0813C4000000000004000020FD
:1013CC00FFFFFFFF00000102030405060708090ADE
:1013DC000B0C0D0E0F101112131415161718191AD9
:0813EC001B1C1D1E1F20280020
:0413F40078563412E1
:04000005080A001CC9
:00000001FF
