:02000002D0002C
:1040000000400D0074700D00000006000E00050158
:0840100004017E050000000020
:04401800A8690D0086
:10401C0009480A49884208B505D0094A824202D0AB
:10402C00121A02F050FC0748074A0021121A02F03B
:10403C0070FC014808BD00BF00E30320E06F0D00D9
:10404C006CE303206CE30320F0E7032070B501F070
:10405C000FFF074C074BE41AA40800251E46A54287
:10406C0004D056F8253098470135F8E770BD00BFED
:10407C00D86F0D00A06F0D0000F030B808B500F03F
:10408C00AFF8BDE8084001F0C1BE00F079BC00F00B
:10409C007FBC00F07DBC0078B0FA80F0400970471E
:1040AC00012303707047642270B504460D46104618
:1040BC00322101F056FE2544AC4207D001F0C6FF78
:1040CC00036814F8011B9B689847F5E701F0BEFFE5
:1040DC0003680A219B68BDE87040184710B596B07C
:1040EC0001F034F8384A01460DA801F077FC0DA810
:1040FC0001F0E8F801F02AF8344A01460DA801F065
:10410C006DFC0DA801F0DEF801F020F8304A0146F4
:10411C000DA801F063FC0DA801F0D4F801F016F81D
:10412C002C4A01460DA801F059FC0DA801F0CAF863
:10413C0000222949274800F0B5FF0DA800F0E7FE42
:10414C00264903A800F08EFD03A908A800F08AFDFB
:10415C0008A800F0C5FD044608A844B900F0DDFD30
:10416C0016AA022322F84E0D0321009406E000F05B
:10417C00D6FD002300930246102307210DA800F062
:10418C007FFE00F0E3FF00220DA901F04CF801F0D6
:10419C005DFF4FF4165101F04DFF012001F0D1FDF0
:1041AC00FF210022084601F0DCFD0121402001F036
:1041BC00EBFD0121072002F0ADF90121072002F0EF
:1041CC00BAF916B010BD00BF9CE30320A4E3032092
:1041DC00ACE3032094E30320B3400D0080E3032001
:1041EC0037B5204C00F0A6F92368C01AB0F5FA6F69
:1041FC0035D300F09FF9206000F0A8FF01F030F8F3
:10420C00194C0546237818B333B901F01FFF174931
:10421C0001F03DFD0123237002A9012401F8034D97
:10422C0022460023124800F0DBFE02A9022301F80B
:10423C00023D224600230F4800F0D2FE02A90323C0
:10424C0001F8013D224600230B4800F0C9FE06E0B0
:10425C002BB101F0FBFE094901F019FD257003B0EB
:10426C0030BD00BFB4E30320B8E30320BC690D00EC
:10427C009CE30320A4E30320ACE30320D1690D00ED
:10428C00F0B50E468FB0002104460160416009ADC7
:10429C00194604A8174600F0E5FC1499284600F0CE
:1042AC00E1FC169B0293159B01932046009504ABF1
:1042BC003A46314601F0E0FA20460FB0F0BD00005E
:1042CC002DE9F04794B000F0F5F8594B594FDFF851
:1042DC00A4A1DFF8A491DFF8A48100244FF6FF72AB
:1042EC001C705C809A8003200FAE00F0D5FA524906
:1042FC0038460AAD00F0A1FD5049304600F09DFD56
:10430C003946284600F0AEFC3346029401940095E1
:10431C0010224B495046FFF7B3FF4A4641465046E0
:10432C0002F064F9DFF858A14649304600F085FDEB
:10433C003946284600F096FC3346029401940095C9
:10434C00102241495046FFF79BFF4A4641465046D2
:10435C0002F04CF9DFF82CA13C49304600F06DFD21
:10436C003946284600F07EFC3346029401940095B1
:10437C00102237495046FFF783FF4A4641465046C4
:10438C0002F034F9DFF800A13249304600F055FD57
:10439C003946284600F066FC334602940194009599
:1043AC0010222D495046FFF76BFF4A4641465046B6
:1043BC0002F01CF9DFF8D4A02849304600F03DFD8E
:1043CC003946284600F04EFC334602940194009581
:1043DC00102223495046FFF753FF4A4641465046A8
:1043EC0002F004F9394605A800F03CFC1D4B1E4FA9
:1043FC00D3F800A03C6051467C60284600F01DFDBF
:10440C0005A9304600F02EFC184B019338462B467C
:10441C00CDF808A000960422154901F02DFA4A4661
:10442C004146384602F0E2F814B0BDE8F08700BF10
:10443C0070E3032080E30320E9690D000E6A0D0090
:10444C00156A0D001A6A0D00216A0D002C6A0D0008
:10445C00516A0D00606A0D00856A0D00876A0D00B7
:10446C00076E0D0000E3032094E30320B3400D001E
:10447C00AC6A0D00BCE303206CE30320D1520D00A9
:10448C0078E303209CE30320A4E30320ACE30320A4
:10449C00FFF716BF08B5024B1B689B68019308BD5C
:1044AC006802030008B5024B1B68DB68019308BD6A
:1044BC006802030008B5024B1B681B68019308BD1A
:1044CC002C02030008B5024B1B689B68019308BDC6
:1044DC002C02030008B5024B1B68DB68019308BD76
:1044EC002C02030008B5024B1B681B69019308BD25
:1044FC002C02030008B5024B1B68DB69019308BD55
:10450C003002030008B5024B1B681B6A019308BDFF
:10451C003002030008B5024B1B685B68019308BDB1
:10452C001802030008B5024B1B68DB68019308BD39
:10453C001802030008B5024B1B685B69019308BDA8
:10454C001802030008B5024B1B689B68019308BD59
:10455C007402030008B5024B1B681B6D019308BD68
:10456C007402030008B5024B1B689B6D019308BDD8
:10457C007402030008B5024B1B681B6E019308BD47
:10458C007402030008B5034B1B68D3F898300193F1
:10459C0008BD00007402030008B5034B1B68D3F878
:1045AC00A830019308BD00007402030008B5034B4A
:1045BC001B68D3F8B430019308BD000074020300EB
:1045CC0008B5034B1B68D3F8D830019308BD000025
:1045DC007402030008B5034B1B68D3F8DC3001935D
:1045EC0008BD00007402030008B5034B1B68D3F828
:1045FC00EC30019308BD00007402030008B5034BB6
:10460C001B68D3F8F030019308BD0000740203005E
:10461C0008B5034B1B68D3F80031019308BD0000AB
:10462C007402030008B5034B1B68D3F804310193E3
:10463C0008BD00007402030008B5024B1B689B68A0
:10464C00019308BD4802030008B5024B1B681B69A7
:10465C00019308BD4802030008B5024B1B685B6957
:10466C00019308BD4802030008B5024B1B681B6B85
:10467C00019308BD4802030008B5024B1B685B6C34
:10468C00019308BD4802030008B5024B1B68DB6CA4
:10469C00019308BD4802030008B5024B1B685B6D13
:1046AC00019308BD4802030008B5024B1B685B6907
:1046BC00019308BD6402030008B5024B1B681B681C
:1046CC00019308BD3C02030008B5024B1B68DB6874
:1046DC00019308BD3C02030008B5024B1B681B6923
:1046EC00019308BD3C02030008B5024B1B685B69D3
:1046FC00019308BD3C02030008B5024B1B689B6983
:10470C00019308BD3C02030008B5024B1B68DB6932
:10471C00019308BD3C02030008B5024B1B681B6AE1
:10472C00019308BD3C02030008B5024B1B689B6A51
:10473C00019308BD3C02030008B5024B1B681B6AC1
:10474C00019308BD2802030008B5024B1B685B6A85
:10475C00019308BD2802030008B5024B1B689B6A35
:10476C00019308BD2802030008B5024B1B68DB6AE5
:10477C00019308BD2802030008B5024B1B681B6B94
:10478C00019308BD2802030008B5024B1B685B6B44
:10479C00019308BD2802030008B5024B1B681B6C73
:1047AC00019308BD2802030008B5024B1B681B6867
:1047BC00019308BD4C02030008B5024B1B685B68F3
:1047CC00019308BD4C02030008B5024B1B681B6922
:1047DC00019308BD4C02030008B5024B1B685B69D2
:1047EC00019308BD4C02030008B5024B1B689B6982
:1047FC00019308BD4C02030008B5024B1B68DB6932
:10480C00019308BD4C02030008B5024B1B681B6AE0
:10481C00019308BD4C02030008B5024B1B685B6892
:10482C00019308BD6002030008B5024B1B689B682E
:10483C00019308BD6002030008B5024B1B68DB68DE
:10484C00019308BD6002030008B5024B1B681B698D
:10485C00019308BD6002030008B5024B1B689B69FD
:10486C00019308BD6002030008B5024B1B68DB69AD
:10487C00019308BD6002030008B5024B1B685B6B1B
:10488C00019308BD6002030008B5024B1B681B6D49
:10489C00019308BD6002030008B5024B1B685B68FE
:1048AC00019308BD2002030008B5034B1B68D3F825
:1048BC008830019308BD00002002030008B5034BAB
:1048CC001B68D3F89430019308BD0000200203004C
:1048DC0008B5024B1B685B68019308BD40020300DE
:1048EC0008B5024B1B689B68019308BD400203008E
:1048FC0008B5024B1B68DB68019308BD400203003E
:10490C0008B5024B1B681B69019308BD40020300EC
:10491C0008B5024B1B685B69019308BD400203009C
:10492C0008B5024B1B689B69019308BD400203004C
:10493C0008B5024B1B68DB69019308BD40020300FC
:10494C0008B5024B1B681B6A019308BD40020300AB
:10495C0008B5024B1B681B6B019308BD400203009A
:10496C0008B5024B1B685B6B019308BD400203004A
:10497C0008B5024B1B68DB6B019308BD44020300B6
:10498C0008B5024B1B681B68019308BD1C02030091
:10499C0008B5024B1B685B68019308BD1C02030041
:1049AC0008B5024B1B689B68019308BD1C020300F1
:1049BC00002211464068FFF7C3BF00221146406831
:1049CC00FFF7CEBF00224068FFF7C2BF002281F084
:1049DC0001014068FFF7ACBF00231A461946406836
:1049EC00FFF79EBF00231A4619464068FFF790BF99
:1049FC00002211464068FFF783BF00221146406831
:104A0C00FFF76EBF002202214068FFF771BF002341
:104A1C001A464068FFF75CBF024B03225A60024AF9
:104A2C001A607047C4E30320EC6A0D00704710B5A0
:104A3C001021044601F0DFFD204610BD70B5084B77
:104A4C000360044600250E4640F80C5FFFF70CFE91
:104A5C0030462671FFF74EFDA560204670BD00BFA5
:104A6C00206B0D000079FFF74DBD0000044B0020BA
:104A7C004FF6FF72187058809A80FFF70DBF00BF79
:104A8C00CCE3032010B504460068FFF781FF2046F5
:104A9C0010BD10B50446006808B1FFF779FF00237C
:104AAC002360A360636010BD38B504460D460068F2
:104ABC000131FFF775FF10B184E82100012038BDEA
:104ACC0010B50368044613B143688B4207D22046E5
:104ADC00FFF7EAFF20B1A3680BB92268137001201D
:104AEC0010BD70B50E46114604461546FFF7E8FF9B
:104AFC0018B92046FFF7CDFF09E02A463146A560DC
:104B0C00206801F0E0FE2268A3680021D154204601
:104B1C0070BD38B5002304460360436083600373A3
:104B2C000D4639B1084601F025FF294602462046BC
:104B3C00FFF7D7FF204638BD38B505460C4641B1C6
:104B4C00084601F017FF214602462846FFF7C9FF29
:104B5C0001E0FFF79EFF284638BD704700207047E4
:104B6C0070470020704770470020704710B5142123
:104B7C00044601F040FD204610BD10B5142104463A
:104B8C0001F039FD204610BD10B51421044601F08A
:104B9C0032FD204610BDFFF77ABAFFF778BAFFF75F
:104BAC0076BA000008B50A20024A0021FFF764FE1D
:104BBC0008BD00BF31450D0010B5036804469B6865
:104BCC009847A368013BA3602BB923682046DB6898
:104BDC00BDE81040184710BDA0F13003DAB2092A25
:104BEC0001D818467047A0F16103052B01D857383E
:104BFC007047A0F14103052B94BF37384FF0FF30BD
:104C0C007047000010B500230370044B044618686D
:104C1C00FFF73AFD01232370204610BDE0E303208B
:104C2C0010B5037804461BB1024B1868FFF734FD2E
:104C3C00204610BDE0E3032008B582798B799A42B7
:104C4C0006D1062201F030FEB0FA80F0400908BD12
:104C5C00002008BD10B514220446002101F059FEB5
:104C6C00204610BD10B5034601F1140251F8044B57
:104C7C0043F8044B9142F9D110BD70B50C46054672
:104C8C001646FFF7E7FF2CB910222146284601F003
:104C9C0040FE16E0012E09D12B4604F1100254F807
:104CAC00041B43F8041B9442F9D108E06A1E0F233D
:104CBC00E15C02F8011F013BDBB2FF2BF8D10123B1
:104CCC002B74284670BD38B5044615461A46FFF7B6
:104CDC00D4FF257301232D0A65732374204638BD38
:104CEC00037C13F0FD0F14BF0120002070471FB58B
:104CFC000446FFF7F5FF08B9208809E010220021CF
:104D0C00684601F006FE10226946204601F0CCFDF3
:104D1C00003018BF012004B010BD008870477047E8
:104D2C0010B5034601F1140251F8044B43F8044B3F
:104D3C009142F9D110BD10B551B1034601F11002E9
:104D4C0051F8044B43F8044B9142F9D101230374FD
:104D5C0010BD10B50446FFF7C3FF28B90888238897
:104D6C001B1A5842584110BD1022204601F09CFDE0
:104D7C00B0FA80F0400910BDF7B505460E4619B9DA
:104D8C00102201F0C6FD51E02421304601F0FAFD5D
:104D9C00042802D0002710243BE03078FFF71CFFDA
:104DAC00041E47DB7078FFF717FF002842DB40EA50
:104DBC0004108DF80400B078FFF70EFF041E39DBE9
:104DCC00F078FFF709FF002834DB40EA04109DF867
:104DDC000430C0B240EA03202880002327E02CB323
:104DEC00F05DFFF7F9FE030612D4013C00012855D3
:104DFC002421304601F0C6FD0137874208D2F05D10
:104E0C00FFF7EAFE40B20028A2BF2B5D18432855DD
:104E1C0001372421304601F0B5FD8742DFD32C4405
:104E2C000023A54202D004F8013DFAE701232B74BC
:104E3C0003B0F0BD00232B80CFE738B504460D46F8
:104E4C00FFF708FF20462946FFF796FF204638BD9E
:104E5C00F0B58BB10024E51C8D420FD8661C055DA6
:104E6C00875D974205D12E44B14207D31C60681C64
:104E7C00F0BD01352C44EEE71846F0BD0020F0BD26
:104E8C002DE9F74304460E461D461746002A3AD034
:104E9C000A4601AB016AFFF7DBFF9DF82830226A56
:104EAC0003BBF8B1961C2E44361A1F2E2BD8DDF8F6
:104EBC00048008F10209C8EB0202121A00EB080187
:104ECC0005EB090092B22144204401F007FD6B1C54
:104EDC0004F808302A46394604EB090001F0F3FCCB
:104EEC00266210E0901C2B181F2B0CD86B1CA354A3
:104EFC00224420623946567020442A4601F0E3FCD5
:104F0C00226A2A442262206A03B0BDE8F0831FB5EE
:104F1C000446034600F11F02002003F8010B9342E4
:104F2C004FF00001F9D104AA062302F8013D012338
:104F3C002162009120461946FFF7A2FF204604B0DB
:104F4C0010BD73B50A460E4601AB016A0446FFF765
:104F5C007FFF054678B10198226A2918121A521B54
:104F6C002144204401F0AFFC236A5D1B25623146CD
:104F7C002046FFF7E6FF02B070BD000038B50025F3
:104F8C004FF6FF73044643800E22294605700571C7
:104F9C00063001F0BEFC04F11400FFF75BFE04F1D7
:104FAC002800FFF757FE044904F13C00FFF7B1FD60
:104FBC00E5642565204638BDD36D0D0010B58369B9
:104FCC00C26903EBC2029342184606D004682488D7
:104FDC008C4203F10803F6D110BD002010BD000077
:104FEC002DE9F34180461F460E4669B362B3F42A9D
:104FFC00056828BFF42214462A78A2B12B799807A9
:10500C0007D500232246A889FFF7D0FA002802DA38
:10501C0043E06FF07700D8F800502B79DA0618D5FA
:10502C00012F23D115E068884FF6FF7398420DD0FD
:10503C002B79590723D5012F21D0A989009223461A
:10504C003246FFF7C7FA28E0154826E06FF0D1008A
:10505C0023E09A0621D5022F1FD0A88900232246CF
:10506C00314602B0BDE8F041FFF7DCBAA889002355
:10507C002246314602B0BDE8F041FFF7C9BA1B0722
:10508C0001D5022F02D16FF0770006E00023A98929
:10509C00009332462346FFF793FA02B0BDE8F08145
:1050AC00F2FEFFFF0368D9641A65704710B50A68F1
:1050BC0052F8023F03605368436010BD1FB502688D
:1050CC000B6812881B889A420C460CD10146684624
:1050DC00FFF7ECFF214602A8FFF7E8FF02A968469C
:1050EC00FFF7AAFD00B9002004B010BD10B50446AE
:1050FC003420FEF7CAFF014668B100230360436009
:10510C008360C360036143618361C3610362436273
:10511C008362C3620363216019B90A4A0A20FFF74C
:10512C00ABFB0020FFF70EFA20B1064A00210A2043
:10513C00FFF7A2FB002221680348FFF75FFA204625
:10514C0010BD00BF31450D0031550D0010B50A4C96
:10515C002368DB070ED42046FEF79DFF50B10748AD
:10516C00FFF7C4FF2046FEF79BFF054A054903489D
:10517C0001F03CFA014810BDD8E30320D4E303202E
:10518C006CE3032045530D0070B50368093B012BFC
:10519C008AB004460E4619D8FFF7D8FFA1880068DC
:1051AC00FFF70CFF024658B920230293084B0390DB
:1051BC00009302AA034607493220FFF765FB05E07E
:1051CC00F56C1DB1336DE1682069A8470AB070BD5C
:1051DC00D66B0D008C6B0D00084609B90A4601E030
:1051EC00096A0022FFF7B6B910B50C4611B90A4688
:1051FC00084606E001212046FFF7A3FE216A0022A3
:10520C002046BDE81040FFF7ADB913B501A8FFF774
:10521C00F9FC0020FFF7AEF9044601A8FFF700FDEA
:10522C00204602B010BD73B505460C4601A81646C3
:10523C00FFF7E8FC21462846FFF7CEFF002808DBE5
:10524C0031462846FFF7D0FF002802DB2846FFF73F
:10525C00DCFF044601A8FFF7E3FC204602B070BD5A
:10526C000368D8690028D4BF0020012070470B6860
:10527C00036013B15A6801325A60704710B551F887
:10528C00043B044640F8043BFFF7F1FF23680BB9DD
:10529C00FFF788FC204610BD10B551F8043B0446BE
:1052AC0040F8043BFFF7E3FF204610BD10B5044661
:1052BC00006828B14368013B43600BB9FFF77CFCE5
:1052CC00204610BD10B504460430FFF7EFFF204612
:1052DC0010BD70B504684368054604EBC306A642CE
:1052EC0004D0201DFFF7E2FF0834F8E72868FFF729
:1052FC004FFB284670BD70B504684368054604EB47
:10530C00C306A64204D0201DFFF7D0FF0834F8E7EF
:10531C002868FFF73DFB284670BD10B5046904F101
:10532C001800FFF7E8FF04F10C00FFF7D2FF20464E
:10533C00BDE81040FEF7ABBEF8B504680746C4B133
:10534C00A569E36905EBC306AE4204D0281DFFF73F
:10535C00ADFF0835F8E7A069FFF71AFB04F10C0064
:10536C00FFF7C9FF2046FFF7B4FF3421204601F0B8
:10537C0042F93846F8BD000073B50025056045605C
:10538C0006462420FEF781FE044678B103464FF60C
:10539C00FF7223F8022BC0F802505D608572C57253
:1053AC00C560056145618561C561056200231420F6
:1053BC000193FEF76AFE034628B101224260826027
:1053CC00084A0260046102A8726840F8042D7360F8
:1053DC003460FFF76BFF33680BB9FFF7E3FB304624
:1053EC0002B070BD686B0D00884270B515461AD9B5
:1053FC00904219D2A1F10806511A0439151F44180C
:10540C002B1F9E4225D0042C07D055F8043C44F8A1
:10541C00043C29462046FFF72AFF2846FFF746FFA3
:10542C00083D083CECE714D00C1D061D231F9D42C3
:10543C000FD0042E07D054F8043C46F8043C214607
:10544C003046FFF714FF2046FFF730FF08340836CC
:10545C00ECE770BD2DE9F0410468436805468846C9
:10546C0004EBC307A74218D041462046FFF726FE9F
:10547C00064608B90834F5E78CB1201DFFF716FF76
:10548C002B686A6804F1080103EBC2022046FFF79F
:10549C00ABFF6B68013B6B6002E0002600E0264628
:1054AC003046BDE8F081F7B5044651F8043B476837
:1054BC00009301A8FFF7DBFE6668A3689E4214DB2D
:1054CC000136002E0BDDF000FFF75AFA054618B333
:1054DC0094E8060001EBC202FFF786FF00E000250E
:1054EC002068FFF755FA2560A6602668626806EB0F
:1054FC00C70506EBC202294605F10800FFF774FF49
:10550C0035B1009B46F8373001A9281DFFF7AFFED7
:10551C00636801336360012501A8FFF7C7FE2846C5
:10552C0003B0F0BD2DE9F04104468EB003A80D4642
:10553C00FFF768FB2368032B02D0042B42D087E0D3
:10554C0004A8FFF719FF049B22891A80626804994A
:10555C0052F8083FC1F802305368C1F8063007A86A
:10556C00049B069305A9FFF782FE06A905F1180016
:10557C00FFF799FF044607A8FFF798FE2023069330
:10558C0074B9364B009306AA23463549079432204A
:10559C00FFF77AF9049B21461888FEF7F3FF0DE01C
:1055AC00304A0092002306AA2D4907930120FFF7E9
:1055BC006BF96B6A13B1E96A04A8984705A8FFF761
:1055CC0075FE45E021892846FFF7F8FC07460028C0
:1055DC003ED00468A369E1694FF6FF72228003EBA9
:1055EC00C101994203D053F8080B4280F9E7E668F1
:1055FC00236906EBC308B04504D0301DFFF756FEF7
:10560C000836F8E700232361A669E36906EBC308B3
:10561C00B04504D0301DFFF749FE0836F8E70023EB
:10562C00E361A372E372AB6A13B1296B38469847F6
:10563C0020230D4A06930092002309490793012069
:10564C0006AAFFF721F9394605F11800FFF702FF0A
:10565C0003A8FFF7E5FA0EB0BDE8F081EE6B0D0084
:10566C008C6B0D00146C0D00316C0D008842F8B57C
:10567C0006460C46154614D9904213D2A2F10805E1
:10568C006C1AA1F108070444AF4218D01CB129468A
:10569C002046FFF701FE281DFFF708FE083D083CD9
:1056AC00F2E70CD0AC420AD01EB121463046FFF7CF
:1056BC00F3FD201DFFF7FAFD08340836F2E7F8BDBC
:1056CC0070B50E1E05460BDDF000FFF759F90446C8
:1056DC0070B195E8060001EBC202FFF7C7FF00E0CE
:1056EC0000242868FFF754F92C60AE60012070BDCF
:1056FC0070BD73B5044645686846FFF7CDFD61681B
:10570C00A368994205DB01312046FFF7D9FF064615
:10571C0098B12368626803EBC50503EBC202294606
:10572C0005F10800FFF7A2FF1DB169462846FFF7F7
:10573C00B3FD636801336360012601A8FFF7B6FD72
:10574C00304602B070BD8842F8B506460C46154688
:10575C0014D9904213D2A2F108056C1AA1F10807D2
:10576C000444AF4218D01CB129462046FFF786FDF1
:10577C00281DFFF79BFD083D083CF2E70CD0AC421E
:10578C000AD01EB121463046FFF778FD201DFFF7E9
:10579C008DFD08340836F2E7F8BD70B50E1E0546CF
:1057AC000BDDF000FFF7ECF8044670B195E806004D
:1057BC0001EBC202FFF7C7FF00E000242868FFF7E7
:1057CC00E7F82C60AE60012070BD70BD73B5044667
:1057DC0045686846FFF752FD6168A368994205DB8E
:1057EC0001312046FFF7D9FF064698B1236862685D
:1057FC0003EBC50503EBC202294605F10800FFF7D0
:10580C00A2FF1DB169462846FFF738FD63680133D6
:10581C006360012601A8FFF749FD304602B070BD58
:10582C0010B50446406808B1FEF731FC204610BDA7
:10583C0007B503690C308DE8090003F13C00FFF754
:10584C0021F96846FFF7ECFF03B05DF804FB00009C
:10585C0038B500230446036014200D46FEF715FCF2
:10586C0028B1012343608360024B03600561206013
:10587C00204638BD306B0D002DE9F04188B005464F
:10588C001E46542000230F46904604930593FEF7C2
:10589C00FCFBCDF818D004460790B0B1FFF76EFBB7
:1058AC00394604F13C0084F80480FFF745F90F9B5E
:1058BC00E3643146109B236504F11400FFF730FAC2
:1058CC000E9904F12800FFF72BFA2146002601ABB4
:1058DC0002AA03A80796FFF7BBFF039B059A039246
:1058EC0003A805930494FFF7E1FC06A8FFF798FFC3
:1058FC00049B2968059A2B6008A86B6806916A605E
:10590C0040F8043D05960496FFF7D0FC05A8FFF778
:10591C00CDFC296819B9034A0A20FEF7ADFF08B07F
:10592C00BDE8F08131450D0010B50446406808B162
:10593C00FEF7ADFB204610BD07B503690C308DE8B2
:10594C0009006846FFF7F0FF03B05DF804FB0000A8
:10595C0038B500230446036014200D46FEF795FB72
:10596C0028B1012343608360024B03600561206012
:10597C00204638BD4C6B0D00F0B5002687B0066094
:10598C004660044618200F46FEF77FFBCDF810D07A
:10599C000546059038B1FFF75DF939462846AE82C9
:1059AC00EE82FFF7BDF900232946059302AA01AB4D
:1059BC0003A8FFF7CDFF039B62682560636003A813
:1059CC000392FFF773FC04A8FFF7AEFF23680BB933
:1059DC00FFF7E8F8204607B0F0BD00002DE9F04FC6
:1059EC0017469FB0804605A80E46FFF70BF93C689A
:1059FC002379002B00F0F3803368DD681B6905EB1D
:105A0C00C303039304F1140A04F1280B039BAB4268
:105A1C0023D0D5F80090504609F11401FFF799F9FD
:105A2C00002800F0E18009F128015846FFF791F9B0
:105A3C00002800F0D980236823F47F41D9F8003086
:105A4C0023F47F43994240F0CF8020236B4A139379
:105A5C0000230092149313AABDE004F128052846F4
:105A6C00FFF745F918B966492846FFF764F933681A
:105A7C00D3F800905B6809EBC30AD145294608D0DE
:105A8C00D9F80000FFF765F9002837D109F10809AA
:105A9C00F3E706A8FFF770FF13AA2B4604F1380CA6
:105AAC00964618685968154603C5083363452A4657
:105ABC00F7D118682860069A002314327146012029
:105ACC00FEF76AFD00287ED1356806A90BA8FFF702
:105ADC00E3FB28460BA9FFF70CFE05460CA8FFF7C5
:105AEC00E5FB002D6FD032685368126803F1005348
:105AFC00013B07A802EBC309FFF7D8FB04F114051F
:105B0C002846FFF7F4F868B93E4B3D491A88013234
:105B1C0092B21A8013A80123FFF7D5F813A92846CF
:105B2C00FFF7FEF84FF02C0A5246002113A800F0A4
:105B3C00F0FE012306AAADF84C30ADF84EA02B4672
:105B4C0004F1240C1546186859689646AEE8030013
:105B5C00083363457246F6D11868CEF800000FCDB5
:105B6C000DF1580EAEE80F002B68CEF800302379FB
:105B7C008DF85030D9F800309B8AADF86C30E36B5F
:105B8C0015930022204B1C93A11D13A81D94FEF706
:105B9C002BFD20BB01232370346839460C340BA831
:105BAC00FFF76CFB20460BA9FFF710FE04460CA870
:105BBC00FFF77CFB9CB920230B93144B00930C94A4
:105BCC0023460BAA07E039464046FFF757FB07A8C8
:105BDC00FFF76CFB0AE00E493220FEF755FE394602
:105BEC004046FFF74BFB01E008350FE705A8FFF730
:105BFC0017F840461FB0BDE8F08F00BF016D0D00D7
:105C0C007C6B0D00DCE3032095510D00DA6C0D006C
:105C1C008C6B0D00024800230360FEF72DBD00BF06
:105C2C00E0E30320F8B506460D468F180024BD426C
:105C3C000CD0336815F8011B9B6830469847002838
:105C4C0001DB0444F3E7002C08BF04462046F8BDF2
:105C5C0070B505460C46084649B100F08BFE2B6822
:105C6C00024621462846DB68BDE87040184770BDE7
:105C7C0003689B68184738B50D210546FFF7F8FFF8
:105C8C000A2104462846FFF7F3FF204438BD38B5F7
:105C9C000546FFF7DDFF04462846FFF7ECFF2044DE
:105CAC0038BD30B58BB00B4600218DF82410012A7D
:105CBC0098BF0A220DF12304B3FBF2F505FB123356
:105CCC0003F0FF03092B94BF30333733DBB221468B
:105CDC0004F801392B46002DEED1FFF7B9FF0BB0BC
:105CEC0030BD10B42AB903685DF8044B9B68C9B287
:105CFC001847D2B25DF8044BFFF7D3BFFFF7F1BFE3
:105D0C00014B024A1A607047E4E303209F6D0D00BB
:105D1C00024B1A68024B1A60704700BF04E3032061
:105D2C00E8E3032010B58368044613B1032201464F
:105D3C009847204610BD10B50446FFF7F3FF2046E8
:105D4C0010BD10B50446FEF787FD844208D01CB187
:105D5C00BDE81040FEF768BDBDE81040FEF76CBD15
:105D6C0010BD70B505460E461446FEF775FD50B1D4
:105D7C0044EA062040EA0540FEF74EFDE720BDE868
:105D8C007040FEF771BD70BD10B50C46FEF75CFDA2
:105D9C00FEF762FD28B124B1E720BDE81040FEF704
:105DAC0063BD10BD0348044A04490023836000F01E
:105DBC001DBC00BFECE303206CE30320435D0D002E
:105DCC0008B50F4B33B100F041F903681B699847D4
:105DDC0000280DDC0B4B33B100F0BAF903681B69DA
:105DEC009847002807DC084B43B1AFF3008008BD8F
:105DFC00AFF30080EEE7AFF30080F4E708BD00BF1F
:105E0C0000000000000000000000000008B5FFF7D3
:105E1C00D7FFFEF78FFB014B186008BD34E703205A
:105E2C0007B5002300931A466FF07701FEF746FD85
:105E3C0003B05DF804FB000007B543880A2B08D0BB
:105E4C00502B09D1094B1B683BB103B05DF804EB37
:105E5C001847FFF7E5FF06E0002300931A466FF0A2
:105E6C007701FEF72BFD03B05DF804FBFCE3032088
:105E7C0010B5FEF74FFB044600F054FD074B13B171
:105E8C002046AFF3008000210448FEF771FD00218D
:105E9C000348BDE81040FEF707BD00BF000000003E
:105EAC00455E0D00704710B51821044600F0A3FBA9
:105EBC00204610BDF0B5037D062B8DB00E4600F1CB
:105ECC0004074FF0000402D000F1080518E00CADF7
:105EDC00394605F8304D2F232A460A20FEF7E4FBFD
:105EEC00284600F047FD33680246DB6829463046F9
:105EFC0098470FE024B12E213046FFF7B9FE044439
:105F0C0015F8011D0A223046FFF7F8FEBD42044485
:105F1C00F0D120460DB0F0BD10B5054B0446112252
:105F2C0040F8043B002100F0F4FC204610BD00BFFB
:105F3C00406E0D000346074A10B543F8042B01F1DF
:105F4C00100251F8044B43F8044B9142F9D10A78F2
:105F5C001A7010BD406E0D0010B59DF8084044EA53
:105F6C00032343EA024242EA0161042341600375C0
:105F7C0010BD37B50D788B784A78C97800912946D1
:105F8C00FFF7EAFF03B030BD41747047704708B5A6
:105F9C000021007CFEF728FC30EA200028BF4FF0DF
:105FAC00FF3008BD08B50121007CFEF71DFC30EA6E
:105FBC00200028BF4FF0FF3008BD08B5007CFEF76D
:105FCC000BFC20EAE07008BD08B5007CFEF7FCFB7A
:105FDC0020EAE07008BD007CFEF716BC10B5142159
:105FEC00044600F008FB204610BD38B50446007C82
:105FFC000D46FEF7F1FB002801DC607C28B1294638
:10600C00207CFEF7F9FB20EAE07038BD10B50446A1
:10601C00002363604FF47A73A360054B2360012364
:10602C000846217463741146FEF7BEFB204610BD72
:10603C00546E0D000022007CFEF7BEBB10B514227E
:10604C000446002100F065FC204610BD30B50E4D15
:10605C0087B001A8FFF7F2FF296811F0010410D1F5
:10606C002846FEF718F860B101AA21460748FFF749
:10607C00CDFF2846FEF714F8054A0649034800F000
:10608C00B5FA024807B030BD00E4032004E4032055
:10609C006CE30320995F0D0070474174704708B59D
:1060AC00007CFEF741FB20EAE07008BD08B5007CDF
:1060BC00FEF712FB20EAE07008BD08B5007CFEF785
:1060CC001BFB30EA200028BF4FF0FF3008BD08B59D
:1060DC00007CFEF709FB30EA200028BF4FF0FF30B0
:1060EC0008BD007CFEF710BB10B51421044600F06F
:1060FC0082FA204610BD70B5457C04460E4625B983
:10610C00007CFEF711FB002805DD3146207CBDE844
:10611C007040FEF7D9BA284670BD000010B5044691
:10612C0008461146002262604FF47A72A260054A5A
:10613C0022600122207462741A46FEF7BDFA2046D2
:10614C0010BD00BF846E0D00007CFEF7E5BA0000A8
:10615C0038B50C4D296811F0010411D12846FDF712
:10616C009AFF68B1084A094B09482146FFF7D6FF48
:10617C002846FDF795FF074A0749054800F036FA0F
:10618C00034838BDB0E40320B4E403202CE403201E
:10619C0018E403206CE30320A5600D007047F8B5EC
:1061AC00064615460C468F18BC4206D0336814F8C8
:1061BC00011B9B6830469847F6E72846F8BD00223D
:1061CC00007CFEF7B9BA0021007CFEF7BDBA0021B5
:1061DC00007CFEF7C1BA0021007CFEF7C5BA002195
:1061EC00007CFEF7C9BA10B51421044600F003FA7E
:1061FC00204610BD10B504464FF47A730846A360D0
:10620C000021044B207461602360FEF7C5FA204620
:10621C0010BD00BFB46E0D000021007CFEF7B4BAB7
:10622C00002211464068FEF78BBB002211464068E5
:10623C00FEF796BB00224068FEF78ABB002281F075
:10624C0001014068FEF774BB00231A460121406827
:10625C00FEF766BB00231A4619464068FEF758BB8A
:10626C00002211464068FEF74BBB002211464068E5
:10627C00FEF736BB002202214068FEF739BB002333
:10628C001A464068FEF724BB38B5054688B1046849
:10629C004CB1A3681BB1032221462046984710211C
:1062AC00204600F0A8F928461421BDE8384000F03B
:1062BC00A2B938BD10B103685B681847704710B5B8
:1062CC0003680446BBB15868FEF7B6F978B9236881
:1062DC005A7C12B95868FEF7B7F923685868FEF76C
:1062EC00BBF920680023236028B1FFF7CDFF20689D
:1062FC0008B1FFF7C9FF204610BD000038B50C4BA4
:10630C0003600446D0F8CC0108B1FDF7C2FED4F806
:10631C00C45135B12846FFF7D2FF0421284600F0BE
:10632C006AF9A06808B1FFF7C5FF204638BD00BF69
:10633C00DC6E0D0038B50E4C0E4B2360002502238D
:10634C0004F5E4706360A560C4F8C451C4F8C85186
:10635C00FEF792F9084BC4F8CC5184F8D051236065
:10636C002046064A0649BDE8384000F03FB900BF58
:10637C0038E50320106F0D00DC6E0D006CE303207C
:10638C0009630D0000231A464068FEF7A1BA0022EB
:10639C0002214068FEF7ACBA002211464068FEF7B5
:1063AC009FBA002211464068FEF7AABA00231A468B
:1063BC0019464068FEF7ACBA00231A4619464068E5
:1063CC00FEF7AEBA002281F001014068FEF7B0BAC8
:1063DC0000224068FEF7BCBA002211464068FEF766
:1063EC00BFBA002211464068FEF7AABA2DE9F04365
:1063FC00002495B016460D460746FFF78DFD214645
:10640C0020220CA8009400F084FA40230C9321461F
:10641C006B460CAA3046FEF745F80446002844D1DA
:10642C00024601216868FEF76BFA0221804622467B
:10643C006868FEF765FA009E81462146002E34D02E
:10644C00002932D17368022B02D00A2B09D02AE022
:10645C00B8F1000F27D0716938460431FFF789FD78
:10646C0020E0B9F1000F1ED07469112201A800F0D0
:10647C0050FA06238DF8143001AD04F108031834DA
:10648C00186859682A4603C20833A3421546F7D147
:10649C0001A906A807ADFFF74DFD0FCD3C1D0FC49C
:1064AC002B6823700121F669C8E70098FDF7F2FF0D
:1064BC00384615B0BDE8F083024B034A1A6000223F
:1064CC005A6070470CE70320106F0D0010B504469E
:1064DC000F48FEF7C7FA28B1A4F10B03022B01D821
:1064EC00002010BD00F062F8FFF796FE08B1012CF9
:1064FC00F6D9FFF72DFEFFF727FE18B1A4F109031B
:10650C00012BEDD91E2C8CBF0020012010BD00BF2B
:10651C0014E703201E2838B504460D460AD8FF2977
:10652C0008D0FFF7D3FF28B129462046BDE83840F4
:10653C00FDF7C8BF38BD38B504460D46FDF7CAFF98
:10654C00FF2810D0062804D84D2323FA00F0C307E7
:10655C0009D42046FFF7BAFF28B129462046BDE8EA
:10656C003840FDF7BFBF38BD70B50C4C0C4E0D4D0F
:10657C0000212046FEF762FA20460B4C3246294693
:10658C0000F034F801212046FEF758FA324629462D
:10659C002046BDE8704000F029B800BF14E7032086
:1065AC006CE30320394A0D0024E7032038B50B4D6A
:1065BC00296811F001040FD12846FDF76CFD58B184
:1065CC0021460748FFF716FE2846FDF769FD054AE8
:1065DC000549034800F00AF8014838BD38E70320A4
:1065EC003CE703206CE30320A9610D000B46014638
:1065FC00184600F04BB9FDF74ABD0000184B1A685D
:10660C00D1075CBF01221A60164B1A68D2075CBF17
:10661C0001221A60144B1A68D0075CBF01221A6061
:10662C00124B1A68D1075CBF01221A60104B1A6812
:10663C00D2075CBF01221A600E4B1A68D0075CBFF0
:10664C0001221A600C4B1A68D1075CBF01221A6038
:10665C000A4B1A68D2075CBF01221A60704700BF50
:10666C006CE7032068E7032064E7032060E703205E
:10667C005CE7032058E7032054E7032050E703208E
:10668C00244B1A68D0075CBF01221A60224B1A688F
:10669C00D1075CBF01221A60204B1A68D2075CBF7D
:1066AC0001221A601E4B1A68D0075CBF01221A60C7
:1066BC001C4B1A68D1075CBF01221A601A4B1A686E
:1066CC00D2075CBF01221A60184B1A68D0075CBF56
:1066DC0001221A60164B1A68D1075CBF01221A609E
:1066EC00144B1A68D2075CBF01221A60124B1A684D
:1066FC00D0075CBF01221A60104B1A68D1075CBF2F
:10670C0001221A600E4B1A68D2075CBF01221A6074
:10671C00704700BF9CE7032098E7032094E7032011
:10672C0090E703208CE7032088E7032084E703200D
:10673C0080E703207CE7032078E7032074E703203D
:10674C0070E70320244B1A68D0075CBF01221A6043
:10675C00224B1A68D1075CBF01221A60204B1A68C1
:10676C00D2075CBF01221A601E4B1A68D0075CBFAF
:10677C0001221A601C4B1A68D1075CBF01221A60F7
:10678C001A4B1A68D2075CBF01221A60184B1A68A0
:10679C00D0075CBF01221A60164B1A68D1075CBF88
:1067AC0001221A60144B1A68D2075CBF01221A60CE
:1067BC00124B1A68D0075CBF01221A60104B1A6882
:1067CC00D1075CBF01221A600E4B1A68D2075CBF5E
:1067DC0001221A60704700BFCCE70320C8E70320F2
:1067EC00C4E70320C0E70320BCE70320B8E703207D
:1067FC00B4E70320B0E70320ACE70320A8E70320AD
:10680C00A4E70320A0E70320184B1A68D1075CBF4C
:10681C0001221A60164B1A68D2075CBF01221A605B
:10682C00144B1A68D0075CBF01221A60124B1A680D
:10683C00D1075CBF01221A60104B1A68D2075CBFEB
:10684C0001221A600E4B1A68D0075CBF01221A6035
:10685C000C4B1A68D1075CBF01221A600A4B1A68EC
:10686C00D2075CBF01221A60704700BFECE703201F
:10687C00E8E70320E4E70320E0E70320DCE703205C
:10688C00D8E70320D4E70320D0E7032010B5054C4C
:10689C0013462CB10A4601460220AFF3008010BD0E
:1068AC00204610BD0000000010B501390244904292
:1068BC0007D010F8013B11F8014FA342F7D0181B79
:1068CC0010BD002010BD10B5431E0A44914204D0E7
:1068DC0011F8014B03F8014FF8E710BD884210B5D1
:1068EC0001EB020301D8421E0BE09842FBD2811847
:1068FC00D21AD34204D013F8014D01F8014DF8E738
:10690C0010BD994204D011F8014B02F8014FF8E781
:10691C0010BD02440346934202D003F8011BFAE770
:10692C007047000038B5124B1C68A36B0546D3B9F1
:10693C001820FEF725F843F20E33A06303804AF6C5
:10694C00CD33438041F2342383804EF26D63C38098
:10695C004DF6EC630381052343810B2383810122D4
:10696C000023C0E90423A36B00221D615A6138BDCA
:10697C0068E30320034613F8012B002AFBD1181AF5
:10698C000138704710B5034601448B4204D01A7885
:10699C005C1C0AB12346F8E7181A10BD1D400D0007
:1069AC0059400D0085400D0089400D00000000008D
:1069BC00426C7565746F6F746820436F6E6E65639F
:1069CC007465642100426C7565746F6F7468204443
:1069DC006973636F6E6E65637465642E003645343F
:1069EC0030303030302D423541332D463339332D54
:1069FC00453041392D4535304532344443434139D6
:106A0C004500307832413344004E616D650030787A
:106A1C0032413941005573657220496E64657800C6
:106A2C0036453430303030312D423541332D4633FC
:106A3C0039332D453041392D4535304532344443B9
:106A4C00434139450041636365737320456E616250
:106A5C006C65640036453430303030322D4235416F
:106A6C00332D463339332D453041392D453530459D
:106A7C0032344443434139450062003645343030AA
:106A8C003030332D423541332D463339332D45309B
:106A9C0041392D4535304532344443434139450065
:106AAC006D7943686172616374657269737469634B
:106ABC000036453430303030342D423541332D469C
:106ACC003339332D453041392D4535304532344439
:106ADC004343413945000000000000000000000065
:106AEC001B4A0D00114A0D00074A0D00FD490D000F
:106AFC00F1490D00E5490D00D9490D00D1490D00B2
:106B0C00C7490D00BD490D00F9630D0000000000E0
:106B1C0000000000394A0D003B4A0D000000000047
:106B2C0000000000734B0D00794B0D003D580D001B
:106B3C00A34B0D00754B0D00000000000000000081
:106B4C006D4B0D00874B0D0045590D00A74B0D00EB
:106B5C006F4B0D000000000000000000674B0D00A3
:106B6C00954B0D0027530D00AB4B0D00694B0D00E1
:106B7C007BE327747BF815ACDD49A913000072F593
:106B8C00776972696E672E626C65005374617274FA
:106B9C0020646973636F766572696E6720736572C2
:106BAC0076696365732E0053746172742064697323
:106BBC00636F766572696E67206368617261637476
:106BCC0065726973746963732E0050656572206415
:106BDC006576696365206973206D697373696E6787
:106BEC0021004661696C656420746F20617070656A
:106BFC006E6420706565722043656E7472616C20E2
:106C0C006465766963652E00436F6E6E65637465AB
:106C1C00642062792043656E7472616C20646576C1
:106C2C006963652E00446973636F6E6E656374658A
:106C3C00642062792072656D6F7465206465766975
:106C4C0063652E0043616E6E6F7420616464206E08
:106C5C0065772070656572206465766963652E00C2
:106C6C004E6577207065726970686572616C206919
:106C7C007320636F6E6E65637465642E0046616984
:106C8C006C656420746F20617070656E642064693B
:106C9C0073636F7665726564206368617261637497
:106CAC00657269737469632E004661696C65642052
:106CBC00746F20617070656E6420646973636F76A5
:106CCC006572656420736572766963652E00466132
:106CDC00696C656420746F20617070656E64206CE3
:106CEC006F63616C20636861726163746572697350
:106CFC007469632E004475706C69636174656420FB
:106D0C00636861726163746572697374696320632B
:106D1C00616E6E6F742062652061646465642E0020
:106D2C00626175640053657269616C0053657269C8
:106D3C00616C31007479706500706172616D006313
:106D4C006D6400696400686E64007374726D006633
:106D5C00696C74006C766C0061646448616E646C80
:106D6C0065720072656D6F766548616E646C6572F4
:106D7C0000656E756D48616E646C657273004A5384
:106D8C004F4E53747265616D4C6F6748616E646CE5
:106D9C0065720061707000253031307520005D2007
:106DAC00002564002C200028293A2000205B006379
:106DBC006F6465203D200025690064657461696C11
:106DCC0073203D20000D0A0066006C6E00666E009C
:106DDC00636F64650064657461696C006E6F6E65E9
:106DEC0000747261636500696E666F007761726E24
:106DFC00006572726F720070616E696300616C6C19
:106E0C00005A00252B3033643A2530327500255951
:106E1C002D256D2D25645425483A254D3A255325AD
:106E2C007A0061736374696D6500000000000000F6
:106E3C0000000000C15E0D00B15E0D00B35E0D00E0
:106E4C000000000000000000995F0D00E95F0D00DC
:106E5C00F75F0D00315C0D00D55F0D009B5F0D00E1
:106E6C00B15F0D00E35F0D00C75F0D00955F0D0076
:106E7C000000000000000000A5600D00F5600D0092
:106E8C0003610D00315C0D00B9600D00DB600D007D
:106E9C00C7600D00EF600D00A7600D00AB600D002A
:106EAC000000000000000000A9610D00F3610D005E
:106EBC00CB610D00AB610D00D3610D00DB610D00EA
:106ECC00E3610D00EB610D0000000000000000000C
:106EDC008B620D0081620D0077620D006D620D00FA
:106EEC0061620D0055620D0049620D0041620D009A
:106EFC0037620D002D620D00F9630D0000000000DB
:106F0C000000000091630D009B630D00A5630D0054
:106F1C00AF630D00B9630D00C5630D00D1630D00A7
:106F2C00DD630D00E5630D00EF630D00F9630D00EB
:106F3C000000000000000000000000000000000045
:106F4C000000000000000000000000000000000035
:106F5C000000000000000000000000000000000025
:106F6C000000000000000000000000000000000015
:106F7C000000000000000000000000000000000005
:106F8C0000000000000000000000000000000000F5
:106F9C00430000009D440D00254A0D00794A0D0068
:106FAC00215C0D000D5D0D001D5D0D00B15D0D0032
:106FBC0041630D00C5640D0075650D0009660D007B
:106FCC008D660D0051670D0015680D000000000066
:046FDC0000000000B1
:106FE000BD6A0D002E6E0D00000000003C6F0D000C
:106FF0005C6F0D007C6F0D000000000000000000C1
:1070000000000000000000009C6F0D000000000068
:107010000000000000000000000000000000000070
:107020000000000000000000000000000000000060
:107030000000000000000000000000000000000050
:0C704000000000000000000008E3032036
:10704C00FFFFFFFF00000102030405060708090A01
:10705C000B0C0D0E0F101112131415161718191AFC
:08706C001B1C1D1E1F20280043
:047074007856341204
:04000003D000401CCD
:00000001FF
